{
	"contracts/Voting.sol": {
		"Voting": {
			"abi": [
				{
					"inputs": [
						{
							"internalType": "address",
							"name": "owner",
							"type": "address"
						}
					],
					"name": "OwnableInvalidOwner",
					"type": "error"
				},
				{
					"inputs": [
						{
							"internalType": "address",
							"name": "account",
							"type": "address"
						}
					],
					"name": "OwnableUnauthorizedAccount",
					"type": "error"
				},
				{
					"anonymous": false,
					"inputs": [
						{
							"indexed": true,
							"internalType": "address",
							"name": "previousOwner",
							"type": "address"
						},
						{
							"indexed": true,
							"internalType": "address",
							"name": "newOwner",
							"type": "address"
						}
					],
					"name": "OwnershipTransferred",
					"type": "event"
				},
				{
					"anonymous": false,
					"inputs": [
						{
							"components": [
								{
									"internalType": "enum Voting.etat",
									"name": "etat",
									"type": "uint8"
								},
								{
									"internalType": "bool",
									"name": "isPublicProposal",
									"type": "bool"
								},
								{
									"components": [
										{
											"internalType": "string",
											"name": "description",
											"type": "string"
										},
										{
											"internalType": "uint256",
											"name": "voteCount",
											"type": "uint256"
										}
									],
									"internalType": "struct Voting.Proposal[]",
									"name": "lesProposition",
									"type": "tuple[]"
								}
							],
							"indexed": false,
							"internalType": "struct Voting.Session",
							"name": "",
							"type": "tuple"
						}
					],
					"name": "etatSession",
					"type": "event"
				},
				{
					"anonymous": false,
					"inputs": [
						{
							"components": [
								{
									"internalType": "string",
									"name": "description",
									"type": "string"
								},
								{
									"internalType": "uint256",
									"name": "voteCount",
									"type": "uint256"
								}
							],
							"indexed": false,
							"internalType": "struct Voting.Proposal",
							"name": "",
							"type": "tuple"
						}
					],
					"name": "newProposition",
					"type": "event"
				},
				{
					"inputs": [
						{
							"internalType": "address",
							"name": "_address",
							"type": "address"
						}
					],
					"name": "addVoter",
					"outputs": [],
					"stateMutability": "nonpayable",
					"type": "function"
				},
				{
					"inputs": [],
					"name": "closeProposition",
					"outputs": [],
					"stateMutability": "nonpayable",
					"type": "function"
				},
				{
					"inputs": [],
					"name": "closeVote",
					"outputs": [],
					"stateMutability": "nonpayable",
					"type": "function"
				},
				{
					"inputs": [],
					"name": "contabiliserVote",
					"outputs": [],
					"stateMutability": "nonpayable",
					"type": "function"
				},
				{
					"inputs": [],
					"name": "getSession",
					"outputs": [
						{
							"components": [
								{
									"internalType": "enum Voting.etat",
									"name": "etat",
									"type": "uint8"
								},
								{
									"internalType": "bool",
									"name": "isPublicProposal",
									"type": "bool"
								},
								{
									"components": [
										{
											"internalType": "string",
											"name": "description",
											"type": "string"
										},
										{
											"internalType": "uint256",
											"name": "voteCount",
											"type": "uint256"
										}
									],
									"internalType": "struct Voting.Proposal[]",
									"name": "lesProposition",
									"type": "tuple[]"
								}
							],
							"internalType": "struct Voting.Session",
							"name": "",
							"type": "tuple"
						}
					],
					"stateMutability": "view",
					"type": "function"
				},
				{
					"inputs": [],
					"name": "getWinner",
					"outputs": [
						{
							"components": [
								{
									"internalType": "string",
									"name": "description",
									"type": "string"
								},
								{
									"internalType": "uint256",
									"name": "voteCount",
									"type": "uint256"
								}
							],
							"internalType": "struct Voting.Proposal",
							"name": "",
							"type": "tuple"
						}
					],
					"stateMutability": "view",
					"type": "function"
				},
				{
					"inputs": [],
					"name": "openVote",
					"outputs": [],
					"stateMutability": "nonpayable",
					"type": "function"
				},
				{
					"inputs": [],
					"name": "owner",
					"outputs": [
						{
							"internalType": "address",
							"name": "",
							"type": "address"
						}
					],
					"stateMutability": "view",
					"type": "function"
				},
				{
					"inputs": [
						{
							"internalType": "string",
							"name": "_description",
							"type": "string"
						}
					],
					"name": "proposer",
					"outputs": [],
					"stateMutability": "nonpayable",
					"type": "function"
				},
				{
					"inputs": [],
					"name": "renounceOwnership",
					"outputs": [],
					"stateMutability": "nonpayable",
					"type": "function"
				},
				{
					"inputs": [
						{
							"internalType": "uint256",
							"name": "_ProposalId",
							"type": "uint256"
						}
					],
					"name": "setVote",
					"outputs": [],
					"stateMutability": "nonpayable",
					"type": "function"
				},
				{
					"inputs": [
						{
							"internalType": "bool",
							"name": "_publicProposal",
							"type": "bool"
						}
					],
					"name": "startSession",
					"outputs": [],
					"stateMutability": "nonpayable",
					"type": "function"
				},
				{
					"inputs": [
						{
							"internalType": "address",
							"name": "newOwner",
							"type": "address"
						}
					],
					"name": "transferOwnership",
					"outputs": [],
					"stateMutability": "nonpayable",
					"type": "function"
				},
				{
					"inputs": [
						{
							"internalType": "address",
							"name": "",
							"type": "address"
						}
					],
					"name": "whitelist",
					"outputs": [
						{
							"internalType": "bool",
							"name": "isRegistered",
							"type": "bool"
						},
						{
							"internalType": "bool",
							"name": "hasVoted",
							"type": "bool"
						},
						{
							"internalType": "uint256",
							"name": "votedProposalId",
							"type": "uint256"
						}
					],
					"stateMutability": "view",
					"type": "function"
				}
			],
			"devdoc": {
				"errors": {
					"OwnableInvalidOwner(address)": [
						{
							"details": "The owner is not a valid owner account. (eg. `address(0)`)"
						}
					],
					"OwnableUnauthorizedAccount(address)": [
						{
							"details": "The caller account is not authorized to perform an operation."
						}
					]
				},
				"kind": "dev",
				"methods": {
					"owner()": {
						"details": "Returns the address of the current owner."
					},
					"renounceOwnership()": {
						"details": "Leaves the contract without owner. It will not be possible to call `onlyOwner` functions. Can only be called by the current owner. NOTE: Renouncing ownership will leave the contract without an owner, thereby disabling any functionality that is only available to the owner."
					},
					"transferOwnership(address)": {
						"details": "Transfers ownership of the contract to a new account (`newOwner`). Can only be called by the current owner."
					}
				},
				"version": 1
			},
			"evm": {
				"assembly": "    /* \"contracts/Voting.sol\":130:3532  contract  Voting is Ownable(msg.sender) {... */\n  mstore(0x40, 0x80)\n    /* \"contracts/Voting.sol\":640:660  Voter(false,false,0) */\n  mload(0x40)\n  dup1\n  0x60\n  add\n  0x40\n  mstore\n  dup1\n    /* \"contracts/Voting.sol\":646:651  false */\n  0x00\n    /* \"contracts/Voting.sol\":640:660  Voter(false,false,0) */\n  iszero\n  iszero\n  dup2\n  mstore\n  0x20\n  add\n    /* \"contracts/Voting.sol\":652:657  false */\n  0x00\n    /* \"contracts/Voting.sol\":640:660  Voter(false,false,0) */\n  iszero\n  iszero\n  dup2\n  mstore\n  0x20\n  add\n    /* \"contracts/Voting.sol\":658:659  0 */\n  0x00\n    /* \"contracts/Voting.sol\":640:660  Voter(false,false,0) */\n  dup2\n  mstore\n  pop\n    /* \"contracts/Voting.sol\":620:660  Voter currentVote = Voter(false,false,0) */\n  0x03\n  0x00\n  dup3\n  add\n  mload\n  dup2\n  0x00\n  add\n  exp(0x0100, 0x00)\n  dup2\n  sload\n  dup2\n  0xff\n  mul\n  not\n  and\n  swap1\n  dup4\n  iszero\n  iszero\n  mul\n  or\n  swap1\n  sstore\n  pop\n  0x20\n  dup3\n  add\n  mload\n  dup2\n  0x00\n  add\n  exp(0x0100, 0x01)\n  dup2\n  sload\n  dup2\n  0xff\n  mul\n  not\n  and\n  swap1\n  dup4\n  iszero\n  iszero\n  mul\n  or\n  swap1\n  sstore\n  pop\n  0x40\n  dup3\n  add\n  mload\n  dup2\n  0x01\n  add\n  sstore\n  pop\n  pop\n    /* \"contracts/Voting.sol\":130:3532  contract  Voting is Ownable(msg.sender) {... */\n  callvalue\n  dup1\n  iszero\n  tag_1\n  jumpi\n  0x00\n  dup1\n  revert\ntag_1:\n  pop\n    /* \"contracts/Voting.sol\":158:168  msg.sender */\n  caller\n    /* \"@openzeppelin/contracts/access/Ownable.sol\":1297:1298  0 */\n  0x00\n    /* \"@openzeppelin/contracts/access/Ownable.sol\":1273:1299  initialOwner == address(0) */\n  0xffffffffffffffffffffffffffffffffffffffff\n  and\n    /* \"@openzeppelin/contracts/access/Ownable.sol\":1273:1285  initialOwner */\n  dup2\n    /* \"@openzeppelin/contracts/access/Ownable.sol\":1273:1299  initialOwner == address(0) */\n  0xffffffffffffffffffffffffffffffffffffffff\n  and\n  sub\n    /* \"@openzeppelin/contracts/access/Ownable.sol\":1269:1364  if (initialOwner == address(0)) {... */\n  tag_4\n  jumpi\n    /* \"@openzeppelin/contracts/access/Ownable.sol\":1350:1351  0 */\n  0x00\n    /* \"@openzeppelin/contracts/access/Ownable.sol\":1322:1353  OwnableInvalidOwner(address(0)) */\n  mload(0x40)\n  0x1e4fbdf700000000000000000000000000000000000000000000000000000000\n  dup2\n  mstore\n  0x04\n  add\n  tag_5\n  swap2\n  swap1\n  tag_6\n  jump\t// in\ntag_5:\n  mload(0x40)\n  dup1\n  swap2\n  sub\n  swap1\n  revert\n    /* \"@openzeppelin/contracts/access/Ownable.sol\":1269:1364  if (initialOwner == address(0)) {... */\ntag_4:\n    /* \"@openzeppelin/contracts/access/Ownable.sol\":1373:1405  _transferOwnership(initialOwner) */\n  tag_7\n    /* \"@openzeppelin/contracts/access/Ownable.sol\":1392:1404  initialOwner */\n  dup2\n    /* \"@openzeppelin/contracts/access/Ownable.sol\":1373:1391  _transferOwnership */\n  shl(0x20, tag_8)\n    /* \"@openzeppelin/contracts/access/Ownable.sol\":1373:1405  _transferOwnership(initialOwner) */\n  0x20\n  shr\n  jump\t// in\ntag_7:\n    /* \"@openzeppelin/contracts/access/Ownable.sol\":1225:1412  constructor(address initialOwner) {... */\n  pop\n    /* \"contracts/Voting.sol\":130:3532  contract  Voting is Ownable(msg.sender) {... */\n  jump(tag_9)\n    /* \"@openzeppelin/contracts/access/Ownable.sol\":2912:3099  function _transferOwnership(address newOwner) internal virtual {... */\ntag_8:\n    /* \"@openzeppelin/contracts/access/Ownable.sol\":2985:3001  address oldOwner */\n  0x00\n    /* \"@openzeppelin/contracts/access/Ownable.sol\":3004:3010  _owner */\n  dup1\n  0x00\n  swap1\n  sload\n  swap1\n  0x0100\n  exp\n  swap1\n  div\n  0xffffffffffffffffffffffffffffffffffffffff\n  and\n    /* \"@openzeppelin/contracts/access/Ownable.sol\":2985:3010  address oldOwner = _owner */\n  swap1\n  pop\n    /* \"@openzeppelin/contracts/access/Ownable.sol\":3029:3037  newOwner */\n  dup2\n    /* \"@openzeppelin/contracts/access/Ownable.sol\":3020:3026  _owner */\n  0x00\n  dup1\n    /* \"@openzeppelin/contracts/access/Ownable.sol\":3020:3037  _owner = newOwner */\n  0x0100\n  exp\n  dup2\n  sload\n  dup2\n  0xffffffffffffffffffffffffffffffffffffffff\n  mul\n  not\n  and\n  swap1\n  dup4\n  0xffffffffffffffffffffffffffffffffffffffff\n  and\n  mul\n  or\n  swap1\n  sstore\n  pop\n    /* \"@openzeppelin/contracts/access/Ownable.sol\":3083:3091  newOwner */\n  dup2\n    /* \"@openzeppelin/contracts/access/Ownable.sol\":3052:3092  OwnershipTransferred(oldOwner, newOwner) */\n  0xffffffffffffffffffffffffffffffffffffffff\n  and\n    /* \"@openzeppelin/contracts/access/Ownable.sol\":3073:3081  oldOwner */\n  dup2\n    /* \"@openzeppelin/contracts/access/Ownable.sol\":3052:3092  OwnershipTransferred(oldOwner, newOwner) */\n  0xffffffffffffffffffffffffffffffffffffffff\n  and\n  0x8be0079c531659141344cd1fd0a4f28419497f9722a3daafe3b4186f6b6457e0\n  mload(0x40)\n  mload(0x40)\n  dup1\n  swap2\n  sub\n  swap1\n  log3\n    /* \"@openzeppelin/contracts/access/Ownable.sol\":2975:3099  {... */\n  pop\n    /* \"@openzeppelin/contracts/access/Ownable.sol\":2912:3099  function _transferOwnership(address newOwner) internal virtual {... */\n  pop\n  jump\t// out\n    /* \"#utility.yul\":7:133   */\ntag_11:\n    /* \"#utility.yul\":44:51   */\n  0x00\n    /* \"#utility.yul\":84:126   */\n  0xffffffffffffffffffffffffffffffffffffffff\n    /* \"#utility.yul\":77:82   */\n  dup3\n    /* \"#utility.yul\":73:127   */\n  and\n    /* \"#utility.yul\":62:127   */\n  swap1\n  pop\n    /* \"#utility.yul\":7:133   */\n  swap2\n  swap1\n  pop\n  jump\t// out\n    /* \"#utility.yul\":139:235   */\ntag_12:\n    /* \"#utility.yul\":176:183   */\n  0x00\n    /* \"#utility.yul\":205:229   */\n  tag_17\n    /* \"#utility.yul\":223:228   */\n  dup3\n    /* \"#utility.yul\":205:229   */\n  tag_11\n  jump\t// in\ntag_17:\n    /* \"#utility.yul\":194:229   */\n  swap1\n  pop\n    /* \"#utility.yul\":139:235   */\n  swap2\n  swap1\n  pop\n  jump\t// out\n    /* \"#utility.yul\":241:359   */\ntag_13:\n    /* \"#utility.yul\":328:352   */\n  tag_19\n    /* \"#utility.yul\":346:351   */\n  dup2\n    /* \"#utility.yul\":328:352   */\n  tag_12\n  jump\t// in\ntag_19:\n    /* \"#utility.yul\":323:326   */\n  dup3\n    /* \"#utility.yul\":316:353   */\n  mstore\n    /* \"#utility.yul\":241:359   */\n  pop\n  pop\n  jump\t// out\n    /* \"#utility.yul\":365:587   */\ntag_6:\n    /* \"#utility.yul\":458:462   */\n  0x00\n    /* \"#utility.yul\":496:498   */\n  0x20\n    /* \"#utility.yul\":485:494   */\n  dup3\n    /* \"#utility.yul\":481:499   */\n  add\n    /* \"#utility.yul\":473:499   */\n  swap1\n  pop\n    /* \"#utility.yul\":509:580   */\n  tag_21\n    /* \"#utility.yul\":577:578   */\n  0x00\n    /* \"#utility.yul\":566:575   */\n  dup4\n    /* \"#utility.yul\":562:579   */\n  add\n    /* \"#utility.yul\":553:559   */\n  dup5\n    /* \"#utility.yul\":509:580   */\n  tag_13\n  jump\t// in\ntag_21:\n    /* \"#utility.yul\":365:587   */\n  swap3\n  swap2\n  pop\n  pop\n  jump\t// out\n    /* \"contracts/Voting.sol\":130:3532  contract  Voting is Ownable(msg.sender) {... */\ntag_9:\n  dataSize(sub_0)\n  dup1\n  dataOffset(sub_0)\n  0x00\n  codecopy\n  0x00\n  return\nstop\n\nsub_0: assembly {\n        /* \"contracts/Voting.sol\":130:3532  contract  Voting is Ownable(msg.sender) {... */\n      mstore(0x40, 0x80)\n      callvalue\n      dup1\n      iszero\n      tag_1\n      jumpi\n      0x00\n      dup1\n      revert\n    tag_1:\n      pop\n      jumpi(tag_2, lt(calldatasize, 0x04))\n      shr(0xe0, calldataload(0x00))\n      dup1\n      0x8e7ea5b2\n      gt\n      tag_17\n      jumpi\n      dup1\n      0xd107d8c2\n      gt\n      tag_18\n      jumpi\n      dup1\n      0xd107d8c2\n      eq\n      tag_13\n      jumpi\n      dup1\n      0xe3473084\n      eq\n      tag_14\n      jumpi\n      dup1\n      0xf2fde38b\n      eq\n      tag_15\n      jumpi\n      dup1\n      0xf4ab9adf\n      eq\n      tag_16\n      jumpi\n      jump(tag_2)\n    tag_18:\n      dup1\n      0x8e7ea5b2\n      eq\n      tag_10\n      jumpi\n      dup1\n      0x9b19251a\n      eq\n      tag_11\n      jumpi\n      dup1\n      0xab31e9ae\n      eq\n      tag_12\n      jumpi\n      jump(tag_2)\n    tag_17:\n      dup1\n      0x715018a6\n      gt\n      tag_19\n      jumpi\n      dup1\n      0x715018a6\n      eq\n      tag_6\n      jumpi\n      dup1\n      0x7909e08c\n      eq\n      tag_7\n      jumpi\n      dup1\n      0x8626256e\n      eq\n      tag_8\n      jumpi\n      dup1\n      0x8da5cb5b\n      eq\n      tag_9\n      jumpi\n      jump(tag_2)\n    tag_19:\n      dup1\n      0x230796ae\n      eq\n      tag_3\n      jumpi\n      dup1\n      0x25a89188\n      eq\n      tag_4\n      jumpi\n      dup1\n      0x329d3346\n      eq\n      tag_5\n      jumpi\n    tag_2:\n      0x00\n      dup1\n      revert\n        /* \"contracts/Voting.sol\":2153:2426  function setVote(uint _ProposalId) public{... */\n    tag_3:\n      tag_20\n      0x04\n      dup1\n      calldatasize\n      sub\n      dup2\n      add\n      swap1\n      tag_21\n      swap2\n      swap1\n      tag_22\n      jump\t// in\n    tag_21:\n      tag_23\n      jump\t// in\n    tag_20:\n      stop\n        /* \"contracts/Voting.sol\":2848:3323  function contabiliserVote()public onlyOwner {... */\n    tag_4:\n      tag_24\n      tag_25\n      jump\t// in\n    tag_24:\n      stop\n        /* \"contracts/Voting.sol\":1918:2145  function closeVote() public onlyOwner  {... */\n    tag_5:\n      tag_26\n      tag_27\n      jump\t// in\n    tag_26:\n      stop\n        /* \"@openzeppelin/contracts/access/Ownable.sol\":2293:2394  function renounceOwnership() public virtual onlyOwner {... */\n    tag_6:\n      tag_28\n      tag_29\n      jump\t// in\n    tag_28:\n      stop\n        /* \"contracts/Voting.sol\":3330:3434  function getSession()public view returns (Voting.Session memory){... */\n    tag_7:\n      tag_30\n      tag_31\n      jump\t// in\n    tag_30:\n      mload(0x40)\n      tag_32\n      swap2\n      swap1\n      tag_33\n      jump\t// in\n    tag_32:\n      mload(0x40)\n      dup1\n      swap2\n      sub\n      swap1\n      return\n        /* \"contracts/Voting.sol\":1422:1667  function closeProposition() public onlyOwner {... */\n    tag_8:\n      tag_34\n      tag_35\n      jump\t// in\n    tag_34:\n      stop\n        /* \"@openzeppelin/contracts/access/Ownable.sol\":1638:1723  function owner() public view virtual returns (address) {... */\n    tag_9:\n      tag_36\n      tag_37\n      jump\t// in\n    tag_36:\n      mload(0x40)\n      tag_38\n      swap2\n      swap1\n      tag_39\n      jump\t// in\n    tag_38:\n      mload(0x40)\n      dup1\n      swap2\n      sub\n      swap1\n      return\n        /* \"contracts/Voting.sol\":3440:3529  function getWinner()public view  returns(Proposal memory){... */\n    tag_10:\n      tag_40\n      tag_41\n      jump\t// in\n    tag_40:\n      mload(0x40)\n      tag_42\n      swap2\n      swap1\n      tag_43\n      jump\t// in\n    tag_42:\n      mload(0x40)\n      dup1\n      swap2\n      sub\n      swap1\n      return\n        /* \"contracts/Voting.sol\":725:767  mapping (address =>Voter) public whitelist */\n    tag_11:\n      tag_44\n      0x04\n      dup1\n      calldatasize\n      sub\n      dup2\n      add\n      swap1\n      tag_45\n      swap2\n      swap1\n      tag_46\n      jump\t// in\n    tag_45:\n      tag_47\n      jump\t// in\n    tag_44:\n      mload(0x40)\n      tag_48\n      swap4\n      swap3\n      swap2\n      swap1\n      tag_49\n      jump\t// in\n    tag_48:\n      mload(0x40)\n      dup1\n      swap2\n      sub\n      swap1\n      return\n        /* \"contracts/Voting.sol\":2432:2840  function proposer(string calldata _description ) isWhiteList public {... */\n    tag_12:\n      tag_50\n      0x04\n      dup1\n      calldatasize\n      sub\n      dup2\n      add\n      swap1\n      tag_51\n      swap2\n      swap1\n      tag_52\n      jump\t// in\n    tag_51:\n      tag_53\n      jump\t// in\n    tag_50:\n      stop\n        /* \"contracts/Voting.sol\":1673:1912  function openVote() public onlyOwner  {... */\n    tag_13:\n      tag_54\n      tag_55\n      jump\t// in\n    tag_54:\n      stop\n        /* \"contracts/Voting.sol\":1153:1414  function startSession(bool _publicProposal) public onlyOwner {... */\n    tag_14:\n      tag_56\n      0x04\n      dup1\n      calldatasize\n      sub\n      dup2\n      add\n      swap1\n      tag_57\n      swap2\n      swap1\n      tag_58\n      jump\t// in\n    tag_57:\n      tag_59\n      jump\t// in\n    tag_56:\n      stop\n        /* \"@openzeppelin/contracts/access/Ownable.sol\":2543:2758  function transferOwnership(address newOwner) public virtual onlyOwner {... */\n    tag_15:\n      tag_60\n      0x04\n      dup1\n      calldatasize\n      sub\n      dup2\n      add\n      swap1\n      tag_61\n      swap2\n      swap1\n      tag_46\n      jump\t// in\n    tag_61:\n      tag_62\n      jump\t// in\n    tag_60:\n      stop\n        /* \"contracts/Voting.sol\":980:1145  function addVoter(address _address)public onlyOwner() {... */\n    tag_16:\n      tag_63\n      0x04\n      dup1\n      calldatasize\n      sub\n      dup2\n      add\n      swap1\n      tag_64\n      swap2\n      swap1\n      tag_46\n      jump\t// in\n    tag_64:\n      tag_65\n      jump\t// in\n    tag_63:\n      stop\n        /* \"contracts/Voting.sol\":2153:2426  function setVote(uint _ProposalId) public{... */\n    tag_23:\n        /* \"contracts/Voting.sol\":2213:2222  whitelist */\n      0x09\n        /* \"contracts/Voting.sol\":2213:2234  whitelist[msg.sender] */\n      0x00\n        /* \"contracts/Voting.sol\":2223:2233  msg.sender */\n      caller\n        /* \"contracts/Voting.sol\":2213:2234  whitelist[msg.sender] */\n      0xffffffffffffffffffffffffffffffffffffffff\n      and\n      0xffffffffffffffffffffffffffffffffffffffff\n      and\n      dup2\n      mstore\n      0x20\n      add\n      swap1\n      dup2\n      mstore\n      0x20\n      add\n      0x00\n      keccak256\n        /* \"contracts/Voting.sol\":2213:2247  whitelist[msg.sender].isRegistered */\n      0x00\n      add\n      0x00\n      swap1\n      sload\n      swap1\n      0x0100\n      exp\n      swap1\n      div\n      0xff\n      and\n        /* \"contracts/Voting.sol\":2213:2280  whitelist[msg.sender].isRegistered&& currentSession.etat==etat.vote */\n      dup1\n      iszero\n      tag_67\n      jumpi\n      pop\n        /* \"contracts/Voting.sol\":2271:2280  etat.vote */\n      0x02\n        /* \"contracts/Voting.sol\":2250:2280  currentSession.etat==etat.vote */\n      0x03\n      dup2\n      gt\n      iszero\n      tag_68\n      jumpi\n      tag_69\n      tag_70\n      jump\t// in\n    tag_69:\n    tag_68:\n        /* \"contracts/Voting.sol\":2250:2264  currentSession */\n      0x05\n        /* \"contracts/Voting.sol\":2250:2269  currentSession.etat */\n      0x00\n      add\n      0x00\n      swap1\n      sload\n      swap1\n      0x0100\n      exp\n      swap1\n      div\n      0xff\n      and\n        /* \"contracts/Voting.sol\":2250:2280  currentSession.etat==etat.vote */\n      0x03\n      dup2\n      gt\n      iszero\n      tag_71\n      jumpi\n      tag_72\n      tag_70\n      jump\t// in\n    tag_72:\n    tag_71:\n      eq\n        /* \"contracts/Voting.sol\":2213:2280  whitelist[msg.sender].isRegistered&& currentSession.etat==etat.vote */\n    tag_67:\n        /* \"contracts/Voting.sol\":2213:2304  whitelist[msg.sender].isRegistered&& currentSession.etat==etat.vote &&!currentVote.hasVoted */\n      dup1\n      iszero\n      tag_73\n      jumpi\n      pop\n        /* \"contracts/Voting.sol\":2284:2295  currentVote */\n      0x03\n        /* \"contracts/Voting.sol\":2284:2304  currentVote.hasVoted */\n      0x00\n      add\n      0x01\n      swap1\n      sload\n      swap1\n      0x0100\n      exp\n      swap1\n      div\n      0xff\n      and\n        /* \"contracts/Voting.sol\":2283:2304  !currentVote.hasVoted */\n      iszero\n        /* \"contracts/Voting.sol\":2213:2304  whitelist[msg.sender].isRegistered&& currentSession.etat==etat.vote &&!currentVote.hasVoted */\n    tag_73:\n        /* \"contracts/Voting.sol\":2205:2306  require(whitelist[msg.sender].isRegistered&& currentSession.etat==etat.vote &&!currentVote.hasVoted ) */\n      tag_74\n      jumpi\n      0x00\n      dup1\n      revert\n    tag_74:\n        /* \"contracts/Voting.sol\":2371:2372  1 */\n      0x01\n        /* \"contracts/Voting.sol\":2317:2331  currentSession */\n      0x05\n        /* \"contracts/Voting.sol\":2317:2346  currentSession.lesProposition */\n      0x01\n      add\n        /* \"contracts/Voting.sol\":2347:2358  _ProposalId */\n      dup3\n        /* \"contracts/Voting.sol\":2317:2359  currentSession.lesProposition[_ProposalId] */\n      dup2\n      sload\n      dup2\n      lt\n      tag_75\n      jumpi\n      tag_76\n      tag_77\n      jump\t// in\n    tag_76:\n    tag_75:\n      swap1\n      0x00\n      mstore\n      keccak256(0x00, 0x20)\n      swap1\n      0x02\n      mul\n      add\n        /* \"contracts/Voting.sol\":2317:2369  currentSession.lesProposition[_ProposalId].voteCount */\n      0x01\n      add\n      0x00\n        /* \"contracts/Voting.sol\":2317:2372  currentSession.lesProposition[_ProposalId].voteCount+=1 */\n      dup3\n      dup3\n      sload\n      tag_79\n      swap2\n      swap1\n      tag_80\n      jump\t// in\n    tag_79:\n      swap3\n      pop\n      pop\n      dup2\n      swap1\n      sstore\n      pop\n        /* \"contracts/Voting.sol\":2404:2408  true */\n      0x01\n        /* \"contracts/Voting.sol\":2383:2394  currentVote */\n      0x03\n        /* \"contracts/Voting.sol\":2383:2403  currentVote.hasVoted */\n      0x00\n      add\n      0x01\n        /* \"contracts/Voting.sol\":2383:2408  currentVote.hasVoted=true */\n      0x0100\n      exp\n      dup2\n      sload\n      dup2\n      0xff\n      mul\n      not\n      and\n      swap1\n      dup4\n      iszero\n      iszero\n      mul\n      or\n      swap1\n      sstore\n      pop\n        /* \"contracts/Voting.sol\":2153:2426  function setVote(uint _ProposalId) public{... */\n      pop\n      jump\t// out\n        /* \"contracts/Voting.sol\":2848:3323  function contabiliserVote()public onlyOwner {... */\n    tag_25:\n        /* \"@openzeppelin/contracts/access/Ownable.sol\":1531:1544  _checkOwner() */\n      tag_82\n        /* \"@openzeppelin/contracts/access/Ownable.sol\":1531:1542  _checkOwner */\n      tag_83\n        /* \"@openzeppelin/contracts/access/Ownable.sol\":1531:1544  _checkOwner() */\n      jump\t// in\n    tag_82:\n        /* \"contracts/Voting.sol\":2903:2909  uint i */\n      0x00\n        /* \"contracts/Voting.sol\":2910:2911  1 */\n      0x01\n        /* \"contracts/Voting.sol\":2903:2911  uint i=1 */\n      swap1\n      pop\n        /* \"contracts/Voting.sol\":2922:2930  uint max */\n      0x00\n        /* \"contracts/Voting.sol\":2932:2946  currentSession */\n      0x05\n        /* \"contracts/Voting.sol\":2932:2961  currentSession.lesProposition */\n      0x01\n      add\n        /* \"contracts/Voting.sol\":2962:2963  0 */\n      0x00\n        /* \"contracts/Voting.sol\":2932:2964  currentSession.lesProposition[0] */\n      dup2\n      sload\n      dup2\n      lt\n      tag_85\n      jumpi\n      tag_86\n      tag_77\n      jump\t// in\n    tag_86:\n    tag_85:\n      swap1\n      0x00\n      mstore\n      keccak256(0x00, 0x20)\n      swap1\n      0x02\n      mul\n      add\n        /* \"contracts/Voting.sol\":2932:2974  currentSession.lesProposition[0].voteCount */\n      0x01\n      add\n      sload\n        /* \"contracts/Voting.sol\":2922:2974  uint max =currentSession.lesProposition[0].voteCount */\n      swap1\n      pop\n        /* \"contracts/Voting.sol\":2992:3006  currentSession */\n      0x05\n        /* \"contracts/Voting.sol\":2992:3021  currentSession.lesProposition */\n      0x01\n      add\n        /* \"contracts/Voting.sol\":3022:3023  0 */\n      0x00\n        /* \"contracts/Voting.sol\":2992:3024  currentSession.lesProposition[0] */\n      dup2\n      sload\n      dup2\n      lt\n      tag_88\n      jumpi\n      tag_89\n      tag_77\n      jump\t// in\n    tag_89:\n    tag_88:\n      swap1\n      0x00\n      mstore\n      keccak256(0x00, 0x20)\n      swap1\n      0x02\n      mul\n      add\n        /* \"contracts/Voting.sol\":2985:2991  winner */\n      0x07\n        /* \"contracts/Voting.sol\":2985:3024  winner=currentSession.lesProposition[0] */\n      0x00\n      dup3\n      add\n      dup2\n      0x00\n      add\n      swap1\n      dup2\n      tag_91\n      swap2\n      swap1\n      tag_92\n      jump\t// in\n    tag_91:\n      pop\n      0x01\n      dup3\n      add\n      sload\n      dup2\n      0x01\n      add\n      sstore\n      swap1\n      pop\n      pop\n        /* \"contracts/Voting.sol\":3035:3306  for (i; i < currentSession.lesProposition.length ; i++) {... */\n    tag_93:\n        /* \"contracts/Voting.sol\":3047:3061  currentSession */\n      0x05\n        /* \"contracts/Voting.sol\":3047:3076  currentSession.lesProposition */\n      0x01\n      add\n        /* \"contracts/Voting.sol\":3047:3083  currentSession.lesProposition.length */\n      dup1\n      sload\n      swap1\n      pop\n        /* \"contracts/Voting.sol\":3043:3044  i */\n      dup3\n        /* \"contracts/Voting.sol\":3043:3083  i < currentSession.lesProposition.length */\n      lt\n        /* \"contracts/Voting.sol\":3035:3306  for (i; i < currentSession.lesProposition.length ; i++) {... */\n      iszero\n      tag_94\n      jumpi\n        /* \"contracts/Voting.sol\":3114:3128  currentSession */\n      0x05\n        /* \"contracts/Voting.sol\":3114:3143  currentSession.lesProposition */\n      0x01\n      add\n        /* \"contracts/Voting.sol\":3144:3145  i */\n      dup3\n        /* \"contracts/Voting.sol\":3114:3146  currentSession.lesProposition[i] */\n      dup2\n      sload\n      dup2\n      lt\n      tag_96\n      jumpi\n      tag_97\n      tag_77\n      jump\t// in\n    tag_97:\n    tag_96:\n      swap1\n      0x00\n      mstore\n      keccak256(0x00, 0x20)\n      swap1\n      0x02\n      mul\n      add\n        /* \"contracts/Voting.sol\":3114:3156  currentSession.lesProposition[i].voteCount */\n      0x01\n      add\n      sload\n        /* \"contracts/Voting.sol\":3108:3111  max */\n      dup2\n        /* \"contracts/Voting.sol\":3108:3156  max > currentSession.lesProposition[i].voteCount */\n      gt\n        /* \"contracts/Voting.sol\":3105:3295  if(max > currentSession.lesProposition[i].voteCount){... */\n      iszero\n      tag_99\n      jumpi\n        /* \"contracts/Voting.sol\":3180:3194  currentSession */\n      0x05\n        /* \"contracts/Voting.sol\":3180:3209  currentSession.lesProposition */\n      0x01\n      add\n        /* \"contracts/Voting.sol\":3210:3211  i */\n      dup3\n        /* \"contracts/Voting.sol\":3180:3212  currentSession.lesProposition[i] */\n      dup2\n      sload\n      dup2\n      lt\n      tag_100\n      jumpi\n      tag_101\n      tag_77\n      jump\t// in\n    tag_101:\n    tag_100:\n      swap1\n      0x00\n      mstore\n      keccak256(0x00, 0x20)\n      swap1\n      0x02\n      mul\n      add\n        /* \"contracts/Voting.sol\":3180:3222  currentSession.lesProposition[i].voteCount */\n      0x01\n      add\n      sload\n        /* \"contracts/Voting.sol\":3176:3222  max=currentSession.lesProposition[i].voteCount */\n      swap1\n      pop\n        /* \"contracts/Voting.sol\":3248:3262  currentSession */\n      0x05\n        /* \"contracts/Voting.sol\":3248:3277  currentSession.lesProposition */\n      0x01\n      add\n        /* \"contracts/Voting.sol\":3278:3279  i */\n      dup3\n        /* \"contracts/Voting.sol\":3248:3280  currentSession.lesProposition[i] */\n      dup2\n      sload\n      dup2\n      lt\n      tag_103\n      jumpi\n      tag_104\n      tag_77\n      jump\t// in\n    tag_104:\n    tag_103:\n      swap1\n      0x00\n      mstore\n      keccak256(0x00, 0x20)\n      swap1\n      0x02\n      mul\n      add\n        /* \"contracts/Voting.sol\":3241:3247  winner */\n      0x07\n        /* \"contracts/Voting.sol\":3241:3280  winner=currentSession.lesProposition[i] */\n      0x00\n      dup3\n      add\n      dup2\n      0x00\n      add\n      swap1\n      dup2\n      tag_106\n      swap2\n      swap1\n      tag_92\n      jump\t// in\n    tag_106:\n      pop\n      0x01\n      dup3\n      add\n      sload\n      dup2\n      0x01\n      add\n      sstore\n      swap1\n      pop\n      pop\n        /* \"contracts/Voting.sol\":3105:3295  if(max > currentSession.lesProposition[i].voteCount){... */\n    tag_99:\n        /* \"contracts/Voting.sol\":3086:3089  i++ */\n      dup2\n      dup1\n      tag_107\n      swap1\n      tag_108\n      jump\t// in\n    tag_107:\n      swap3\n      pop\n      pop\n        /* \"contracts/Voting.sol\":3035:3306  for (i; i < currentSession.lesProposition.length ; i++) {... */\n      jump(tag_93)\n    tag_94:\n        /* \"contracts/Voting.sol\":2892:3323  {... */\n      pop\n      pop\n        /* \"contracts/Voting.sol\":2848:3323  function contabiliserVote()public onlyOwner {... */\n      jump\t// out\n        /* \"contracts/Voting.sol\":1918:2145  function closeVote() public onlyOwner  {... */\n    tag_27:\n        /* \"@openzeppelin/contracts/access/Ownable.sol\":1531:1544  _checkOwner() */\n      tag_110\n        /* \"@openzeppelin/contracts/access/Ownable.sol\":1531:1542  _checkOwner */\n      tag_83\n        /* \"@openzeppelin/contracts/access/Ownable.sol\":1531:1544  _checkOwner() */\n      jump\t// in\n    tag_110:\n        /* \"contracts/Voting.sol\":1997:2006  etat.vote */\n      0x02\n        /* \"contracts/Voting.sol\":1976:2006  currentSession.etat==etat.vote */\n      0x03\n      dup2\n      gt\n      iszero\n      tag_112\n      jumpi\n      tag_113\n      tag_70\n      jump\t// in\n    tag_113:\n    tag_112:\n        /* \"contracts/Voting.sol\":1976:1990  currentSession */\n      0x05\n        /* \"contracts/Voting.sol\":1976:1995  currentSession.etat */\n      0x00\n      add\n      0x00\n      swap1\n      sload\n      swap1\n      0x0100\n      exp\n      swap1\n      div\n      0xff\n      and\n        /* \"contracts/Voting.sol\":1976:2006  currentSession.etat==etat.vote */\n      0x03\n      dup2\n      gt\n      iszero\n      tag_114\n      jumpi\n      tag_115\n      tag_70\n      jump\t// in\n    tag_115:\n    tag_114:\n      eq\n        /* \"contracts/Voting.sol\":1968:2047  require(currentSession.etat==etat.vote,\"Session need be in vote status before\") */\n      tag_116\n      jumpi\n      mload(0x40)\n      0x08c379a000000000000000000000000000000000000000000000000000000000\n      dup2\n      mstore\n      0x04\n      add\n      tag_117\n      swap1\n      tag_118\n      jump\t// in\n    tag_117:\n      mload(0x40)\n      dup1\n      swap2\n      sub\n      swap1\n      revert\n    tag_116:\n        /* \"contracts/Voting.sol\":2080:2094  etat.closevote */\n      0x03\n        /* \"contracts/Voting.sol\":2058:2072  currentSession */\n      0x05\n        /* \"contracts/Voting.sol\":2058:2077  currentSession.etat */\n      0x00\n      add\n      0x00\n        /* \"contracts/Voting.sol\":2058:2094  currentSession.etat = etat.closevote */\n      0x0100\n      exp\n      dup2\n      sload\n      dup2\n      0xff\n      mul\n      not\n      and\n      swap1\n      dup4\n      0x03\n      dup2\n      gt\n      iszero\n      tag_119\n      jumpi\n      tag_120\n      tag_70\n      jump\t// in\n    tag_120:\n    tag_119:\n      mul\n      or\n      swap1\n      sstore\n      pop\n        /* \"contracts/Voting.sol\":2110:2137  etatSession(currentSession) */\n      0xba0b491ab01b63dd081ea11b638bfcd4781aca6b8dbd885aed6584a7e21ee6e2\n        /* \"contracts/Voting.sol\":2122:2136  currentSession */\n      0x05\n        /* \"contracts/Voting.sol\":2110:2137  etatSession(currentSession) */\n      mload(0x40)\n      tag_121\n      swap2\n      swap1\n      tag_122\n      jump\t// in\n    tag_121:\n      mload(0x40)\n      dup1\n      swap2\n      sub\n      swap1\n      log1\n        /* \"contracts/Voting.sol\":1918:2145  function closeVote() public onlyOwner  {... */\n      jump\t// out\n        /* \"@openzeppelin/contracts/access/Ownable.sol\":2293:2394  function renounceOwnership() public virtual onlyOwner {... */\n    tag_29:\n        /* \"@openzeppelin/contracts/access/Ownable.sol\":1531:1544  _checkOwner() */\n      tag_124\n        /* \"@openzeppelin/contracts/access/Ownable.sol\":1531:1542  _checkOwner */\n      tag_83\n        /* \"@openzeppelin/contracts/access/Ownable.sol\":1531:1544  _checkOwner() */\n      jump\t// in\n    tag_124:\n        /* \"@openzeppelin/contracts/access/Ownable.sol\":2357:2387  _transferOwnership(address(0)) */\n      tag_126\n        /* \"@openzeppelin/contracts/access/Ownable.sol\":2384:2385  0 */\n      0x00\n        /* \"@openzeppelin/contracts/access/Ownable.sol\":2357:2375  _transferOwnership */\n      tag_127\n        /* \"@openzeppelin/contracts/access/Ownable.sol\":2357:2387  _transferOwnership(address(0)) */\n      jump\t// in\n    tag_126:\n        /* \"@openzeppelin/contracts/access/Ownable.sol\":2293:2394  function renounceOwnership() public virtual onlyOwner {... */\n      jump\t// out\n        /* \"contracts/Voting.sol\":3330:3434  function getSession()public view returns (Voting.Session memory){... */\n    tag_31:\n        /* \"contracts/Voting.sol\":3372:3393  Voting.Session memory */\n      tag_128\n      tag_129\n      jump\t// in\n    tag_128:\n        /* \"contracts/Voting.sol\":3412:3426  currentSession */\n      0x05\n        /* \"contracts/Voting.sol\":3405:3426  return currentSession */\n      mload(0x40)\n      dup1\n      0x60\n      add\n      0x40\n      mstore\n      swap1\n      dup2\n      0x00\n      dup3\n      add\n      0x00\n      swap1\n      sload\n      swap1\n      0x0100\n      exp\n      swap1\n      div\n      0xff\n      and\n      0x03\n      dup2\n      gt\n      iszero\n      tag_131\n      jumpi\n      tag_132\n      tag_70\n      jump\t// in\n    tag_132:\n    tag_131:\n      0x03\n      dup2\n      gt\n      iszero\n      tag_133\n      jumpi\n      tag_134\n      tag_70\n      jump\t// in\n    tag_134:\n    tag_133:\n      dup2\n      mstore\n      0x20\n      add\n      0x00\n      dup3\n      add\n      0x01\n      swap1\n      sload\n      swap1\n      0x0100\n      exp\n      swap1\n      div\n      0xff\n      and\n      iszero\n      iszero\n      iszero\n      iszero\n      dup2\n      mstore\n      0x20\n      add\n      0x01\n      dup3\n      add\n      dup1\n      sload\n      dup1\n      0x20\n      mul\n      0x20\n      add\n      mload(0x40)\n      swap1\n      dup2\n      add\n      0x40\n      mstore\n      dup1\n      swap3\n      swap2\n      swap1\n      dup2\n      dup2\n      mstore\n      0x20\n      add\n      0x00\n      swap1\n    tag_135:\n      dup3\n      dup3\n      lt\n      iszero\n      tag_136\n      jumpi\n      dup4\n      dup3\n      swap1\n      0x00\n      mstore\n      keccak256(0x00, 0x20)\n      swap1\n      0x02\n      mul\n      add\n      mload(0x40)\n      dup1\n      0x40\n      add\n      0x40\n      mstore\n      swap1\n      dup2\n      0x00\n      dup3\n      add\n      dup1\n      sload\n      tag_138\n      swap1\n      tag_139\n      jump\t// in\n    tag_138:\n      dup1\n      0x1f\n      add\n      0x20\n      dup1\n      swap2\n      div\n      mul\n      0x20\n      add\n      mload(0x40)\n      swap1\n      dup2\n      add\n      0x40\n      mstore\n      dup1\n      swap3\n      swap2\n      swap1\n      dup2\n      dup2\n      mstore\n      0x20\n      add\n      dup3\n      dup1\n      sload\n      tag_140\n      swap1\n      tag_139\n      jump\t// in\n    tag_140:\n      dup1\n      iszero\n      tag_141\n      jumpi\n      dup1\n      0x1f\n      lt\n      tag_142\n      jumpi\n      0x0100\n      dup1\n      dup4\n      sload\n      div\n      mul\n      dup4\n      mstore\n      swap2\n      0x20\n      add\n      swap2\n      jump(tag_141)\n    tag_142:\n      dup3\n      add\n      swap2\n      swap1\n      0x00\n      mstore\n      keccak256(0x00, 0x20)\n      swap1\n    tag_143:\n      dup2\n      sload\n      dup2\n      mstore\n      swap1\n      0x01\n      add\n      swap1\n      0x20\n      add\n      dup1\n      dup4\n      gt\n      tag_143\n      jumpi\n      dup3\n      swap1\n      sub\n      0x1f\n      and\n      dup3\n      add\n      swap2\n    tag_141:\n      pop\n      pop\n      pop\n      pop\n      pop\n      dup2\n      mstore\n      0x20\n      add\n      0x01\n      dup3\n      add\n      sload\n      dup2\n      mstore\n      pop\n      pop\n      dup2\n      mstore\n      0x20\n      add\n      swap1\n      0x01\n      add\n      swap1\n      jump(tag_135)\n    tag_136:\n      pop\n      pop\n      pop\n      pop\n      dup2\n      mstore\n      pop\n      pop\n      swap1\n      pop\n        /* \"contracts/Voting.sol\":3330:3434  function getSession()public view returns (Voting.Session memory){... */\n      swap1\n      jump\t// out\n        /* \"contracts/Voting.sol\":1422:1667  function closeProposition() public onlyOwner {... */\n    tag_35:\n        /* \"@openzeppelin/contracts/access/Ownable.sol\":1531:1544  _checkOwner() */\n      tag_145\n        /* \"@openzeppelin/contracts/access/Ownable.sol\":1531:1542  _checkOwner */\n      tag_83\n        /* \"@openzeppelin/contracts/access/Ownable.sol\":1531:1544  _checkOwner() */\n      jump\t// in\n    tag_145:\n        /* \"contracts/Voting.sol\":1507:1520  etat.register */\n      0x00\n        /* \"contracts/Voting.sol\":1486:1520  currentSession.etat==etat.register */\n      0x03\n      dup2\n      gt\n      iszero\n      tag_147\n      jumpi\n      tag_148\n      tag_70\n      jump\t// in\n    tag_148:\n    tag_147:\n        /* \"contracts/Voting.sol\":1486:1500  currentSession */\n      0x05\n        /* \"contracts/Voting.sol\":1486:1505  currentSession.etat */\n      0x00\n      add\n      0x00\n      swap1\n      sload\n      swap1\n      0x0100\n      exp\n      swap1\n      div\n      0xff\n      and\n        /* \"contracts/Voting.sol\":1486:1520  currentSession.etat==etat.register */\n      0x03\n      dup2\n      gt\n      iszero\n      tag_149\n      jumpi\n      tag_150\n      tag_70\n      jump\t// in\n    tag_150:\n    tag_149:\n      eq\n        /* \"contracts/Voting.sol\":1478:1565  require(currentSession.etat==etat.register,\"Session need be in register status before\") */\n      tag_151\n      jumpi\n      mload(0x40)\n      0x08c379a000000000000000000000000000000000000000000000000000000000\n      dup2\n      mstore\n      0x04\n      add\n      tag_152\n      swap1\n      tag_153\n      jump\t// in\n    tag_152:\n      mload(0x40)\n      dup1\n      swap2\n      sub\n      swap1\n      revert\n    tag_151:\n        /* \"contracts/Voting.sol\":1598:1616  etat.closeregister */\n      0x01\n        /* \"contracts/Voting.sol\":1576:1590  currentSession */\n      0x05\n        /* \"contracts/Voting.sol\":1576:1595  currentSession.etat */\n      0x00\n      add\n      0x00\n        /* \"contracts/Voting.sol\":1576:1616  currentSession.etat = etat.closeregister */\n      0x0100\n      exp\n      dup2\n      sload\n      dup2\n      0xff\n      mul\n      not\n      and\n      swap1\n      dup4\n      0x03\n      dup2\n      gt\n      iszero\n      tag_154\n      jumpi\n      tag_155\n      tag_70\n      jump\t// in\n    tag_155:\n    tag_154:\n      mul\n      or\n      swap1\n      sstore\n      pop\n        /* \"contracts/Voting.sol\":1632:1659  etatSession(currentSession) */\n      0xba0b491ab01b63dd081ea11b638bfcd4781aca6b8dbd885aed6584a7e21ee6e2\n        /* \"contracts/Voting.sol\":1644:1658  currentSession */\n      0x05\n        /* \"contracts/Voting.sol\":1632:1659  etatSession(currentSession) */\n      mload(0x40)\n      tag_156\n      swap2\n      swap1\n      tag_122\n      jump\t// in\n    tag_156:\n      mload(0x40)\n      dup1\n      swap2\n      sub\n      swap1\n      log1\n        /* \"contracts/Voting.sol\":1422:1667  function closeProposition() public onlyOwner {... */\n      jump\t// out\n        /* \"@openzeppelin/contracts/access/Ownable.sol\":1638:1723  function owner() public view virtual returns (address) {... */\n    tag_37:\n        /* \"@openzeppelin/contracts/access/Ownable.sol\":1684:1691  address */\n      0x00\n        /* \"@openzeppelin/contracts/access/Ownable.sol\":1710:1716  _owner */\n      dup1\n      0x00\n      swap1\n      sload\n      swap1\n      0x0100\n      exp\n      swap1\n      div\n      0xffffffffffffffffffffffffffffffffffffffff\n      and\n        /* \"@openzeppelin/contracts/access/Ownable.sol\":1703:1716  return _owner */\n      swap1\n      pop\n        /* \"@openzeppelin/contracts/access/Ownable.sol\":1638:1723  function owner() public view virtual returns (address) {... */\n      swap1\n      jump\t// out\n        /* \"contracts/Voting.sol\":3440:3529  function getWinner()public view  returns(Proposal memory){... */\n    tag_41:\n        /* \"contracts/Voting.sol\":3481:3496  Proposal memory */\n      tag_158\n      tag_159\n      jump\t// in\n    tag_158:\n        /* \"contracts/Voting.sol\":3515:3521  winner */\n      0x07\n        /* \"contracts/Voting.sol\":3508:3521  return winner */\n      mload(0x40)\n      dup1\n      0x40\n      add\n      0x40\n      mstore\n      swap1\n      dup2\n      0x00\n      dup3\n      add\n      dup1\n      sload\n      tag_161\n      swap1\n      tag_139\n      jump\t// in\n    tag_161:\n      dup1\n      0x1f\n      add\n      0x20\n      dup1\n      swap2\n      div\n      mul\n      0x20\n      add\n      mload(0x40)\n      swap1\n      dup2\n      add\n      0x40\n      mstore\n      dup1\n      swap3\n      swap2\n      swap1\n      dup2\n      dup2\n      mstore\n      0x20\n      add\n      dup3\n      dup1\n      sload\n      tag_162\n      swap1\n      tag_139\n      jump\t// in\n    tag_162:\n      dup1\n      iszero\n      tag_163\n      jumpi\n      dup1\n      0x1f\n      lt\n      tag_164\n      jumpi\n      0x0100\n      dup1\n      dup4\n      sload\n      div\n      mul\n      dup4\n      mstore\n      swap2\n      0x20\n      add\n      swap2\n      jump(tag_163)\n    tag_164:\n      dup3\n      add\n      swap2\n      swap1\n      0x00\n      mstore\n      keccak256(0x00, 0x20)\n      swap1\n    tag_165:\n      dup2\n      sload\n      dup2\n      mstore\n      swap1\n      0x01\n      add\n      swap1\n      0x20\n      add\n      dup1\n      dup4\n      gt\n      tag_165\n      jumpi\n      dup3\n      swap1\n      sub\n      0x1f\n      and\n      dup3\n      add\n      swap2\n    tag_163:\n      pop\n      pop\n      pop\n      pop\n      pop\n      dup2\n      mstore\n      0x20\n      add\n      0x01\n      dup3\n      add\n      sload\n      dup2\n      mstore\n      pop\n      pop\n      swap1\n      pop\n        /* \"contracts/Voting.sol\":3440:3529  function getWinner()public view  returns(Proposal memory){... */\n      swap1\n      jump\t// out\n        /* \"contracts/Voting.sol\":725:767  mapping (address =>Voter) public whitelist */\n    tag_47:\n      mstore(0x20, 0x09)\n      dup1\n      0x00\n      mstore\n      keccak256(0x00, 0x40)\n      0x00\n      swap2\n      pop\n      swap1\n      pop\n      dup1\n      0x00\n      add\n      0x00\n      swap1\n      sload\n      swap1\n      0x0100\n      exp\n      swap1\n      div\n      0xff\n      and\n      swap1\n      dup1\n      0x00\n      add\n      0x01\n      swap1\n      sload\n      swap1\n      0x0100\n      exp\n      swap1\n      div\n      0xff\n      and\n      swap1\n      dup1\n      0x01\n      add\n      sload\n      swap1\n      pop\n      dup4\n      jump\t// out\n        /* \"contracts/Voting.sol\":2432:2840  function proposer(string calldata _description ) isWhiteList public {... */\n    tag_53:\n        /* \"contracts/Voting.sol\":897:906  whitelist */\n      0x09\n        /* \"contracts/Voting.sol\":897:918  whitelist[msg.sender] */\n      0x00\n        /* \"contracts/Voting.sol\":907:917  msg.sender */\n      caller\n        /* \"contracts/Voting.sol\":897:918  whitelist[msg.sender] */\n      0xffffffffffffffffffffffffffffffffffffffff\n      and\n      0xffffffffffffffffffffffffffffffffffffffff\n      and\n      dup2\n      mstore\n      0x20\n      add\n      swap1\n      dup2\n      mstore\n      0x20\n      add\n      0x00\n      keccak256\n        /* \"contracts/Voting.sol\":897:931  whitelist[msg.sender].isRegistered */\n      0x00\n      add\n      0x00\n      swap1\n      sload\n      swap1\n      0x0100\n      exp\n      swap1\n      div\n      0xff\n      and\n        /* \"contracts/Voting.sol\":888:954  require( whitelist[msg.sender].isRegistered ,\"is not whitelisted\") */\n      tag_167\n      jumpi\n      mload(0x40)\n      0x08c379a000000000000000000000000000000000000000000000000000000000\n      dup2\n      mstore\n      0x04\n      add\n      tag_168\n      swap1\n      tag_169\n      jump\t// in\n    tag_168:\n      mload(0x40)\n      dup1\n      swap2\n      sub\n      swap1\n      revert\n    tag_167:\n        /* \"contracts/Voting.sol\":2514:2528  currentSession */\n      0x05\n        /* \"contracts/Voting.sol\":2514:2545  currentSession.isPublicProposal */\n      0x00\n      add\n      0x01\n      swap1\n      sload\n      swap1\n      0x0100\n      exp\n      swap1\n      div\n      0xff\n      and\n        /* \"contracts/Voting.sol\":2514:2568  currentSession.isPublicProposal || owner()==msg.sender */\n      dup1\n      tag_171\n      jumpi\n      pop\n        /* \"contracts/Voting.sol\":2558:2568  msg.sender */\n      caller\n        /* \"contracts/Voting.sol\":2549:2568  owner()==msg.sender */\n      0xffffffffffffffffffffffffffffffffffffffff\n      and\n        /* \"contracts/Voting.sol\":2549:2556  owner() */\n      tag_172\n        /* \"contracts/Voting.sol\":2549:2554  owner */\n      tag_37\n        /* \"contracts/Voting.sol\":2549:2556  owner() */\n      jump\t// in\n    tag_172:\n        /* \"contracts/Voting.sol\":2549:2568  owner()==msg.sender */\n      0xffffffffffffffffffffffffffffffffffffffff\n      and\n      eq\n        /* \"contracts/Voting.sol\":2514:2568  currentSession.isPublicProposal || owner()==msg.sender */\n    tag_171:\n        /* \"contracts/Voting.sol\":2511:2833  if(currentSession.isPublicProposal || owner()==msg.sender){... */\n      iszero\n      tag_173\n      jumpi\n        /* \"contracts/Voting.sol\":2633:2646  etat.register */\n      0x00\n        /* \"contracts/Voting.sol\":2610:2646  currentSession.etat == etat.register */\n      0x03\n      dup2\n      gt\n      iszero\n      tag_174\n      jumpi\n      tag_175\n      tag_70\n      jump\t// in\n    tag_175:\n    tag_174:\n        /* \"contracts/Voting.sol\":2610:2624  currentSession */\n      0x05\n        /* \"contracts/Voting.sol\":2610:2629  currentSession.etat */\n      0x00\n      add\n      0x00\n      swap1\n      sload\n      swap1\n      0x0100\n      exp\n      swap1\n      div\n      0xff\n      and\n        /* \"contracts/Voting.sol\":2610:2646  currentSession.etat == etat.register */\n      0x03\n      dup2\n      gt\n      iszero\n      tag_176\n      jumpi\n      tag_177\n      tag_70\n      jump\t// in\n    tag_177:\n    tag_176:\n      eq\n        /* \"contracts/Voting.sol\":2584:2661  require(... */\n      tag_178\n      jumpi\n      0x00\n      dup1\n      revert\n    tag_178:\n        /* \"contracts/Voting.sol\":2689:2714  Proposal(_description, 0) */\n      mload(0x40)\n      dup1\n      0x40\n      add\n      0x40\n      mstore\n      dup1\n        /* \"contracts/Voting.sol\":2698:2710  _description */\n      dup4\n      dup4\n        /* \"contracts/Voting.sol\":2689:2714  Proposal(_description, 0) */\n      dup1\n      dup1\n      0x1f\n      add\n      0x20\n      dup1\n      swap2\n      div\n      mul\n      0x20\n      add\n      mload(0x40)\n      swap1\n      dup2\n      add\n      0x40\n      mstore\n      dup1\n      swap4\n      swap3\n      swap2\n      swap1\n      dup2\n      dup2\n      mstore\n      0x20\n      add\n      dup4\n      dup4\n      dup1\n      dup3\n      dup5\n      calldatacopy\n      0x00\n      dup2\n      dup5\n      add\n      mstore\n      not(0x1f)\n      0x1f\n      dup3\n      add\n      and\n      swap1\n      pop\n      dup1\n      dup4\n      add\n      swap3\n      pop\n      pop\n      pop\n      pop\n      pop\n      pop\n      pop\n      dup2\n      mstore\n      0x20\n      add\n        /* \"contracts/Voting.sol\":2712:2713  0 */\n      0x00\n        /* \"contracts/Voting.sol\":2689:2714  Proposal(_description, 0) */\n      dup2\n      mstore\n      pop\n        /* \"contracts/Voting.sol\":2676:2686  newPorosal */\n      0x01\n        /* \"contracts/Voting.sol\":2676:2714  newPorosal = Proposal(_description, 0) */\n      0x00\n      dup3\n      add\n      mload\n      dup2\n      0x00\n      add\n      swap1\n      dup2\n      tag_179\n      swap2\n      swap1\n      tag_180\n      jump\t// in\n    tag_179:\n      pop\n      0x20\n      dup3\n      add\n      mload\n      dup2\n      0x01\n      add\n      sstore\n      swap1\n      pop\n      pop\n        /* \"contracts/Voting.sol\":2729:2743  currentSession */\n      0x05\n        /* \"contracts/Voting.sol\":2729:2758  currentSession.lesProposition */\n      0x01\n      add\n        /* \"contracts/Voting.sol\":2764:2774  newPorosal */\n      0x01\n        /* \"contracts/Voting.sol\":2729:2775  currentSession.lesProposition.push(newPorosal) */\n      swap1\n      dup1\n      0x01\n      dup2\n      sload\n      add\n      dup1\n      dup3\n      sstore\n      dup1\n      swap2\n      pop\n      pop\n      0x01\n      swap1\n      sub\n      swap1\n      0x00\n      mstore\n      keccak256(0x00, 0x20)\n      swap1\n      0x02\n      mul\n      add\n      0x00\n      swap1\n      swap2\n      swap1\n      swap2\n      swap1\n      swap2\n      pop\n      0x00\n      dup3\n      add\n      dup2\n      0x00\n      add\n      swap1\n      dup2\n      tag_182\n      swap2\n      swap1\n      tag_92\n      jump\t// in\n    tag_182:\n      pop\n      0x01\n      dup3\n      add\n      sload\n      dup2\n      0x01\n      add\n      sstore\n      pop\n      pop\n        /* \"contracts/Voting.sol\":2795:2821  newProposition(newPorosal) */\n      0xc90604c068b8efd40fc7abb985d0a8c41192ff10cd393403f3dddf0c39e5a1d9\n        /* \"contracts/Voting.sol\":2810:2820  newPorosal */\n      0x01\n        /* \"contracts/Voting.sol\":2795:2821  newProposition(newPorosal) */\n      mload(0x40)\n      tag_183\n      swap2\n      swap1\n      tag_184\n      jump\t// in\n    tag_183:\n      mload(0x40)\n      dup1\n      swap2\n      sub\n      swap1\n      log1\n        /* \"contracts/Voting.sol\":2511:2833  if(currentSession.isPublicProposal || owner()==msg.sender){... */\n    tag_173:\n        /* \"contracts/Voting.sol\":2432:2840  function proposer(string calldata _description ) isWhiteList public {... */\n      pop\n      pop\n      jump\t// out\n        /* \"contracts/Voting.sol\":1673:1912  function openVote() public onlyOwner  {... */\n    tag_55:\n        /* \"@openzeppelin/contracts/access/Ownable.sol\":1531:1544  _checkOwner() */\n      tag_186\n        /* \"@openzeppelin/contracts/access/Ownable.sol\":1531:1542  _checkOwner */\n      tag_83\n        /* \"@openzeppelin/contracts/access/Ownable.sol\":1531:1544  _checkOwner() */\n      jump\t// in\n    tag_186:\n        /* \"contracts/Voting.sol\":1751:1769  etat.closeregister */\n      0x01\n        /* \"contracts/Voting.sol\":1730:1769  currentSession.etat==etat.closeregister */\n      0x03\n      dup2\n      gt\n      iszero\n      tag_188\n      jumpi\n      tag_189\n      tag_70\n      jump\t// in\n    tag_189:\n    tag_188:\n        /* \"contracts/Voting.sol\":1730:1744  currentSession */\n      0x05\n        /* \"contracts/Voting.sol\":1730:1749  currentSession.etat */\n      0x00\n      add\n      0x00\n      swap1\n      sload\n      swap1\n      0x0100\n      exp\n      swap1\n      div\n      0xff\n      and\n        /* \"contracts/Voting.sol\":1730:1769  currentSession.etat==etat.closeregister */\n      0x03\n      dup2\n      gt\n      iszero\n      tag_190\n      jumpi\n      tag_191\n      tag_70\n      jump\t// in\n    tag_191:\n    tag_190:\n      eq\n        /* \"contracts/Voting.sol\":1722:1819  require(currentSession.etat==etat.closeregister,\"Session need be in closeregister status before\") */\n      tag_192\n      jumpi\n      mload(0x40)\n      0x08c379a000000000000000000000000000000000000000000000000000000000\n      dup2\n      mstore\n      0x04\n      add\n      tag_193\n      swap1\n      tag_194\n      jump\t// in\n    tag_193:\n      mload(0x40)\n      dup1\n      swap2\n      sub\n      swap1\n      revert\n    tag_192:\n        /* \"contracts/Voting.sol\":1852:1861  etat.vote */\n      0x02\n        /* \"contracts/Voting.sol\":1830:1844  currentSession */\n      0x05\n        /* \"contracts/Voting.sol\":1830:1849  currentSession.etat */\n      0x00\n      add\n      0x00\n        /* \"contracts/Voting.sol\":1830:1861  currentSession.etat = etat.vote */\n      0x0100\n      exp\n      dup2\n      sload\n      dup2\n      0xff\n      mul\n      not\n      and\n      swap1\n      dup4\n      0x03\n      dup2\n      gt\n      iszero\n      tag_195\n      jumpi\n      tag_196\n      tag_70\n      jump\t// in\n    tag_196:\n    tag_195:\n      mul\n      or\n      swap1\n      sstore\n      pop\n        /* \"contracts/Voting.sol\":1877:1904  etatSession(currentSession) */\n      0xba0b491ab01b63dd081ea11b638bfcd4781aca6b8dbd885aed6584a7e21ee6e2\n        /* \"contracts/Voting.sol\":1889:1903  currentSession */\n      0x05\n        /* \"contracts/Voting.sol\":1877:1904  etatSession(currentSession) */\n      mload(0x40)\n      tag_197\n      swap2\n      swap1\n      tag_122\n      jump\t// in\n    tag_197:\n      mload(0x40)\n      dup1\n      swap2\n      sub\n      swap1\n      log1\n        /* \"contracts/Voting.sol\":1673:1912  function openVote() public onlyOwner  {... */\n      jump\t// out\n        /* \"contracts/Voting.sol\":1153:1414  function startSession(bool _publicProposal) public onlyOwner {... */\n    tag_59:\n        /* \"@openzeppelin/contracts/access/Ownable.sol\":1531:1544  _checkOwner() */\n      tag_199\n        /* \"@openzeppelin/contracts/access/Ownable.sol\":1531:1542  _checkOwner */\n      tag_83\n        /* \"@openzeppelin/contracts/access/Ownable.sol\":1531:1544  _checkOwner() */\n      jump\t// in\n    tag_199:\n        /* \"contracts/Voting.sol\":1257:1261  true */\n      0x01\n        /* \"contracts/Voting.sol\":1225:1234  whitelist */\n      0x09\n        /* \"contracts/Voting.sol\":1225:1243  whitelist[owner()] */\n      0x00\n        /* \"contracts/Voting.sol\":1235:1242  owner() */\n      tag_201\n        /* \"contracts/Voting.sol\":1235:1240  owner */\n      tag_37\n        /* \"contracts/Voting.sol\":1235:1242  owner() */\n      jump\t// in\n    tag_201:\n        /* \"contracts/Voting.sol\":1225:1243  whitelist[owner()] */\n      0xffffffffffffffffffffffffffffffffffffffff\n      and\n      0xffffffffffffffffffffffffffffffffffffffff\n      and\n      dup2\n      mstore\n      0x20\n      add\n      swap1\n      dup2\n      mstore\n      0x20\n      add\n      0x00\n      keccak256\n        /* \"contracts/Voting.sol\":1225:1256  whitelist[owner()].isRegistered */\n      0x00\n      add\n      0x00\n        /* \"contracts/Voting.sol\":1225:1261  whitelist[owner()].isRegistered=true */\n      0x0100\n      exp\n      dup2\n      sload\n      dup2\n      0xff\n      mul\n      not\n      and\n      swap1\n      dup4\n      iszero\n      iszero\n      mul\n      or\n      swap1\n      sstore\n      pop\n        /* \"contracts/Voting.sol\":1292:1305  etat.register */\n      0x00\n        /* \"contracts/Voting.sol\":1272:1286  currentSession */\n      0x05\n        /* \"contracts/Voting.sol\":1272:1291  currentSession.etat */\n      0x00\n      add\n      0x00\n        /* \"contracts/Voting.sol\":1272:1305  currentSession.etat=etat.register */\n      0x0100\n      exp\n      dup2\n      sload\n      dup2\n      0xff\n      mul\n      not\n      and\n      swap1\n      dup4\n      0x03\n      dup2\n      gt\n      iszero\n      tag_202\n      jumpi\n      tag_203\n      tag_70\n      jump\t// in\n    tag_203:\n    tag_202:\n      mul\n      or\n      swap1\n      sstore\n      pop\n        /* \"contracts/Voting.sol\":1348:1363  _publicProposal */\n      dup1\n        /* \"contracts/Voting.sol\":1316:1330  currentSession */\n      0x05\n        /* \"contracts/Voting.sol\":1316:1347  currentSession.isPublicProposal */\n      0x00\n      add\n      0x01\n        /* \"contracts/Voting.sol\":1316:1363  currentSession.isPublicProposal=_publicProposal */\n      0x0100\n      exp\n      dup2\n      sload\n      dup2\n      0xff\n      mul\n      not\n      and\n      swap1\n      dup4\n      iszero\n      iszero\n      mul\n      or\n      swap1\n      sstore\n      pop\n        /* \"contracts/Voting.sol\":1379:1406  etatSession(currentSession) */\n      0xba0b491ab01b63dd081ea11b638bfcd4781aca6b8dbd885aed6584a7e21ee6e2\n        /* \"contracts/Voting.sol\":1391:1405  currentSession */\n      0x05\n        /* \"contracts/Voting.sol\":1379:1406  etatSession(currentSession) */\n      mload(0x40)\n      tag_204\n      swap2\n      swap1\n      tag_122\n      jump\t// in\n    tag_204:\n      mload(0x40)\n      dup1\n      swap2\n      sub\n      swap1\n      log1\n        /* \"contracts/Voting.sol\":1153:1414  function startSession(bool _publicProposal) public onlyOwner {... */\n      pop\n      jump\t// out\n        /* \"@openzeppelin/contracts/access/Ownable.sol\":2543:2758  function transferOwnership(address newOwner) public virtual onlyOwner {... */\n    tag_62:\n        /* \"@openzeppelin/contracts/access/Ownable.sol\":1531:1544  _checkOwner() */\n      tag_206\n        /* \"@openzeppelin/contracts/access/Ownable.sol\":1531:1542  _checkOwner */\n      tag_83\n        /* \"@openzeppelin/contracts/access/Ownable.sol\":1531:1544  _checkOwner() */\n      jump\t// in\n    tag_206:\n        /* \"@openzeppelin/contracts/access/Ownable.sol\":2647:2648  0 */\n      0x00\n        /* \"@openzeppelin/contracts/access/Ownable.sol\":2627:2649  newOwner == address(0) */\n      0xffffffffffffffffffffffffffffffffffffffff\n      and\n        /* \"@openzeppelin/contracts/access/Ownable.sol\":2627:2635  newOwner */\n      dup2\n        /* \"@openzeppelin/contracts/access/Ownable.sol\":2627:2649  newOwner == address(0) */\n      0xffffffffffffffffffffffffffffffffffffffff\n      and\n      sub\n        /* \"@openzeppelin/contracts/access/Ownable.sol\":2623:2714  if (newOwner == address(0)) {... */\n      tag_208\n      jumpi\n        /* \"@openzeppelin/contracts/access/Ownable.sol\":2700:2701  0 */\n      0x00\n        /* \"@openzeppelin/contracts/access/Ownable.sol\":2672:2703  OwnableInvalidOwner(address(0)) */\n      mload(0x40)\n      0x1e4fbdf700000000000000000000000000000000000000000000000000000000\n      dup2\n      mstore\n      0x04\n      add\n      tag_209\n      swap2\n      swap1\n      tag_39\n      jump\t// in\n    tag_209:\n      mload(0x40)\n      dup1\n      swap2\n      sub\n      swap1\n      revert\n        /* \"@openzeppelin/contracts/access/Ownable.sol\":2623:2714  if (newOwner == address(0)) {... */\n    tag_208:\n        /* \"@openzeppelin/contracts/access/Ownable.sol\":2723:2751  _transferOwnership(newOwner) */\n      tag_210\n        /* \"@openzeppelin/contracts/access/Ownable.sol\":2742:2750  newOwner */\n      dup2\n        /* \"@openzeppelin/contracts/access/Ownable.sol\":2723:2741  _transferOwnership */\n      tag_127\n        /* \"@openzeppelin/contracts/access/Ownable.sol\":2723:2751  _transferOwnership(newOwner) */\n      jump\t// in\n    tag_210:\n        /* \"@openzeppelin/contracts/access/Ownable.sol\":2543:2758  function transferOwnership(address newOwner) public virtual onlyOwner {... */\n      pop\n      jump\t// out\n        /* \"contracts/Voting.sol\":980:1145  function addVoter(address _address)public onlyOwner() {... */\n    tag_65:\n        /* \"@openzeppelin/contracts/access/Ownable.sol\":1531:1544  _checkOwner() */\n      tag_212\n        /* \"@openzeppelin/contracts/access/Ownable.sol\":1531:1542  _checkOwner */\n      tag_83\n        /* \"@openzeppelin/contracts/access/Ownable.sol\":1531:1544  _checkOwner() */\n      jump\t// in\n    tag_212:\n        /* \"contracts/Voting.sol\":1054:1063  whitelist */\n      0x09\n        /* \"contracts/Voting.sol\":1054:1073  whitelist[_address] */\n      0x00\n        /* \"contracts/Voting.sol\":1064:1072  _address */\n      dup3\n        /* \"contracts/Voting.sol\":1054:1073  whitelist[_address] */\n      0xffffffffffffffffffffffffffffffffffffffff\n      and\n      0xffffffffffffffffffffffffffffffffffffffff\n      and\n      dup2\n      mstore\n      0x20\n      add\n      swap1\n      dup2\n      mstore\n      0x20\n      add\n      0x00\n      keccak256\n        /* \"contracts/Voting.sol\":1054:1086  whitelist[_address].isRegistered */\n      0x00\n      add\n      0x00\n      swap1\n      sload\n      swap1\n      0x0100\n      exp\n      swap1\n      div\n      0xff\n      and\n        /* \"contracts/Voting.sol\":1053:1086  !whitelist[_address].isRegistered */\n      iszero\n        /* \"contracts/Voting.sol\":1045:1087  require(!whitelist[_address].isRegistered) */\n      tag_214\n      jumpi\n      0x00\n      dup1\n      revert\n    tag_214:\n        /* \"contracts/Voting.sol\":1118:1137  Voter(true,false,0) */\n      mload(0x40)\n      dup1\n      0x60\n      add\n      0x40\n      mstore\n      dup1\n        /* \"contracts/Voting.sol\":1124:1128  true */\n      0x01\n        /* \"contracts/Voting.sol\":1118:1137  Voter(true,false,0) */\n      iszero\n      iszero\n      dup2\n      mstore\n      0x20\n      add\n        /* \"contracts/Voting.sol\":1129:1134  false */\n      0x00\n        /* \"contracts/Voting.sol\":1118:1137  Voter(true,false,0) */\n      iszero\n      iszero\n      dup2\n      mstore\n      0x20\n      add\n        /* \"contracts/Voting.sol\":1135:1136  0 */\n      0x00\n        /* \"contracts/Voting.sol\":1118:1137  Voter(true,false,0) */\n      dup2\n      mstore\n      pop\n        /* \"contracts/Voting.sol\":1098:1107  whitelist */\n      0x09\n        /* \"contracts/Voting.sol\":1098:1117  whitelist[_address] */\n      0x00\n        /* \"contracts/Voting.sol\":1108:1116  _address */\n      dup4\n        /* \"contracts/Voting.sol\":1098:1117  whitelist[_address] */\n      0xffffffffffffffffffffffffffffffffffffffff\n      and\n      0xffffffffffffffffffffffffffffffffffffffff\n      and\n      dup2\n      mstore\n      0x20\n      add\n      swap1\n      dup2\n      mstore\n      0x20\n      add\n      0x00\n      keccak256\n        /* \"contracts/Voting.sol\":1098:1137  whitelist[_address]=Voter(true,false,0) */\n      0x00\n      dup3\n      add\n      mload\n      dup2\n      0x00\n      add\n      exp(0x0100, 0x00)\n      dup2\n      sload\n      dup2\n      0xff\n      mul\n      not\n      and\n      swap1\n      dup4\n      iszero\n      iszero\n      mul\n      or\n      swap1\n      sstore\n      pop\n      0x20\n      dup3\n      add\n      mload\n      dup2\n      0x00\n      add\n      exp(0x0100, 0x01)\n      dup2\n      sload\n      dup2\n      0xff\n      mul\n      not\n      and\n      swap1\n      dup4\n      iszero\n      iszero\n      mul\n      or\n      swap1\n      sstore\n      pop\n      0x40\n      dup3\n      add\n      mload\n      dup2\n      0x01\n      add\n      sstore\n      swap1\n      pop\n      pop\n        /* \"contracts/Voting.sol\":980:1145  function addVoter(address _address)public onlyOwner() {... */\n      pop\n      jump\t// out\n        /* \"@openzeppelin/contracts/access/Ownable.sol\":1796:1958  function _checkOwner() internal view virtual {... */\n    tag_83:\n        /* \"@openzeppelin/contracts/access/Ownable.sol\":1866:1878  _msgSender() */\n      tag_216\n        /* \"@openzeppelin/contracts/access/Ownable.sol\":1866:1876  _msgSender */\n      tag_217\n        /* \"@openzeppelin/contracts/access/Ownable.sol\":1866:1878  _msgSender() */\n      jump\t// in\n    tag_216:\n        /* \"@openzeppelin/contracts/access/Ownable.sol\":1855:1878  owner() != _msgSender() */\n      0xffffffffffffffffffffffffffffffffffffffff\n      and\n        /* \"@openzeppelin/contracts/access/Ownable.sol\":1855:1862  owner() */\n      tag_218\n        /* \"@openzeppelin/contracts/access/Ownable.sol\":1855:1860  owner */\n      tag_37\n        /* \"@openzeppelin/contracts/access/Ownable.sol\":1855:1862  owner() */\n      jump\t// in\n    tag_218:\n        /* \"@openzeppelin/contracts/access/Ownable.sol\":1855:1878  owner() != _msgSender() */\n      0xffffffffffffffffffffffffffffffffffffffff\n      and\n      eq\n        /* \"@openzeppelin/contracts/access/Ownable.sol\":1851:1952  if (owner() != _msgSender()) {... */\n      tag_219\n      jumpi\n        /* \"@openzeppelin/contracts/access/Ownable.sol\":1928:1940  _msgSender() */\n      tag_220\n        /* \"@openzeppelin/contracts/access/Ownable.sol\":1928:1938  _msgSender */\n      tag_217\n        /* \"@openzeppelin/contracts/access/Ownable.sol\":1928:1940  _msgSender() */\n      jump\t// in\n    tag_220:\n        /* \"@openzeppelin/contracts/access/Ownable.sol\":1901:1941  OwnableUnauthorizedAccount(_msgSender()) */\n      mload(0x40)\n      0x118cdaa700000000000000000000000000000000000000000000000000000000\n      dup2\n      mstore\n      0x04\n      add\n      tag_221\n      swap2\n      swap1\n      tag_39\n      jump\t// in\n    tag_221:\n      mload(0x40)\n      dup1\n      swap2\n      sub\n      swap1\n      revert\n        /* \"@openzeppelin/contracts/access/Ownable.sol\":1851:1952  if (owner() != _msgSender()) {... */\n    tag_219:\n        /* \"@openzeppelin/contracts/access/Ownable.sol\":1796:1958  function _checkOwner() internal view virtual {... */\n      jump\t// out\n        /* \"@openzeppelin/contracts/access/Ownable.sol\":2912:3099  function _transferOwnership(address newOwner) internal virtual {... */\n    tag_127:\n        /* \"@openzeppelin/contracts/access/Ownable.sol\":2985:3001  address oldOwner */\n      0x00\n        /* \"@openzeppelin/contracts/access/Ownable.sol\":3004:3010  _owner */\n      dup1\n      0x00\n      swap1\n      sload\n      swap1\n      0x0100\n      exp\n      swap1\n      div\n      0xffffffffffffffffffffffffffffffffffffffff\n      and\n        /* \"@openzeppelin/contracts/access/Ownable.sol\":2985:3010  address oldOwner = _owner */\n      swap1\n      pop\n        /* \"@openzeppelin/contracts/access/Ownable.sol\":3029:3037  newOwner */\n      dup2\n        /* \"@openzeppelin/contracts/access/Ownable.sol\":3020:3026  _owner */\n      0x00\n      dup1\n        /* \"@openzeppelin/contracts/access/Ownable.sol\":3020:3037  _owner = newOwner */\n      0x0100\n      exp\n      dup2\n      sload\n      dup2\n      0xffffffffffffffffffffffffffffffffffffffff\n      mul\n      not\n      and\n      swap1\n      dup4\n      0xffffffffffffffffffffffffffffffffffffffff\n      and\n      mul\n      or\n      swap1\n      sstore\n      pop\n        /* \"@openzeppelin/contracts/access/Ownable.sol\":3083:3091  newOwner */\n      dup2\n        /* \"@openzeppelin/contracts/access/Ownable.sol\":3052:3092  OwnershipTransferred(oldOwner, newOwner) */\n      0xffffffffffffffffffffffffffffffffffffffff\n      and\n        /* \"@openzeppelin/contracts/access/Ownable.sol\":3073:3081  oldOwner */\n      dup2\n        /* \"@openzeppelin/contracts/access/Ownable.sol\":3052:3092  OwnershipTransferred(oldOwner, newOwner) */\n      0xffffffffffffffffffffffffffffffffffffffff\n      and\n      0x8be0079c531659141344cd1fd0a4f28419497f9722a3daafe3b4186f6b6457e0\n      mload(0x40)\n      mload(0x40)\n      dup1\n      swap2\n      sub\n      swap1\n      log3\n        /* \"@openzeppelin/contracts/access/Ownable.sol\":2975:3099  {... */\n      pop\n        /* \"@openzeppelin/contracts/access/Ownable.sol\":2912:3099  function _transferOwnership(address newOwner) internal virtual {... */\n      pop\n      jump\t// out\n        /* \"@openzeppelin/contracts/utils/Context.sol\":656:752  function _msgSender() internal view virtual returns (address) {... */\n    tag_217:\n        /* \"@openzeppelin/contracts/utils/Context.sol\":709:716  address */\n      0x00\n        /* \"@openzeppelin/contracts/utils/Context.sol\":735:745  msg.sender */\n      caller\n        /* \"@openzeppelin/contracts/utils/Context.sol\":728:745  return msg.sender */\n      swap1\n      pop\n        /* \"@openzeppelin/contracts/utils/Context.sol\":656:752  function _msgSender() internal view virtual returns (address) {... */\n      swap1\n      jump\t// out\n    tag_129:\n      mload(0x40)\n      dup1\n      0x60\n      add\n      0x40\n      mstore\n      dup1\n      0x00\n      0x03\n      dup2\n      gt\n      iszero\n      tag_224\n      jumpi\n      tag_225\n      tag_70\n      jump\t// in\n    tag_225:\n    tag_224:\n      dup2\n      mstore\n      0x20\n      add\n      iszero(iszero(0x00))\n      dup2\n      mstore\n      0x20\n      add\n      0x60\n      dup2\n      mstore\n      pop\n      swap1\n      jump\t// out\n    tag_159:\n      mload(0x40)\n      dup1\n      0x40\n      add\n      0x40\n      mstore\n      dup1\n      0x60\n      dup2\n      mstore\n      0x20\n      add\n      0x00\n      dup2\n      mstore\n      pop\n      swap1\n      jump\t// out\n        /* \"#utility.yul\":88:205   */\n    tag_227:\n        /* \"#utility.yul\":197:198   */\n      0x00\n        /* \"#utility.yul\":194:195   */\n      dup1\n        /* \"#utility.yul\":187:199   */\n      revert\n        /* \"#utility.yul\":211:328   */\n    tag_228:\n        /* \"#utility.yul\":320:321   */\n      0x00\n        /* \"#utility.yul\":317:318   */\n      dup1\n        /* \"#utility.yul\":310:322   */\n      revert\n        /* \"#utility.yul\":334:411   */\n    tag_229:\n        /* \"#utility.yul\":371:378   */\n      0x00\n        /* \"#utility.yul\":400:405   */\n      dup2\n        /* \"#utility.yul\":389:405   */\n      swap1\n      pop\n        /* \"#utility.yul\":334:411   */\n      swap2\n      swap1\n      pop\n      jump\t// out\n        /* \"#utility.yul\":417:539   */\n    tag_230:\n        /* \"#utility.yul\":490:514   */\n      tag_317\n        /* \"#utility.yul\":508:513   */\n      dup2\n        /* \"#utility.yul\":490:514   */\n      tag_229\n      jump\t// in\n    tag_317:\n        /* \"#utility.yul\":483:488   */\n      dup2\n        /* \"#utility.yul\":480:515   */\n      eq\n        /* \"#utility.yul\":470:533   */\n      tag_318\n      jumpi\n        /* \"#utility.yul\":529:530   */\n      0x00\n        /* \"#utility.yul\":526:527   */\n      dup1\n        /* \"#utility.yul\":519:531   */\n      revert\n        /* \"#utility.yul\":470:533   */\n    tag_318:\n        /* \"#utility.yul\":417:539   */\n      pop\n      jump\t// out\n        /* \"#utility.yul\":545:684   */\n    tag_231:\n        /* \"#utility.yul\":591:596   */\n      0x00\n        /* \"#utility.yul\":629:635   */\n      dup2\n        /* \"#utility.yul\":616:636   */\n      calldataload\n        /* \"#utility.yul\":607:636   */\n      swap1\n      pop\n        /* \"#utility.yul\":645:678   */\n      tag_320\n        /* \"#utility.yul\":672:677   */\n      dup2\n        /* \"#utility.yul\":645:678   */\n      tag_230\n      jump\t// in\n    tag_320:\n        /* \"#utility.yul\":545:684   */\n      swap3\n      swap2\n      pop\n      pop\n      jump\t// out\n        /* \"#utility.yul\":690:1019   */\n    tag_22:\n        /* \"#utility.yul\":749:755   */\n      0x00\n        /* \"#utility.yul\":798:800   */\n      0x20\n        /* \"#utility.yul\":786:795   */\n      dup3\n        /* \"#utility.yul\":777:784   */\n      dup5\n        /* \"#utility.yul\":773:796   */\n      sub\n        /* \"#utility.yul\":769:801   */\n      slt\n        /* \"#utility.yul\":766:885   */\n      iszero\n      tag_322\n      jumpi\n        /* \"#utility.yul\":804:883   */\n      tag_323\n      tag_227\n      jump\t// in\n    tag_323:\n        /* \"#utility.yul\":766:885   */\n    tag_322:\n        /* \"#utility.yul\":924:925   */\n      0x00\n        /* \"#utility.yul\":949:1002   */\n      tag_324\n        /* \"#utility.yul\":994:1001   */\n      dup5\n        /* \"#utility.yul\":985:991   */\n      dup3\n        /* \"#utility.yul\":974:983   */\n      dup6\n        /* \"#utility.yul\":970:992   */\n      add\n        /* \"#utility.yul\":949:1002   */\n      tag_231\n      jump\t// in\n    tag_324:\n        /* \"#utility.yul\":939:1002   */\n      swap2\n      pop\n        /* \"#utility.yul\":895:1012   */\n      pop\n        /* \"#utility.yul\":690:1019   */\n      swap3\n      swap2\n      pop\n      pop\n      jump\t// out\n        /* \"#utility.yul\":1025:1205   */\n    tag_70:\n        /* \"#utility.yul\":1073:1150   */\n      0x4e487b7100000000000000000000000000000000000000000000000000000000\n        /* \"#utility.yul\":1070:1071   */\n      0x00\n        /* \"#utility.yul\":1063:1151   */\n      mstore\n        /* \"#utility.yul\":1170:1174   */\n      0x21\n        /* \"#utility.yul\":1167:1168   */\n      0x04\n        /* \"#utility.yul\":1160:1175   */\n      mstore\n        /* \"#utility.yul\":1194:1198   */\n      0x24\n        /* \"#utility.yul\":1191:1192   */\n      0x00\n        /* \"#utility.yul\":1184:1199   */\n      revert\n        /* \"#utility.yul\":1211:1324   */\n    tag_232:\n        /* \"#utility.yul\":1292:1293   */\n      0x04\n        /* \"#utility.yul\":1285:1290   */\n      dup2\n        /* \"#utility.yul\":1282:1294   */\n      lt\n        /* \"#utility.yul\":1272:1318   */\n      tag_327\n      jumpi\n        /* \"#utility.yul\":1298:1316   */\n      tag_328\n      tag_70\n      jump\t// in\n    tag_328:\n        /* \"#utility.yul\":1272:1318   */\n    tag_327:\n        /* \"#utility.yul\":1211:1324   */\n      pop\n      jump\t// out\n        /* \"#utility.yul\":1330:1457   */\n    tag_233:\n        /* \"#utility.yul\":1375:1382   */\n      0x00\n        /* \"#utility.yul\":1404:1409   */\n      dup2\n        /* \"#utility.yul\":1393:1409   */\n      swap1\n      pop\n        /* \"#utility.yul\":1410:1451   */\n      tag_330\n        /* \"#utility.yul\":1445:1450   */\n      dup3\n        /* \"#utility.yul\":1410:1451   */\n      tag_232\n      jump\t// in\n    tag_330:\n        /* \"#utility.yul\":1330:1457   */\n      swap2\n      swap1\n      pop\n      jump\t// out\n        /* \"#utility.yul\":1463:1590   */\n    tag_234:\n        /* \"#utility.yul\":1519:1528   */\n      0x00\n        /* \"#utility.yul\":1552:1584   */\n      tag_332\n        /* \"#utility.yul\":1578:1583   */\n      dup3\n        /* \"#utility.yul\":1552:1584   */\n      tag_233\n      jump\t// in\n    tag_332:\n        /* \"#utility.yul\":1539:1584   */\n      swap1\n      pop\n        /* \"#utility.yul\":1463:1590   */\n      swap2\n      swap1\n      pop\n      jump\t// out\n        /* \"#utility.yul\":1596:1729   */\n    tag_235:\n        /* \"#utility.yul\":1679:1722   */\n      tag_334\n        /* \"#utility.yul\":1716:1721   */\n      dup2\n        /* \"#utility.yul\":1679:1722   */\n      tag_234\n      jump\t// in\n    tag_334:\n        /* \"#utility.yul\":1674:1677   */\n      dup3\n        /* \"#utility.yul\":1667:1723   */\n      mstore\n        /* \"#utility.yul\":1596:1729   */\n      pop\n      pop\n      jump\t// out\n        /* \"#utility.yul\":1735:1825   */\n    tag_236:\n        /* \"#utility.yul\":1769:1776   */\n      0x00\n        /* \"#utility.yul\":1812:1817   */\n      dup2\n        /* \"#utility.yul\":1805:1818   */\n      iszero\n        /* \"#utility.yul\":1798:1819   */\n      iszero\n        /* \"#utility.yul\":1787:1819   */\n      swap1\n      pop\n        /* \"#utility.yul\":1735:1825   */\n      swap2\n      swap1\n      pop\n      jump\t// out\n        /* \"#utility.yul\":1831:1930   */\n    tag_237:\n        /* \"#utility.yul\":1902:1923   */\n      tag_337\n        /* \"#utility.yul\":1917:1922   */\n      dup2\n        /* \"#utility.yul\":1902:1923   */\n      tag_236\n      jump\t// in\n    tag_337:\n        /* \"#utility.yul\":1897:1900   */\n      dup3\n        /* \"#utility.yul\":1890:1924   */\n      mstore\n        /* \"#utility.yul\":1831:1930   */\n      pop\n      pop\n      jump\t// out\n        /* \"#utility.yul\":1936:2075   */\n    tag_238:\n        /* \"#utility.yul\":2028:2034   */\n      0x00\n        /* \"#utility.yul\":2062:2067   */\n      dup2\n        /* \"#utility.yul\":2056:2068   */\n      mload\n        /* \"#utility.yul\":2046:2068   */\n      swap1\n      pop\n        /* \"#utility.yul\":1936:2075   */\n      swap2\n      swap1\n      pop\n      jump\t// out\n        /* \"#utility.yul\":2081:2280   */\n    tag_239:\n        /* \"#utility.yul\":2195:2206   */\n      0x00\n        /* \"#utility.yul\":2229:2235   */\n      dup3\n        /* \"#utility.yul\":2224:2227   */\n      dup3\n        /* \"#utility.yul\":2217:2236   */\n      mstore\n        /* \"#utility.yul\":2269:2273   */\n      0x20\n        /* \"#utility.yul\":2264:2267   */\n      dup3\n        /* \"#utility.yul\":2260:2274   */\n      add\n        /* \"#utility.yul\":2245:2274   */\n      swap1\n      pop\n        /* \"#utility.yul\":2081:2280   */\n      swap3\n      swap2\n      pop\n      pop\n      jump\t// out\n        /* \"#utility.yul\":2286:2443   */\n    tag_240:\n        /* \"#utility.yul\":2378:2382   */\n      0x00\n        /* \"#utility.yul\":2401:2404   */\n      dup2\n        /* \"#utility.yul\":2393:2404   */\n      swap1\n      pop\n        /* \"#utility.yul\":2431:2435   */\n      0x20\n        /* \"#utility.yul\":2426:2429   */\n      dup3\n        /* \"#utility.yul\":2422:2436   */\n      add\n        /* \"#utility.yul\":2414:2436   */\n      swap1\n      pop\n        /* \"#utility.yul\":2286:2443   */\n      swap2\n      swap1\n      pop\n      jump\t// out\n        /* \"#utility.yul\":2449:2548   */\n    tag_241:\n        /* \"#utility.yul\":2501:2507   */\n      0x00\n        /* \"#utility.yul\":2535:2540   */\n      dup2\n        /* \"#utility.yul\":2529:2541   */\n      mload\n        /* \"#utility.yul\":2519:2541   */\n      swap1\n      pop\n        /* \"#utility.yul\":2449:2548   */\n      swap2\n      swap1\n      pop\n      jump\t// out\n        /* \"#utility.yul\":2554:2713   */\n    tag_242:\n        /* \"#utility.yul\":2628:2639   */\n      0x00\n        /* \"#utility.yul\":2662:2668   */\n      dup3\n        /* \"#utility.yul\":2657:2660   */\n      dup3\n        /* \"#utility.yul\":2650:2669   */\n      mstore\n        /* \"#utility.yul\":2702:2706   */\n      0x20\n        /* \"#utility.yul\":2697:2700   */\n      dup3\n        /* \"#utility.yul\":2693:2707   */\n      add\n        /* \"#utility.yul\":2678:2707   */\n      swap1\n      pop\n        /* \"#utility.yul\":2554:2713   */\n      swap3\n      swap2\n      pop\n      pop\n      jump\t// out\n        /* \"#utility.yul\":2719:2965   */\n    tag_243:\n        /* \"#utility.yul\":2800:2801   */\n      0x00\n        /* \"#utility.yul\":2810:2923   */\n    tag_344:\n        /* \"#utility.yul\":2824:2830   */\n      dup4\n        /* \"#utility.yul\":2821:2822   */\n      dup2\n        /* \"#utility.yul\":2818:2831   */\n      lt\n        /* \"#utility.yul\":2810:2923   */\n      iszero\n      tag_346\n      jumpi\n        /* \"#utility.yul\":2909:2910   */\n      dup1\n        /* \"#utility.yul\":2904:2907   */\n      dup3\n        /* \"#utility.yul\":2900:2911   */\n      add\n        /* \"#utility.yul\":2894:2912   */\n      mload\n        /* \"#utility.yul\":2890:2891   */\n      dup2\n        /* \"#utility.yul\":2885:2888   */\n      dup5\n        /* \"#utility.yul\":2881:2892   */\n      add\n        /* \"#utility.yul\":2874:2913   */\n      mstore\n        /* \"#utility.yul\":2846:2848   */\n      0x20\n        /* \"#utility.yul\":2843:2844   */\n      dup2\n        /* \"#utility.yul\":2839:2849   */\n      add\n        /* \"#utility.yul\":2834:2849   */\n      swap1\n      pop\n        /* \"#utility.yul\":2810:2923   */\n      jump(tag_344)\n    tag_346:\n        /* \"#utility.yul\":2957:2958   */\n      0x00\n        /* \"#utility.yul\":2948:2954   */\n      dup5\n        /* \"#utility.yul\":2943:2946   */\n      dup5\n        /* \"#utility.yul\":2939:2955   */\n      add\n        /* \"#utility.yul\":2932:2959   */\n      mstore\n        /* \"#utility.yul\":2781:2965   */\n      pop\n        /* \"#utility.yul\":2719:2965   */\n      pop\n      pop\n      pop\n      jump\t// out\n        /* \"#utility.yul\":2971:3073   */\n    tag_244:\n        /* \"#utility.yul\":3012:3018   */\n      0x00\n        /* \"#utility.yul\":3063:3065   */\n      0x1f\n        /* \"#utility.yul\":3059:3066   */\n      not\n        /* \"#utility.yul\":3054:3056   */\n      0x1f\n        /* \"#utility.yul\":3047:3052   */\n      dup4\n        /* \"#utility.yul\":3043:3057   */\n      add\n        /* \"#utility.yul\":3039:3067   */\n      and\n        /* \"#utility.yul\":3029:3067   */\n      swap1\n      pop\n        /* \"#utility.yul\":2971:3073   */\n      swap2\n      swap1\n      pop\n      jump\t// out\n        /* \"#utility.yul\":3079:3436   */\n    tag_245:\n        /* \"#utility.yul\":3157:3160   */\n      0x00\n        /* \"#utility.yul\":3185:3224   */\n      tag_349\n        /* \"#utility.yul\":3218:3223   */\n      dup3\n        /* \"#utility.yul\":3185:3224   */\n      tag_241\n      jump\t// in\n    tag_349:\n        /* \"#utility.yul\":3240:3301   */\n      tag_350\n        /* \"#utility.yul\":3294:3300   */\n      dup2\n        /* \"#utility.yul\":3289:3292   */\n      dup6\n        /* \"#utility.yul\":3240:3301   */\n      tag_242\n      jump\t// in\n    tag_350:\n        /* \"#utility.yul\":3233:3301   */\n      swap4\n      pop\n        /* \"#utility.yul\":3310:3375   */\n      tag_351\n        /* \"#utility.yul\":3368:3374   */\n      dup2\n        /* \"#utility.yul\":3363:3366   */\n      dup6\n        /* \"#utility.yul\":3356:3360   */\n      0x20\n        /* \"#utility.yul\":3349:3354   */\n      dup7\n        /* \"#utility.yul\":3345:3361   */\n      add\n        /* \"#utility.yul\":3310:3375   */\n      tag_243\n      jump\t// in\n    tag_351:\n        /* \"#utility.yul\":3400:3429   */\n      tag_352\n        /* \"#utility.yul\":3422:3428   */\n      dup2\n        /* \"#utility.yul\":3400:3429   */\n      tag_244\n      jump\t// in\n    tag_352:\n        /* \"#utility.yul\":3395:3398   */\n      dup5\n        /* \"#utility.yul\":3391:3430   */\n      add\n        /* \"#utility.yul\":3384:3430   */\n      swap2\n      pop\n        /* \"#utility.yul\":3161:3436   */\n      pop\n        /* \"#utility.yul\":3079:3436   */\n      swap3\n      swap2\n      pop\n      pop\n      jump\t// out\n        /* \"#utility.yul\":3442:3550   */\n    tag_246:\n        /* \"#utility.yul\":3519:3543   */\n      tag_354\n        /* \"#utility.yul\":3537:3542   */\n      dup2\n        /* \"#utility.yul\":3519:3543   */\n      tag_229\n      jump\t// in\n    tag_354:\n        /* \"#utility.yul\":3514:3517   */\n      dup3\n        /* \"#utility.yul\":3507:3544   */\n      mstore\n        /* \"#utility.yul\":3442:3550   */\n      pop\n      pop\n      jump\t// out\n        /* \"#utility.yul\":3612:4220   */\n    tag_247:\n        /* \"#utility.yul\":3721:3724   */\n      0x00\n        /* \"#utility.yul\":3757:3761   */\n      0x40\n        /* \"#utility.yul\":3752:3755   */\n      dup4\n        /* \"#utility.yul\":3748:3762   */\n      add\n        /* \"#utility.yul\":3851:3855   */\n      0x00\n        /* \"#utility.yul\":3844:3849   */\n      dup4\n        /* \"#utility.yul\":3840:3856   */\n      add\n        /* \"#utility.yul\":3834:3857   */\n      mload\n        /* \"#utility.yul\":3904:3907   */\n      dup5\n        /* \"#utility.yul\":3898:3902   */\n      dup3\n        /* \"#utility.yul\":3894:3908   */\n      sub\n        /* \"#utility.yul\":3887:3891   */\n      0x00\n        /* \"#utility.yul\":3882:3885   */\n      dup7\n        /* \"#utility.yul\":3878:3892   */\n      add\n        /* \"#utility.yul\":3871:3909   */\n      mstore\n        /* \"#utility.yul\":3930:4003   */\n      tag_356\n        /* \"#utility.yul\":3998:4002   */\n      dup3\n        /* \"#utility.yul\":3984:3996   */\n      dup3\n        /* \"#utility.yul\":3930:4003   */\n      tag_245\n      jump\t// in\n    tag_356:\n        /* \"#utility.yul\":3922:4003   */\n      swap2\n      pop\n        /* \"#utility.yul\":3772:4014   */\n      pop\n        /* \"#utility.yul\":4101:4105   */\n      0x20\n        /* \"#utility.yul\":4094:4099   */\n      dup4\n        /* \"#utility.yul\":4090:4106   */\n      add\n        /* \"#utility.yul\":4084:4107   */\n      mload\n        /* \"#utility.yul\":4120:4183   */\n      tag_357\n        /* \"#utility.yul\":4177:4181   */\n      0x20\n        /* \"#utility.yul\":4172:4175   */\n      dup7\n        /* \"#utility.yul\":4168:4182   */\n      add\n        /* \"#utility.yul\":4154:4166   */\n      dup3\n        /* \"#utility.yul\":4120:4183   */\n      tag_246\n      jump\t// in\n    tag_357:\n        /* \"#utility.yul\":4024:4193   */\n      pop\n        /* \"#utility.yul\":4210:4214   */\n      dup1\n        /* \"#utility.yul\":4203:4214   */\n      swap2\n      pop\n        /* \"#utility.yul\":3726:4220   */\n      pop\n        /* \"#utility.yul\":3612:4220   */\n      swap3\n      swap2\n      pop\n      pop\n      jump\t// out\n        /* \"#utility.yul\":4226:4482   */\n    tag_248:\n        /* \"#utility.yul\":4345:4355   */\n      0x00\n        /* \"#utility.yul\":4380:4476   */\n      tag_359\n        /* \"#utility.yul\":4472:4475   */\n      dup4\n        /* \"#utility.yul\":4464:4470   */\n      dup4\n        /* \"#utility.yul\":4380:4476   */\n      tag_247\n      jump\t// in\n    tag_359:\n        /* \"#utility.yul\":4366:4476   */\n      swap1\n      pop\n        /* \"#utility.yul\":4226:4482   */\n      swap3\n      swap2\n      pop\n      pop\n      jump\t// out\n        /* \"#utility.yul\":4488:4626   */\n    tag_249:\n        /* \"#utility.yul\":4583:4587   */\n      0x00\n        /* \"#utility.yul\":4615:4619   */\n      0x20\n        /* \"#utility.yul\":4610:4613   */\n      dup3\n        /* \"#utility.yul\":4606:4620   */\n      add\n        /* \"#utility.yul\":4598:4620   */\n      swap1\n      pop\n        /* \"#utility.yul\":4488:4626   */\n      swap2\n      swap1\n      pop\n      jump\t// out\n        /* \"#utility.yul\":4692:5783   */\n    tag_250:\n        /* \"#utility.yul\":4851:4854   */\n      0x00\n        /* \"#utility.yul\":4880:4959   */\n      tag_362\n        /* \"#utility.yul\":4953:4958   */\n      dup3\n        /* \"#utility.yul\":4880:4959   */\n      tag_238\n      jump\t// in\n    tag_362:\n        /* \"#utility.yul\":4975:5076   */\n      tag_363\n        /* \"#utility.yul\":5069:5075   */\n      dup2\n        /* \"#utility.yul\":5064:5067   */\n      dup6\n        /* \"#utility.yul\":4975:5076   */\n      tag_239\n      jump\t// in\n    tag_363:\n        /* \"#utility.yul\":4968:5076   */\n      swap4\n      pop\n        /* \"#utility.yul\":5102:5105   */\n      dup4\n        /* \"#utility.yul\":5147:5151   */\n      0x20\n        /* \"#utility.yul\":5139:5145   */\n      dup3\n        /* \"#utility.yul\":5135:5152   */\n      mul\n        /* \"#utility.yul\":5130:5133   */\n      dup6\n        /* \"#utility.yul\":5126:5153   */\n      add\n        /* \"#utility.yul\":5177:5258   */\n      tag_364\n        /* \"#utility.yul\":5252:5257   */\n      dup6\n        /* \"#utility.yul\":5177:5258   */\n      tag_240\n      jump\t// in\n    tag_364:\n        /* \"#utility.yul\":5281:5288   */\n      dup1\n        /* \"#utility.yul\":5312:5313   */\n      0x00\n        /* \"#utility.yul\":5297:5738   */\n    tag_365:\n        /* \"#utility.yul\":5322:5328   */\n      dup6\n        /* \"#utility.yul\":5319:5320   */\n      dup2\n        /* \"#utility.yul\":5316:5329   */\n      lt\n        /* \"#utility.yul\":5297:5738   */\n      iszero\n      tag_367\n      jumpi\n        /* \"#utility.yul\":5393:5402   */\n      dup5\n        /* \"#utility.yul\":5387:5391   */\n      dup5\n        /* \"#utility.yul\":5383:5403   */\n      sub\n        /* \"#utility.yul\":5378:5381   */\n      dup10\n        /* \"#utility.yul\":5371:5404   */\n      mstore\n        /* \"#utility.yul\":5444:5450   */\n      dup2\n        /* \"#utility.yul\":5438:5451   */\n      mload\n        /* \"#utility.yul\":5472:5586   */\n      tag_368\n        /* \"#utility.yul\":5581:5585   */\n      dup6\n        /* \"#utility.yul\":5566:5579   */\n      dup3\n        /* \"#utility.yul\":5472:5586   */\n      tag_248\n      jump\t// in\n    tag_368:\n        /* \"#utility.yul\":5464:5586   */\n      swap5\n      pop\n        /* \"#utility.yul\":5609:5694   */\n      tag_369\n        /* \"#utility.yul\":5687:5693   */\n      dup4\n        /* \"#utility.yul\":5609:5694   */\n      tag_249\n      jump\t// in\n    tag_369:\n        /* \"#utility.yul\":5599:5694   */\n      swap3\n      pop\n        /* \"#utility.yul\":5723:5727   */\n      0x20\n        /* \"#utility.yul\":5718:5721   */\n      dup11\n        /* \"#utility.yul\":5714:5728   */\n      add\n        /* \"#utility.yul\":5707:5728   */\n      swap10\n      pop\n        /* \"#utility.yul\":5357:5738   */\n      pop\n        /* \"#utility.yul\":5344:5345   */\n      0x01\n        /* \"#utility.yul\":5341:5342   */\n      dup2\n        /* \"#utility.yul\":5337:5346   */\n      add\n        /* \"#utility.yul\":5332:5346   */\n      swap1\n      pop\n        /* \"#utility.yul\":5297:5738   */\n      jump(tag_365)\n    tag_367:\n        /* \"#utility.yul\":5301:5315   */\n      pop\n        /* \"#utility.yul\":5754:5758   */\n      dup3\n        /* \"#utility.yul\":5747:5758   */\n      swap8\n      pop\n        /* \"#utility.yul\":5774:5777   */\n      dup8\n        /* \"#utility.yul\":5767:5777   */\n      swap6\n      pop\n        /* \"#utility.yul\":4856:5783   */\n      pop\n      pop\n      pop\n      pop\n      pop\n        /* \"#utility.yul\":4692:5783   */\n      swap3\n      swap2\n      pop\n      pop\n      jump\t// out\n        /* \"#utility.yul\":5843:6723   */\n    tag_251:\n        /* \"#utility.yul\":5960:5963   */\n      0x00\n        /* \"#utility.yul\":5996:6000   */\n      0x60\n        /* \"#utility.yul\":5991:5994   */\n      dup4\n        /* \"#utility.yul\":5987:6001   */\n      add\n        /* \"#utility.yul\":6083:6087   */\n      0x00\n        /* \"#utility.yul\":6076:6081   */\n      dup4\n        /* \"#utility.yul\":6072:6088   */\n      add\n        /* \"#utility.yul\":6066:6089   */\n      mload\n        /* \"#utility.yul\":6102:6171   */\n      tag_371\n        /* \"#utility.yul\":6165:6169   */\n      0x00\n        /* \"#utility.yul\":6160:6163   */\n      dup7\n        /* \"#utility.yul\":6156:6170   */\n      add\n        /* \"#utility.yul\":6142:6154   */\n      dup3\n        /* \"#utility.yul\":6102:6171   */\n      tag_235\n      jump\t// in\n    tag_371:\n        /* \"#utility.yul\":6011:6181   */\n      pop\n        /* \"#utility.yul\":6275:6279   */\n      0x20\n        /* \"#utility.yul\":6268:6273   */\n      dup4\n        /* \"#utility.yul\":6264:6280   */\n      add\n        /* \"#utility.yul\":6258:6281   */\n      mload\n        /* \"#utility.yul\":6294:6351   */\n      tag_372\n        /* \"#utility.yul\":6345:6349   */\n      0x20\n        /* \"#utility.yul\":6340:6343   */\n      dup7\n        /* \"#utility.yul\":6336:6350   */\n      add\n        /* \"#utility.yul\":6322:6334   */\n      dup3\n        /* \"#utility.yul\":6294:6351   */\n      tag_237\n      jump\t// in\n    tag_372:\n        /* \"#utility.yul\":6191:6361   */\n      pop\n        /* \"#utility.yul\":6453:6457   */\n      0x40\n        /* \"#utility.yul\":6446:6451   */\n      dup4\n        /* \"#utility.yul\":6442:6458   */\n      add\n        /* \"#utility.yul\":6436:6459   */\n      mload\n        /* \"#utility.yul\":6506:6509   */\n      dup5\n        /* \"#utility.yul\":6500:6504   */\n      dup3\n        /* \"#utility.yul\":6496:6510   */\n      sub\n        /* \"#utility.yul\":6489:6493   */\n      0x40\n        /* \"#utility.yul\":6484:6487   */\n      dup7\n        /* \"#utility.yul\":6480:6494   */\n      add\n        /* \"#utility.yul\":6473:6511   */\n      mstore\n        /* \"#utility.yul\":6532:6685   */\n      tag_373\n        /* \"#utility.yul\":6680:6684   */\n      dup3\n        /* \"#utility.yul\":6666:6678   */\n      dup3\n        /* \"#utility.yul\":6532:6685   */\n      tag_250\n      jump\t// in\n    tag_373:\n        /* \"#utility.yul\":6524:6685   */\n      swap2\n      pop\n        /* \"#utility.yul\":6371:6696   */\n      pop\n        /* \"#utility.yul\":6713:6717   */\n      dup1\n        /* \"#utility.yul\":6706:6717   */\n      swap2\n      pop\n        /* \"#utility.yul\":5965:6723   */\n      pop\n        /* \"#utility.yul\":5843:6723   */\n      swap3\n      swap2\n      pop\n      pop\n      jump\t// out\n        /* \"#utility.yul\":6729:7098   */\n    tag_33:\n        /* \"#utility.yul\":6870:6874   */\n      0x00\n        /* \"#utility.yul\":6908:6910   */\n      0x20\n        /* \"#utility.yul\":6897:6906   */\n      dup3\n        /* \"#utility.yul\":6893:6911   */\n      add\n        /* \"#utility.yul\":6885:6911   */\n      swap1\n      pop\n        /* \"#utility.yul\":6957:6966   */\n      dup2\n        /* \"#utility.yul\":6951:6955   */\n      dup2\n        /* \"#utility.yul\":6947:6967   */\n      sub\n        /* \"#utility.yul\":6943:6944   */\n      0x00\n        /* \"#utility.yul\":6932:6941   */\n      dup4\n        /* \"#utility.yul\":6928:6945   */\n      add\n        /* \"#utility.yul\":6921:6968   */\n      mstore\n        /* \"#utility.yul\":6985:7091   */\n      tag_375\n        /* \"#utility.yul\":7086:7090   */\n      dup2\n        /* \"#utility.yul\":7077:7083   */\n      dup5\n        /* \"#utility.yul\":6985:7091   */\n      tag_251\n      jump\t// in\n    tag_375:\n        /* \"#utility.yul\":6977:7091   */\n      swap1\n      pop\n        /* \"#utility.yul\":6729:7098   */\n      swap3\n      swap2\n      pop\n      pop\n      jump\t// out\n        /* \"#utility.yul\":7104:7230   */\n    tag_252:\n        /* \"#utility.yul\":7141:7148   */\n      0x00\n        /* \"#utility.yul\":7181:7223   */\n      0xffffffffffffffffffffffffffffffffffffffff\n        /* \"#utility.yul\":7174:7179   */\n      dup3\n        /* \"#utility.yul\":7170:7224   */\n      and\n        /* \"#utility.yul\":7159:7224   */\n      swap1\n      pop\n        /* \"#utility.yul\":7104:7230   */\n      swap2\n      swap1\n      pop\n      jump\t// out\n        /* \"#utility.yul\":7236:7332   */\n    tag_253:\n        /* \"#utility.yul\":7273:7280   */\n      0x00\n        /* \"#utility.yul\":7302:7326   */\n      tag_378\n        /* \"#utility.yul\":7320:7325   */\n      dup3\n        /* \"#utility.yul\":7302:7326   */\n      tag_252\n      jump\t// in\n    tag_378:\n        /* \"#utility.yul\":7291:7326   */\n      swap1\n      pop\n        /* \"#utility.yul\":7236:7332   */\n      swap2\n      swap1\n      pop\n      jump\t// out\n        /* \"#utility.yul\":7338:7456   */\n    tag_254:\n        /* \"#utility.yul\":7425:7449   */\n      tag_380\n        /* \"#utility.yul\":7443:7448   */\n      dup2\n        /* \"#utility.yul\":7425:7449   */\n      tag_253\n      jump\t// in\n    tag_380:\n        /* \"#utility.yul\":7420:7423   */\n      dup3\n        /* \"#utility.yul\":7413:7450   */\n      mstore\n        /* \"#utility.yul\":7338:7456   */\n      pop\n      pop\n      jump\t// out\n        /* \"#utility.yul\":7462:7684   */\n    tag_39:\n        /* \"#utility.yul\":7555:7559   */\n      0x00\n        /* \"#utility.yul\":7593:7595   */\n      0x20\n        /* \"#utility.yul\":7582:7591   */\n      dup3\n        /* \"#utility.yul\":7578:7596   */\n      add\n        /* \"#utility.yul\":7570:7596   */\n      swap1\n      pop\n        /* \"#utility.yul\":7606:7677   */\n      tag_382\n        /* \"#utility.yul\":7674:7675   */\n      0x00\n        /* \"#utility.yul\":7663:7672   */\n      dup4\n        /* \"#utility.yul\":7659:7676   */\n      add\n        /* \"#utility.yul\":7650:7656   */\n      dup5\n        /* \"#utility.yul\":7606:7677   */\n      tag_254\n      jump\t// in\n    tag_382:\n        /* \"#utility.yul\":7462:7684   */\n      swap3\n      swap2\n      pop\n      pop\n      jump\t// out\n        /* \"#utility.yul\":7746:8364   */\n    tag_255:\n        /* \"#utility.yul\":7865:7868   */\n      0x00\n        /* \"#utility.yul\":7901:7905   */\n      0x40\n        /* \"#utility.yul\":7896:7899   */\n      dup4\n        /* \"#utility.yul\":7892:7906   */\n      add\n        /* \"#utility.yul\":7995:7999   */\n      0x00\n        /* \"#utility.yul\":7988:7993   */\n      dup4\n        /* \"#utility.yul\":7984:8000   */\n      add\n        /* \"#utility.yul\":7978:8001   */\n      mload\n        /* \"#utility.yul\":8048:8051   */\n      dup5\n        /* \"#utility.yul\":8042:8046   */\n      dup3\n        /* \"#utility.yul\":8038:8052   */\n      sub\n        /* \"#utility.yul\":8031:8035   */\n      0x00\n        /* \"#utility.yul\":8026:8029   */\n      dup7\n        /* \"#utility.yul\":8022:8036   */\n      add\n        /* \"#utility.yul\":8015:8053   */\n      mstore\n        /* \"#utility.yul\":8074:8147   */\n      tag_384\n        /* \"#utility.yul\":8142:8146   */\n      dup3\n        /* \"#utility.yul\":8128:8140   */\n      dup3\n        /* \"#utility.yul\":8074:8147   */\n      tag_245\n      jump\t// in\n    tag_384:\n        /* \"#utility.yul\":8066:8147   */\n      swap2\n      pop\n        /* \"#utility.yul\":7916:8158   */\n      pop\n        /* \"#utility.yul\":8245:8249   */\n      0x20\n        /* \"#utility.yul\":8238:8243   */\n      dup4\n        /* \"#utility.yul\":8234:8250   */\n      add\n        /* \"#utility.yul\":8228:8251   */\n      mload\n        /* \"#utility.yul\":8264:8327   */\n      tag_385\n        /* \"#utility.yul\":8321:8325   */\n      0x20\n        /* \"#utility.yul\":8316:8319   */\n      dup7\n        /* \"#utility.yul\":8312:8326   */\n      add\n        /* \"#utility.yul\":8298:8310   */\n      dup3\n        /* \"#utility.yul\":8264:8327   */\n      tag_246\n      jump\t// in\n    tag_385:\n        /* \"#utility.yul\":8168:8337   */\n      pop\n        /* \"#utility.yul\":8354:8358   */\n      dup1\n        /* \"#utility.yul\":8347:8358   */\n      swap2\n      pop\n        /* \"#utility.yul\":7870:8364   */\n      pop\n        /* \"#utility.yul\":7746:8364   */\n      swap3\n      swap2\n      pop\n      pop\n      jump\t// out\n        /* \"#utility.yul\":8370:8743   */\n    tag_43:\n        /* \"#utility.yul\":8513:8517   */\n      0x00\n        /* \"#utility.yul\":8551:8553   */\n      0x20\n        /* \"#utility.yul\":8540:8549   */\n      dup3\n        /* \"#utility.yul\":8536:8554   */\n      add\n        /* \"#utility.yul\":8528:8554   */\n      swap1\n      pop\n        /* \"#utility.yul\":8600:8609   */\n      dup2\n        /* \"#utility.yul\":8594:8598   */\n      dup2\n        /* \"#utility.yul\":8590:8610   */\n      sub\n        /* \"#utility.yul\":8586:8587   */\n      0x00\n        /* \"#utility.yul\":8575:8584   */\n      dup4\n        /* \"#utility.yul\":8571:8588   */\n      add\n        /* \"#utility.yul\":8564:8611   */\n      mstore\n        /* \"#utility.yul\":8628:8736   */\n      tag_387\n        /* \"#utility.yul\":8731:8735   */\n      dup2\n        /* \"#utility.yul\":8722:8728   */\n      dup5\n        /* \"#utility.yul\":8628:8736   */\n      tag_255\n      jump\t// in\n    tag_387:\n        /* \"#utility.yul\":8620:8736   */\n      swap1\n      pop\n        /* \"#utility.yul\":8370:8743   */\n      swap3\n      swap2\n      pop\n      pop\n      jump\t// out\n        /* \"#utility.yul\":8749:8871   */\n    tag_256:\n        /* \"#utility.yul\":8822:8846   */\n      tag_389\n        /* \"#utility.yul\":8840:8845   */\n      dup2\n        /* \"#utility.yul\":8822:8846   */\n      tag_253\n      jump\t// in\n    tag_389:\n        /* \"#utility.yul\":8815:8820   */\n      dup2\n        /* \"#utility.yul\":8812:8847   */\n      eq\n        /* \"#utility.yul\":8802:8865   */\n      tag_390\n      jumpi\n        /* \"#utility.yul\":8861:8862   */\n      0x00\n        /* \"#utility.yul\":8858:8859   */\n      dup1\n        /* \"#utility.yul\":8851:8863   */\n      revert\n        /* \"#utility.yul\":8802:8865   */\n    tag_390:\n        /* \"#utility.yul\":8749:8871   */\n      pop\n      jump\t// out\n        /* \"#utility.yul\":8877:9016   */\n    tag_257:\n        /* \"#utility.yul\":8923:8928   */\n      0x00\n        /* \"#utility.yul\":8961:8967   */\n      dup2\n        /* \"#utility.yul\":8948:8968   */\n      calldataload\n        /* \"#utility.yul\":8939:8968   */\n      swap1\n      pop\n        /* \"#utility.yul\":8977:9010   */\n      tag_392\n        /* \"#utility.yul\":9004:9009   */\n      dup2\n        /* \"#utility.yul\":8977:9010   */\n      tag_256\n      jump\t// in\n    tag_392:\n        /* \"#utility.yul\":8877:9016   */\n      swap3\n      swap2\n      pop\n      pop\n      jump\t// out\n        /* \"#utility.yul\":9022:9351   */\n    tag_46:\n        /* \"#utility.yul\":9081:9087   */\n      0x00\n        /* \"#utility.yul\":9130:9132   */\n      0x20\n        /* \"#utility.yul\":9118:9127   */\n      dup3\n        /* \"#utility.yul\":9109:9116   */\n      dup5\n        /* \"#utility.yul\":9105:9128   */\n      sub\n        /* \"#utility.yul\":9101:9133   */\n      slt\n        /* \"#utility.yul\":9098:9217   */\n      iszero\n      tag_394\n      jumpi\n        /* \"#utility.yul\":9136:9215   */\n      tag_395\n      tag_227\n      jump\t// in\n    tag_395:\n        /* \"#utility.yul\":9098:9217   */\n    tag_394:\n        /* \"#utility.yul\":9256:9257   */\n      0x00\n        /* \"#utility.yul\":9281:9334   */\n      tag_396\n        /* \"#utility.yul\":9326:9333   */\n      dup5\n        /* \"#utility.yul\":9317:9323   */\n      dup3\n        /* \"#utility.yul\":9306:9315   */\n      dup6\n        /* \"#utility.yul\":9302:9324   */\n      add\n        /* \"#utility.yul\":9281:9334   */\n      tag_257\n      jump\t// in\n    tag_396:\n        /* \"#utility.yul\":9271:9334   */\n      swap2\n      pop\n        /* \"#utility.yul\":9227:9344   */\n      pop\n        /* \"#utility.yul\":9022:9351   */\n      swap3\n      swap2\n      pop\n      pop\n      jump\t// out\n        /* \"#utility.yul\":9357:9466   */\n    tag_258:\n        /* \"#utility.yul\":9438:9459   */\n      tag_398\n        /* \"#utility.yul\":9453:9458   */\n      dup2\n        /* \"#utility.yul\":9438:9459   */\n      tag_236\n      jump\t// in\n    tag_398:\n        /* \"#utility.yul\":9433:9436   */\n      dup3\n        /* \"#utility.yul\":9426:9460   */\n      mstore\n        /* \"#utility.yul\":9357:9466   */\n      pop\n      pop\n      jump\t// out\n        /* \"#utility.yul\":9472:9590   */\n    tag_259:\n        /* \"#utility.yul\":9559:9583   */\n      tag_400\n        /* \"#utility.yul\":9577:9582   */\n      dup2\n        /* \"#utility.yul\":9559:9583   */\n      tag_229\n      jump\t// in\n    tag_400:\n        /* \"#utility.yul\":9554:9557   */\n      dup3\n        /* \"#utility.yul\":9547:9584   */\n      mstore\n        /* \"#utility.yul\":9472:9590   */\n      pop\n      pop\n      jump\t// out\n        /* \"#utility.yul\":9596:10014   */\n    tag_49:\n        /* \"#utility.yul\":9733:9737   */\n      0x00\n        /* \"#utility.yul\":9771:9773   */\n      0x60\n        /* \"#utility.yul\":9760:9769   */\n      dup3\n        /* \"#utility.yul\":9756:9774   */\n      add\n        /* \"#utility.yul\":9748:9774   */\n      swap1\n      pop\n        /* \"#utility.yul\":9784:9849   */\n      tag_402\n        /* \"#utility.yul\":9846:9847   */\n      0x00\n        /* \"#utility.yul\":9835:9844   */\n      dup4\n        /* \"#utility.yul\":9831:9848   */\n      add\n        /* \"#utility.yul\":9822:9828   */\n      dup7\n        /* \"#utility.yul\":9784:9849   */\n      tag_258\n      jump\t// in\n    tag_402:\n        /* \"#utility.yul\":9859:9925   */\n      tag_403\n        /* \"#utility.yul\":9921:9923   */\n      0x20\n        /* \"#utility.yul\":9910:9919   */\n      dup4\n        /* \"#utility.yul\":9906:9924   */\n      add\n        /* \"#utility.yul\":9897:9903   */\n      dup6\n        /* \"#utility.yul\":9859:9925   */\n      tag_258\n      jump\t// in\n    tag_403:\n        /* \"#utility.yul\":9935:10007   */\n      tag_404\n        /* \"#utility.yul\":10003:10005   */\n      0x40\n        /* \"#utility.yul\":9992:10001   */\n      dup4\n        /* \"#utility.yul\":9988:10006   */\n      add\n        /* \"#utility.yul\":9979:9985   */\n      dup5\n        /* \"#utility.yul\":9935:10007   */\n      tag_259\n      jump\t// in\n    tag_404:\n        /* \"#utility.yul\":9596:10014   */\n      swap5\n      swap4\n      pop\n      pop\n      pop\n      pop\n      jump\t// out\n        /* \"#utility.yul\":10020:10137   */\n    tag_260:\n        /* \"#utility.yul\":10129:10130   */\n      0x00\n        /* \"#utility.yul\":10126:10127   */\n      dup1\n        /* \"#utility.yul\":10119:10131   */\n      revert\n        /* \"#utility.yul\":10143:10260   */\n    tag_261:\n        /* \"#utility.yul\":10252:10253   */\n      0x00\n        /* \"#utility.yul\":10249:10250   */\n      dup1\n        /* \"#utility.yul\":10242:10254   */\n      revert\n        /* \"#utility.yul\":10266:10383   */\n    tag_262:\n        /* \"#utility.yul\":10375:10376   */\n      0x00\n        /* \"#utility.yul\":10372:10373   */\n      dup1\n        /* \"#utility.yul\":10365:10377   */\n      revert\n        /* \"#utility.yul\":10403:10956   */\n    tag_263:\n        /* \"#utility.yul\":10461:10469   */\n      0x00\n        /* \"#utility.yul\":10471:10477   */\n      dup1\n        /* \"#utility.yul\":10521:10524   */\n      dup4\n        /* \"#utility.yul\":10514:10518   */\n      0x1f\n        /* \"#utility.yul\":10506:10512   */\n      dup5\n        /* \"#utility.yul\":10502:10519   */\n      add\n        /* \"#utility.yul\":10498:10525   */\n      slt\n        /* \"#utility.yul\":10488:10610   */\n      tag_409\n      jumpi\n        /* \"#utility.yul\":10529:10608   */\n      tag_410\n      tag_260\n      jump\t// in\n    tag_410:\n        /* \"#utility.yul\":10488:10610   */\n    tag_409:\n        /* \"#utility.yul\":10642:10648   */\n      dup3\n        /* \"#utility.yul\":10629:10649   */\n      calldataload\n        /* \"#utility.yul\":10619:10649   */\n      swap1\n      pop\n        /* \"#utility.yul\":10672:10690   */\n      0xffffffffffffffff\n        /* \"#utility.yul\":10664:10670   */\n      dup2\n        /* \"#utility.yul\":10661:10691   */\n      gt\n        /* \"#utility.yul\":10658:10775   */\n      iszero\n      tag_411\n      jumpi\n        /* \"#utility.yul\":10694:10773   */\n      tag_412\n      tag_261\n      jump\t// in\n    tag_412:\n        /* \"#utility.yul\":10658:10775   */\n    tag_411:\n        /* \"#utility.yul\":10808:10812   */\n      0x20\n        /* \"#utility.yul\":10800:10806   */\n      dup4\n        /* \"#utility.yul\":10796:10813   */\n      add\n        /* \"#utility.yul\":10784:10813   */\n      swap2\n      pop\n        /* \"#utility.yul\":10862:10865   */\n      dup4\n        /* \"#utility.yul\":10854:10858   */\n      0x01\n        /* \"#utility.yul\":10846:10852   */\n      dup3\n        /* \"#utility.yul\":10842:10859   */\n      mul\n        /* \"#utility.yul\":10832:10840   */\n      dup4\n        /* \"#utility.yul\":10828:10860   */\n      add\n        /* \"#utility.yul\":10825:10866   */\n      gt\n        /* \"#utility.yul\":10822:10950   */\n      iszero\n      tag_413\n      jumpi\n        /* \"#utility.yul\":10869:10948   */\n      tag_414\n      tag_262\n      jump\t// in\n    tag_414:\n        /* \"#utility.yul\":10822:10950   */\n    tag_413:\n        /* \"#utility.yul\":10403:10956   */\n      swap3\n      pop\n      swap3\n      swap1\n      pop\n      jump\t// out\n        /* \"#utility.yul\":10962:11491   */\n    tag_52:\n        /* \"#utility.yul\":11033:11039   */\n      0x00\n        /* \"#utility.yul\":11041:11047   */\n      dup1\n        /* \"#utility.yul\":11090:11092   */\n      0x20\n        /* \"#utility.yul\":11078:11087   */\n      dup4\n        /* \"#utility.yul\":11069:11076   */\n      dup6\n        /* \"#utility.yul\":11065:11088   */\n      sub\n        /* \"#utility.yul\":11061:11093   */\n      slt\n        /* \"#utility.yul\":11058:11177   */\n      iszero\n      tag_416\n      jumpi\n        /* \"#utility.yul\":11096:11175   */\n      tag_417\n      tag_227\n      jump\t// in\n    tag_417:\n        /* \"#utility.yul\":11058:11177   */\n    tag_416:\n        /* \"#utility.yul\":11244:11245   */\n      0x00\n        /* \"#utility.yul\":11233:11242   */\n      dup4\n        /* \"#utility.yul\":11229:11246   */\n      add\n        /* \"#utility.yul\":11216:11247   */\n      calldataload\n        /* \"#utility.yul\":11274:11292   */\n      0xffffffffffffffff\n        /* \"#utility.yul\":11266:11272   */\n      dup2\n        /* \"#utility.yul\":11263:11293   */\n      gt\n        /* \"#utility.yul\":11260:11377   */\n      iszero\n      tag_418\n      jumpi\n        /* \"#utility.yul\":11296:11375   */\n      tag_419\n      tag_228\n      jump\t// in\n    tag_419:\n        /* \"#utility.yul\":11260:11377   */\n    tag_418:\n        /* \"#utility.yul\":11409:11474   */\n      tag_420\n        /* \"#utility.yul\":11466:11473   */\n      dup6\n        /* \"#utility.yul\":11457:11463   */\n      dup3\n        /* \"#utility.yul\":11446:11455   */\n      dup7\n        /* \"#utility.yul\":11442:11464   */\n      add\n        /* \"#utility.yul\":11409:11474   */\n      tag_263\n      jump\t// in\n    tag_420:\n        /* \"#utility.yul\":11391:11474   */\n      swap3\n      pop\n      swap3\n      pop\n        /* \"#utility.yul\":11187:11484   */\n      pop\n        /* \"#utility.yul\":10962:11491   */\n      swap3\n      pop\n      swap3\n      swap1\n      pop\n      jump\t// out\n        /* \"#utility.yul\":11497:11613   */\n    tag_264:\n        /* \"#utility.yul\":11567:11588   */\n      tag_422\n        /* \"#utility.yul\":11582:11587   */\n      dup2\n        /* \"#utility.yul\":11567:11588   */\n      tag_236\n      jump\t// in\n    tag_422:\n        /* \"#utility.yul\":11560:11565   */\n      dup2\n        /* \"#utility.yul\":11557:11589   */\n      eq\n        /* \"#utility.yul\":11547:11607   */\n      tag_423\n      jumpi\n        /* \"#utility.yul\":11603:11604   */\n      0x00\n        /* \"#utility.yul\":11600:11601   */\n      dup1\n        /* \"#utility.yul\":11593:11605   */\n      revert\n        /* \"#utility.yul\":11547:11607   */\n    tag_423:\n        /* \"#utility.yul\":11497:11613   */\n      pop\n      jump\t// out\n        /* \"#utility.yul\":11619:11752   */\n    tag_265:\n        /* \"#utility.yul\":11662:11667   */\n      0x00\n        /* \"#utility.yul\":11700:11706   */\n      dup2\n        /* \"#utility.yul\":11687:11707   */\n      calldataload\n        /* \"#utility.yul\":11678:11707   */\n      swap1\n      pop\n        /* \"#utility.yul\":11716:11746   */\n      tag_425\n        /* \"#utility.yul\":11740:11745   */\n      dup2\n        /* \"#utility.yul\":11716:11746   */\n      tag_264\n      jump\t// in\n    tag_425:\n        /* \"#utility.yul\":11619:11752   */\n      swap3\n      swap2\n      pop\n      pop\n      jump\t// out\n        /* \"#utility.yul\":11758:12081   */\n    tag_58:\n        /* \"#utility.yul\":11814:11820   */\n      0x00\n        /* \"#utility.yul\":11863:11865   */\n      0x20\n        /* \"#utility.yul\":11851:11860   */\n      dup3\n        /* \"#utility.yul\":11842:11849   */\n      dup5\n        /* \"#utility.yul\":11838:11861   */\n      sub\n        /* \"#utility.yul\":11834:11866   */\n      slt\n        /* \"#utility.yul\":11831:11950   */\n      iszero\n      tag_427\n      jumpi\n        /* \"#utility.yul\":11869:11948   */\n      tag_428\n      tag_227\n      jump\t// in\n    tag_428:\n        /* \"#utility.yul\":11831:11950   */\n    tag_427:\n        /* \"#utility.yul\":11989:11990   */\n      0x00\n        /* \"#utility.yul\":12014:12064   */\n      tag_429\n        /* \"#utility.yul\":12056:12063   */\n      dup5\n        /* \"#utility.yul\":12047:12053   */\n      dup3\n        /* \"#utility.yul\":12036:12045   */\n      dup6\n        /* \"#utility.yul\":12032:12054   */\n      add\n        /* \"#utility.yul\":12014:12064   */\n      tag_265\n      jump\t// in\n    tag_429:\n        /* \"#utility.yul\":12004:12064   */\n      swap2\n      pop\n        /* \"#utility.yul\":11960:12074   */\n      pop\n        /* \"#utility.yul\":11758:12081   */\n      swap3\n      swap2\n      pop\n      pop\n      jump\t// out\n        /* \"#utility.yul\":12087:12267   */\n    tag_77:\n        /* \"#utility.yul\":12135:12212   */\n      0x4e487b7100000000000000000000000000000000000000000000000000000000\n        /* \"#utility.yul\":12132:12133   */\n      0x00\n        /* \"#utility.yul\":12125:12213   */\n      mstore\n        /* \"#utility.yul\":12232:12236   */\n      0x32\n        /* \"#utility.yul\":12229:12230   */\n      0x04\n        /* \"#utility.yul\":12222:12237   */\n      mstore\n        /* \"#utility.yul\":12256:12260   */\n      0x24\n        /* \"#utility.yul\":12253:12254   */\n      0x00\n        /* \"#utility.yul\":12246:12261   */\n      revert\n        /* \"#utility.yul\":12273:12453   */\n    tag_266:\n        /* \"#utility.yul\":12321:12398   */\n      0x4e487b7100000000000000000000000000000000000000000000000000000000\n        /* \"#utility.yul\":12318:12319   */\n      0x00\n        /* \"#utility.yul\":12311:12399   */\n      mstore\n        /* \"#utility.yul\":12418:12422   */\n      0x11\n        /* \"#utility.yul\":12415:12416   */\n      0x04\n        /* \"#utility.yul\":12408:12423   */\n      mstore\n        /* \"#utility.yul\":12442:12446   */\n      0x24\n        /* \"#utility.yul\":12439:12440   */\n      0x00\n        /* \"#utility.yul\":12432:12447   */\n      revert\n        /* \"#utility.yul\":12459:12650   */\n    tag_80:\n        /* \"#utility.yul\":12499:12502   */\n      0x00\n        /* \"#utility.yul\":12518:12538   */\n      tag_433\n        /* \"#utility.yul\":12536:12537   */\n      dup3\n        /* \"#utility.yul\":12518:12538   */\n      tag_229\n      jump\t// in\n    tag_433:\n        /* \"#utility.yul\":12513:12538   */\n      swap2\n      pop\n        /* \"#utility.yul\":12552:12572   */\n      tag_434\n        /* \"#utility.yul\":12570:12571   */\n      dup4\n        /* \"#utility.yul\":12552:12572   */\n      tag_229\n      jump\t// in\n    tag_434:\n        /* \"#utility.yul\":12547:12572   */\n      swap3\n      pop\n        /* \"#utility.yul\":12595:12596   */\n      dup3\n        /* \"#utility.yul\":12592:12593   */\n      dup3\n        /* \"#utility.yul\":12588:12597   */\n      add\n        /* \"#utility.yul\":12581:12597   */\n      swap1\n      pop\n        /* \"#utility.yul\":12616:12619   */\n      dup1\n        /* \"#utility.yul\":12613:12614   */\n      dup3\n        /* \"#utility.yul\":12610:12620   */\n      gt\n        /* \"#utility.yul\":12607:12643   */\n      iszero\n      tag_435\n      jumpi\n        /* \"#utility.yul\":12623:12641   */\n      tag_436\n      tag_266\n      jump\t// in\n    tag_436:\n        /* \"#utility.yul\":12607:12643   */\n    tag_435:\n        /* \"#utility.yul\":12459:12650   */\n      swap3\n      swap2\n      pop\n      pop\n      jump\t// out\n        /* \"#utility.yul\":12656:12836   */\n    tag_267:\n        /* \"#utility.yul\":12704:12781   */\n      0x4e487b7100000000000000000000000000000000000000000000000000000000\n        /* \"#utility.yul\":12701:12702   */\n      0x00\n        /* \"#utility.yul\":12694:12782   */\n      mstore\n        /* \"#utility.yul\":12801:12805   */\n      0x22\n        /* \"#utility.yul\":12798:12799   */\n      0x04\n        /* \"#utility.yul\":12791:12806   */\n      mstore\n        /* \"#utility.yul\":12825:12829   */\n      0x24\n        /* \"#utility.yul\":12822:12823   */\n      0x00\n        /* \"#utility.yul\":12815:12830   */\n      revert\n        /* \"#utility.yul\":12842:13162   */\n    tag_139:\n        /* \"#utility.yul\":12886:12892   */\n      0x00\n        /* \"#utility.yul\":12923:12924   */\n      0x02\n        /* \"#utility.yul\":12917:12921   */\n      dup3\n        /* \"#utility.yul\":12913:12925   */\n      div\n        /* \"#utility.yul\":12903:12925   */\n      swap1\n      pop\n        /* \"#utility.yul\":12970:12971   */\n      0x01\n        /* \"#utility.yul\":12964:12968   */\n      dup3\n        /* \"#utility.yul\":12960:12972   */\n      and\n        /* \"#utility.yul\":12991:13009   */\n      dup1\n        /* \"#utility.yul\":12981:13062   */\n      tag_439\n      jumpi\n        /* \"#utility.yul\":13047:13051   */\n      0x7f\n        /* \"#utility.yul\":13039:13045   */\n      dup3\n        /* \"#utility.yul\":13035:13052   */\n      and\n        /* \"#utility.yul\":13025:13052   */\n      swap2\n      pop\n        /* \"#utility.yul\":12981:13062   */\n    tag_439:\n        /* \"#utility.yul\":13109:13111   */\n      0x20\n        /* \"#utility.yul\":13101:13107   */\n      dup3\n        /* \"#utility.yul\":13098:13112   */\n      lt\n        /* \"#utility.yul\":13078:13096   */\n      dup2\n        /* \"#utility.yul\":13075:13113   */\n      sub\n        /* \"#utility.yul\":13072:13156   */\n      tag_440\n      jumpi\n        /* \"#utility.yul\":13128:13146   */\n      tag_441\n      tag_267\n      jump\t// in\n    tag_441:\n        /* \"#utility.yul\":13072:13156   */\n    tag_440:\n        /* \"#utility.yul\":12893:13162   */\n      pop\n        /* \"#utility.yul\":12842:13162   */\n      swap2\n      swap1\n      pop\n      jump\t// out\n        /* \"#utility.yul\":13168:13317   */\n    tag_268:\n        /* \"#utility.yul\":13217:13223   */\n      0x00\n        /* \"#utility.yul\":13251:13256   */\n      dup2\n        /* \"#utility.yul\":13245:13257   */\n      sload\n        /* \"#utility.yul\":13235:13257   */\n      swap1\n      pop\n        /* \"#utility.yul\":13277:13310   */\n      tag_443\n        /* \"#utility.yul\":13303:13309   */\n      dup2\n        /* \"#utility.yul\":13277:13310   */\n      tag_139\n      jump\t// in\n    tag_443:\n        /* \"#utility.yul\":13267:13310   */\n      swap1\n      pop\n        /* \"#utility.yul\":13168:13317   */\n      swap2\n      swap1\n      pop\n      jump\t// out\n        /* \"#utility.yul\":13323:13503   */\n    tag_269:\n        /* \"#utility.yul\":13371:13448   */\n      0x4e487b7100000000000000000000000000000000000000000000000000000000\n        /* \"#utility.yul\":13368:13369   */\n      0x00\n        /* \"#utility.yul\":13361:13449   */\n      mstore\n        /* \"#utility.yul\":13468:13472   */\n      0x41\n        /* \"#utility.yul\":13465:13466   */\n      0x04\n        /* \"#utility.yul\":13458:13473   */\n      mstore\n        /* \"#utility.yul\":13492:13496   */\n      0x24\n        /* \"#utility.yul\":13489:13490   */\n      0x00\n        /* \"#utility.yul\":13482:13497   */\n      revert\n        /* \"#utility.yul\":13509:13650   */\n    tag_270:\n        /* \"#utility.yul\":13558:13562   */\n      0x00\n        /* \"#utility.yul\":13581:13584   */\n      dup2\n        /* \"#utility.yul\":13573:13584   */\n      swap1\n      pop\n        /* \"#utility.yul\":13604:13607   */\n      dup2\n        /* \"#utility.yul\":13601:13602   */\n      0x00\n        /* \"#utility.yul\":13594:13608   */\n      mstore\n        /* \"#utility.yul\":13638:13642   */\n      0x20\n        /* \"#utility.yul\":13635:13636   */\n      0x00\n        /* \"#utility.yul\":13625:13643   */\n      keccak256\n        /* \"#utility.yul\":13617:13643   */\n      swap1\n      pop\n        /* \"#utility.yul\":13509:13650   */\n      swap2\n      swap1\n      pop\n      jump\t// out\n        /* \"#utility.yul\":13656:13749   */\n    tag_271:\n        /* \"#utility.yul\":13693:13699   */\n      0x00\n        /* \"#utility.yul\":13740:13742   */\n      0x20\n        /* \"#utility.yul\":13735:13737   */\n      0x1f\n        /* \"#utility.yul\":13728:13733   */\n      dup4\n        /* \"#utility.yul\":13724:13738   */\n      add\n        /* \"#utility.yul\":13720:13743   */\n      div\n        /* \"#utility.yul\":13710:13743   */\n      swap1\n      pop\n        /* \"#utility.yul\":13656:13749   */\n      swap2\n      swap1\n      pop\n      jump\t// out\n        /* \"#utility.yul\":13755:13862   */\n    tag_272:\n        /* \"#utility.yul\":13799:13807   */\n      0x00\n        /* \"#utility.yul\":13849:13854   */\n      dup3\n        /* \"#utility.yul\":13843:13847   */\n      dup3\n        /* \"#utility.yul\":13839:13855   */\n      shl\n        /* \"#utility.yul\":13818:13855   */\n      swap1\n      pop\n        /* \"#utility.yul\":13755:13862   */\n      swap3\n      swap2\n      pop\n      pop\n      jump\t// out\n        /* \"#utility.yul\":13868:14261   */\n    tag_273:\n        /* \"#utility.yul\":13937:13943   */\n      0x00\n        /* \"#utility.yul\":13987:13988   */\n      0x08\n        /* \"#utility.yul\":13975:13985   */\n      dup4\n        /* \"#utility.yul\":13971:13989   */\n      mul\n        /* \"#utility.yul\":14010:14107   */\n      tag_449\n        /* \"#utility.yul\":14040:14106   */\n      0xffffffffffffffffffffffffffffffffffffffffffffffffffffffffffffffff\n        /* \"#utility.yul\":14029:14038   */\n      dup3\n        /* \"#utility.yul\":14010:14107   */\n      tag_272\n      jump\t// in\n    tag_449:\n        /* \"#utility.yul\":14128:14167   */\n      tag_450\n        /* \"#utility.yul\":14158:14166   */\n      dup7\n        /* \"#utility.yul\":14147:14156   */\n      dup4\n        /* \"#utility.yul\":14128:14167   */\n      tag_272\n      jump\t// in\n    tag_450:\n        /* \"#utility.yul\":14116:14167   */\n      swap6\n      pop\n        /* \"#utility.yul\":14200:14204   */\n      dup1\n        /* \"#utility.yul\":14196:14205   */\n      not\n        /* \"#utility.yul\":14189:14194   */\n      dup5\n        /* \"#utility.yul\":14185:14206   */\n      and\n        /* \"#utility.yul\":14176:14206   */\n      swap4\n      pop\n        /* \"#utility.yul\":14249:14253   */\n      dup1\n        /* \"#utility.yul\":14239:14247   */\n      dup7\n        /* \"#utility.yul\":14235:14254   */\n      and\n        /* \"#utility.yul\":14228:14233   */\n      dup5\n        /* \"#utility.yul\":14225:14255   */\n      or\n        /* \"#utility.yul\":14215:14255   */\n      swap3\n      pop\n        /* \"#utility.yul\":13944:14261   */\n      pop\n      pop\n        /* \"#utility.yul\":13868:14261   */\n      swap4\n      swap3\n      pop\n      pop\n      pop\n      jump\t// out\n        /* \"#utility.yul\":14267:14327   */\n    tag_274:\n        /* \"#utility.yul\":14295:14298   */\n      0x00\n        /* \"#utility.yul\":14316:14321   */\n      dup2\n        /* \"#utility.yul\":14309:14321   */\n      swap1\n      pop\n        /* \"#utility.yul\":14267:14327   */\n      swap2\n      swap1\n      pop\n      jump\t// out\n        /* \"#utility.yul\":14333:14475   */\n    tag_275:\n        /* \"#utility.yul\":14383:14392   */\n      0x00\n        /* \"#utility.yul\":14416:14469   */\n      tag_453\n        /* \"#utility.yul\":14434:14468   */\n      tag_454\n        /* \"#utility.yul\":14443:14467   */\n      tag_455\n        /* \"#utility.yul\":14461:14466   */\n      dup5\n        /* \"#utility.yul\":14443:14467   */\n      tag_229\n      jump\t// in\n    tag_455:\n        /* \"#utility.yul\":14434:14468   */\n      tag_274\n      jump\t// in\n    tag_454:\n        /* \"#utility.yul\":14416:14469   */\n      tag_229\n      jump\t// in\n    tag_453:\n        /* \"#utility.yul\":14403:14469   */\n      swap1\n      pop\n        /* \"#utility.yul\":14333:14475   */\n      swap2\n      swap1\n      pop\n      jump\t// out\n        /* \"#utility.yul\":14481:14556   */\n    tag_276:\n        /* \"#utility.yul\":14524:14527   */\n      0x00\n        /* \"#utility.yul\":14545:14550   */\n      dup2\n        /* \"#utility.yul\":14538:14550   */\n      swap1\n      pop\n        /* \"#utility.yul\":14481:14556   */\n      swap2\n      swap1\n      pop\n      jump\t// out\n        /* \"#utility.yul\":14562:14831   */\n    tag_277:\n        /* \"#utility.yul\":14672:14711   */\n      tag_458\n        /* \"#utility.yul\":14703:14710   */\n      dup4\n        /* \"#utility.yul\":14672:14711   */\n      tag_275\n      jump\t// in\n    tag_458:\n        /* \"#utility.yul\":14733:14824   */\n      tag_459\n        /* \"#utility.yul\":14782:14823   */\n      tag_460\n        /* \"#utility.yul\":14806:14822   */\n      dup3\n        /* \"#utility.yul\":14782:14823   */\n      tag_276\n      jump\t// in\n    tag_460:\n        /* \"#utility.yul\":14774:14780   */\n      dup5\n        /* \"#utility.yul\":14767:14771   */\n      dup5\n        /* \"#utility.yul\":14761:14772   */\n      sload\n        /* \"#utility.yul\":14733:14824   */\n      tag_273\n      jump\t// in\n    tag_459:\n        /* \"#utility.yul\":14727:14731   */\n      dup3\n        /* \"#utility.yul\":14720:14825   */\n      sstore\n        /* \"#utility.yul\":14638:14831   */\n      pop\n        /* \"#utility.yul\":14562:14831   */\n      pop\n      pop\n      pop\n      jump\t// out\n        /* \"#utility.yul\":14837:14910   */\n    tag_278:\n        /* \"#utility.yul\":14882:14885   */\n      0x00\n        /* \"#utility.yul\":14837:14910   */\n      swap1\n      jump\t// out\n        /* \"#utility.yul\":14916:15105   */\n    tag_279:\n        /* \"#utility.yul\":14993:15025   */\n      tag_463\n      tag_278\n      jump\t// in\n    tag_463:\n        /* \"#utility.yul\":15034:15099   */\n      tag_464\n        /* \"#utility.yul\":15092:15098   */\n      dup2\n        /* \"#utility.yul\":15084:15090   */\n      dup5\n        /* \"#utility.yul\":15078:15082   */\n      dup5\n        /* \"#utility.yul\":15034:15099   */\n      tag_277\n      jump\t// in\n    tag_464:\n        /* \"#utility.yul\":14969:15105   */\n      pop\n        /* \"#utility.yul\":14916:15105   */\n      pop\n      pop\n      jump\t// out\n        /* \"#utility.yul\":15111:15297   */\n    tag_280:\n        /* \"#utility.yul\":15171:15291   */\n    tag_466:\n        /* \"#utility.yul\":15188:15191   */\n      dup2\n        /* \"#utility.yul\":15181:15186   */\n      dup2\n        /* \"#utility.yul\":15178:15192   */\n      lt\n        /* \"#utility.yul\":15171:15291   */\n      iszero\n      tag_468\n      jumpi\n        /* \"#utility.yul\":15242:15281   */\n      tag_469\n        /* \"#utility.yul\":15279:15280   */\n      0x00\n        /* \"#utility.yul\":15272:15277   */\n      dup3\n        /* \"#utility.yul\":15242:15281   */\n      tag_279\n      jump\t// in\n    tag_469:\n        /* \"#utility.yul\":15215:15216   */\n      0x01\n        /* \"#utility.yul\":15208:15213   */\n      dup2\n        /* \"#utility.yul\":15204:15217   */\n      add\n        /* \"#utility.yul\":15195:15217   */\n      swap1\n      pop\n        /* \"#utility.yul\":15171:15291   */\n      jump(tag_466)\n    tag_468:\n        /* \"#utility.yul\":15111:15297   */\n      pop\n      pop\n      jump\t// out\n        /* \"#utility.yul\":15303:15846   */\n    tag_281:\n        /* \"#utility.yul\":15404:15406   */\n      0x1f\n        /* \"#utility.yul\":15399:15402   */\n      dup3\n        /* \"#utility.yul\":15396:15407   */\n      gt\n        /* \"#utility.yul\":15393:15839   */\n      iszero\n      tag_471\n      jumpi\n        /* \"#utility.yul\":15438:15476   */\n      tag_472\n        /* \"#utility.yul\":15470:15475   */\n      dup2\n        /* \"#utility.yul\":15438:15476   */\n      tag_270\n      jump\t// in\n    tag_472:\n        /* \"#utility.yul\":15522:15551   */\n      tag_473\n        /* \"#utility.yul\":15540:15550   */\n      dup5\n        /* \"#utility.yul\":15522:15551   */\n      tag_271\n      jump\t// in\n    tag_473:\n        /* \"#utility.yul\":15512:15520   */\n      dup2\n        /* \"#utility.yul\":15508:15552   */\n      add\n        /* \"#utility.yul\":15705:15707   */\n      0x20\n        /* \"#utility.yul\":15693:15703   */\n      dup6\n        /* \"#utility.yul\":15690:15708   */\n      lt\n        /* \"#utility.yul\":15687:15736   */\n      iszero\n      tag_474\n      jumpi\n        /* \"#utility.yul\":15726:15734   */\n      dup2\n        /* \"#utility.yul\":15711:15734   */\n      swap1\n      pop\n        /* \"#utility.yul\":15687:15736   */\n    tag_474:\n        /* \"#utility.yul\":15749:15829   */\n      tag_475\n        /* \"#utility.yul\":15805:15827   */\n      tag_476\n        /* \"#utility.yul\":15823:15826   */\n      dup6\n        /* \"#utility.yul\":15805:15827   */\n      tag_271\n      jump\t// in\n    tag_476:\n        /* \"#utility.yul\":15795:15803   */\n      dup4\n        /* \"#utility.yul\":15791:15828   */\n      add\n        /* \"#utility.yul\":15778:15789   */\n      dup3\n        /* \"#utility.yul\":15749:15829   */\n      tag_280\n      jump\t// in\n    tag_475:\n        /* \"#utility.yul\":15408:15839   */\n      pop\n      pop\n        /* \"#utility.yul\":15393:15839   */\n    tag_471:\n        /* \"#utility.yul\":15303:15846   */\n      pop\n      pop\n      pop\n      jump\t// out\n        /* \"#utility.yul\":15852:15969   */\n    tag_282:\n        /* \"#utility.yul\":15906:15914   */\n      0x00\n        /* \"#utility.yul\":15956:15961   */\n      dup3\n        /* \"#utility.yul\":15950:15954   */\n      dup3\n        /* \"#utility.yul\":15946:15962   */\n      shr\n        /* \"#utility.yul\":15925:15962   */\n      swap1\n      pop\n        /* \"#utility.yul\":15852:15969   */\n      swap3\n      swap2\n      pop\n      pop\n      jump\t// out\n        /* \"#utility.yul\":15975:16144   */\n    tag_283:\n        /* \"#utility.yul\":16019:16025   */\n      0x00\n        /* \"#utility.yul\":16052:16103   */\n      tag_479\n        /* \"#utility.yul\":16100:16101   */\n      0x00\n        /* \"#utility.yul\":16096:16102   */\n      not\n        /* \"#utility.yul\":16088:16093   */\n      dup5\n        /* \"#utility.yul\":16085:16086   */\n      0x08\n        /* \"#utility.yul\":16081:16094   */\n      mul\n        /* \"#utility.yul\":16052:16103   */\n      tag_282\n      jump\t// in\n    tag_479:\n        /* \"#utility.yul\":16048:16104   */\n      not\n        /* \"#utility.yul\":16133:16137   */\n      dup1\n        /* \"#utility.yul\":16127:16131   */\n      dup4\n        /* \"#utility.yul\":16123:16138   */\n      and\n        /* \"#utility.yul\":16113:16138   */\n      swap2\n      pop\n        /* \"#utility.yul\":16026:16144   */\n      pop\n        /* \"#utility.yul\":15975:16144   */\n      swap3\n      swap2\n      pop\n      pop\n      jump\t// out\n        /* \"#utility.yul\":16149:16444   */\n    tag_284:\n        /* \"#utility.yul\":16225:16229   */\n      0x00\n        /* \"#utility.yul\":16371:16400   */\n      tag_481\n        /* \"#utility.yul\":16396:16399   */\n      dup4\n        /* \"#utility.yul\":16390:16394   */\n      dup4\n        /* \"#utility.yul\":16371:16400   */\n      tag_283\n      jump\t// in\n    tag_481:\n        /* \"#utility.yul\":16363:16400   */\n      swap2\n      pop\n        /* \"#utility.yul\":16433:16436   */\n      dup3\n        /* \"#utility.yul\":16430:16431   */\n      0x02\n        /* \"#utility.yul\":16426:16437   */\n      mul\n        /* \"#utility.yul\":16420:16424   */\n      dup3\n        /* \"#utility.yul\":16417:16438   */\n      or\n        /* \"#utility.yul\":16409:16438   */\n      swap1\n      pop\n        /* \"#utility.yul\":16149:16444   */\n      swap3\n      swap2\n      pop\n      pop\n      jump\t// out\n        /* \"#utility.yul\":16449:17900   */\n    tag_92:\n        /* \"#utility.yul\":16560:16563   */\n      dup2\n        /* \"#utility.yul\":16554:16558   */\n      dup2\n        /* \"#utility.yul\":16551:16564   */\n      sub\n        /* \"#utility.yul\":16548:16574   */\n      tag_483\n      jumpi\n        /* \"#utility.yul\":16567:16572   */\n      pop\n      pop\n      jump(tag_482)\n        /* \"#utility.yul\":16548:16574   */\n    tag_483:\n        /* \"#utility.yul\":16598:16632   */\n      tag_484\n        /* \"#utility.yul\":16628:16631   */\n      dup3\n        /* \"#utility.yul\":16598:16632   */\n      tag_268\n      jump\t// in\n    tag_484:\n        /* \"#utility.yul\":16697:16715   */\n      0xffffffffffffffff\n        /* \"#utility.yul\":16689:16695   */\n      dup2\n        /* \"#utility.yul\":16686:16716   */\n      gt\n        /* \"#utility.yul\":16683:16739   */\n      iszero\n      tag_485\n      jumpi\n        /* \"#utility.yul\":16719:16737   */\n      tag_486\n      tag_269\n      jump\t// in\n    tag_486:\n        /* \"#utility.yul\":16683:16739   */\n    tag_485:\n        /* \"#utility.yul\":16763:16801   */\n      tag_487\n        /* \"#utility.yul\":16795:16799   */\n      dup3\n        /* \"#utility.yul\":16789:16800   */\n      sload\n        /* \"#utility.yul\":16763:16801   */\n      tag_139\n      jump\t// in\n    tag_487:\n        /* \"#utility.yul\":16848:16915   */\n      tag_488\n        /* \"#utility.yul\":16908:16914   */\n      dup3\n        /* \"#utility.yul\":16900:16906   */\n      dup3\n        /* \"#utility.yul\":16894:16898   */\n      dup6\n        /* \"#utility.yul\":16848:16915   */\n      tag_281\n      jump\t// in\n    tag_488:\n        /* \"#utility.yul\":16942:16943   */\n      0x00\n        /* \"#utility.yul\":16971:16973   */\n      0x1f\n        /* \"#utility.yul\":16963:16969   */\n      dup4\n        /* \"#utility.yul\":16960:16974   */\n      gt\n        /* \"#utility.yul\":16988:16989   */\n      0x01\n        /* \"#utility.yul\":16983:17655   */\n      dup2\n      eq\n      tag_490\n      jumpi\n        /* \"#utility.yul\":17699:17700   */\n      0x00\n        /* \"#utility.yul\":17716:17722   */\n      dup5\n        /* \"#utility.yul\":17713:17790   */\n      iszero\n      tag_491\n      jumpi\n        /* \"#utility.yul\":17765:17774   */\n      dup3\n        /* \"#utility.yul\":17760:17763   */\n      dup8\n        /* \"#utility.yul\":17756:17775   */\n      add\n        /* \"#utility.yul\":17750:17776   */\n      sload\n        /* \"#utility.yul\":17741:17776   */\n      swap1\n      pop\n        /* \"#utility.yul\":17713:17790   */\n    tag_491:\n        /* \"#utility.yul\":17816:17883   */\n      tag_492\n        /* \"#utility.yul\":17876:17882   */\n      dup6\n        /* \"#utility.yul\":17869:17874   */\n      dup3\n        /* \"#utility.yul\":17816:17883   */\n      tag_284\n      jump\t// in\n    tag_492:\n        /* \"#utility.yul\":17810:17814   */\n      dup7\n        /* \"#utility.yul\":17803:17884   */\n      sstore\n        /* \"#utility.yul\":17672:17894   */\n      pop\n        /* \"#utility.yul\":16953:17894   */\n      jump(tag_489)\n        /* \"#utility.yul\":16983:17655   */\n    tag_490:\n        /* \"#utility.yul\":17035:17039   */\n      0x1f\n        /* \"#utility.yul\":17031:17040   */\n      not\n        /* \"#utility.yul\":17023:17029   */\n      dup5\n        /* \"#utility.yul\":17019:17041   */\n      and\n        /* \"#utility.yul\":17061:17097   */\n      tag_493\n        /* \"#utility.yul\":17093:17096   */\n      dup8\n        /* \"#utility.yul\":17061:17097   */\n      tag_270\n      jump\t// in\n    tag_493:\n        /* \"#utility.yul\":17054:17097   */\n      swap7\n      pop\n        /* \"#utility.yul\":17124:17161   */\n      tag_494\n        /* \"#utility.yul\":17156:17160   */\n      dup7\n        /* \"#utility.yul\":17124:17161   */\n      tag_270\n      jump\t// in\n    tag_494:\n        /* \"#utility.yul\":17183:17184   */\n      0x00\n        /* \"#utility.yul\":17197:17404   */\n    tag_495:\n        /* \"#utility.yul\":17211:17218   */\n      dup3\n        /* \"#utility.yul\":17208:17209   */\n      dup2\n        /* \"#utility.yul\":17205:17219   */\n      lt\n        /* \"#utility.yul\":17197:17404   */\n      iszero\n      tag_497\n      jumpi\n        /* \"#utility.yul\":17290:17299   */\n      dup5\n        /* \"#utility.yul\":17285:17288   */\n      dup10\n        /* \"#utility.yul\":17281:17300   */\n      add\n        /* \"#utility.yul\":17275:17301   */\n      sload\n        /* \"#utility.yul\":17267:17273   */\n      dup3\n        /* \"#utility.yul\":17260:17302   */\n      sstore\n        /* \"#utility.yul\":17341:17342   */\n      0x01\n        /* \"#utility.yul\":17333:17339   */\n      dup3\n        /* \"#utility.yul\":17329:17343   */\n      add\n        /* \"#utility.yul\":17319:17343   */\n      swap2\n      pop\n        /* \"#utility.yul\":17388:17389   */\n      0x01\n        /* \"#utility.yul\":17377:17386   */\n      dup6\n        /* \"#utility.yul\":17373:17390   */\n      add\n        /* \"#utility.yul\":17360:17390   */\n      swap5\n      pop\n        /* \"#utility.yul\":17234:17238   */\n      0x20\n        /* \"#utility.yul\":17231:17232   */\n      dup2\n        /* \"#utility.yul\":17227:17239   */\n      add\n        /* \"#utility.yul\":17222:17239   */\n      swap1\n      pop\n        /* \"#utility.yul\":17197:17404   */\n      jump(tag_495)\n    tag_497:\n        /* \"#utility.yul\":17432:17438   */\n      dup7\n        /* \"#utility.yul\":17423:17430   */\n      dup4\n        /* \"#utility.yul\":17420:17439   */\n      lt\n        /* \"#utility.yul\":17417:17596   */\n      iszero\n      tag_498\n      jumpi\n        /* \"#utility.yul\":17490:17499   */\n      dup5\n        /* \"#utility.yul\":17485:17488   */\n      dup10\n        /* \"#utility.yul\":17481:17500   */\n      add\n        /* \"#utility.yul\":17475:17501   */\n      sload\n        /* \"#utility.yul\":17533:17581   */\n      tag_499\n        /* \"#utility.yul\":17575:17579   */\n      0x1f\n        /* \"#utility.yul\":17567:17573   */\n      dup10\n        /* \"#utility.yul\":17563:17580   */\n      and\n        /* \"#utility.yul\":17552:17561   */\n      dup3\n        /* \"#utility.yul\":17533:17581   */\n      tag_283\n      jump\t// in\n    tag_499:\n        /* \"#utility.yul\":17525:17531   */\n      dup4\n        /* \"#utility.yul\":17518:17582   */\n      sstore\n        /* \"#utility.yul\":17440:17596   */\n      pop\n        /* \"#utility.yul\":17417:17596   */\n    tag_498:\n        /* \"#utility.yul\":17642:17643   */\n      0x01\n        /* \"#utility.yul\":17638:17639   */\n      0x02\n        /* \"#utility.yul\":17630:17636   */\n      dup9\n        /* \"#utility.yul\":17626:17640   */\n      mul\n        /* \"#utility.yul\":17622:17644   */\n      add\n        /* \"#utility.yul\":17616:17620   */\n      dup9\n        /* \"#utility.yul\":17609:17645   */\n      sstore\n        /* \"#utility.yul\":16990:17655   */\n      pop\n      pop\n      pop\n        /* \"#utility.yul\":16953:17894   */\n    tag_489:\n      pop\n        /* \"#utility.yul\":16538:17900   */\n      pop\n      pop\n      pop\n        /* \"#utility.yul\":16449:17900   */\n      pop\n      pop\n    tag_482:\n      jump\t// out\n        /* \"#utility.yul\":17906:18139   */\n    tag_108:\n        /* \"#utility.yul\":17945:17948   */\n      0x00\n        /* \"#utility.yul\":17968:17992   */\n      tag_501\n        /* \"#utility.yul\":17986:17991   */\n      dup3\n        /* \"#utility.yul\":17968:17992   */\n      tag_229\n      jump\t// in\n    tag_501:\n        /* \"#utility.yul\":17959:17992   */\n      swap2\n      pop\n        /* \"#utility.yul\":18014:18080   */\n      0xffffffffffffffffffffffffffffffffffffffffffffffffffffffffffffffff\n        /* \"#utility.yul\":18007:18012   */\n      dup3\n        /* \"#utility.yul\":18004:18081   */\n      sub\n        /* \"#utility.yul\":18001:18104   */\n      tag_502\n      jumpi\n        /* \"#utility.yul\":18084:18102   */\n      tag_503\n      tag_266\n      jump\t// in\n    tag_503:\n        /* \"#utility.yul\":18001:18104   */\n    tag_502:\n        /* \"#utility.yul\":18131:18132   */\n      0x01\n        /* \"#utility.yul\":18124:18129   */\n      dup3\n        /* \"#utility.yul\":18120:18133   */\n      add\n        /* \"#utility.yul\":18113:18133   */\n      swap1\n      pop\n        /* \"#utility.yul\":17906:18139   */\n      swap2\n      swap1\n      pop\n      jump\t// out\n        /* \"#utility.yul\":18145:18314   */\n    tag_285:\n        /* \"#utility.yul\":18229:18240   */\n      0x00\n        /* \"#utility.yul\":18263:18269   */\n      dup3\n        /* \"#utility.yul\":18258:18261   */\n      dup3\n        /* \"#utility.yul\":18251:18270   */\n      mstore\n        /* \"#utility.yul\":18303:18307   */\n      0x20\n        /* \"#utility.yul\":18298:18301   */\n      dup3\n        /* \"#utility.yul\":18294:18308   */\n      add\n        /* \"#utility.yul\":18279:18308   */\n      swap1\n      pop\n        /* \"#utility.yul\":18145:18314   */\n      swap3\n      swap2\n      pop\n      pop\n      jump\t// out\n        /* \"#utility.yul\":18320:18544   */\n    tag_286:\n        /* \"#utility.yul\":18460:18494   */\n      0x53657373696f6e206e65656420626520696e20766f7465207374617475732062\n        /* \"#utility.yul\":18456:18457   */\n      0x00\n        /* \"#utility.yul\":18448:18454   */\n      dup3\n        /* \"#utility.yul\":18444:18458   */\n      add\n        /* \"#utility.yul\":18437:18495   */\n      mstore\n        /* \"#utility.yul\":18529:18536   */\n      0x65666f7265000000000000000000000000000000000000000000000000000000\n        /* \"#utility.yul\":18524:18526   */\n      0x20\n        /* \"#utility.yul\":18516:18522   */\n      dup3\n        /* \"#utility.yul\":18512:18527   */\n      add\n        /* \"#utility.yul\":18505:18537   */\n      mstore\n        /* \"#utility.yul\":18320:18544   */\n      pop\n      jump\t// out\n        /* \"#utility.yul\":18550:18916   */\n    tag_287:\n        /* \"#utility.yul\":18692:18695   */\n      0x00\n        /* \"#utility.yul\":18713:18780   */\n      tag_507\n        /* \"#utility.yul\":18777:18779   */\n      0x25\n        /* \"#utility.yul\":18772:18775   */\n      dup4\n        /* \"#utility.yul\":18713:18780   */\n      tag_285\n      jump\t// in\n    tag_507:\n        /* \"#utility.yul\":18706:18780   */\n      swap2\n      pop\n        /* \"#utility.yul\":18789:18882   */\n      tag_508\n        /* \"#utility.yul\":18878:18881   */\n      dup3\n        /* \"#utility.yul\":18789:18882   */\n      tag_286\n      jump\t// in\n    tag_508:\n        /* \"#utility.yul\":18907:18909   */\n      0x40\n        /* \"#utility.yul\":18902:18905   */\n      dup3\n        /* \"#utility.yul\":18898:18910   */\n      add\n        /* \"#utility.yul\":18891:18910   */\n      swap1\n      pop\n        /* \"#utility.yul\":18550:18916   */\n      swap2\n      swap1\n      pop\n      jump\t// out\n        /* \"#utility.yul\":18922:19341   */\n    tag_118:\n        /* \"#utility.yul\":19088:19092   */\n      0x00\n        /* \"#utility.yul\":19126:19128   */\n      0x20\n        /* \"#utility.yul\":19115:19124   */\n      dup3\n        /* \"#utility.yul\":19111:19129   */\n      add\n        /* \"#utility.yul\":19103:19129   */\n      swap1\n      pop\n        /* \"#utility.yul\":19175:19184   */\n      dup2\n        /* \"#utility.yul\":19169:19173   */\n      dup2\n        /* \"#utility.yul\":19165:19185   */\n      sub\n        /* \"#utility.yul\":19161:19162   */\n      0x00\n        /* \"#utility.yul\":19150:19159   */\n      dup4\n        /* \"#utility.yul\":19146:19163   */\n      add\n        /* \"#utility.yul\":19139:19186   */\n      mstore\n        /* \"#utility.yul\":19203:19334   */\n      tag_510\n        /* \"#utility.yul\":19329:19333   */\n      dup2\n        /* \"#utility.yul\":19203:19334   */\n      tag_287\n      jump\t// in\n    tag_510:\n        /* \"#utility.yul\":19195:19334   */\n      swap1\n      pop\n        /* \"#utility.yul\":18922:19341   */\n      swap2\n      swap1\n      pop\n      jump\t// out\n        /* \"#utility.yul\":19347:19449   */\n    tag_288:\n        /* \"#utility.yul\":19389:19397   */\n      0x00\n        /* \"#utility.yul\":19436:19441   */\n      dup2\n        /* \"#utility.yul\":19433:19434   */\n      0x00\n        /* \"#utility.yul\":19429:19442   */\n      shr\n        /* \"#utility.yul\":19408:19442   */\n      swap1\n      pop\n        /* \"#utility.yul\":19347:19449   */\n      swap2\n      swap1\n      pop\n      jump\t// out\n        /* \"#utility.yul\":19455:19564   */\n    tag_289:\n        /* \"#utility.yul\":19513:19520   */\n      0x00\n        /* \"#utility.yul\":19553:19557   */\n      0xff\n        /* \"#utility.yul\":19546:19551   */\n      dup3\n        /* \"#utility.yul\":19542:19558   */\n      and\n        /* \"#utility.yul\":19531:19558   */\n      swap1\n      pop\n        /* \"#utility.yul\":19455:19564   */\n      swap2\n      swap1\n      pop\n      jump\t// out\n        /* \"#utility.yul\":19570:19752   */\n    tag_290:\n        /* \"#utility.yul\":19647:19652   */\n      0x00\n        /* \"#utility.yul\":19672:19746   */\n      tag_514\n        /* \"#utility.yul\":19711:19745   */\n      tag_515\n        /* \"#utility.yul\":19734:19744   */\n      dup4\n        /* \"#utility.yul\":19711:19745   */\n      tag_288\n      jump\t// in\n    tag_515:\n        /* \"#utility.yul\":19672:19746   */\n      tag_289\n      jump\t// in\n    tag_514:\n        /* \"#utility.yul\":19663:19746   */\n      swap1\n      pop\n        /* \"#utility.yul\":19570:19752   */\n      swap2\n      swap1\n      pop\n      jump\t// out\n        /* \"#utility.yul\":19758:19860   */\n    tag_291:\n        /* \"#utility.yul\":19800:19808   */\n      0x00\n        /* \"#utility.yul\":19847:19852   */\n      dup2\n        /* \"#utility.yul\":19844:19845   */\n      0x08\n        /* \"#utility.yul\":19840:19853   */\n      shr\n        /* \"#utility.yul\":19819:19853   */\n      swap1\n      pop\n        /* \"#utility.yul\":19758:19860   */\n      swap2\n      swap1\n      pop\n      jump\t// out\n        /* \"#utility.yul\":19866:19964   */\n    tag_292:\n        /* \"#utility.yul\":19913:19920   */\n      0x00\n        /* \"#utility.yul\":19953:19957   */\n      0xff\n        /* \"#utility.yul\":19946:19951   */\n      dup3\n        /* \"#utility.yul\":19942:19958   */\n      and\n        /* \"#utility.yul\":19931:19958   */\n      swap1\n      pop\n        /* \"#utility.yul\":19866:19964   */\n      swap2\n      swap1\n      pop\n      jump\t// out\n        /* \"#utility.yul\":19970:20130   */\n    tag_293:\n        /* \"#utility.yul\":20036:20041   */\n      0x00\n        /* \"#utility.yul\":20061:20124   */\n      tag_519\n        /* \"#utility.yul\":20089:20123   */\n      tag_520\n        /* \"#utility.yul\":20112:20122   */\n      dup4\n        /* \"#utility.yul\":20089:20123   */\n      tag_291\n      jump\t// in\n    tag_520:\n        /* \"#utility.yul\":20061:20124   */\n      tag_292\n      jump\t// in\n    tag_519:\n        /* \"#utility.yul\":20052:20124   */\n      swap1\n      pop\n        /* \"#utility.yul\":19970:20130   */\n      swap2\n      swap1\n      pop\n      jump\t// out\n        /* \"#utility.yul\":20136:20269   */\n    tag_294:\n        /* \"#utility.yul\":20222:20228   */\n      0x00\n        /* \"#utility.yul\":20256:20261   */\n      dup2\n        /* \"#utility.yul\":20250:20262   */\n      sload\n        /* \"#utility.yul\":20240:20262   */\n      swap1\n      pop\n        /* \"#utility.yul\":20136:20269   */\n      swap2\n      swap1\n      pop\n      jump\t// out\n        /* \"#utility.yul\":20275:20453   */\n    tag_295:\n        /* \"#utility.yul\":20361:20365   */\n      0x00\n        /* \"#utility.yul\":20384:20387   */\n      dup2\n        /* \"#utility.yul\":20376:20387   */\n      swap1\n      pop\n        /* \"#utility.yul\":20407:20410   */\n      dup2\n        /* \"#utility.yul\":20404:20405   */\n      0x00\n        /* \"#utility.yul\":20397:20411   */\n      mstore\n        /* \"#utility.yul\":20441:20445   */\n      0x20\n        /* \"#utility.yul\":20438:20439   */\n      0x00\n        /* \"#utility.yul\":20428:20446   */\n      keccak256\n        /* \"#utility.yul\":20420:20446   */\n      swap1\n      pop\n        /* \"#utility.yul\":20275:20453   */\n      swap2\n      swap1\n      pop\n      jump\t// out\n        /* \"#utility.yul\":20483:21294   */\n    tag_296:\n        /* \"#utility.yul\":20558:20561   */\n      0x00\n        /* \"#utility.yul\":20595:20600   */\n      dup2\n        /* \"#utility.yul\":20589:20601   */\n      sload\n        /* \"#utility.yul\":20624:20660   */\n      tag_524\n        /* \"#utility.yul\":20650:20659   */\n      dup2\n        /* \"#utility.yul\":20624:20660   */\n      tag_139\n      jump\t// in\n    tag_524:\n        /* \"#utility.yul\":20676:20737   */\n      tag_525\n        /* \"#utility.yul\":20730:20736   */\n      dup2\n        /* \"#utility.yul\":20725:20728   */\n      dup7\n        /* \"#utility.yul\":20676:20737   */\n      tag_242\n      jump\t// in\n    tag_525:\n        /* \"#utility.yul\":20669:20737   */\n      swap5\n      pop\n        /* \"#utility.yul\":20768:20769   */\n      0x01\n        /* \"#utility.yul\":20757:20766   */\n      dup3\n        /* \"#utility.yul\":20753:20770   */\n      and\n        /* \"#utility.yul\":20784:20785   */\n      0x00\n        /* \"#utility.yul\":20779:20943   */\n      dup2\n      eq\n      tag_527\n      jumpi\n        /* \"#utility.yul\":20957:20958   */\n      0x01\n        /* \"#utility.yul\":20952:21288   */\n      dup2\n      eq\n      tag_528\n      jumpi\n        /* \"#utility.yul\":20746:21288   */\n      jump(tag_526)\n        /* \"#utility.yul\":20779:20943   */\n    tag_527:\n        /* \"#utility.yul\":20863:20867   */\n      0xff\n        /* \"#utility.yul\":20859:20868   */\n      not\n        /* \"#utility.yul\":20848:20857   */\n      dup4\n        /* \"#utility.yul\":20844:20869   */\n      and\n        /* \"#utility.yul\":20839:20842   */\n      dup7\n        /* \"#utility.yul\":20832:20870   */\n      mstore\n        /* \"#utility.yul\":20923:20929   */\n      dup2\n        /* \"#utility.yul\":20916:20930   */\n      iszero\n        /* \"#utility.yul\":20909:20931   */\n      iszero\n        /* \"#utility.yul\":20903:20907   */\n      0x20\n        /* \"#utility.yul\":20899:20932   */\n      mul\n        /* \"#utility.yul\":20894:20897   */\n      dup7\n        /* \"#utility.yul\":20890:20933   */\n      add\n        /* \"#utility.yul\":20883:20933   */\n      swap4\n      pop\n        /* \"#utility.yul\":20779:20943   */\n      jump(tag_526)\n        /* \"#utility.yul\":20952:21288   */\n    tag_528:\n        /* \"#utility.yul\":21019:21057   */\n      tag_529\n        /* \"#utility.yul\":21051:21056   */\n      dup6\n        /* \"#utility.yul\":21019:21057   */\n      tag_270\n      jump\t// in\n    tag_529:\n        /* \"#utility.yul\":21079:21080   */\n      0x00\n        /* \"#utility.yul\":21093:21247   */\n    tag_530:\n        /* \"#utility.yul\":21107:21113   */\n      dup4\n        /* \"#utility.yul\":21104:21105   */\n      dup2\n        /* \"#utility.yul\":21101:21114   */\n      lt\n        /* \"#utility.yul\":21093:21247   */\n      iszero\n      tag_532\n      jumpi\n        /* \"#utility.yul\":21181:21188   */\n      dup2\n        /* \"#utility.yul\":21175:21189   */\n      sload\n        /* \"#utility.yul\":21171:21172   */\n      dup2\n        /* \"#utility.yul\":21166:21169   */\n      dup10\n        /* \"#utility.yul\":21162:21173   */\n      add\n        /* \"#utility.yul\":21155:21190   */\n      mstore\n        /* \"#utility.yul\":21231:21232   */\n      0x01\n        /* \"#utility.yul\":21222:21229   */\n      dup3\n        /* \"#utility.yul\":21218:21233   */\n      add\n        /* \"#utility.yul\":21207:21233   */\n      swap2\n      pop\n        /* \"#utility.yul\":21129:21133   */\n      0x20\n        /* \"#utility.yul\":21126:21127   */\n      dup2\n        /* \"#utility.yul\":21122:21134   */\n      add\n        /* \"#utility.yul\":21117:21134   */\n      swap1\n      pop\n        /* \"#utility.yul\":21093:21247   */\n      jump(tag_530)\n    tag_532:\n        /* \"#utility.yul\":21276:21277   */\n      dup1\n        /* \"#utility.yul\":21271:21274   */\n      dup9\n        /* \"#utility.yul\":21267:21278   */\n      add\n        /* \"#utility.yul\":21260:21278   */\n      swap6\n      pop\n        /* \"#utility.yul\":20959:21288   */\n      pop\n      pop\n        /* \"#utility.yul\":20746:21288   */\n    tag_526:\n      pop\n        /* \"#utility.yul\":20562:21294   */\n      pop\n      pop\n        /* \"#utility.yul\":20483:21294   */\n      swap3\n      swap2\n      pop\n      pop\n      jump\t// out\n        /* \"#utility.yul\":21300:21390   */\n    tag_297:\n        /* \"#utility.yul\":21350:21357   */\n      0x00\n        /* \"#utility.yul\":21379:21384   */\n      dup2\n        /* \"#utility.yul\":21368:21384   */\n      swap1\n      pop\n        /* \"#utility.yul\":21300:21390   */\n      swap2\n      swap1\n      pop\n      jump\t// out\n        /* \"#utility.yul\":21396:21562   */\n    tag_298:\n        /* \"#utility.yul\":21465:21470   */\n      0x00\n        /* \"#utility.yul\":21490:21556   */\n      tag_535\n        /* \"#utility.yul\":21521:21555   */\n      tag_536\n        /* \"#utility.yul\":21544:21554   */\n      dup4\n        /* \"#utility.yul\":21521:21555   */\n      tag_288\n      jump\t// in\n    tag_536:\n        /* \"#utility.yul\":21490:21556   */\n      tag_297\n      jump\t// in\n    tag_535:\n        /* \"#utility.yul\":21481:21556   */\n      swap1\n      pop\n        /* \"#utility.yul\":21396:21562   */\n      swap2\n      swap1\n      pop\n      jump\t// out\n        /* \"#utility.yul\":21624:22326   */\n    tag_299:\n        /* \"#utility.yul\":21730:21733   */\n      0x00\n        /* \"#utility.yul\":21766:21770   */\n      0x40\n        /* \"#utility.yul\":21761:21764   */\n      dup4\n        /* \"#utility.yul\":21757:21771   */\n      add\n        /* \"#utility.yul\":21797:21798   */\n      0x00\n        /* \"#utility.yul\":21881:21885   */\n      dup1\n        /* \"#utility.yul\":21874:21879   */\n      dup5\n        /* \"#utility.yul\":21870:21886   */\n      add\n        /* \"#utility.yul\":21933:21936   */\n      dup6\n        /* \"#utility.yul\":21927:21931   */\n      dup4\n        /* \"#utility.yul\":21923:21937   */\n      sub\n        /* \"#utility.yul\":21916:21920   */\n      0x00\n        /* \"#utility.yul\":21911:21914   */\n      dup8\n        /* \"#utility.yul\":21907:21921   */\n      add\n        /* \"#utility.yul\":21900:21938   */\n      mstore\n        /* \"#utility.yul\":21959:22029   */\n      tag_538\n        /* \"#utility.yul\":22024:22028   */\n      dup4\n        /* \"#utility.yul\":22010:22022   */\n      dup3\n        /* \"#utility.yul\":21959:22029   */\n      tag_296\n      jump\t// in\n    tag_538:\n        /* \"#utility.yul\":21951:22029   */\n      swap3\n      pop\n        /* \"#utility.yul\":21808:22040   */\n      pop\n        /* \"#utility.yul\":22119:22123   */\n      0x01\n        /* \"#utility.yul\":22112:22117   */\n      dup5\n        /* \"#utility.yul\":22108:22124   */\n      add\n        /* \"#utility.yul\":22102:22125   */\n      sload\n        /* \"#utility.yul\":22089:22125   */\n      swap1\n      pop\n        /* \"#utility.yul\":22158:22213   */\n      tag_539\n        /* \"#utility.yul\":22203:22212   */\n      dup2\n        /* \"#utility.yul\":22158:22213   */\n      tag_298\n      jump\t// in\n    tag_539:\n        /* \"#utility.yul\":22226:22289   */\n      tag_540\n        /* \"#utility.yul\":22283:22287   */\n      0x20\n        /* \"#utility.yul\":22278:22281   */\n      dup8\n        /* \"#utility.yul\":22274:22288   */\n      add\n        /* \"#utility.yul\":22260:22272   */\n      dup3\n        /* \"#utility.yul\":22226:22289   */\n      tag_246\n      jump\t// in\n    tag_540:\n        /* \"#utility.yul\":22050:22299   */\n      pop\n        /* \"#utility.yul\":22316:22320   */\n      dup2\n        /* \"#utility.yul\":22309:22320   */\n      swap3\n      pop\n        /* \"#utility.yul\":21735:22326   */\n      pop\n      pop\n        /* \"#utility.yul\":21624:22326   */\n      swap3\n      swap2\n      pop\n      pop\n      jump\t// out\n        /* \"#utility.yul\":22332:22582   */\n    tag_300:\n        /* \"#utility.yul\":22448:22458   */\n      0x00\n        /* \"#utility.yul\":22483:22576   */\n      tag_542\n        /* \"#utility.yul\":22572:22575   */\n      dup4\n        /* \"#utility.yul\":22564:22570   */\n      dup4\n        /* \"#utility.yul\":22483:22576   */\n      tag_299\n      jump\t// in\n    tag_542:\n        /* \"#utility.yul\":22469:22576   */\n      swap1\n      pop\n        /* \"#utility.yul\":22332:22582   */\n      swap3\n      swap2\n      pop\n      pop\n      jump\t// out\n        /* \"#utility.yul\":22588:22720   */\n    tag_301:\n        /* \"#utility.yul\":22677:22681   */\n      0x00\n        /* \"#utility.yul\":22709:22713   */\n      0x02\n        /* \"#utility.yul\":22704:22707   */\n      dup3\n        /* \"#utility.yul\":22700:22714   */\n      add\n        /* \"#utility.yul\":22692:22714   */\n      swap1\n      pop\n        /* \"#utility.yul\":22588:22720   */\n      swap2\n      swap1\n      pop\n      jump\t// out\n        /* \"#utility.yul\":22786:23843   */\n    tag_302:\n        /* \"#utility.yul\":22939:22942   */\n      0x00\n        /* \"#utility.yul\":22968:23041   */\n      tag_545\n        /* \"#utility.yul\":23035:23040   */\n      dup3\n        /* \"#utility.yul\":22968:23041   */\n      tag_294\n      jump\t// in\n    tag_545:\n        /* \"#utility.yul\":23057:23158   */\n      tag_546\n        /* \"#utility.yul\":23151:23157   */\n      dup2\n        /* \"#utility.yul\":23146:23149   */\n      dup6\n        /* \"#utility.yul\":23057:23158   */\n      tag_239\n      jump\t// in\n    tag_546:\n        /* \"#utility.yul\":23050:23158   */\n      swap4\n      pop\n        /* \"#utility.yul\":23184:23187   */\n      dup4\n        /* \"#utility.yul\":23229:23233   */\n      0x20\n        /* \"#utility.yul\":23221:23227   */\n      dup3\n        /* \"#utility.yul\":23217:23234   */\n      mul\n        /* \"#utility.yul\":23212:23215   */\n      dup6\n        /* \"#utility.yul\":23208:23235   */\n      add\n        /* \"#utility.yul\":23259:23334   */\n      tag_547\n        /* \"#utility.yul\":23328:23333   */\n      dup6\n        /* \"#utility.yul\":23259:23334   */\n      tag_295\n      jump\t// in\n    tag_547:\n        /* \"#utility.yul\":23357:23364   */\n      dup1\n        /* \"#utility.yul\":23388:23389   */\n      0x00\n        /* \"#utility.yul\":23373:23798   */\n    tag_548:\n        /* \"#utility.yul\":23398:23404   */\n      dup6\n        /* \"#utility.yul\":23395:23396   */\n      dup2\n        /* \"#utility.yul\":23392:23405   */\n      lt\n        /* \"#utility.yul\":23373:23798   */\n      iszero\n      tag_550\n      jumpi\n        /* \"#utility.yul\":23469:23478   */\n      dup5\n        /* \"#utility.yul\":23463:23467   */\n      dup5\n        /* \"#utility.yul\":23459:23479   */\n      sub\n        /* \"#utility.yul\":23454:23457   */\n      dup10\n        /* \"#utility.yul\":23447:23480   */\n      mstore\n        /* \"#utility.yul\":23514:23520   */\n      dup2\n        /* \"#utility.yul\":23541:23652   */\n      tag_551\n        /* \"#utility.yul\":23647:23651   */\n      dup6\n        /* \"#utility.yul\":23632:23645   */\n      dup3\n        /* \"#utility.yul\":23541:23652   */\n      tag_300\n      jump\t// in\n    tag_551:\n        /* \"#utility.yul\":23533:23652   */\n      swap5\n      pop\n        /* \"#utility.yul\":23675:23754   */\n      tag_552\n        /* \"#utility.yul\":23747:23753   */\n      dup4\n        /* \"#utility.yul\":23675:23754   */\n      tag_301\n      jump\t// in\n    tag_552:\n        /* \"#utility.yul\":23665:23754   */\n      swap3\n      pop\n        /* \"#utility.yul\":23783:23787   */\n      0x20\n        /* \"#utility.yul\":23778:23781   */\n      dup11\n        /* \"#utility.yul\":23774:23788   */\n      add\n        /* \"#utility.yul\":23767:23788   */\n      swap10\n      pop\n        /* \"#utility.yul\":23433:23798   */\n      pop\n        /* \"#utility.yul\":23420:23421   */\n      0x01\n        /* \"#utility.yul\":23417:23418   */\n      dup2\n        /* \"#utility.yul\":23413:23422   */\n      add\n        /* \"#utility.yul\":23408:23422   */\n      swap1\n      pop\n        /* \"#utility.yul\":23373:23798   */\n      jump(tag_548)\n    tag_550:\n        /* \"#utility.yul\":23377:23391   */\n      pop\n        /* \"#utility.yul\":23814:23818   */\n      dup3\n        /* \"#utility.yul\":23807:23818   */\n      swap8\n      pop\n        /* \"#utility.yul\":23834:23837   */\n      dup8\n        /* \"#utility.yul\":23827:23837   */\n      swap6\n      pop\n        /* \"#utility.yul\":22944:23843   */\n      pop\n      pop\n      pop\n      pop\n      pop\n        /* \"#utility.yul\":22786:23843   */\n      swap3\n      swap2\n      pop\n      pop\n      jump\t// out\n        /* \"#utility.yul\":23903:24911   */\n    tag_303:\n        /* \"#utility.yul\":24017:24020   */\n      0x00\n        /* \"#utility.yul\":24053:24057   */\n      0x60\n        /* \"#utility.yul\":24048:24051   */\n      dup4\n        /* \"#utility.yul\":24044:24058   */\n      add\n        /* \"#utility.yul\":24084:24085   */\n      0x00\n        /* \"#utility.yul\":24159:24163   */\n      dup1\n        /* \"#utility.yul\":24152:24157   */\n      dup5\n        /* \"#utility.yul\":24148:24164   */\n      add\n        /* \"#utility.yul\":24142:24165   */\n      sload\n        /* \"#utility.yul\":24129:24165   */\n      swap1\n      pop\n        /* \"#utility.yul\":24198:24261   */\n      tag_554\n        /* \"#utility.yul\":24251:24260   */\n      dup2\n        /* \"#utility.yul\":24198:24261   */\n      tag_290\n      jump\t// in\n    tag_554:\n        /* \"#utility.yul\":24274:24343   */\n      tag_555\n        /* \"#utility.yul\":24337:24341   */\n      0x00\n        /* \"#utility.yul\":24332:24335   */\n      dup8\n        /* \"#utility.yul\":24328:24342   */\n      add\n        /* \"#utility.yul\":24314:24326   */\n      dup3\n        /* \"#utility.yul\":24274:24343   */\n      tag_235\n      jump\t// in\n    tag_555:\n        /* \"#utility.yul\":24095:24353   */\n      pop\n        /* \"#utility.yul\":24430:24482   */\n      tag_556\n        /* \"#utility.yul\":24472:24481   */\n      dup2\n        /* \"#utility.yul\":24430:24482   */\n      tag_293\n      jump\t// in\n    tag_556:\n        /* \"#utility.yul\":24495:24552   */\n      tag_557\n        /* \"#utility.yul\":24546:24550   */\n      0x20\n        /* \"#utility.yul\":24541:24544   */\n      dup8\n        /* \"#utility.yul\":24537:24551   */\n      add\n        /* \"#utility.yul\":24523:24535   */\n      dup3\n        /* \"#utility.yul\":24495:24552   */\n      tag_237\n      jump\t// in\n    tag_557:\n        /* \"#utility.yul\":24363:24562   */\n      pop\n        /* \"#utility.yul\":24648:24652   */\n      0x01\n        /* \"#utility.yul\":24641:24646   */\n      dup5\n        /* \"#utility.yul\":24637:24653   */\n      add\n        /* \"#utility.yul\":24700:24703   */\n      dup6\n        /* \"#utility.yul\":24694:24698   */\n      dup4\n        /* \"#utility.yul\":24690:24704   */\n      sub\n        /* \"#utility.yul\":24683:24687   */\n      0x40\n        /* \"#utility.yul\":24678:24681   */\n      dup8\n        /* \"#utility.yul\":24674:24688   */\n      add\n        /* \"#utility.yul\":24667:24705   */\n      mstore\n        /* \"#utility.yul\":24726:24873   */\n      tag_558\n        /* \"#utility.yul\":24868:24872   */\n      dup4\n        /* \"#utility.yul\":24854:24866   */\n      dup3\n        /* \"#utility.yul\":24726:24873   */\n      tag_302\n      jump\t// in\n    tag_558:\n        /* \"#utility.yul\":24718:24873   */\n      swap3\n      pop\n        /* \"#utility.yul\":24572:24884   */\n      pop\n        /* \"#utility.yul\":24901:24905   */\n      dup2\n        /* \"#utility.yul\":24894:24905   */\n      swap3\n      pop\n        /* \"#utility.yul\":24022:24911   */\n      pop\n      pop\n        /* \"#utility.yul\":23903:24911   */\n      swap3\n      swap2\n      pop\n      pop\n      jump\t// out\n        /* \"#utility.yul\":24917:25280   */\n    tag_122:\n        /* \"#utility.yul\":25055:25059   */\n      0x00\n        /* \"#utility.yul\":25093:25095   */\n      0x20\n        /* \"#utility.yul\":25082:25091   */\n      dup3\n        /* \"#utility.yul\":25078:25096   */\n      add\n        /* \"#utility.yul\":25070:25096   */\n      swap1\n      pop\n        /* \"#utility.yul\":25142:25151   */\n      dup2\n        /* \"#utility.yul\":25136:25140   */\n      dup2\n        /* \"#utility.yul\":25132:25152   */\n      sub\n        /* \"#utility.yul\":25128:25129   */\n      0x00\n        /* \"#utility.yul\":25117:25126   */\n      dup4\n        /* \"#utility.yul\":25113:25130   */\n      add\n        /* \"#utility.yul\":25106:25153   */\n      mstore\n        /* \"#utility.yul\":25170:25273   */\n      tag_560\n        /* \"#utility.yul\":25268:25272   */\n      dup2\n        /* \"#utility.yul\":25259:25265   */\n      dup5\n        /* \"#utility.yul\":25170:25273   */\n      tag_303\n      jump\t// in\n    tag_560:\n        /* \"#utility.yul\":25162:25273   */\n      swap1\n      pop\n        /* \"#utility.yul\":24917:25280   */\n      swap3\n      swap2\n      pop\n      pop\n      jump\t// out\n        /* \"#utility.yul\":25286:25514   */\n    tag_304:\n        /* \"#utility.yul\":25426:25460   */\n      0x53657373696f6e206e65656420626520696e2072656769737465722073746174\n        /* \"#utility.yul\":25422:25423   */\n      0x00\n        /* \"#utility.yul\":25414:25420   */\n      dup3\n        /* \"#utility.yul\":25410:25424   */\n      add\n        /* \"#utility.yul\":25403:25461   */\n      mstore\n        /* \"#utility.yul\":25495:25506   */\n      0x7573206265666f72650000000000000000000000000000000000000000000000\n        /* \"#utility.yul\":25490:25492   */\n      0x20\n        /* \"#utility.yul\":25482:25488   */\n      dup3\n        /* \"#utility.yul\":25478:25493   */\n      add\n        /* \"#utility.yul\":25471:25507   */\n      mstore\n        /* \"#utility.yul\":25286:25514   */\n      pop\n      jump\t// out\n        /* \"#utility.yul\":25520:25886   */\n    tag_305:\n        /* \"#utility.yul\":25662:25665   */\n      0x00\n        /* \"#utility.yul\":25683:25750   */\n      tag_563\n        /* \"#utility.yul\":25747:25749   */\n      0x29\n        /* \"#utility.yul\":25742:25745   */\n      dup4\n        /* \"#utility.yul\":25683:25750   */\n      tag_285\n      jump\t// in\n    tag_563:\n        /* \"#utility.yul\":25676:25750   */\n      swap2\n      pop\n        /* \"#utility.yul\":25759:25852   */\n      tag_564\n        /* \"#utility.yul\":25848:25851   */\n      dup3\n        /* \"#utility.yul\":25759:25852   */\n      tag_304\n      jump\t// in\n    tag_564:\n        /* \"#utility.yul\":25877:25879   */\n      0x40\n        /* \"#utility.yul\":25872:25875   */\n      dup3\n        /* \"#utility.yul\":25868:25880   */\n      add\n        /* \"#utility.yul\":25861:25880   */\n      swap1\n      pop\n        /* \"#utility.yul\":25520:25886   */\n      swap2\n      swap1\n      pop\n      jump\t// out\n        /* \"#utility.yul\":25892:26311   */\n    tag_153:\n        /* \"#utility.yul\":26058:26062   */\n      0x00\n        /* \"#utility.yul\":26096:26098   */\n      0x20\n        /* \"#utility.yul\":26085:26094   */\n      dup3\n        /* \"#utility.yul\":26081:26099   */\n      add\n        /* \"#utility.yul\":26073:26099   */\n      swap1\n      pop\n        /* \"#utility.yul\":26145:26154   */\n      dup2\n        /* \"#utility.yul\":26139:26143   */\n      dup2\n        /* \"#utility.yul\":26135:26155   */\n      sub\n        /* \"#utility.yul\":26131:26132   */\n      0x00\n        /* \"#utility.yul\":26120:26129   */\n      dup4\n        /* \"#utility.yul\":26116:26133   */\n      add\n        /* \"#utility.yul\":26109:26156   */\n      mstore\n        /* \"#utility.yul\":26173:26304   */\n      tag_566\n        /* \"#utility.yul\":26299:26303   */\n      dup2\n        /* \"#utility.yul\":26173:26304   */\n      tag_305\n      jump\t// in\n    tag_566:\n        /* \"#utility.yul\":26165:26304   */\n      swap1\n      pop\n        /* \"#utility.yul\":25892:26311   */\n      swap2\n      swap1\n      pop\n      jump\t// out\n        /* \"#utility.yul\":26317:26485   */\n    tag_306:\n        /* \"#utility.yul\":26457:26477   */\n      0x6973206e6f742077686974656c69737465640000000000000000000000000000\n        /* \"#utility.yul\":26453:26454   */\n      0x00\n        /* \"#utility.yul\":26445:26451   */\n      dup3\n        /* \"#utility.yul\":26441:26455   */\n      add\n        /* \"#utility.yul\":26434:26478   */\n      mstore\n        /* \"#utility.yul\":26317:26485   */\n      pop\n      jump\t// out\n        /* \"#utility.yul\":26491:26857   */\n    tag_307:\n        /* \"#utility.yul\":26633:26636   */\n      0x00\n        /* \"#utility.yul\":26654:26721   */\n      tag_569\n        /* \"#utility.yul\":26718:26720   */\n      0x12\n        /* \"#utility.yul\":26713:26716   */\n      dup4\n        /* \"#utility.yul\":26654:26721   */\n      tag_285\n      jump\t// in\n    tag_569:\n        /* \"#utility.yul\":26647:26721   */\n      swap2\n      pop\n        /* \"#utility.yul\":26730:26823   */\n      tag_570\n        /* \"#utility.yul\":26819:26822   */\n      dup3\n        /* \"#utility.yul\":26730:26823   */\n      tag_306\n      jump\t// in\n    tag_570:\n        /* \"#utility.yul\":26848:26850   */\n      0x20\n        /* \"#utility.yul\":26843:26846   */\n      dup3\n        /* \"#utility.yul\":26839:26851   */\n      add\n        /* \"#utility.yul\":26832:26851   */\n      swap1\n      pop\n        /* \"#utility.yul\":26491:26857   */\n      swap2\n      swap1\n      pop\n      jump\t// out\n        /* \"#utility.yul\":26863:27282   */\n    tag_169:\n        /* \"#utility.yul\":27029:27033   */\n      0x00\n        /* \"#utility.yul\":27067:27069   */\n      0x20\n        /* \"#utility.yul\":27056:27065   */\n      dup3\n        /* \"#utility.yul\":27052:27070   */\n      add\n        /* \"#utility.yul\":27044:27070   */\n      swap1\n      pop\n        /* \"#utility.yul\":27116:27125   */\n      dup2\n        /* \"#utility.yul\":27110:27114   */\n      dup2\n        /* \"#utility.yul\":27106:27126   */\n      sub\n        /* \"#utility.yul\":27102:27103   */\n      0x00\n        /* \"#utility.yul\":27091:27100   */\n      dup4\n        /* \"#utility.yul\":27087:27104   */\n      add\n        /* \"#utility.yul\":27080:27127   */\n      mstore\n        /* \"#utility.yul\":27144:27275   */\n      tag_572\n        /* \"#utility.yul\":27270:27274   */\n      dup2\n        /* \"#utility.yul\":27144:27275   */\n      tag_307\n      jump\t// in\n    tag_572:\n        /* \"#utility.yul\":27136:27275   */\n      swap1\n      pop\n        /* \"#utility.yul\":26863:27282   */\n      swap2\n      swap1\n      pop\n      jump\t// out\n        /* \"#utility.yul\":27288:28683   */\n    tag_180:\n        /* \"#utility.yul\":27405:27442   */\n      tag_574\n        /* \"#utility.yul\":27438:27441   */\n      dup3\n        /* \"#utility.yul\":27405:27442   */\n      tag_241\n      jump\t// in\n    tag_574:\n        /* \"#utility.yul\":27507:27525   */\n      0xffffffffffffffff\n        /* \"#utility.yul\":27499:27505   */\n      dup2\n        /* \"#utility.yul\":27496:27526   */\n      gt\n        /* \"#utility.yul\":27493:27549   */\n      iszero\n      tag_575\n      jumpi\n        /* \"#utility.yul\":27529:27547   */\n      tag_576\n      tag_269\n      jump\t// in\n    tag_576:\n        /* \"#utility.yul\":27493:27549   */\n    tag_575:\n        /* \"#utility.yul\":27573:27611   */\n      tag_577\n        /* \"#utility.yul\":27605:27609   */\n      dup3\n        /* \"#utility.yul\":27599:27610   */\n      sload\n        /* \"#utility.yul\":27573:27611   */\n      tag_139\n      jump\t// in\n    tag_577:\n        /* \"#utility.yul\":27658:27725   */\n      tag_578\n        /* \"#utility.yul\":27718:27724   */\n      dup3\n        /* \"#utility.yul\":27710:27716   */\n      dup3\n        /* \"#utility.yul\":27704:27708   */\n      dup6\n        /* \"#utility.yul\":27658:27725   */\n      tag_281\n      jump\t// in\n    tag_578:\n        /* \"#utility.yul\":27752:27753   */\n      0x00\n        /* \"#utility.yul\":27776:27780   */\n      0x20\n        /* \"#utility.yul\":27763:27780   */\n      swap1\n      pop\n        /* \"#utility.yul\":27808:27810   */\n      0x1f\n        /* \"#utility.yul\":27800:27806   */\n      dup4\n        /* \"#utility.yul\":27797:27811   */\n      gt\n        /* \"#utility.yul\":27825:27826   */\n      0x01\n        /* \"#utility.yul\":27820:28438   */\n      dup2\n      eq\n      tag_580\n      jumpi\n        /* \"#utility.yul\":28482:28483   */\n      0x00\n        /* \"#utility.yul\":28499:28505   */\n      dup5\n        /* \"#utility.yul\":28496:28573   */\n      iszero\n      tag_581\n      jumpi\n        /* \"#utility.yul\":28548:28557   */\n      dup3\n        /* \"#utility.yul\":28543:28546   */\n      dup8\n        /* \"#utility.yul\":28539:28558   */\n      add\n        /* \"#utility.yul\":28533:28559   */\n      mload\n        /* \"#utility.yul\":28524:28559   */\n      swap1\n      pop\n        /* \"#utility.yul\":28496:28573   */\n    tag_581:\n        /* \"#utility.yul\":28599:28666   */\n      tag_582\n        /* \"#utility.yul\":28659:28665   */\n      dup6\n        /* \"#utility.yul\":28652:28657   */\n      dup3\n        /* \"#utility.yul\":28599:28666   */\n      tag_284\n      jump\t// in\n    tag_582:\n        /* \"#utility.yul\":28593:28597   */\n      dup7\n        /* \"#utility.yul\":28586:28667   */\n      sstore\n        /* \"#utility.yul\":28455:28677   */\n      pop\n        /* \"#utility.yul\":27790:28677   */\n      jump(tag_579)\n        /* \"#utility.yul\":27820:28438   */\n    tag_580:\n        /* \"#utility.yul\":27872:27876   */\n      0x1f\n        /* \"#utility.yul\":27868:27877   */\n      not\n        /* \"#utility.yul\":27860:27866   */\n      dup5\n        /* \"#utility.yul\":27856:27878   */\n      and\n        /* \"#utility.yul\":27906:27943   */\n      tag_583\n        /* \"#utility.yul\":27938:27942   */\n      dup7\n        /* \"#utility.yul\":27906:27943   */\n      tag_270\n      jump\t// in\n    tag_583:\n        /* \"#utility.yul\":27965:27966   */\n      0x00\n        /* \"#utility.yul\":27979:28187   */\n    tag_584:\n        /* \"#utility.yul\":27993:28000   */\n      dup3\n        /* \"#utility.yul\":27990:27991   */\n      dup2\n        /* \"#utility.yul\":27987:28001   */\n      lt\n        /* \"#utility.yul\":27979:28187   */\n      iszero\n      tag_586\n      jumpi\n        /* \"#utility.yul\":28072:28081   */\n      dup5\n        /* \"#utility.yul\":28067:28070   */\n      dup10\n        /* \"#utility.yul\":28063:28082   */\n      add\n        /* \"#utility.yul\":28057:28083   */\n      mload\n        /* \"#utility.yul\":28049:28055   */\n      dup3\n        /* \"#utility.yul\":28042:28084   */\n      sstore\n        /* \"#utility.yul\":28123:28124   */\n      0x01\n        /* \"#utility.yul\":28115:28121   */\n      dup3\n        /* \"#utility.yul\":28111:28125   */\n      add\n        /* \"#utility.yul\":28101:28125   */\n      swap2\n      pop\n        /* \"#utility.yul\":28170:28172   */\n      0x20\n        /* \"#utility.yul\":28159:28168   */\n      dup6\n        /* \"#utility.yul\":28155:28173   */\n      add\n        /* \"#utility.yul\":28142:28173   */\n      swap5\n      pop\n        /* \"#utility.yul\":28016:28020   */\n      0x20\n        /* \"#utility.yul\":28013:28014   */\n      dup2\n        /* \"#utility.yul\":28009:28021   */\n      add\n        /* \"#utility.yul\":28004:28021   */\n      swap1\n      pop\n        /* \"#utility.yul\":27979:28187   */\n      jump(tag_584)\n    tag_586:\n        /* \"#utility.yul\":28215:28221   */\n      dup7\n        /* \"#utility.yul\":28206:28213   */\n      dup4\n        /* \"#utility.yul\":28203:28222   */\n      lt\n        /* \"#utility.yul\":28200:28379   */\n      iszero\n      tag_587\n      jumpi\n        /* \"#utility.yul\":28273:28282   */\n      dup5\n        /* \"#utility.yul\":28268:28271   */\n      dup10\n        /* \"#utility.yul\":28264:28283   */\n      add\n        /* \"#utility.yul\":28258:28284   */\n      mload\n        /* \"#utility.yul\":28316:28364   */\n      tag_588\n        /* \"#utility.yul\":28358:28362   */\n      0x1f\n        /* \"#utility.yul\":28350:28356   */\n      dup10\n        /* \"#utility.yul\":28346:28363   */\n      and\n        /* \"#utility.yul\":28335:28344   */\n      dup3\n        /* \"#utility.yul\":28316:28364   */\n      tag_283\n      jump\t// in\n    tag_588:\n        /* \"#utility.yul\":28308:28314   */\n      dup4\n        /* \"#utility.yul\":28301:28365   */\n      sstore\n        /* \"#utility.yul\":28223:28379   */\n      pop\n        /* \"#utility.yul\":28200:28379   */\n    tag_587:\n        /* \"#utility.yul\":28425:28426   */\n      0x01\n        /* \"#utility.yul\":28421:28422   */\n      0x02\n        /* \"#utility.yul\":28413:28419   */\n      dup9\n        /* \"#utility.yul\":28409:28423   */\n      mul\n        /* \"#utility.yul\":28405:28427   */\n      add\n        /* \"#utility.yul\":28399:28403   */\n      dup9\n        /* \"#utility.yul\":28392:28428   */\n      sstore\n        /* \"#utility.yul\":27827:28438   */\n      pop\n      pop\n      pop\n        /* \"#utility.yul\":27790:28677   */\n    tag_579:\n      pop\n        /* \"#utility.yul\":27380:28683   */\n      pop\n      pop\n      pop\n        /* \"#utility.yul\":27288:28683   */\n      pop\n      pop\n      jump\t// out\n        /* \"#utility.yul\":28745:29457   */\n    tag_308:\n        /* \"#utility.yul\":28861:28864   */\n      0x00\n        /* \"#utility.yul\":28897:28901   */\n      0x40\n        /* \"#utility.yul\":28892:28895   */\n      dup4\n        /* \"#utility.yul\":28888:28902   */\n      add\n        /* \"#utility.yul\":28928:28929   */\n      0x00\n        /* \"#utility.yul\":29012:29016   */\n      dup1\n        /* \"#utility.yul\":29005:29010   */\n      dup5\n        /* \"#utility.yul\":29001:29017   */\n      add\n        /* \"#utility.yul\":29064:29067   */\n      dup6\n        /* \"#utility.yul\":29058:29062   */\n      dup4\n        /* \"#utility.yul\":29054:29068   */\n      sub\n        /* \"#utility.yul\":29047:29051   */\n      0x00\n        /* \"#utility.yul\":29042:29045   */\n      dup8\n        /* \"#utility.yul\":29038:29052   */\n      add\n        /* \"#utility.yul\":29031:29069   */\n      mstore\n        /* \"#utility.yul\":29090:29160   */\n      tag_590\n        /* \"#utility.yul\":29155:29159   */\n      dup4\n        /* \"#utility.yul\":29141:29153   */\n      dup3\n        /* \"#utility.yul\":29090:29160   */\n      tag_296\n      jump\t// in\n    tag_590:\n        /* \"#utility.yul\":29082:29160   */\n      swap3\n      pop\n        /* \"#utility.yul\":28939:29171   */\n      pop\n        /* \"#utility.yul\":29250:29254   */\n      0x01\n        /* \"#utility.yul\":29243:29248   */\n      dup5\n        /* \"#utility.yul\":29239:29255   */\n      add\n        /* \"#utility.yul\":29233:29256   */\n      sload\n        /* \"#utility.yul\":29220:29256   */\n      swap1\n      pop\n        /* \"#utility.yul\":29289:29344   */\n      tag_591\n        /* \"#utility.yul\":29334:29343   */\n      dup2\n        /* \"#utility.yul\":29289:29344   */\n      tag_298\n      jump\t// in\n    tag_591:\n        /* \"#utility.yul\":29357:29420   */\n      tag_592\n        /* \"#utility.yul\":29414:29418   */\n      0x20\n        /* \"#utility.yul\":29409:29412   */\n      dup8\n        /* \"#utility.yul\":29405:29419   */\n      add\n        /* \"#utility.yul\":29391:29403   */\n      dup3\n        /* \"#utility.yul\":29357:29420   */\n      tag_246\n      jump\t// in\n    tag_592:\n        /* \"#utility.yul\":29181:29430   */\n      pop\n        /* \"#utility.yul\":29447:29451   */\n      dup2\n        /* \"#utility.yul\":29440:29451   */\n      swap3\n      pop\n        /* \"#utility.yul\":28866:29457   */\n      pop\n      pop\n        /* \"#utility.yul\":28745:29457   */\n      swap3\n      swap2\n      pop\n      pop\n      jump\t// out\n        /* \"#utility.yul\":29463:29830   */\n    tag_184:\n        /* \"#utility.yul\":29603:29607   */\n      0x00\n        /* \"#utility.yul\":29641:29643   */\n      0x20\n        /* \"#utility.yul\":29630:29639   */\n      dup3\n        /* \"#utility.yul\":29626:29644   */\n      add\n        /* \"#utility.yul\":29618:29644   */\n      swap1\n      pop\n        /* \"#utility.yul\":29690:29699   */\n      dup2\n        /* \"#utility.yul\":29684:29688   */\n      dup2\n        /* \"#utility.yul\":29680:29700   */\n      sub\n        /* \"#utility.yul\":29676:29677   */\n      0x00\n        /* \"#utility.yul\":29665:29674   */\n      dup4\n        /* \"#utility.yul\":29661:29678   */\n      add\n        /* \"#utility.yul\":29654:29701   */\n      mstore\n        /* \"#utility.yul\":29718:29823   */\n      tag_594\n        /* \"#utility.yul\":29818:29822   */\n      dup2\n        /* \"#utility.yul\":29809:29815   */\n      dup5\n        /* \"#utility.yul\":29718:29823   */\n      tag_308\n      jump\t// in\n    tag_594:\n        /* \"#utility.yul\":29710:29823   */\n      swap1\n      pop\n        /* \"#utility.yul\":29463:29830   */\n      swap3\n      swap2\n      pop\n      pop\n      jump\t// out\n        /* \"#utility.yul\":29836:30069   */\n    tag_309:\n        /* \"#utility.yul\":29976:30010   */\n      0x53657373696f6e206e65656420626520696e20636c6f73657265676973746572\n        /* \"#utility.yul\":29972:29973   */\n      0x00\n        /* \"#utility.yul\":29964:29970   */\n      dup3\n        /* \"#utility.yul\":29960:29974   */\n      add\n        /* \"#utility.yul\":29953:30011   */\n      mstore\n        /* \"#utility.yul\":30045:30061   */\n      0x20737461747573206265666f7265000000000000000000000000000000000000\n        /* \"#utility.yul\":30040:30042   */\n      0x20\n        /* \"#utility.yul\":30032:30038   */\n      dup3\n        /* \"#utility.yul\":30028:30043   */\n      add\n        /* \"#utility.yul\":30021:30062   */\n      mstore\n        /* \"#utility.yul\":29836:30069   */\n      pop\n      jump\t// out\n        /* \"#utility.yul\":30075:30441   */\n    tag_310:\n        /* \"#utility.yul\":30217:30220   */\n      0x00\n        /* \"#utility.yul\":30238:30305   */\n      tag_597\n        /* \"#utility.yul\":30302:30304   */\n      0x2e\n        /* \"#utility.yul\":30297:30300   */\n      dup4\n        /* \"#utility.yul\":30238:30305   */\n      tag_285\n      jump\t// in\n    tag_597:\n        /* \"#utility.yul\":30231:30305   */\n      swap2\n      pop\n        /* \"#utility.yul\":30314:30407   */\n      tag_598\n        /* \"#utility.yul\":30403:30406   */\n      dup3\n        /* \"#utility.yul\":30314:30407   */\n      tag_309\n      jump\t// in\n    tag_598:\n        /* \"#utility.yul\":30432:30434   */\n      0x40\n        /* \"#utility.yul\":30427:30430   */\n      dup3\n        /* \"#utility.yul\":30423:30435   */\n      add\n        /* \"#utility.yul\":30416:30435   */\n      swap1\n      pop\n        /* \"#utility.yul\":30075:30441   */\n      swap2\n      swap1\n      pop\n      jump\t// out\n        /* \"#utility.yul\":30447:30866   */\n    tag_194:\n        /* \"#utility.yul\":30613:30617   */\n      0x00\n        /* \"#utility.yul\":30651:30653   */\n      0x20\n        /* \"#utility.yul\":30640:30649   */\n      dup3\n        /* \"#utility.yul\":30636:30654   */\n      add\n        /* \"#utility.yul\":30628:30654   */\n      swap1\n      pop\n        /* \"#utility.yul\":30700:30709   */\n      dup2\n        /* \"#utility.yul\":30694:30698   */\n      dup2\n        /* \"#utility.yul\":30690:30710   */\n      sub\n        /* \"#utility.yul\":30686:30687   */\n      0x00\n        /* \"#utility.yul\":30675:30684   */\n      dup4\n        /* \"#utility.yul\":30671:30688   */\n      add\n        /* \"#utility.yul\":30664:30711   */\n      mstore\n        /* \"#utility.yul\":30728:30859   */\n      tag_600\n        /* \"#utility.yul\":30854:30858   */\n      dup2\n        /* \"#utility.yul\":30728:30859   */\n      tag_310\n      jump\t// in\n    tag_600:\n        /* \"#utility.yul\":30720:30859   */\n      swap1\n      pop\n        /* \"#utility.yul\":30447:30866   */\n      swap2\n      swap1\n      pop\n      jump\t// out\n\n    auxdata: 0xa2646970667358221220691be88ba378da7393b62bc69cf174881e14ff7a78f02866113006234a9daaac64736f6c63430008150033\n}\n",
				"bytecode": {
					"linkReferences": {},
					"object": "608060405260405180606001604052805f151581526020015f151581526020015f81525060035f820151815f015f6101000a81548160ff0219169083151502179055506020820151815f0160016101000a81548160ff02191690831515021790555060408201518160010155505034801562000079575f80fd5b50335f73ffffffffffffffffffffffffffffffffffffffff168173ffffffffffffffffffffffffffffffffffffffff1603620000ee575f6040517f1e4fbdf7000000000000000000000000000000000000000000000000000000008152600401620000e591906200020a565b60405180910390fd5b620000ff816200010660201b60201c565b5062000225565b5f805f9054906101000a900473ffffffffffffffffffffffffffffffffffffffff169050815f806101000a81548173ffffffffffffffffffffffffffffffffffffffff021916908373ffffffffffffffffffffffffffffffffffffffff1602179055508173ffffffffffffffffffffffffffffffffffffffff168173ffffffffffffffffffffffffffffffffffffffff167f8be0079c531659141344cd1fd0a4f28419497f9722a3daafe3b4186f6b6457e060405160405180910390a35050565b5f73ffffffffffffffffffffffffffffffffffffffff82169050919050565b5f620001f282620001c7565b9050919050565b6200020481620001e6565b82525050565b5f6020820190506200021f5f830184620001f9565b92915050565b611f2c80620002335f395ff3fe608060405234801561000f575f80fd5b50600436106100e8575f3560e01c80638e7ea5b21161008a578063d107d8c211610064578063d107d8c2146101d8578063e3473084146101e2578063f2fde38b146101fe578063f4ab9adf1461021a576100e8565b80638e7ea5b21461016c5780639b19251a1461018a578063ab31e9ae146101bc576100e8565b8063715018a6116100c6578063715018a61461011c5780637909e08c146101265780638626256e146101445780638da5cb5b1461014e576100e8565b8063230796ae146100ec57806325a8918814610108578063329d334614610112575b5f80fd5b61010660048036038101906101019190611028565b610236565b005b610110610342565b005b61011a610483565b005b610124610568565b005b61012e61057b565b60405161013b91906112bb565b60405180910390f35b61014c6106dd565b005b6101566107c1565b604051610163919061131a565b60405180910390f35b6101746107e8565b604051610181919061136d565b60405180910390f35b6101a4600480360381019061019f91906113b7565b61089b565b6040516101b393929190611400565b60405180910390f35b6101d660048036038101906101d19190611496565b6108d9565b005b6101e0610afb565b005b6101fc60048036038101906101f7919061150b565b610be0565b005b610218600480360381019061021391906113b7565b610cc8565b005b610234600480360381019061022f91906113b7565b610d4c565b005b60095f3373ffffffffffffffffffffffffffffffffffffffff1673ffffffffffffffffffffffffffffffffffffffff1681526020019081526020015f205f015f9054906101000a900460ff1680156102c257506002600381111561029d5761029c611053565b5b60055f015f9054906101000a900460ff1660038111156102c0576102bf611053565b5b145b80156102dd575060035f0160019054906101000a900460ff16155b6102e5575f80fd5b6001600560010182815481106102fe576102fd611536565b5b905f5260205f2090600202016001015f82825461031b9190611590565b92505081905550600160035f0160016101000a81548160ff02191690831515021790555050565b61034a610e52565b5f600190505f60056001015f8154811061036757610366611536565b5b905f5260205f20906002020160010154905060056001015f815481106103905761038f611536565b5b905f5260205f20906002020160075f8201815f0190816103b091906117ff565b50600182015481600101559050505b60056001018054905082101561047f57600560010182815481106103e6576103e5611536565b5b905f5260205f2090600202016001015481111561046c576005600101828154811061041457610413611536565b5b905f5260205f2090600202016001015490506005600101828154811061043d5761043c611536565b5b905f5260205f20906002020160075f8201815f01908161045d91906117ff565b50600182015481600101559050505b8180610477906118e4565b9250506103bf565b5050565b61048b610e52565b6002600381111561049f5761049e611053565b5b60055f015f9054906101000a900460ff1660038111156104c2576104c1611053565b5b14610502576040517f08c379a00000000000000000000000000000000000000000000000000000000081526004016104f9906119ab565b60405180910390fd5b600360055f015f6101000a81548160ff0219169083600381111561052957610528611053565b5b02179055507fba0b491ab01b63dd081ea11b638bfcd4781aca6b8dbd885aed6584a7e21ee6e2600560405161055e9190611c1d565b60405180910390a1565b610570610e52565b6105795f610ed9565b565b610583610fa1565b60056040518060600160405290815f82015f9054906101000a900460ff1660038111156105b3576105b2611053565b5b60038111156105c5576105c4611053565b5b81526020015f820160019054906101000a900460ff1615151515815260200160018201805480602002602001604051908101604052809291908181526020015f905b828210156106d0578382905f5260205f2090600202016040518060400160405290815f82018054610637906115f0565b80601f0160208091040260200160405190810160405280929190818152602001828054610663906115f0565b80156106ae5780601f10610685576101008083540402835291602001916106ae565b820191905f5260205f20905b81548152906001019060200180831161069157829003601f168201915b5050505050815260200160018201548152505081526020019060010190610607565b5050505081525050905090565b6106e5610e52565b5f60038111156106f8576106f7611053565b5b60055f015f9054906101000a900460ff16600381111561071b5761071a611053565b5b1461075b576040517f08c379a000000000000000000000000000000000000000000000000000000000815260040161075290611cad565b60405180910390fd5b600160055f015f6101000a81548160ff0219169083600381111561078257610781611053565b5b02179055507fba0b491ab01b63dd081ea11b638bfcd4781aca6b8dbd885aed6584a7e21ee6e260056040516107b79190611c1d565b60405180910390a1565b5f805f9054906101000a900473ffffffffffffffffffffffffffffffffffffffff16905090565b6107f0610fd4565b60076040518060400160405290815f8201805461080c906115f0565b80601f0160208091040260200160405190810160405280929190818152602001828054610838906115f0565b80156108835780601f1061085a57610100808354040283529160200191610883565b820191905f5260205f20905b81548152906001019060200180831161086657829003601f168201915b50505050508152602001600182015481525050905090565b6009602052805f5260405f205f91509050805f015f9054906101000a900460ff1690805f0160019054906101000a900460ff16908060010154905083565b60095f3373ffffffffffffffffffffffffffffffffffffffff1673ffffffffffffffffffffffffffffffffffffffff1681526020019081526020015f205f015f9054906101000a900460ff16610964576040517f08c379a000000000000000000000000000000000000000000000000000000000815260040161095b90611d15565b60405180910390fd5b60055f0160019054906101000a900460ff16806109b357503373ffffffffffffffffffffffffffffffffffffffff1661099b6107c1565b73ffffffffffffffffffffffffffffffffffffffff16145b15610af7575f60038111156109cb576109ca611053565b5b60055f015f9054906101000a900460ff1660038111156109ee576109ed611053565b5b146109f7575f80fd5b604051806040016040528083838080601f0160208091040260200160405190810160405280939291908181526020018383808284375f81840152601f19601f8201169050808301925050505050505081526020015f81525060015f820151815f019081610a649190611d33565b506020820151816001015590505060056001016001908060018154018082558091505060019003905f5260205f2090600202015f909190919091505f8201815f019081610ab191906117ff565b506001820154816001015550507fc90604c068b8efd40fc7abb985d0a8c41192ff10cd393403f3dddf0c39e5a1d96001604051610aee9190611e48565b60405180910390a15b5050565b610b03610e52565b60016003811115610b1757610b16611053565b5b60055f015f9054906101000a900460ff166003811115610b3a57610b39611053565b5b14610b7a576040517f08c379a0000000000000000000000000000000000000000000000000000000008152600401610b7190611ed8565b60405180910390fd5b600260055f015f6101000a81548160ff02191690836003811115610ba157610ba0611053565b5b02179055507fba0b491ab01b63dd081ea11b638bfcd4781aca6b8dbd885aed6584a7e21ee6e26005604051610bd69190611c1d565b60405180910390a1565b610be8610e52565b600160095f610bf56107c1565b73ffffffffffffffffffffffffffffffffffffffff1673ffffffffffffffffffffffffffffffffffffffff1681526020019081526020015f205f015f6101000a81548160ff0219169083151502179055505f60055f015f6101000a81548160ff02191690836003811115610c6c57610c6b611053565b5b02179055508060055f0160016101000a81548160ff0219169083151502179055507fba0b491ab01b63dd081ea11b638bfcd4781aca6b8dbd885aed6584a7e21ee6e26005604051610cbd9190611c1d565b60405180910390a150565b610cd0610e52565b5f73ffffffffffffffffffffffffffffffffffffffff168173ffffffffffffffffffffffffffffffffffffffff1603610d40575f6040517f1e4fbdf7000000000000000000000000000000000000000000000000000000008152600401610d37919061131a565b60405180910390fd5b610d4981610ed9565b50565b610d54610e52565b60095f8273ffffffffffffffffffffffffffffffffffffffff1673ffffffffffffffffffffffffffffffffffffffff1681526020019081526020015f205f015f9054906101000a900460ff1615610da9575f80fd5b60405180606001604052806001151581526020015f151581526020015f81525060095f8373ffffffffffffffffffffffffffffffffffffffff1673ffffffffffffffffffffffffffffffffffffffff1681526020019081526020015f205f820151815f015f6101000a81548160ff0219169083151502179055506020820151815f0160016101000a81548160ff0219169083151502179055506040820151816001015590505050565b610e5a610f9a565b73ffffffffffffffffffffffffffffffffffffffff16610e786107c1565b73ffffffffffffffffffffffffffffffffffffffff1614610ed757610e9b610f9a565b6040517f118cdaa7000000000000000000000000000000000000000000000000000000008152600401610ece919061131a565b60405180910390fd5b565b5f805f9054906101000a900473ffffffffffffffffffffffffffffffffffffffff169050815f806101000a81548173ffffffffffffffffffffffffffffffffffffffff021916908373ffffffffffffffffffffffffffffffffffffffff1602179055508173ffffffffffffffffffffffffffffffffffffffff168173ffffffffffffffffffffffffffffffffffffffff167f8be0079c531659141344cd1fd0a4f28419497f9722a3daafe3b4186f6b6457e060405160405180910390a35050565b5f33905090565b60405180606001604052805f6003811115610fbf57610fbe611053565b5b81526020015f15158152602001606081525090565b6040518060400160405280606081526020015f81525090565b5f80fd5b5f80fd5b5f819050919050565b61100781610ff5565b8114611011575f80fd5b50565b5f8135905061102281610ffe565b92915050565b5f6020828403121561103d5761103c610fed565b5b5f61104a84828501611014565b91505092915050565b7f4e487b71000000000000000000000000000000000000000000000000000000005f52602160045260245ffd5b6004811061109157611090611053565b5b50565b5f8190506110a182611080565b919050565b5f6110b082611094565b9050919050565b6110c0816110a6565b82525050565b5f8115159050919050565b6110da816110c6565b82525050565b5f81519050919050565b5f82825260208201905092915050565b5f819050602082019050919050565b5f81519050919050565b5f82825260208201905092915050565b5f5b83811015611140578082015181840152602081019050611125565b5f8484015250505050565b5f601f19601f8301169050919050565b5f61116582611109565b61116f8185611113565b935061117f818560208601611123565b6111888161114b565b840191505092915050565b61119c81610ff5565b82525050565b5f604083015f8301518482035f8601526111bc828261115b565b91505060208301516111d16020860182611193565b508091505092915050565b5f6111e783836111a2565b905092915050565b5f602082019050919050565b5f611205826110e0565b61120f81856110ea565b935083602082028501611221856110fa565b805f5b8581101561125c578484038952815161123d85826111dc565b9450611248836111ef565b925060208a01995050600181019050611224565b50829750879550505050505092915050565b5f606083015f8301516112835f8601826110b7565b50602083015161129660208601826110d1565b50604083015184820360408601526112ae82826111fb565b9150508091505092915050565b5f6020820190508181035f8301526112d3818461126e565b905092915050565b5f73ffffffffffffffffffffffffffffffffffffffff82169050919050565b5f611304826112db565b9050919050565b611314816112fa565b82525050565b5f60208201905061132d5f83018461130b565b92915050565b5f604083015f8301518482035f86015261134d828261115b565b91505060208301516113626020860182611193565b508091505092915050565b5f6020820190508181035f8301526113858184611333565b905092915050565b611396816112fa565b81146113a0575f80fd5b50565b5f813590506113b18161138d565b92915050565b5f602082840312156113cc576113cb610fed565b5b5f6113d9848285016113a3565b91505092915050565b6113eb816110c6565b82525050565b6113fa81610ff5565b82525050565b5f6060820190506114135f8301866113e2565b61142060208301856113e2565b61142d60408301846113f1565b949350505050565b5f80fd5b5f80fd5b5f80fd5b5f8083601f84011261145657611455611435565b5b8235905067ffffffffffffffff81111561147357611472611439565b5b60208301915083600182028301111561148f5761148e61143d565b5b9250929050565b5f80602083850312156114ac576114ab610fed565b5b5f83013567ffffffffffffffff8111156114c9576114c8610ff1565b5b6114d585828601611441565b92509250509250929050565b6114ea816110c6565b81146114f4575f80fd5b50565b5f81359050611505816114e1565b92915050565b5f602082840312156115205761151f610fed565b5b5f61152d848285016114f7565b91505092915050565b7f4e487b71000000000000000000000000000000000000000000000000000000005f52603260045260245ffd5b7f4e487b71000000000000000000000000000000000000000000000000000000005f52601160045260245ffd5b5f61159a82610ff5565b91506115a583610ff5565b92508282019050808211156115bd576115bc611563565b5b92915050565b7f4e487b71000000000000000000000000000000000000000000000000000000005f52602260045260245ffd5b5f600282049050600182168061160757607f821691505b60208210810361161a576116196115c3565b5b50919050565b5f8154905061162e816115f0565b9050919050565b7f4e487b71000000000000000000000000000000000000000000000000000000005f52604160045260245ffd5b5f819050815f5260205f209050919050565b5f6020601f8301049050919050565b5f82821b905092915050565b5f600883026116be7fffffffffffffffffffffffffffffffffffffffffffffffffffffffffffffffff82611683565b6116c88683611683565b95508019841693508086168417925050509392505050565b5f819050919050565b5f6117036116fe6116f984610ff5565b6116e0565b610ff5565b9050919050565b5f819050919050565b61171c836116e9565b6117306117288261170a565b84845461168f565b825550505050565b5f90565b611744611738565b61174f818484611713565b505050565b5b81811015611772576117675f8261173c565b600181019050611755565b5050565b601f8211156117b75761178881611662565b61179184611674565b810160208510156117a0578190505b6117b46117ac85611674565b830182611754565b50505b505050565b5f82821c905092915050565b5f6117d75f19846008026117bc565b1980831691505092915050565b5f6117ef83836117c8565b9150826002028217905092915050565b81810361180d5750506118e2565b61181682611620565b67ffffffffffffffff81111561182f5761182e611635565b5b61183982546115f0565b611844828285611776565b5f601f831160018114611871575f841561185f578287015490505b61186985826117e4565b8655506118db565b601f19841661187f87611662565b965061188a86611662565b5f5b828110156118b15784890154825560018201915060018501945060208101905061188c565b868310156118ce57848901546118ca601f8916826117c8565b8355505b6001600288020188555050505b5050505050505b565b5f6118ee82610ff5565b91507fffffffffffffffffffffffffffffffffffffffffffffffffffffffffffffffff82036119205761191f611563565b5b600182019050919050565b5f82825260208201905092915050565b7f53657373696f6e206e65656420626520696e20766f74652073746174757320625f8201527f65666f7265000000000000000000000000000000000000000000000000000000602082015250565b5f61199560258361192b565b91506119a08261193b565b604082019050919050565b5f6020820190508181035f8301526119c281611989565b9050919050565b5f815f1c9050919050565b5f60ff82169050919050565b5f6119f26119ed836119c9565b6119d4565b9050919050565b5f8160081c9050919050565b5f60ff82169050919050565b5f611a23611a1e836119f9565b611a05565b9050919050565b5f81549050919050565b5f819050815f5260205f209050919050565b5f8154611a52816115f0565b611a5c8186611113565b9450600182165f8114611a765760018114611a8c57611abe565b60ff198316865281151560200286019350611abe565b611a9585611662565b5f5b83811015611ab657815481890152600182019150602081019050611a97565b808801955050505b50505092915050565b5f819050919050565b5f611ae2611add836119c9565b611ac7565b9050919050565b5f604083015f8084018583035f870152611b038382611a46565b92505060018401549050611b1681611ad0565b611b236020870182611193565b50819250505092915050565b5f611b3a8383611ae9565b905092915050565b5f600282019050919050565b5f611b5882611a2a565b611b6281856110ea565b935083602082028501611b7485611a34565b805f5b85811015611bae57848403895281611b8f8582611b2f565b9450611b9a83611b42565b925060208a01995050600181019050611b77565b50829750879550505050505092915050565b5f606083015f808401549050611bd5816119e0565b611be15f8701826110b7565b50611beb81611a11565b611bf860208701826110d1565b50600184018583036040870152611c0f8382611b4e565b925050819250505092915050565b5f6020820190508181035f830152611c358184611bc0565b905092915050565b7f53657373696f6e206e65656420626520696e20726567697374657220737461745f8201527f7573206265666f72650000000000000000000000000000000000000000000000602082015250565b5f611c9760298361192b565b9150611ca282611c3d565b604082019050919050565b5f6020820190508181035f830152611cc481611c8b565b9050919050565b7f6973206e6f742077686974656c697374656400000000000000000000000000005f82015250565b5f611cff60128361192b565b9150611d0a82611ccb565b602082019050919050565b5f6020820190508181035f830152611d2c81611cf3565b9050919050565b611d3c82611109565b67ffffffffffffffff811115611d5557611d54611635565b5b611d5f82546115f0565b611d6a828285611776565b5f60209050601f831160018114611d9b575f8415611d89578287015190505b611d9385826117e4565b865550611dfa565b601f198416611da986611662565b5f5b82811015611dd057848901518255600182019150602085019450602081019050611dab565b86831015611ded5784890151611de9601f8916826117c8565b8355505b6001600288020188555050505b505050505050565b5f604083015f8084018583035f870152611e1c8382611a46565b92505060018401549050611e2f81611ad0565b611e3c6020870182611193565b50819250505092915050565b5f6020820190508181035f830152611e608184611e02565b905092915050565b7f53657373696f6e206e65656420626520696e20636c6f736572656769737465725f8201527f20737461747573206265666f7265000000000000000000000000000000000000602082015250565b5f611ec2602e8361192b565b9150611ecd82611e68565b604082019050919050565b5f6020820190508181035f830152611eef81611eb6565b905091905056fea2646970667358221220691be88ba378da7393b62bc69cf174881e14ff7a78f02866113006234a9daaac64736f6c63430008150033",
					"opcodes": "PUSH1 0x80 PUSH1 0x40 MSTORE PUSH1 0x40 MLOAD DUP1 PUSH1 0x60 ADD PUSH1 0x40 MSTORE DUP1 PUSH0 ISZERO ISZERO DUP2 MSTORE PUSH1 0x20 ADD PUSH0 ISZERO ISZERO DUP2 MSTORE PUSH1 0x20 ADD PUSH0 DUP2 MSTORE POP PUSH1 0x3 PUSH0 DUP3 ADD MLOAD DUP2 PUSH0 ADD PUSH0 PUSH2 0x100 EXP DUP2 SLOAD DUP2 PUSH1 0xFF MUL NOT AND SWAP1 DUP4 ISZERO ISZERO MUL OR SWAP1 SSTORE POP PUSH1 0x20 DUP3 ADD MLOAD DUP2 PUSH0 ADD PUSH1 0x1 PUSH2 0x100 EXP DUP2 SLOAD DUP2 PUSH1 0xFF MUL NOT AND SWAP1 DUP4 ISZERO ISZERO MUL OR SWAP1 SSTORE POP PUSH1 0x40 DUP3 ADD MLOAD DUP2 PUSH1 0x1 ADD SSTORE POP POP CALLVALUE DUP1 ISZERO PUSH3 0x79 JUMPI PUSH0 DUP1 REVERT JUMPDEST POP CALLER PUSH0 PUSH20 0xFFFFFFFFFFFFFFFFFFFFFFFFFFFFFFFFFFFFFFFF AND DUP2 PUSH20 0xFFFFFFFFFFFFFFFFFFFFFFFFFFFFFFFFFFFFFFFF AND SUB PUSH3 0xEE JUMPI PUSH0 PUSH1 0x40 MLOAD PUSH32 0x1E4FBDF700000000000000000000000000000000000000000000000000000000 DUP2 MSTORE PUSH1 0x4 ADD PUSH3 0xE5 SWAP2 SWAP1 PUSH3 0x20A JUMP JUMPDEST PUSH1 0x40 MLOAD DUP1 SWAP2 SUB SWAP1 REVERT JUMPDEST PUSH3 0xFF DUP2 PUSH3 0x106 PUSH1 0x20 SHL PUSH1 0x20 SHR JUMP JUMPDEST POP PUSH3 0x225 JUMP JUMPDEST PUSH0 DUP1 PUSH0 SWAP1 SLOAD SWAP1 PUSH2 0x100 EXP SWAP1 DIV PUSH20 0xFFFFFFFFFFFFFFFFFFFFFFFFFFFFFFFFFFFFFFFF AND SWAP1 POP DUP2 PUSH0 DUP1 PUSH2 0x100 EXP DUP2 SLOAD DUP2 PUSH20 0xFFFFFFFFFFFFFFFFFFFFFFFFFFFFFFFFFFFFFFFF MUL NOT AND SWAP1 DUP4 PUSH20 0xFFFFFFFFFFFFFFFFFFFFFFFFFFFFFFFFFFFFFFFF AND MUL OR SWAP1 SSTORE POP DUP2 PUSH20 0xFFFFFFFFFFFFFFFFFFFFFFFFFFFFFFFFFFFFFFFF AND DUP2 PUSH20 0xFFFFFFFFFFFFFFFFFFFFFFFFFFFFFFFFFFFFFFFF AND PUSH32 0x8BE0079C531659141344CD1FD0A4F28419497F9722A3DAAFE3B4186F6B6457E0 PUSH1 0x40 MLOAD PUSH1 0x40 MLOAD DUP1 SWAP2 SUB SWAP1 LOG3 POP POP JUMP JUMPDEST PUSH0 PUSH20 0xFFFFFFFFFFFFFFFFFFFFFFFFFFFFFFFFFFFFFFFF DUP3 AND SWAP1 POP SWAP2 SWAP1 POP JUMP JUMPDEST PUSH0 PUSH3 0x1F2 DUP3 PUSH3 0x1C7 JUMP JUMPDEST SWAP1 POP SWAP2 SWAP1 POP JUMP JUMPDEST PUSH3 0x204 DUP2 PUSH3 0x1E6 JUMP JUMPDEST DUP3 MSTORE POP POP JUMP JUMPDEST PUSH0 PUSH1 0x20 DUP3 ADD SWAP1 POP PUSH3 0x21F PUSH0 DUP4 ADD DUP5 PUSH3 0x1F9 JUMP JUMPDEST SWAP3 SWAP2 POP POP JUMP JUMPDEST PUSH2 0x1F2C DUP1 PUSH3 0x233 PUSH0 CODECOPY PUSH0 RETURN INVALID PUSH1 0x80 PUSH1 0x40 MSTORE CALLVALUE DUP1 ISZERO PUSH2 0xF JUMPI PUSH0 DUP1 REVERT JUMPDEST POP PUSH1 0x4 CALLDATASIZE LT PUSH2 0xE8 JUMPI PUSH0 CALLDATALOAD PUSH1 0xE0 SHR DUP1 PUSH4 0x8E7EA5B2 GT PUSH2 0x8A JUMPI DUP1 PUSH4 0xD107D8C2 GT PUSH2 0x64 JUMPI DUP1 PUSH4 0xD107D8C2 EQ PUSH2 0x1D8 JUMPI DUP1 PUSH4 0xE3473084 EQ PUSH2 0x1E2 JUMPI DUP1 PUSH4 0xF2FDE38B EQ PUSH2 0x1FE JUMPI DUP1 PUSH4 0xF4AB9ADF EQ PUSH2 0x21A JUMPI PUSH2 0xE8 JUMP JUMPDEST DUP1 PUSH4 0x8E7EA5B2 EQ PUSH2 0x16C JUMPI DUP1 PUSH4 0x9B19251A EQ PUSH2 0x18A JUMPI DUP1 PUSH4 0xAB31E9AE EQ PUSH2 0x1BC JUMPI PUSH2 0xE8 JUMP JUMPDEST DUP1 PUSH4 0x715018A6 GT PUSH2 0xC6 JUMPI DUP1 PUSH4 0x715018A6 EQ PUSH2 0x11C JUMPI DUP1 PUSH4 0x7909E08C EQ PUSH2 0x126 JUMPI DUP1 PUSH4 0x8626256E EQ PUSH2 0x144 JUMPI DUP1 PUSH4 0x8DA5CB5B EQ PUSH2 0x14E JUMPI PUSH2 0xE8 JUMP JUMPDEST DUP1 PUSH4 0x230796AE EQ PUSH2 0xEC JUMPI DUP1 PUSH4 0x25A89188 EQ PUSH2 0x108 JUMPI DUP1 PUSH4 0x329D3346 EQ PUSH2 0x112 JUMPI JUMPDEST PUSH0 DUP1 REVERT JUMPDEST PUSH2 0x106 PUSH1 0x4 DUP1 CALLDATASIZE SUB DUP2 ADD SWAP1 PUSH2 0x101 SWAP2 SWAP1 PUSH2 0x1028 JUMP JUMPDEST PUSH2 0x236 JUMP JUMPDEST STOP JUMPDEST PUSH2 0x110 PUSH2 0x342 JUMP JUMPDEST STOP JUMPDEST PUSH2 0x11A PUSH2 0x483 JUMP JUMPDEST STOP JUMPDEST PUSH2 0x124 PUSH2 0x568 JUMP JUMPDEST STOP JUMPDEST PUSH2 0x12E PUSH2 0x57B JUMP JUMPDEST PUSH1 0x40 MLOAD PUSH2 0x13B SWAP2 SWAP1 PUSH2 0x12BB JUMP JUMPDEST PUSH1 0x40 MLOAD DUP1 SWAP2 SUB SWAP1 RETURN JUMPDEST PUSH2 0x14C PUSH2 0x6DD JUMP JUMPDEST STOP JUMPDEST PUSH2 0x156 PUSH2 0x7C1 JUMP JUMPDEST PUSH1 0x40 MLOAD PUSH2 0x163 SWAP2 SWAP1 PUSH2 0x131A JUMP JUMPDEST PUSH1 0x40 MLOAD DUP1 SWAP2 SUB SWAP1 RETURN JUMPDEST PUSH2 0x174 PUSH2 0x7E8 JUMP JUMPDEST PUSH1 0x40 MLOAD PUSH2 0x181 SWAP2 SWAP1 PUSH2 0x136D JUMP JUMPDEST PUSH1 0x40 MLOAD DUP1 SWAP2 SUB SWAP1 RETURN JUMPDEST PUSH2 0x1A4 PUSH1 0x4 DUP1 CALLDATASIZE SUB DUP2 ADD SWAP1 PUSH2 0x19F SWAP2 SWAP1 PUSH2 0x13B7 JUMP JUMPDEST PUSH2 0x89B JUMP JUMPDEST PUSH1 0x40 MLOAD PUSH2 0x1B3 SWAP4 SWAP3 SWAP2 SWAP1 PUSH2 0x1400 JUMP JUMPDEST PUSH1 0x40 MLOAD DUP1 SWAP2 SUB SWAP1 RETURN JUMPDEST PUSH2 0x1D6 PUSH1 0x4 DUP1 CALLDATASIZE SUB DUP2 ADD SWAP1 PUSH2 0x1D1 SWAP2 SWAP1 PUSH2 0x1496 JUMP JUMPDEST PUSH2 0x8D9 JUMP JUMPDEST STOP JUMPDEST PUSH2 0x1E0 PUSH2 0xAFB JUMP JUMPDEST STOP JUMPDEST PUSH2 0x1FC PUSH1 0x4 DUP1 CALLDATASIZE SUB DUP2 ADD SWAP1 PUSH2 0x1F7 SWAP2 SWAP1 PUSH2 0x150B JUMP JUMPDEST PUSH2 0xBE0 JUMP JUMPDEST STOP JUMPDEST PUSH2 0x218 PUSH1 0x4 DUP1 CALLDATASIZE SUB DUP2 ADD SWAP1 PUSH2 0x213 SWAP2 SWAP1 PUSH2 0x13B7 JUMP JUMPDEST PUSH2 0xCC8 JUMP JUMPDEST STOP JUMPDEST PUSH2 0x234 PUSH1 0x4 DUP1 CALLDATASIZE SUB DUP2 ADD SWAP1 PUSH2 0x22F SWAP2 SWAP1 PUSH2 0x13B7 JUMP JUMPDEST PUSH2 0xD4C JUMP JUMPDEST STOP JUMPDEST PUSH1 0x9 PUSH0 CALLER PUSH20 0xFFFFFFFFFFFFFFFFFFFFFFFFFFFFFFFFFFFFFFFF AND PUSH20 0xFFFFFFFFFFFFFFFFFFFFFFFFFFFFFFFFFFFFFFFF AND DUP2 MSTORE PUSH1 0x20 ADD SWAP1 DUP2 MSTORE PUSH1 0x20 ADD PUSH0 KECCAK256 PUSH0 ADD PUSH0 SWAP1 SLOAD SWAP1 PUSH2 0x100 EXP SWAP1 DIV PUSH1 0xFF AND DUP1 ISZERO PUSH2 0x2C2 JUMPI POP PUSH1 0x2 PUSH1 0x3 DUP2 GT ISZERO PUSH2 0x29D JUMPI PUSH2 0x29C PUSH2 0x1053 JUMP JUMPDEST JUMPDEST PUSH1 0x5 PUSH0 ADD PUSH0 SWAP1 SLOAD SWAP1 PUSH2 0x100 EXP SWAP1 DIV PUSH1 0xFF AND PUSH1 0x3 DUP2 GT ISZERO PUSH2 0x2C0 JUMPI PUSH2 0x2BF PUSH2 0x1053 JUMP JUMPDEST JUMPDEST EQ JUMPDEST DUP1 ISZERO PUSH2 0x2DD JUMPI POP PUSH1 0x3 PUSH0 ADD PUSH1 0x1 SWAP1 SLOAD SWAP1 PUSH2 0x100 EXP SWAP1 DIV PUSH1 0xFF AND ISZERO JUMPDEST PUSH2 0x2E5 JUMPI PUSH0 DUP1 REVERT JUMPDEST PUSH1 0x1 PUSH1 0x5 PUSH1 0x1 ADD DUP3 DUP2 SLOAD DUP2 LT PUSH2 0x2FE JUMPI PUSH2 0x2FD PUSH2 0x1536 JUMP JUMPDEST JUMPDEST SWAP1 PUSH0 MSTORE PUSH1 0x20 PUSH0 KECCAK256 SWAP1 PUSH1 0x2 MUL ADD PUSH1 0x1 ADD PUSH0 DUP3 DUP3 SLOAD PUSH2 0x31B SWAP2 SWAP1 PUSH2 0x1590 JUMP JUMPDEST SWAP3 POP POP DUP2 SWAP1 SSTORE POP PUSH1 0x1 PUSH1 0x3 PUSH0 ADD PUSH1 0x1 PUSH2 0x100 EXP DUP2 SLOAD DUP2 PUSH1 0xFF MUL NOT AND SWAP1 DUP4 ISZERO ISZERO MUL OR SWAP1 SSTORE POP POP JUMP JUMPDEST PUSH2 0x34A PUSH2 0xE52 JUMP JUMPDEST PUSH0 PUSH1 0x1 SWAP1 POP PUSH0 PUSH1 0x5 PUSH1 0x1 ADD PUSH0 DUP2 SLOAD DUP2 LT PUSH2 0x367 JUMPI PUSH2 0x366 PUSH2 0x1536 JUMP JUMPDEST JUMPDEST SWAP1 PUSH0 MSTORE PUSH1 0x20 PUSH0 KECCAK256 SWAP1 PUSH1 0x2 MUL ADD PUSH1 0x1 ADD SLOAD SWAP1 POP PUSH1 0x5 PUSH1 0x1 ADD PUSH0 DUP2 SLOAD DUP2 LT PUSH2 0x390 JUMPI PUSH2 0x38F PUSH2 0x1536 JUMP JUMPDEST JUMPDEST SWAP1 PUSH0 MSTORE PUSH1 0x20 PUSH0 KECCAK256 SWAP1 PUSH1 0x2 MUL ADD PUSH1 0x7 PUSH0 DUP3 ADD DUP2 PUSH0 ADD SWAP1 DUP2 PUSH2 0x3B0 SWAP2 SWAP1 PUSH2 0x17FF JUMP JUMPDEST POP PUSH1 0x1 DUP3 ADD SLOAD DUP2 PUSH1 0x1 ADD SSTORE SWAP1 POP POP JUMPDEST PUSH1 0x5 PUSH1 0x1 ADD DUP1 SLOAD SWAP1 POP DUP3 LT ISZERO PUSH2 0x47F JUMPI PUSH1 0x5 PUSH1 0x1 ADD DUP3 DUP2 SLOAD DUP2 LT PUSH2 0x3E6 JUMPI PUSH2 0x3E5 PUSH2 0x1536 JUMP JUMPDEST JUMPDEST SWAP1 PUSH0 MSTORE PUSH1 0x20 PUSH0 KECCAK256 SWAP1 PUSH1 0x2 MUL ADD PUSH1 0x1 ADD SLOAD DUP2 GT ISZERO PUSH2 0x46C JUMPI PUSH1 0x5 PUSH1 0x1 ADD DUP3 DUP2 SLOAD DUP2 LT PUSH2 0x414 JUMPI PUSH2 0x413 PUSH2 0x1536 JUMP JUMPDEST JUMPDEST SWAP1 PUSH0 MSTORE PUSH1 0x20 PUSH0 KECCAK256 SWAP1 PUSH1 0x2 MUL ADD PUSH1 0x1 ADD SLOAD SWAP1 POP PUSH1 0x5 PUSH1 0x1 ADD DUP3 DUP2 SLOAD DUP2 LT PUSH2 0x43D JUMPI PUSH2 0x43C PUSH2 0x1536 JUMP JUMPDEST JUMPDEST SWAP1 PUSH0 MSTORE PUSH1 0x20 PUSH0 KECCAK256 SWAP1 PUSH1 0x2 MUL ADD PUSH1 0x7 PUSH0 DUP3 ADD DUP2 PUSH0 ADD SWAP1 DUP2 PUSH2 0x45D SWAP2 SWAP1 PUSH2 0x17FF JUMP JUMPDEST POP PUSH1 0x1 DUP3 ADD SLOAD DUP2 PUSH1 0x1 ADD SSTORE SWAP1 POP POP JUMPDEST DUP2 DUP1 PUSH2 0x477 SWAP1 PUSH2 0x18E4 JUMP JUMPDEST SWAP3 POP POP PUSH2 0x3BF JUMP JUMPDEST POP POP JUMP JUMPDEST PUSH2 0x48B PUSH2 0xE52 JUMP JUMPDEST PUSH1 0x2 PUSH1 0x3 DUP2 GT ISZERO PUSH2 0x49F JUMPI PUSH2 0x49E PUSH2 0x1053 JUMP JUMPDEST JUMPDEST PUSH1 0x5 PUSH0 ADD PUSH0 SWAP1 SLOAD SWAP1 PUSH2 0x100 EXP SWAP1 DIV PUSH1 0xFF AND PUSH1 0x3 DUP2 GT ISZERO PUSH2 0x4C2 JUMPI PUSH2 0x4C1 PUSH2 0x1053 JUMP JUMPDEST JUMPDEST EQ PUSH2 0x502 JUMPI PUSH1 0x40 MLOAD PUSH32 0x8C379A000000000000000000000000000000000000000000000000000000000 DUP2 MSTORE PUSH1 0x4 ADD PUSH2 0x4F9 SWAP1 PUSH2 0x19AB JUMP JUMPDEST PUSH1 0x40 MLOAD DUP1 SWAP2 SUB SWAP1 REVERT JUMPDEST PUSH1 0x3 PUSH1 0x5 PUSH0 ADD PUSH0 PUSH2 0x100 EXP DUP2 SLOAD DUP2 PUSH1 0xFF MUL NOT AND SWAP1 DUP4 PUSH1 0x3 DUP2 GT ISZERO PUSH2 0x529 JUMPI PUSH2 0x528 PUSH2 0x1053 JUMP JUMPDEST JUMPDEST MUL OR SWAP1 SSTORE POP PUSH32 0xBA0B491AB01B63DD081EA11B638BFCD4781ACA6B8DBD885AED6584A7E21EE6E2 PUSH1 0x5 PUSH1 0x40 MLOAD PUSH2 0x55E SWAP2 SWAP1 PUSH2 0x1C1D JUMP JUMPDEST PUSH1 0x40 MLOAD DUP1 SWAP2 SUB SWAP1 LOG1 JUMP JUMPDEST PUSH2 0x570 PUSH2 0xE52 JUMP JUMPDEST PUSH2 0x579 PUSH0 PUSH2 0xED9 JUMP JUMPDEST JUMP JUMPDEST PUSH2 0x583 PUSH2 0xFA1 JUMP JUMPDEST PUSH1 0x5 PUSH1 0x40 MLOAD DUP1 PUSH1 0x60 ADD PUSH1 0x40 MSTORE SWAP1 DUP2 PUSH0 DUP3 ADD PUSH0 SWAP1 SLOAD SWAP1 PUSH2 0x100 EXP SWAP1 DIV PUSH1 0xFF AND PUSH1 0x3 DUP2 GT ISZERO PUSH2 0x5B3 JUMPI PUSH2 0x5B2 PUSH2 0x1053 JUMP JUMPDEST JUMPDEST PUSH1 0x3 DUP2 GT ISZERO PUSH2 0x5C5 JUMPI PUSH2 0x5C4 PUSH2 0x1053 JUMP JUMPDEST JUMPDEST DUP2 MSTORE PUSH1 0x20 ADD PUSH0 DUP3 ADD PUSH1 0x1 SWAP1 SLOAD SWAP1 PUSH2 0x100 EXP SWAP1 DIV PUSH1 0xFF AND ISZERO ISZERO ISZERO ISZERO DUP2 MSTORE PUSH1 0x20 ADD PUSH1 0x1 DUP3 ADD DUP1 SLOAD DUP1 PUSH1 0x20 MUL PUSH1 0x20 ADD PUSH1 0x40 MLOAD SWAP1 DUP2 ADD PUSH1 0x40 MSTORE DUP1 SWAP3 SWAP2 SWAP1 DUP2 DUP2 MSTORE PUSH1 0x20 ADD PUSH0 SWAP1 JUMPDEST DUP3 DUP3 LT ISZERO PUSH2 0x6D0 JUMPI DUP4 DUP3 SWAP1 PUSH0 MSTORE PUSH1 0x20 PUSH0 KECCAK256 SWAP1 PUSH1 0x2 MUL ADD PUSH1 0x40 MLOAD DUP1 PUSH1 0x40 ADD PUSH1 0x40 MSTORE SWAP1 DUP2 PUSH0 DUP3 ADD DUP1 SLOAD PUSH2 0x637 SWAP1 PUSH2 0x15F0 JUMP JUMPDEST DUP1 PUSH1 0x1F ADD PUSH1 0x20 DUP1 SWAP2 DIV MUL PUSH1 0x20 ADD PUSH1 0x40 MLOAD SWAP1 DUP2 ADD PUSH1 0x40 MSTORE DUP1 SWAP3 SWAP2 SWAP1 DUP2 DUP2 MSTORE PUSH1 0x20 ADD DUP3 DUP1 SLOAD PUSH2 0x663 SWAP1 PUSH2 0x15F0 JUMP JUMPDEST DUP1 ISZERO PUSH2 0x6AE JUMPI DUP1 PUSH1 0x1F LT PUSH2 0x685 JUMPI PUSH2 0x100 DUP1 DUP4 SLOAD DIV MUL DUP4 MSTORE SWAP2 PUSH1 0x20 ADD SWAP2 PUSH2 0x6AE JUMP JUMPDEST DUP3 ADD SWAP2 SWAP1 PUSH0 MSTORE PUSH1 0x20 PUSH0 KECCAK256 SWAP1 JUMPDEST DUP2 SLOAD DUP2 MSTORE SWAP1 PUSH1 0x1 ADD SWAP1 PUSH1 0x20 ADD DUP1 DUP4 GT PUSH2 0x691 JUMPI DUP3 SWAP1 SUB PUSH1 0x1F AND DUP3 ADD SWAP2 JUMPDEST POP POP POP POP POP DUP2 MSTORE PUSH1 0x20 ADD PUSH1 0x1 DUP3 ADD SLOAD DUP2 MSTORE POP POP DUP2 MSTORE PUSH1 0x20 ADD SWAP1 PUSH1 0x1 ADD SWAP1 PUSH2 0x607 JUMP JUMPDEST POP POP POP POP DUP2 MSTORE POP POP SWAP1 POP SWAP1 JUMP JUMPDEST PUSH2 0x6E5 PUSH2 0xE52 JUMP JUMPDEST PUSH0 PUSH1 0x3 DUP2 GT ISZERO PUSH2 0x6F8 JUMPI PUSH2 0x6F7 PUSH2 0x1053 JUMP JUMPDEST JUMPDEST PUSH1 0x5 PUSH0 ADD PUSH0 SWAP1 SLOAD SWAP1 PUSH2 0x100 EXP SWAP1 DIV PUSH1 0xFF AND PUSH1 0x3 DUP2 GT ISZERO PUSH2 0x71B JUMPI PUSH2 0x71A PUSH2 0x1053 JUMP JUMPDEST JUMPDEST EQ PUSH2 0x75B JUMPI PUSH1 0x40 MLOAD PUSH32 0x8C379A000000000000000000000000000000000000000000000000000000000 DUP2 MSTORE PUSH1 0x4 ADD PUSH2 0x752 SWAP1 PUSH2 0x1CAD JUMP JUMPDEST PUSH1 0x40 MLOAD DUP1 SWAP2 SUB SWAP1 REVERT JUMPDEST PUSH1 0x1 PUSH1 0x5 PUSH0 ADD PUSH0 PUSH2 0x100 EXP DUP2 SLOAD DUP2 PUSH1 0xFF MUL NOT AND SWAP1 DUP4 PUSH1 0x3 DUP2 GT ISZERO PUSH2 0x782 JUMPI PUSH2 0x781 PUSH2 0x1053 JUMP JUMPDEST JUMPDEST MUL OR SWAP1 SSTORE POP PUSH32 0xBA0B491AB01B63DD081EA11B638BFCD4781ACA6B8DBD885AED6584A7E21EE6E2 PUSH1 0x5 PUSH1 0x40 MLOAD PUSH2 0x7B7 SWAP2 SWAP1 PUSH2 0x1C1D JUMP JUMPDEST PUSH1 0x40 MLOAD DUP1 SWAP2 SUB SWAP1 LOG1 JUMP JUMPDEST PUSH0 DUP1 PUSH0 SWAP1 SLOAD SWAP1 PUSH2 0x100 EXP SWAP1 DIV PUSH20 0xFFFFFFFFFFFFFFFFFFFFFFFFFFFFFFFFFFFFFFFF AND SWAP1 POP SWAP1 JUMP JUMPDEST PUSH2 0x7F0 PUSH2 0xFD4 JUMP JUMPDEST PUSH1 0x7 PUSH1 0x40 MLOAD DUP1 PUSH1 0x40 ADD PUSH1 0x40 MSTORE SWAP1 DUP2 PUSH0 DUP3 ADD DUP1 SLOAD PUSH2 0x80C SWAP1 PUSH2 0x15F0 JUMP JUMPDEST DUP1 PUSH1 0x1F ADD PUSH1 0x20 DUP1 SWAP2 DIV MUL PUSH1 0x20 ADD PUSH1 0x40 MLOAD SWAP1 DUP2 ADD PUSH1 0x40 MSTORE DUP1 SWAP3 SWAP2 SWAP1 DUP2 DUP2 MSTORE PUSH1 0x20 ADD DUP3 DUP1 SLOAD PUSH2 0x838 SWAP1 PUSH2 0x15F0 JUMP JUMPDEST DUP1 ISZERO PUSH2 0x883 JUMPI DUP1 PUSH1 0x1F LT PUSH2 0x85A JUMPI PUSH2 0x100 DUP1 DUP4 SLOAD DIV MUL DUP4 MSTORE SWAP2 PUSH1 0x20 ADD SWAP2 PUSH2 0x883 JUMP JUMPDEST DUP3 ADD SWAP2 SWAP1 PUSH0 MSTORE PUSH1 0x20 PUSH0 KECCAK256 SWAP1 JUMPDEST DUP2 SLOAD DUP2 MSTORE SWAP1 PUSH1 0x1 ADD SWAP1 PUSH1 0x20 ADD DUP1 DUP4 GT PUSH2 0x866 JUMPI DUP3 SWAP1 SUB PUSH1 0x1F AND DUP3 ADD SWAP2 JUMPDEST POP POP POP POP POP DUP2 MSTORE PUSH1 0x20 ADD PUSH1 0x1 DUP3 ADD SLOAD DUP2 MSTORE POP POP SWAP1 POP SWAP1 JUMP JUMPDEST PUSH1 0x9 PUSH1 0x20 MSTORE DUP1 PUSH0 MSTORE PUSH1 0x40 PUSH0 KECCAK256 PUSH0 SWAP2 POP SWAP1 POP DUP1 PUSH0 ADD PUSH0 SWAP1 SLOAD SWAP1 PUSH2 0x100 EXP SWAP1 DIV PUSH1 0xFF AND SWAP1 DUP1 PUSH0 ADD PUSH1 0x1 SWAP1 SLOAD SWAP1 PUSH2 0x100 EXP SWAP1 DIV PUSH1 0xFF AND SWAP1 DUP1 PUSH1 0x1 ADD SLOAD SWAP1 POP DUP4 JUMP JUMPDEST PUSH1 0x9 PUSH0 CALLER PUSH20 0xFFFFFFFFFFFFFFFFFFFFFFFFFFFFFFFFFFFFFFFF AND PUSH20 0xFFFFFFFFFFFFFFFFFFFFFFFFFFFFFFFFFFFFFFFF AND DUP2 MSTORE PUSH1 0x20 ADD SWAP1 DUP2 MSTORE PUSH1 0x20 ADD PUSH0 KECCAK256 PUSH0 ADD PUSH0 SWAP1 SLOAD SWAP1 PUSH2 0x100 EXP SWAP1 DIV PUSH1 0xFF AND PUSH2 0x964 JUMPI PUSH1 0x40 MLOAD PUSH32 0x8C379A000000000000000000000000000000000000000000000000000000000 DUP2 MSTORE PUSH1 0x4 ADD PUSH2 0x95B SWAP1 PUSH2 0x1D15 JUMP JUMPDEST PUSH1 0x40 MLOAD DUP1 SWAP2 SUB SWAP1 REVERT JUMPDEST PUSH1 0x5 PUSH0 ADD PUSH1 0x1 SWAP1 SLOAD SWAP1 PUSH2 0x100 EXP SWAP1 DIV PUSH1 0xFF AND DUP1 PUSH2 0x9B3 JUMPI POP CALLER PUSH20 0xFFFFFFFFFFFFFFFFFFFFFFFFFFFFFFFFFFFFFFFF AND PUSH2 0x99B PUSH2 0x7C1 JUMP JUMPDEST PUSH20 0xFFFFFFFFFFFFFFFFFFFFFFFFFFFFFFFFFFFFFFFF AND EQ JUMPDEST ISZERO PUSH2 0xAF7 JUMPI PUSH0 PUSH1 0x3 DUP2 GT ISZERO PUSH2 0x9CB JUMPI PUSH2 0x9CA PUSH2 0x1053 JUMP JUMPDEST JUMPDEST PUSH1 0x5 PUSH0 ADD PUSH0 SWAP1 SLOAD SWAP1 PUSH2 0x100 EXP SWAP1 DIV PUSH1 0xFF AND PUSH1 0x3 DUP2 GT ISZERO PUSH2 0x9EE JUMPI PUSH2 0x9ED PUSH2 0x1053 JUMP JUMPDEST JUMPDEST EQ PUSH2 0x9F7 JUMPI PUSH0 DUP1 REVERT JUMPDEST PUSH1 0x40 MLOAD DUP1 PUSH1 0x40 ADD PUSH1 0x40 MSTORE DUP1 DUP4 DUP4 DUP1 DUP1 PUSH1 0x1F ADD PUSH1 0x20 DUP1 SWAP2 DIV MUL PUSH1 0x20 ADD PUSH1 0x40 MLOAD SWAP1 DUP2 ADD PUSH1 0x40 MSTORE DUP1 SWAP4 SWAP3 SWAP2 SWAP1 DUP2 DUP2 MSTORE PUSH1 0x20 ADD DUP4 DUP4 DUP1 DUP3 DUP5 CALLDATACOPY PUSH0 DUP2 DUP5 ADD MSTORE PUSH1 0x1F NOT PUSH1 0x1F DUP3 ADD AND SWAP1 POP DUP1 DUP4 ADD SWAP3 POP POP POP POP POP POP POP DUP2 MSTORE PUSH1 0x20 ADD PUSH0 DUP2 MSTORE POP PUSH1 0x1 PUSH0 DUP3 ADD MLOAD DUP2 PUSH0 ADD SWAP1 DUP2 PUSH2 0xA64 SWAP2 SWAP1 PUSH2 0x1D33 JUMP JUMPDEST POP PUSH1 0x20 DUP3 ADD MLOAD DUP2 PUSH1 0x1 ADD SSTORE SWAP1 POP POP PUSH1 0x5 PUSH1 0x1 ADD PUSH1 0x1 SWAP1 DUP1 PUSH1 0x1 DUP2 SLOAD ADD DUP1 DUP3 SSTORE DUP1 SWAP2 POP POP PUSH1 0x1 SWAP1 SUB SWAP1 PUSH0 MSTORE PUSH1 0x20 PUSH0 KECCAK256 SWAP1 PUSH1 0x2 MUL ADD PUSH0 SWAP1 SWAP2 SWAP1 SWAP2 SWAP1 SWAP2 POP PUSH0 DUP3 ADD DUP2 PUSH0 ADD SWAP1 DUP2 PUSH2 0xAB1 SWAP2 SWAP1 PUSH2 0x17FF JUMP JUMPDEST POP PUSH1 0x1 DUP3 ADD SLOAD DUP2 PUSH1 0x1 ADD SSTORE POP POP PUSH32 0xC90604C068B8EFD40FC7ABB985D0A8C41192FF10CD393403F3DDDF0C39E5A1D9 PUSH1 0x1 PUSH1 0x40 MLOAD PUSH2 0xAEE SWAP2 SWAP1 PUSH2 0x1E48 JUMP JUMPDEST PUSH1 0x40 MLOAD DUP1 SWAP2 SUB SWAP1 LOG1 JUMPDEST POP POP JUMP JUMPDEST PUSH2 0xB03 PUSH2 0xE52 JUMP JUMPDEST PUSH1 0x1 PUSH1 0x3 DUP2 GT ISZERO PUSH2 0xB17 JUMPI PUSH2 0xB16 PUSH2 0x1053 JUMP JUMPDEST JUMPDEST PUSH1 0x5 PUSH0 ADD PUSH0 SWAP1 SLOAD SWAP1 PUSH2 0x100 EXP SWAP1 DIV PUSH1 0xFF AND PUSH1 0x3 DUP2 GT ISZERO PUSH2 0xB3A JUMPI PUSH2 0xB39 PUSH2 0x1053 JUMP JUMPDEST JUMPDEST EQ PUSH2 0xB7A JUMPI PUSH1 0x40 MLOAD PUSH32 0x8C379A000000000000000000000000000000000000000000000000000000000 DUP2 MSTORE PUSH1 0x4 ADD PUSH2 0xB71 SWAP1 PUSH2 0x1ED8 JUMP JUMPDEST PUSH1 0x40 MLOAD DUP1 SWAP2 SUB SWAP1 REVERT JUMPDEST PUSH1 0x2 PUSH1 0x5 PUSH0 ADD PUSH0 PUSH2 0x100 EXP DUP2 SLOAD DUP2 PUSH1 0xFF MUL NOT AND SWAP1 DUP4 PUSH1 0x3 DUP2 GT ISZERO PUSH2 0xBA1 JUMPI PUSH2 0xBA0 PUSH2 0x1053 JUMP JUMPDEST JUMPDEST MUL OR SWAP1 SSTORE POP PUSH32 0xBA0B491AB01B63DD081EA11B638BFCD4781ACA6B8DBD885AED6584A7E21EE6E2 PUSH1 0x5 PUSH1 0x40 MLOAD PUSH2 0xBD6 SWAP2 SWAP1 PUSH2 0x1C1D JUMP JUMPDEST PUSH1 0x40 MLOAD DUP1 SWAP2 SUB SWAP1 LOG1 JUMP JUMPDEST PUSH2 0xBE8 PUSH2 0xE52 JUMP JUMPDEST PUSH1 0x1 PUSH1 0x9 PUSH0 PUSH2 0xBF5 PUSH2 0x7C1 JUMP JUMPDEST PUSH20 0xFFFFFFFFFFFFFFFFFFFFFFFFFFFFFFFFFFFFFFFF AND PUSH20 0xFFFFFFFFFFFFFFFFFFFFFFFFFFFFFFFFFFFFFFFF AND DUP2 MSTORE PUSH1 0x20 ADD SWAP1 DUP2 MSTORE PUSH1 0x20 ADD PUSH0 KECCAK256 PUSH0 ADD PUSH0 PUSH2 0x100 EXP DUP2 SLOAD DUP2 PUSH1 0xFF MUL NOT AND SWAP1 DUP4 ISZERO ISZERO MUL OR SWAP1 SSTORE POP PUSH0 PUSH1 0x5 PUSH0 ADD PUSH0 PUSH2 0x100 EXP DUP2 SLOAD DUP2 PUSH1 0xFF MUL NOT AND SWAP1 DUP4 PUSH1 0x3 DUP2 GT ISZERO PUSH2 0xC6C JUMPI PUSH2 0xC6B PUSH2 0x1053 JUMP JUMPDEST JUMPDEST MUL OR SWAP1 SSTORE POP DUP1 PUSH1 0x5 PUSH0 ADD PUSH1 0x1 PUSH2 0x100 EXP DUP2 SLOAD DUP2 PUSH1 0xFF MUL NOT AND SWAP1 DUP4 ISZERO ISZERO MUL OR SWAP1 SSTORE POP PUSH32 0xBA0B491AB01B63DD081EA11B638BFCD4781ACA6B8DBD885AED6584A7E21EE6E2 PUSH1 0x5 PUSH1 0x40 MLOAD PUSH2 0xCBD SWAP2 SWAP1 PUSH2 0x1C1D JUMP JUMPDEST PUSH1 0x40 MLOAD DUP1 SWAP2 SUB SWAP1 LOG1 POP JUMP JUMPDEST PUSH2 0xCD0 PUSH2 0xE52 JUMP JUMPDEST PUSH0 PUSH20 0xFFFFFFFFFFFFFFFFFFFFFFFFFFFFFFFFFFFFFFFF AND DUP2 PUSH20 0xFFFFFFFFFFFFFFFFFFFFFFFFFFFFFFFFFFFFFFFF AND SUB PUSH2 0xD40 JUMPI PUSH0 PUSH1 0x40 MLOAD PUSH32 0x1E4FBDF700000000000000000000000000000000000000000000000000000000 DUP2 MSTORE PUSH1 0x4 ADD PUSH2 0xD37 SWAP2 SWAP1 PUSH2 0x131A JUMP JUMPDEST PUSH1 0x40 MLOAD DUP1 SWAP2 SUB SWAP1 REVERT JUMPDEST PUSH2 0xD49 DUP2 PUSH2 0xED9 JUMP JUMPDEST POP JUMP JUMPDEST PUSH2 0xD54 PUSH2 0xE52 JUMP JUMPDEST PUSH1 0x9 PUSH0 DUP3 PUSH20 0xFFFFFFFFFFFFFFFFFFFFFFFFFFFFFFFFFFFFFFFF AND PUSH20 0xFFFFFFFFFFFFFFFFFFFFFFFFFFFFFFFFFFFFFFFF AND DUP2 MSTORE PUSH1 0x20 ADD SWAP1 DUP2 MSTORE PUSH1 0x20 ADD PUSH0 KECCAK256 PUSH0 ADD PUSH0 SWAP1 SLOAD SWAP1 PUSH2 0x100 EXP SWAP1 DIV PUSH1 0xFF AND ISZERO PUSH2 0xDA9 JUMPI PUSH0 DUP1 REVERT JUMPDEST PUSH1 0x40 MLOAD DUP1 PUSH1 0x60 ADD PUSH1 0x40 MSTORE DUP1 PUSH1 0x1 ISZERO ISZERO DUP2 MSTORE PUSH1 0x20 ADD PUSH0 ISZERO ISZERO DUP2 MSTORE PUSH1 0x20 ADD PUSH0 DUP2 MSTORE POP PUSH1 0x9 PUSH0 DUP4 PUSH20 0xFFFFFFFFFFFFFFFFFFFFFFFFFFFFFFFFFFFFFFFF AND PUSH20 0xFFFFFFFFFFFFFFFFFFFFFFFFFFFFFFFFFFFFFFFF AND DUP2 MSTORE PUSH1 0x20 ADD SWAP1 DUP2 MSTORE PUSH1 0x20 ADD PUSH0 KECCAK256 PUSH0 DUP3 ADD MLOAD DUP2 PUSH0 ADD PUSH0 PUSH2 0x100 EXP DUP2 SLOAD DUP2 PUSH1 0xFF MUL NOT AND SWAP1 DUP4 ISZERO ISZERO MUL OR SWAP1 SSTORE POP PUSH1 0x20 DUP3 ADD MLOAD DUP2 PUSH0 ADD PUSH1 0x1 PUSH2 0x100 EXP DUP2 SLOAD DUP2 PUSH1 0xFF MUL NOT AND SWAP1 DUP4 ISZERO ISZERO MUL OR SWAP1 SSTORE POP PUSH1 0x40 DUP3 ADD MLOAD DUP2 PUSH1 0x1 ADD SSTORE SWAP1 POP POP POP JUMP JUMPDEST PUSH2 0xE5A PUSH2 0xF9A JUMP JUMPDEST PUSH20 0xFFFFFFFFFFFFFFFFFFFFFFFFFFFFFFFFFFFFFFFF AND PUSH2 0xE78 PUSH2 0x7C1 JUMP JUMPDEST PUSH20 0xFFFFFFFFFFFFFFFFFFFFFFFFFFFFFFFFFFFFFFFF AND EQ PUSH2 0xED7 JUMPI PUSH2 0xE9B PUSH2 0xF9A JUMP JUMPDEST PUSH1 0x40 MLOAD PUSH32 0x118CDAA700000000000000000000000000000000000000000000000000000000 DUP2 MSTORE PUSH1 0x4 ADD PUSH2 0xECE SWAP2 SWAP1 PUSH2 0x131A JUMP JUMPDEST PUSH1 0x40 MLOAD DUP1 SWAP2 SUB SWAP1 REVERT JUMPDEST JUMP JUMPDEST PUSH0 DUP1 PUSH0 SWAP1 SLOAD SWAP1 PUSH2 0x100 EXP SWAP1 DIV PUSH20 0xFFFFFFFFFFFFFFFFFFFFFFFFFFFFFFFFFFFFFFFF AND SWAP1 POP DUP2 PUSH0 DUP1 PUSH2 0x100 EXP DUP2 SLOAD DUP2 PUSH20 0xFFFFFFFFFFFFFFFFFFFFFFFFFFFFFFFFFFFFFFFF MUL NOT AND SWAP1 DUP4 PUSH20 0xFFFFFFFFFFFFFFFFFFFFFFFFFFFFFFFFFFFFFFFF AND MUL OR SWAP1 SSTORE POP DUP2 PUSH20 0xFFFFFFFFFFFFFFFFFFFFFFFFFFFFFFFFFFFFFFFF AND DUP2 PUSH20 0xFFFFFFFFFFFFFFFFFFFFFFFFFFFFFFFFFFFFFFFF AND PUSH32 0x8BE0079C531659141344CD1FD0A4F28419497F9722A3DAAFE3B4186F6B6457E0 PUSH1 0x40 MLOAD PUSH1 0x40 MLOAD DUP1 SWAP2 SUB SWAP1 LOG3 POP POP JUMP JUMPDEST PUSH0 CALLER SWAP1 POP SWAP1 JUMP JUMPDEST PUSH1 0x40 MLOAD DUP1 PUSH1 0x60 ADD PUSH1 0x40 MSTORE DUP1 PUSH0 PUSH1 0x3 DUP2 GT ISZERO PUSH2 0xFBF JUMPI PUSH2 0xFBE PUSH2 0x1053 JUMP JUMPDEST JUMPDEST DUP2 MSTORE PUSH1 0x20 ADD PUSH0 ISZERO ISZERO DUP2 MSTORE PUSH1 0x20 ADD PUSH1 0x60 DUP2 MSTORE POP SWAP1 JUMP JUMPDEST PUSH1 0x40 MLOAD DUP1 PUSH1 0x40 ADD PUSH1 0x40 MSTORE DUP1 PUSH1 0x60 DUP2 MSTORE PUSH1 0x20 ADD PUSH0 DUP2 MSTORE POP SWAP1 JUMP JUMPDEST PUSH0 DUP1 REVERT JUMPDEST PUSH0 DUP1 REVERT JUMPDEST PUSH0 DUP2 SWAP1 POP SWAP2 SWAP1 POP JUMP JUMPDEST PUSH2 0x1007 DUP2 PUSH2 0xFF5 JUMP JUMPDEST DUP2 EQ PUSH2 0x1011 JUMPI PUSH0 DUP1 REVERT JUMPDEST POP JUMP JUMPDEST PUSH0 DUP2 CALLDATALOAD SWAP1 POP PUSH2 0x1022 DUP2 PUSH2 0xFFE JUMP JUMPDEST SWAP3 SWAP2 POP POP JUMP JUMPDEST PUSH0 PUSH1 0x20 DUP3 DUP5 SUB SLT ISZERO PUSH2 0x103D JUMPI PUSH2 0x103C PUSH2 0xFED JUMP JUMPDEST JUMPDEST PUSH0 PUSH2 0x104A DUP5 DUP3 DUP6 ADD PUSH2 0x1014 JUMP JUMPDEST SWAP2 POP POP SWAP3 SWAP2 POP POP JUMP JUMPDEST PUSH32 0x4E487B7100000000000000000000000000000000000000000000000000000000 PUSH0 MSTORE PUSH1 0x21 PUSH1 0x4 MSTORE PUSH1 0x24 PUSH0 REVERT JUMPDEST PUSH1 0x4 DUP2 LT PUSH2 0x1091 JUMPI PUSH2 0x1090 PUSH2 0x1053 JUMP JUMPDEST JUMPDEST POP JUMP JUMPDEST PUSH0 DUP2 SWAP1 POP PUSH2 0x10A1 DUP3 PUSH2 0x1080 JUMP JUMPDEST SWAP2 SWAP1 POP JUMP JUMPDEST PUSH0 PUSH2 0x10B0 DUP3 PUSH2 0x1094 JUMP JUMPDEST SWAP1 POP SWAP2 SWAP1 POP JUMP JUMPDEST PUSH2 0x10C0 DUP2 PUSH2 0x10A6 JUMP JUMPDEST DUP3 MSTORE POP POP JUMP JUMPDEST PUSH0 DUP2 ISZERO ISZERO SWAP1 POP SWAP2 SWAP1 POP JUMP JUMPDEST PUSH2 0x10DA DUP2 PUSH2 0x10C6 JUMP JUMPDEST DUP3 MSTORE POP POP JUMP JUMPDEST PUSH0 DUP2 MLOAD SWAP1 POP SWAP2 SWAP1 POP JUMP JUMPDEST PUSH0 DUP3 DUP3 MSTORE PUSH1 0x20 DUP3 ADD SWAP1 POP SWAP3 SWAP2 POP POP JUMP JUMPDEST PUSH0 DUP2 SWAP1 POP PUSH1 0x20 DUP3 ADD SWAP1 POP SWAP2 SWAP1 POP JUMP JUMPDEST PUSH0 DUP2 MLOAD SWAP1 POP SWAP2 SWAP1 POP JUMP JUMPDEST PUSH0 DUP3 DUP3 MSTORE PUSH1 0x20 DUP3 ADD SWAP1 POP SWAP3 SWAP2 POP POP JUMP JUMPDEST PUSH0 JUMPDEST DUP4 DUP2 LT ISZERO PUSH2 0x1140 JUMPI DUP1 DUP3 ADD MLOAD DUP2 DUP5 ADD MSTORE PUSH1 0x20 DUP2 ADD SWAP1 POP PUSH2 0x1125 JUMP JUMPDEST PUSH0 DUP5 DUP5 ADD MSTORE POP POP POP POP JUMP JUMPDEST PUSH0 PUSH1 0x1F NOT PUSH1 0x1F DUP4 ADD AND SWAP1 POP SWAP2 SWAP1 POP JUMP JUMPDEST PUSH0 PUSH2 0x1165 DUP3 PUSH2 0x1109 JUMP JUMPDEST PUSH2 0x116F DUP2 DUP6 PUSH2 0x1113 JUMP JUMPDEST SWAP4 POP PUSH2 0x117F DUP2 DUP6 PUSH1 0x20 DUP7 ADD PUSH2 0x1123 JUMP JUMPDEST PUSH2 0x1188 DUP2 PUSH2 0x114B JUMP JUMPDEST DUP5 ADD SWAP2 POP POP SWAP3 SWAP2 POP POP JUMP JUMPDEST PUSH2 0x119C DUP2 PUSH2 0xFF5 JUMP JUMPDEST DUP3 MSTORE POP POP JUMP JUMPDEST PUSH0 PUSH1 0x40 DUP4 ADD PUSH0 DUP4 ADD MLOAD DUP5 DUP3 SUB PUSH0 DUP7 ADD MSTORE PUSH2 0x11BC DUP3 DUP3 PUSH2 0x115B JUMP JUMPDEST SWAP2 POP POP PUSH1 0x20 DUP4 ADD MLOAD PUSH2 0x11D1 PUSH1 0x20 DUP7 ADD DUP3 PUSH2 0x1193 JUMP JUMPDEST POP DUP1 SWAP2 POP POP SWAP3 SWAP2 POP POP JUMP JUMPDEST PUSH0 PUSH2 0x11E7 DUP4 DUP4 PUSH2 0x11A2 JUMP JUMPDEST SWAP1 POP SWAP3 SWAP2 POP POP JUMP JUMPDEST PUSH0 PUSH1 0x20 DUP3 ADD SWAP1 POP SWAP2 SWAP1 POP JUMP JUMPDEST PUSH0 PUSH2 0x1205 DUP3 PUSH2 0x10E0 JUMP JUMPDEST PUSH2 0x120F DUP2 DUP6 PUSH2 0x10EA JUMP JUMPDEST SWAP4 POP DUP4 PUSH1 0x20 DUP3 MUL DUP6 ADD PUSH2 0x1221 DUP6 PUSH2 0x10FA JUMP JUMPDEST DUP1 PUSH0 JUMPDEST DUP6 DUP2 LT ISZERO PUSH2 0x125C JUMPI DUP5 DUP5 SUB DUP10 MSTORE DUP2 MLOAD PUSH2 0x123D DUP6 DUP3 PUSH2 0x11DC JUMP JUMPDEST SWAP5 POP PUSH2 0x1248 DUP4 PUSH2 0x11EF JUMP JUMPDEST SWAP3 POP PUSH1 0x20 DUP11 ADD SWAP10 POP POP PUSH1 0x1 DUP2 ADD SWAP1 POP PUSH2 0x1224 JUMP JUMPDEST POP DUP3 SWAP8 POP DUP8 SWAP6 POP POP POP POP POP POP SWAP3 SWAP2 POP POP JUMP JUMPDEST PUSH0 PUSH1 0x60 DUP4 ADD PUSH0 DUP4 ADD MLOAD PUSH2 0x1283 PUSH0 DUP7 ADD DUP3 PUSH2 0x10B7 JUMP JUMPDEST POP PUSH1 0x20 DUP4 ADD MLOAD PUSH2 0x1296 PUSH1 0x20 DUP7 ADD DUP3 PUSH2 0x10D1 JUMP JUMPDEST POP PUSH1 0x40 DUP4 ADD MLOAD DUP5 DUP3 SUB PUSH1 0x40 DUP7 ADD MSTORE PUSH2 0x12AE DUP3 DUP3 PUSH2 0x11FB JUMP JUMPDEST SWAP2 POP POP DUP1 SWAP2 POP POP SWAP3 SWAP2 POP POP JUMP JUMPDEST PUSH0 PUSH1 0x20 DUP3 ADD SWAP1 POP DUP2 DUP2 SUB PUSH0 DUP4 ADD MSTORE PUSH2 0x12D3 DUP2 DUP5 PUSH2 0x126E JUMP JUMPDEST SWAP1 POP SWAP3 SWAP2 POP POP JUMP JUMPDEST PUSH0 PUSH20 0xFFFFFFFFFFFFFFFFFFFFFFFFFFFFFFFFFFFFFFFF DUP3 AND SWAP1 POP SWAP2 SWAP1 POP JUMP JUMPDEST PUSH0 PUSH2 0x1304 DUP3 PUSH2 0x12DB JUMP JUMPDEST SWAP1 POP SWAP2 SWAP1 POP JUMP JUMPDEST PUSH2 0x1314 DUP2 PUSH2 0x12FA JUMP JUMPDEST DUP3 MSTORE POP POP JUMP JUMPDEST PUSH0 PUSH1 0x20 DUP3 ADD SWAP1 POP PUSH2 0x132D PUSH0 DUP4 ADD DUP5 PUSH2 0x130B JUMP JUMPDEST SWAP3 SWAP2 POP POP JUMP JUMPDEST PUSH0 PUSH1 0x40 DUP4 ADD PUSH0 DUP4 ADD MLOAD DUP5 DUP3 SUB PUSH0 DUP7 ADD MSTORE PUSH2 0x134D DUP3 DUP3 PUSH2 0x115B JUMP JUMPDEST SWAP2 POP POP PUSH1 0x20 DUP4 ADD MLOAD PUSH2 0x1362 PUSH1 0x20 DUP7 ADD DUP3 PUSH2 0x1193 JUMP JUMPDEST POP DUP1 SWAP2 POP POP SWAP3 SWAP2 POP POP JUMP JUMPDEST PUSH0 PUSH1 0x20 DUP3 ADD SWAP1 POP DUP2 DUP2 SUB PUSH0 DUP4 ADD MSTORE PUSH2 0x1385 DUP2 DUP5 PUSH2 0x1333 JUMP JUMPDEST SWAP1 POP SWAP3 SWAP2 POP POP JUMP JUMPDEST PUSH2 0x1396 DUP2 PUSH2 0x12FA JUMP JUMPDEST DUP2 EQ PUSH2 0x13A0 JUMPI PUSH0 DUP1 REVERT JUMPDEST POP JUMP JUMPDEST PUSH0 DUP2 CALLDATALOAD SWAP1 POP PUSH2 0x13B1 DUP2 PUSH2 0x138D JUMP JUMPDEST SWAP3 SWAP2 POP POP JUMP JUMPDEST PUSH0 PUSH1 0x20 DUP3 DUP5 SUB SLT ISZERO PUSH2 0x13CC JUMPI PUSH2 0x13CB PUSH2 0xFED JUMP JUMPDEST JUMPDEST PUSH0 PUSH2 0x13D9 DUP5 DUP3 DUP6 ADD PUSH2 0x13A3 JUMP JUMPDEST SWAP2 POP POP SWAP3 SWAP2 POP POP JUMP JUMPDEST PUSH2 0x13EB DUP2 PUSH2 0x10C6 JUMP JUMPDEST DUP3 MSTORE POP POP JUMP JUMPDEST PUSH2 0x13FA DUP2 PUSH2 0xFF5 JUMP JUMPDEST DUP3 MSTORE POP POP JUMP JUMPDEST PUSH0 PUSH1 0x60 DUP3 ADD SWAP1 POP PUSH2 0x1413 PUSH0 DUP4 ADD DUP7 PUSH2 0x13E2 JUMP JUMPDEST PUSH2 0x1420 PUSH1 0x20 DUP4 ADD DUP6 PUSH2 0x13E2 JUMP JUMPDEST PUSH2 0x142D PUSH1 0x40 DUP4 ADD DUP5 PUSH2 0x13F1 JUMP JUMPDEST SWAP5 SWAP4 POP POP POP POP JUMP JUMPDEST PUSH0 DUP1 REVERT JUMPDEST PUSH0 DUP1 REVERT JUMPDEST PUSH0 DUP1 REVERT JUMPDEST PUSH0 DUP1 DUP4 PUSH1 0x1F DUP5 ADD SLT PUSH2 0x1456 JUMPI PUSH2 0x1455 PUSH2 0x1435 JUMP JUMPDEST JUMPDEST DUP3 CALLDATALOAD SWAP1 POP PUSH8 0xFFFFFFFFFFFFFFFF DUP2 GT ISZERO PUSH2 0x1473 JUMPI PUSH2 0x1472 PUSH2 0x1439 JUMP JUMPDEST JUMPDEST PUSH1 0x20 DUP4 ADD SWAP2 POP DUP4 PUSH1 0x1 DUP3 MUL DUP4 ADD GT ISZERO PUSH2 0x148F JUMPI PUSH2 0x148E PUSH2 0x143D JUMP JUMPDEST JUMPDEST SWAP3 POP SWAP3 SWAP1 POP JUMP JUMPDEST PUSH0 DUP1 PUSH1 0x20 DUP4 DUP6 SUB SLT ISZERO PUSH2 0x14AC JUMPI PUSH2 0x14AB PUSH2 0xFED JUMP JUMPDEST JUMPDEST PUSH0 DUP4 ADD CALLDATALOAD PUSH8 0xFFFFFFFFFFFFFFFF DUP2 GT ISZERO PUSH2 0x14C9 JUMPI PUSH2 0x14C8 PUSH2 0xFF1 JUMP JUMPDEST JUMPDEST PUSH2 0x14D5 DUP6 DUP3 DUP7 ADD PUSH2 0x1441 JUMP JUMPDEST SWAP3 POP SWAP3 POP POP SWAP3 POP SWAP3 SWAP1 POP JUMP JUMPDEST PUSH2 0x14EA DUP2 PUSH2 0x10C6 JUMP JUMPDEST DUP2 EQ PUSH2 0x14F4 JUMPI PUSH0 DUP1 REVERT JUMPDEST POP JUMP JUMPDEST PUSH0 DUP2 CALLDATALOAD SWAP1 POP PUSH2 0x1505 DUP2 PUSH2 0x14E1 JUMP JUMPDEST SWAP3 SWAP2 POP POP JUMP JUMPDEST PUSH0 PUSH1 0x20 DUP3 DUP5 SUB SLT ISZERO PUSH2 0x1520 JUMPI PUSH2 0x151F PUSH2 0xFED JUMP JUMPDEST JUMPDEST PUSH0 PUSH2 0x152D DUP5 DUP3 DUP6 ADD PUSH2 0x14F7 JUMP JUMPDEST SWAP2 POP POP SWAP3 SWAP2 POP POP JUMP JUMPDEST PUSH32 0x4E487B7100000000000000000000000000000000000000000000000000000000 PUSH0 MSTORE PUSH1 0x32 PUSH1 0x4 MSTORE PUSH1 0x24 PUSH0 REVERT JUMPDEST PUSH32 0x4E487B7100000000000000000000000000000000000000000000000000000000 PUSH0 MSTORE PUSH1 0x11 PUSH1 0x4 MSTORE PUSH1 0x24 PUSH0 REVERT JUMPDEST PUSH0 PUSH2 0x159A DUP3 PUSH2 0xFF5 JUMP JUMPDEST SWAP2 POP PUSH2 0x15A5 DUP4 PUSH2 0xFF5 JUMP JUMPDEST SWAP3 POP DUP3 DUP3 ADD SWAP1 POP DUP1 DUP3 GT ISZERO PUSH2 0x15BD JUMPI PUSH2 0x15BC PUSH2 0x1563 JUMP JUMPDEST JUMPDEST SWAP3 SWAP2 POP POP JUMP JUMPDEST PUSH32 0x4E487B7100000000000000000000000000000000000000000000000000000000 PUSH0 MSTORE PUSH1 0x22 PUSH1 0x4 MSTORE PUSH1 0x24 PUSH0 REVERT JUMPDEST PUSH0 PUSH1 0x2 DUP3 DIV SWAP1 POP PUSH1 0x1 DUP3 AND DUP1 PUSH2 0x1607 JUMPI PUSH1 0x7F DUP3 AND SWAP2 POP JUMPDEST PUSH1 0x20 DUP3 LT DUP2 SUB PUSH2 0x161A JUMPI PUSH2 0x1619 PUSH2 0x15C3 JUMP JUMPDEST JUMPDEST POP SWAP2 SWAP1 POP JUMP JUMPDEST PUSH0 DUP2 SLOAD SWAP1 POP PUSH2 0x162E DUP2 PUSH2 0x15F0 JUMP JUMPDEST SWAP1 POP SWAP2 SWAP1 POP JUMP JUMPDEST PUSH32 0x4E487B7100000000000000000000000000000000000000000000000000000000 PUSH0 MSTORE PUSH1 0x41 PUSH1 0x4 MSTORE PUSH1 0x24 PUSH0 REVERT JUMPDEST PUSH0 DUP2 SWAP1 POP DUP2 PUSH0 MSTORE PUSH1 0x20 PUSH0 KECCAK256 SWAP1 POP SWAP2 SWAP1 POP JUMP JUMPDEST PUSH0 PUSH1 0x20 PUSH1 0x1F DUP4 ADD DIV SWAP1 POP SWAP2 SWAP1 POP JUMP JUMPDEST PUSH0 DUP3 DUP3 SHL SWAP1 POP SWAP3 SWAP2 POP POP JUMP JUMPDEST PUSH0 PUSH1 0x8 DUP4 MUL PUSH2 0x16BE PUSH32 0xFFFFFFFFFFFFFFFFFFFFFFFFFFFFFFFFFFFFFFFFFFFFFFFFFFFFFFFFFFFFFFFF DUP3 PUSH2 0x1683 JUMP JUMPDEST PUSH2 0x16C8 DUP7 DUP4 PUSH2 0x1683 JUMP JUMPDEST SWAP6 POP DUP1 NOT DUP5 AND SWAP4 POP DUP1 DUP7 AND DUP5 OR SWAP3 POP POP POP SWAP4 SWAP3 POP POP POP JUMP JUMPDEST PUSH0 DUP2 SWAP1 POP SWAP2 SWAP1 POP JUMP JUMPDEST PUSH0 PUSH2 0x1703 PUSH2 0x16FE PUSH2 0x16F9 DUP5 PUSH2 0xFF5 JUMP JUMPDEST PUSH2 0x16E0 JUMP JUMPDEST PUSH2 0xFF5 JUMP JUMPDEST SWAP1 POP SWAP2 SWAP1 POP JUMP JUMPDEST PUSH0 DUP2 SWAP1 POP SWAP2 SWAP1 POP JUMP JUMPDEST PUSH2 0x171C DUP4 PUSH2 0x16E9 JUMP JUMPDEST PUSH2 0x1730 PUSH2 0x1728 DUP3 PUSH2 0x170A JUMP JUMPDEST DUP5 DUP5 SLOAD PUSH2 0x168F JUMP JUMPDEST DUP3 SSTORE POP POP POP POP JUMP JUMPDEST PUSH0 SWAP1 JUMP JUMPDEST PUSH2 0x1744 PUSH2 0x1738 JUMP JUMPDEST PUSH2 0x174F DUP2 DUP5 DUP5 PUSH2 0x1713 JUMP JUMPDEST POP POP POP JUMP JUMPDEST JUMPDEST DUP2 DUP2 LT ISZERO PUSH2 0x1772 JUMPI PUSH2 0x1767 PUSH0 DUP3 PUSH2 0x173C JUMP JUMPDEST PUSH1 0x1 DUP2 ADD SWAP1 POP PUSH2 0x1755 JUMP JUMPDEST POP POP JUMP JUMPDEST PUSH1 0x1F DUP3 GT ISZERO PUSH2 0x17B7 JUMPI PUSH2 0x1788 DUP2 PUSH2 0x1662 JUMP JUMPDEST PUSH2 0x1791 DUP5 PUSH2 0x1674 JUMP JUMPDEST DUP2 ADD PUSH1 0x20 DUP6 LT ISZERO PUSH2 0x17A0 JUMPI DUP2 SWAP1 POP JUMPDEST PUSH2 0x17B4 PUSH2 0x17AC DUP6 PUSH2 0x1674 JUMP JUMPDEST DUP4 ADD DUP3 PUSH2 0x1754 JUMP JUMPDEST POP POP JUMPDEST POP POP POP JUMP JUMPDEST PUSH0 DUP3 DUP3 SHR SWAP1 POP SWAP3 SWAP2 POP POP JUMP JUMPDEST PUSH0 PUSH2 0x17D7 PUSH0 NOT DUP5 PUSH1 0x8 MUL PUSH2 0x17BC JUMP JUMPDEST NOT DUP1 DUP4 AND SWAP2 POP POP SWAP3 SWAP2 POP POP JUMP JUMPDEST PUSH0 PUSH2 0x17EF DUP4 DUP4 PUSH2 0x17C8 JUMP JUMPDEST SWAP2 POP DUP3 PUSH1 0x2 MUL DUP3 OR SWAP1 POP SWAP3 SWAP2 POP POP JUMP JUMPDEST DUP2 DUP2 SUB PUSH2 0x180D JUMPI POP POP PUSH2 0x18E2 JUMP JUMPDEST PUSH2 0x1816 DUP3 PUSH2 0x1620 JUMP JUMPDEST PUSH8 0xFFFFFFFFFFFFFFFF DUP2 GT ISZERO PUSH2 0x182F JUMPI PUSH2 0x182E PUSH2 0x1635 JUMP JUMPDEST JUMPDEST PUSH2 0x1839 DUP3 SLOAD PUSH2 0x15F0 JUMP JUMPDEST PUSH2 0x1844 DUP3 DUP3 DUP6 PUSH2 0x1776 JUMP JUMPDEST PUSH0 PUSH1 0x1F DUP4 GT PUSH1 0x1 DUP2 EQ PUSH2 0x1871 JUMPI PUSH0 DUP5 ISZERO PUSH2 0x185F JUMPI DUP3 DUP8 ADD SLOAD SWAP1 POP JUMPDEST PUSH2 0x1869 DUP6 DUP3 PUSH2 0x17E4 JUMP JUMPDEST DUP7 SSTORE POP PUSH2 0x18DB JUMP JUMPDEST PUSH1 0x1F NOT DUP5 AND PUSH2 0x187F DUP8 PUSH2 0x1662 JUMP JUMPDEST SWAP7 POP PUSH2 0x188A DUP7 PUSH2 0x1662 JUMP JUMPDEST PUSH0 JUMPDEST DUP3 DUP2 LT ISZERO PUSH2 0x18B1 JUMPI DUP5 DUP10 ADD SLOAD DUP3 SSTORE PUSH1 0x1 DUP3 ADD SWAP2 POP PUSH1 0x1 DUP6 ADD SWAP5 POP PUSH1 0x20 DUP2 ADD SWAP1 POP PUSH2 0x188C JUMP JUMPDEST DUP7 DUP4 LT ISZERO PUSH2 0x18CE JUMPI DUP5 DUP10 ADD SLOAD PUSH2 0x18CA PUSH1 0x1F DUP10 AND DUP3 PUSH2 0x17C8 JUMP JUMPDEST DUP4 SSTORE POP JUMPDEST PUSH1 0x1 PUSH1 0x2 DUP9 MUL ADD DUP9 SSTORE POP POP POP JUMPDEST POP POP POP POP POP POP JUMPDEST JUMP JUMPDEST PUSH0 PUSH2 0x18EE DUP3 PUSH2 0xFF5 JUMP JUMPDEST SWAP2 POP PUSH32 0xFFFFFFFFFFFFFFFFFFFFFFFFFFFFFFFFFFFFFFFFFFFFFFFFFFFFFFFFFFFFFFFF DUP3 SUB PUSH2 0x1920 JUMPI PUSH2 0x191F PUSH2 0x1563 JUMP JUMPDEST JUMPDEST PUSH1 0x1 DUP3 ADD SWAP1 POP SWAP2 SWAP1 POP JUMP JUMPDEST PUSH0 DUP3 DUP3 MSTORE PUSH1 0x20 DUP3 ADD SWAP1 POP SWAP3 SWAP2 POP POP JUMP JUMPDEST PUSH32 0x53657373696F6E206E65656420626520696E20766F7465207374617475732062 PUSH0 DUP3 ADD MSTORE PUSH32 0x65666F7265000000000000000000000000000000000000000000000000000000 PUSH1 0x20 DUP3 ADD MSTORE POP JUMP JUMPDEST PUSH0 PUSH2 0x1995 PUSH1 0x25 DUP4 PUSH2 0x192B JUMP JUMPDEST SWAP2 POP PUSH2 0x19A0 DUP3 PUSH2 0x193B JUMP JUMPDEST PUSH1 0x40 DUP3 ADD SWAP1 POP SWAP2 SWAP1 POP JUMP JUMPDEST PUSH0 PUSH1 0x20 DUP3 ADD SWAP1 POP DUP2 DUP2 SUB PUSH0 DUP4 ADD MSTORE PUSH2 0x19C2 DUP2 PUSH2 0x1989 JUMP JUMPDEST SWAP1 POP SWAP2 SWAP1 POP JUMP JUMPDEST PUSH0 DUP2 PUSH0 SHR SWAP1 POP SWAP2 SWAP1 POP JUMP JUMPDEST PUSH0 PUSH1 0xFF DUP3 AND SWAP1 POP SWAP2 SWAP1 POP JUMP JUMPDEST PUSH0 PUSH2 0x19F2 PUSH2 0x19ED DUP4 PUSH2 0x19C9 JUMP JUMPDEST PUSH2 0x19D4 JUMP JUMPDEST SWAP1 POP SWAP2 SWAP1 POP JUMP JUMPDEST PUSH0 DUP2 PUSH1 0x8 SHR SWAP1 POP SWAP2 SWAP1 POP JUMP JUMPDEST PUSH0 PUSH1 0xFF DUP3 AND SWAP1 POP SWAP2 SWAP1 POP JUMP JUMPDEST PUSH0 PUSH2 0x1A23 PUSH2 0x1A1E DUP4 PUSH2 0x19F9 JUMP JUMPDEST PUSH2 0x1A05 JUMP JUMPDEST SWAP1 POP SWAP2 SWAP1 POP JUMP JUMPDEST PUSH0 DUP2 SLOAD SWAP1 POP SWAP2 SWAP1 POP JUMP JUMPDEST PUSH0 DUP2 SWAP1 POP DUP2 PUSH0 MSTORE PUSH1 0x20 PUSH0 KECCAK256 SWAP1 POP SWAP2 SWAP1 POP JUMP JUMPDEST PUSH0 DUP2 SLOAD PUSH2 0x1A52 DUP2 PUSH2 0x15F0 JUMP JUMPDEST PUSH2 0x1A5C DUP2 DUP7 PUSH2 0x1113 JUMP JUMPDEST SWAP5 POP PUSH1 0x1 DUP3 AND PUSH0 DUP2 EQ PUSH2 0x1A76 JUMPI PUSH1 0x1 DUP2 EQ PUSH2 0x1A8C JUMPI PUSH2 0x1ABE JUMP JUMPDEST PUSH1 0xFF NOT DUP4 AND DUP7 MSTORE DUP2 ISZERO ISZERO PUSH1 0x20 MUL DUP7 ADD SWAP4 POP PUSH2 0x1ABE JUMP JUMPDEST PUSH2 0x1A95 DUP6 PUSH2 0x1662 JUMP JUMPDEST PUSH0 JUMPDEST DUP4 DUP2 LT ISZERO PUSH2 0x1AB6 JUMPI DUP2 SLOAD DUP2 DUP10 ADD MSTORE PUSH1 0x1 DUP3 ADD SWAP2 POP PUSH1 0x20 DUP2 ADD SWAP1 POP PUSH2 0x1A97 JUMP JUMPDEST DUP1 DUP9 ADD SWAP6 POP POP POP JUMPDEST POP POP POP SWAP3 SWAP2 POP POP JUMP JUMPDEST PUSH0 DUP2 SWAP1 POP SWAP2 SWAP1 POP JUMP JUMPDEST PUSH0 PUSH2 0x1AE2 PUSH2 0x1ADD DUP4 PUSH2 0x19C9 JUMP JUMPDEST PUSH2 0x1AC7 JUMP JUMPDEST SWAP1 POP SWAP2 SWAP1 POP JUMP JUMPDEST PUSH0 PUSH1 0x40 DUP4 ADD PUSH0 DUP1 DUP5 ADD DUP6 DUP4 SUB PUSH0 DUP8 ADD MSTORE PUSH2 0x1B03 DUP4 DUP3 PUSH2 0x1A46 JUMP JUMPDEST SWAP3 POP POP PUSH1 0x1 DUP5 ADD SLOAD SWAP1 POP PUSH2 0x1B16 DUP2 PUSH2 0x1AD0 JUMP JUMPDEST PUSH2 0x1B23 PUSH1 0x20 DUP8 ADD DUP3 PUSH2 0x1193 JUMP JUMPDEST POP DUP2 SWAP3 POP POP POP SWAP3 SWAP2 POP POP JUMP JUMPDEST PUSH0 PUSH2 0x1B3A DUP4 DUP4 PUSH2 0x1AE9 JUMP JUMPDEST SWAP1 POP SWAP3 SWAP2 POP POP JUMP JUMPDEST PUSH0 PUSH1 0x2 DUP3 ADD SWAP1 POP SWAP2 SWAP1 POP JUMP JUMPDEST PUSH0 PUSH2 0x1B58 DUP3 PUSH2 0x1A2A JUMP JUMPDEST PUSH2 0x1B62 DUP2 DUP6 PUSH2 0x10EA JUMP JUMPDEST SWAP4 POP DUP4 PUSH1 0x20 DUP3 MUL DUP6 ADD PUSH2 0x1B74 DUP6 PUSH2 0x1A34 JUMP JUMPDEST DUP1 PUSH0 JUMPDEST DUP6 DUP2 LT ISZERO PUSH2 0x1BAE JUMPI DUP5 DUP5 SUB DUP10 MSTORE DUP2 PUSH2 0x1B8F DUP6 DUP3 PUSH2 0x1B2F JUMP JUMPDEST SWAP5 POP PUSH2 0x1B9A DUP4 PUSH2 0x1B42 JUMP JUMPDEST SWAP3 POP PUSH1 0x20 DUP11 ADD SWAP10 POP POP PUSH1 0x1 DUP2 ADD SWAP1 POP PUSH2 0x1B77 JUMP JUMPDEST POP DUP3 SWAP8 POP DUP8 SWAP6 POP POP POP POP POP POP SWAP3 SWAP2 POP POP JUMP JUMPDEST PUSH0 PUSH1 0x60 DUP4 ADD PUSH0 DUP1 DUP5 ADD SLOAD SWAP1 POP PUSH2 0x1BD5 DUP2 PUSH2 0x19E0 JUMP JUMPDEST PUSH2 0x1BE1 PUSH0 DUP8 ADD DUP3 PUSH2 0x10B7 JUMP JUMPDEST POP PUSH2 0x1BEB DUP2 PUSH2 0x1A11 JUMP JUMPDEST PUSH2 0x1BF8 PUSH1 0x20 DUP8 ADD DUP3 PUSH2 0x10D1 JUMP JUMPDEST POP PUSH1 0x1 DUP5 ADD DUP6 DUP4 SUB PUSH1 0x40 DUP8 ADD MSTORE PUSH2 0x1C0F DUP4 DUP3 PUSH2 0x1B4E JUMP JUMPDEST SWAP3 POP POP DUP2 SWAP3 POP POP POP SWAP3 SWAP2 POP POP JUMP JUMPDEST PUSH0 PUSH1 0x20 DUP3 ADD SWAP1 POP DUP2 DUP2 SUB PUSH0 DUP4 ADD MSTORE PUSH2 0x1C35 DUP2 DUP5 PUSH2 0x1BC0 JUMP JUMPDEST SWAP1 POP SWAP3 SWAP2 POP POP JUMP JUMPDEST PUSH32 0x53657373696F6E206E65656420626520696E2072656769737465722073746174 PUSH0 DUP3 ADD MSTORE PUSH32 0x7573206265666F72650000000000000000000000000000000000000000000000 PUSH1 0x20 DUP3 ADD MSTORE POP JUMP JUMPDEST PUSH0 PUSH2 0x1C97 PUSH1 0x29 DUP4 PUSH2 0x192B JUMP JUMPDEST SWAP2 POP PUSH2 0x1CA2 DUP3 PUSH2 0x1C3D JUMP JUMPDEST PUSH1 0x40 DUP3 ADD SWAP1 POP SWAP2 SWAP1 POP JUMP JUMPDEST PUSH0 PUSH1 0x20 DUP3 ADD SWAP1 POP DUP2 DUP2 SUB PUSH0 DUP4 ADD MSTORE PUSH2 0x1CC4 DUP2 PUSH2 0x1C8B JUMP JUMPDEST SWAP1 POP SWAP2 SWAP1 POP JUMP JUMPDEST PUSH32 0x6973206E6F742077686974656C69737465640000000000000000000000000000 PUSH0 DUP3 ADD MSTORE POP JUMP JUMPDEST PUSH0 PUSH2 0x1CFF PUSH1 0x12 DUP4 PUSH2 0x192B JUMP JUMPDEST SWAP2 POP PUSH2 0x1D0A DUP3 PUSH2 0x1CCB JUMP JUMPDEST PUSH1 0x20 DUP3 ADD SWAP1 POP SWAP2 SWAP1 POP JUMP JUMPDEST PUSH0 PUSH1 0x20 DUP3 ADD SWAP1 POP DUP2 DUP2 SUB PUSH0 DUP4 ADD MSTORE PUSH2 0x1D2C DUP2 PUSH2 0x1CF3 JUMP JUMPDEST SWAP1 POP SWAP2 SWAP1 POP JUMP JUMPDEST PUSH2 0x1D3C DUP3 PUSH2 0x1109 JUMP JUMPDEST PUSH8 0xFFFFFFFFFFFFFFFF DUP2 GT ISZERO PUSH2 0x1D55 JUMPI PUSH2 0x1D54 PUSH2 0x1635 JUMP JUMPDEST JUMPDEST PUSH2 0x1D5F DUP3 SLOAD PUSH2 0x15F0 JUMP JUMPDEST PUSH2 0x1D6A DUP3 DUP3 DUP6 PUSH2 0x1776 JUMP JUMPDEST PUSH0 PUSH1 0x20 SWAP1 POP PUSH1 0x1F DUP4 GT PUSH1 0x1 DUP2 EQ PUSH2 0x1D9B JUMPI PUSH0 DUP5 ISZERO PUSH2 0x1D89 JUMPI DUP3 DUP8 ADD MLOAD SWAP1 POP JUMPDEST PUSH2 0x1D93 DUP6 DUP3 PUSH2 0x17E4 JUMP JUMPDEST DUP7 SSTORE POP PUSH2 0x1DFA JUMP JUMPDEST PUSH1 0x1F NOT DUP5 AND PUSH2 0x1DA9 DUP7 PUSH2 0x1662 JUMP JUMPDEST PUSH0 JUMPDEST DUP3 DUP2 LT ISZERO PUSH2 0x1DD0 JUMPI DUP5 DUP10 ADD MLOAD DUP3 SSTORE PUSH1 0x1 DUP3 ADD SWAP2 POP PUSH1 0x20 DUP6 ADD SWAP5 POP PUSH1 0x20 DUP2 ADD SWAP1 POP PUSH2 0x1DAB JUMP JUMPDEST DUP7 DUP4 LT ISZERO PUSH2 0x1DED JUMPI DUP5 DUP10 ADD MLOAD PUSH2 0x1DE9 PUSH1 0x1F DUP10 AND DUP3 PUSH2 0x17C8 JUMP JUMPDEST DUP4 SSTORE POP JUMPDEST PUSH1 0x1 PUSH1 0x2 DUP9 MUL ADD DUP9 SSTORE POP POP POP JUMPDEST POP POP POP POP POP POP JUMP JUMPDEST PUSH0 PUSH1 0x40 DUP4 ADD PUSH0 DUP1 DUP5 ADD DUP6 DUP4 SUB PUSH0 DUP8 ADD MSTORE PUSH2 0x1E1C DUP4 DUP3 PUSH2 0x1A46 JUMP JUMPDEST SWAP3 POP POP PUSH1 0x1 DUP5 ADD SLOAD SWAP1 POP PUSH2 0x1E2F DUP2 PUSH2 0x1AD0 JUMP JUMPDEST PUSH2 0x1E3C PUSH1 0x20 DUP8 ADD DUP3 PUSH2 0x1193 JUMP JUMPDEST POP DUP2 SWAP3 POP POP POP SWAP3 SWAP2 POP POP JUMP JUMPDEST PUSH0 PUSH1 0x20 DUP3 ADD SWAP1 POP DUP2 DUP2 SUB PUSH0 DUP4 ADD MSTORE PUSH2 0x1E60 DUP2 DUP5 PUSH2 0x1E02 JUMP JUMPDEST SWAP1 POP SWAP3 SWAP2 POP POP JUMP JUMPDEST PUSH32 0x53657373696F6E206E65656420626520696E20636C6F73657265676973746572 PUSH0 DUP3 ADD MSTORE PUSH32 0x20737461747573206265666F7265000000000000000000000000000000000000 PUSH1 0x20 DUP3 ADD MSTORE POP JUMP JUMPDEST PUSH0 PUSH2 0x1EC2 PUSH1 0x2E DUP4 PUSH2 0x192B JUMP JUMPDEST SWAP2 POP PUSH2 0x1ECD DUP3 PUSH2 0x1E68 JUMP JUMPDEST PUSH1 0x40 DUP3 ADD SWAP1 POP SWAP2 SWAP1 POP JUMP JUMPDEST PUSH0 PUSH1 0x20 DUP3 ADD SWAP1 POP DUP2 DUP2 SUB PUSH0 DUP4 ADD MSTORE PUSH2 0x1EEF DUP2 PUSH2 0x1EB6 JUMP JUMPDEST SWAP1 POP SWAP2 SWAP1 POP JUMP INVALID LOG2 PUSH5 0x6970667358 0x22 SLT KECCAK256 PUSH10 0x1BE88BA378DA7393B62B 0xC6 SWAP13 CALL PUSH21 0x881E14FF7A78F02866113006234A9DAAAC64736F6C PUSH4 0x43000815 STOP CALLER "
				},
				"gasEstimates": {
					"creation": {
						"codeDepositCost": "1596000",
						"executionCost": "infinite",
						"totalCost": "infinite"
					},
					"external": {
						"addVoter(address)": "infinite",
						"closeProposition()": "infinite",
						"closeVote()": "infinite",
						"contabiliserVote()": "infinite",
						"getSession()": "infinite",
						"getWinner()": "infinite",
						"openVote()": "infinite",
						"owner()": "2604",
						"proposer(string)": "infinite",
						"renounceOwnership()": "infinite",
						"setVote(uint256)": "infinite",
						"startSession(bool)": "infinite",
						"transferOwnership(address)": "infinite",
						"whitelist(address)": "infinite"
					}
				},
				"methodIdentifiers": {
					"addVoter(address)": "f4ab9adf",
					"closeProposition()": "8626256e",
					"closeVote()": "329d3346",
					"contabiliserVote()": "25a89188",
					"getSession()": "7909e08c",
					"getWinner()": "8e7ea5b2",
					"openVote()": "d107d8c2",
					"owner()": "8da5cb5b",
					"proposer(string)": "ab31e9ae",
					"renounceOwnership()": "715018a6",
					"setVote(uint256)": "230796ae",
					"startSession(bool)": "e3473084",
					"transferOwnership(address)": "f2fde38b",
					"whitelist(address)": "9b19251a"
				}
			},
			"storageLayout": {
				"storage": [
					{
						"astId": 8,
						"contract": "contracts/Voting.sol:Voting",
						"label": "_owner",
						"offset": 0,
						"slot": "0",
						"type": "t_address"
					},
					{
						"astId": 206,
						"contract": "contracts/Voting.sol:Voting",
						"label": "newPorosal",
						"offset": 0,
						"slot": "1",
						"type": "t_struct(Proposal)188_storage"
					},
					{
						"astId": 214,
						"contract": "contracts/Voting.sol:Voting",
						"label": "currentVote",
						"offset": 0,
						"slot": "3",
						"type": "t_struct(Voter)183_storage"
					},
					{
						"astId": 217,
						"contract": "contracts/Voting.sol:Voting",
						"label": "currentSession",
						"offset": 0,
						"slot": "5",
						"type": "t_struct(Session)203_storage"
					},
					{
						"astId": 220,
						"contract": "contracts/Voting.sol:Voting",
						"label": "winner",
						"offset": 0,
						"slot": "7",
						"type": "t_struct(Proposal)188_storage"
					},
					{
						"astId": 225,
						"contract": "contracts/Voting.sol:Voting",
						"label": "whitelist",
						"offset": 0,
						"slot": "9",
						"type": "t_mapping(t_address,t_struct(Voter)183_storage)"
					}
				],
				"types": {
					"t_address": {
						"encoding": "inplace",
						"label": "address",
						"numberOfBytes": "20"
					},
					"t_array(t_struct(Proposal)188_storage)dyn_storage": {
						"base": "t_struct(Proposal)188_storage",
						"encoding": "dynamic_array",
						"label": "struct Voting.Proposal[]",
						"numberOfBytes": "32"
					},
					"t_bool": {
						"encoding": "inplace",
						"label": "bool",
						"numberOfBytes": "1"
					},
					"t_enum(etat)193": {
						"encoding": "inplace",
						"label": "enum Voting.etat",
						"numberOfBytes": "1"
					},
					"t_mapping(t_address,t_struct(Voter)183_storage)": {
						"encoding": "mapping",
						"key": "t_address",
						"label": "mapping(address => struct Voting.Voter)",
						"numberOfBytes": "32",
						"value": "t_struct(Voter)183_storage"
					},
					"t_string_storage": {
						"encoding": "bytes",
						"label": "string",
						"numberOfBytes": "32"
					},
					"t_struct(Proposal)188_storage": {
						"encoding": "inplace",
						"label": "struct Voting.Proposal",
						"members": [
							{
								"astId": 185,
								"contract": "contracts/Voting.sol:Voting",
								"label": "description",
								"offset": 0,
								"slot": "0",
								"type": "t_string_storage"
							},
							{
								"astId": 187,
								"contract": "contracts/Voting.sol:Voting",
								"label": "voteCount",
								"offset": 0,
								"slot": "1",
								"type": "t_uint256"
							}
						],
						"numberOfBytes": "64"
					},
					"t_struct(Session)203_storage": {
						"encoding": "inplace",
						"label": "struct Voting.Session",
						"members": [
							{
								"astId": 196,
								"contract": "contracts/Voting.sol:Voting",
								"label": "etat",
								"offset": 0,
								"slot": "0",
								"type": "t_enum(etat)193"
							},
							{
								"astId": 198,
								"contract": "contracts/Voting.sol:Voting",
								"label": "isPublicProposal",
								"offset": 1,
								"slot": "0",
								"type": "t_bool"
							},
							{
								"astId": 202,
								"contract": "contracts/Voting.sol:Voting",
								"label": "lesProposition",
								"offset": 0,
								"slot": "1",
								"type": "t_array(t_struct(Proposal)188_storage)dyn_storage"
							}
						],
						"numberOfBytes": "64"
					},
					"t_struct(Voter)183_storage": {
						"encoding": "inplace",
						"label": "struct Voting.Voter",
						"members": [
							{
								"astId": 178,
								"contract": "contracts/Voting.sol:Voting",
								"label": "isRegistered",
								"offset": 0,
								"slot": "0",
								"type": "t_bool"
							},
							{
								"astId": 180,
								"contract": "contracts/Voting.sol:Voting",
								"label": "hasVoted",
								"offset": 1,
								"slot": "0",
								"type": "t_bool"
							},
							{
								"astId": 182,
								"contract": "contracts/Voting.sol:Voting",
								"label": "votedProposalId",
								"offset": 0,
								"slot": "1",
								"type": "t_uint256"
							}
						],
						"numberOfBytes": "64"
					},
					"t_uint256": {
						"encoding": "inplace",
						"label": "uint256",
						"numberOfBytes": "32"
					}
				}
			},
			"userdoc": {
				"kind": "user",
				"methods": {},
				"version": 1
			}
		}
	}
}