{
	"contracts/Voting.sol": {
		"Voting": {
			"abi": [
				{
					"inputs": [
						{
							"internalType": "address",
							"name": "owner",
							"type": "address"
						}
					],
					"name": "OwnableInvalidOwner",
					"type": "error"
				},
				{
					"inputs": [
						{
							"internalType": "address",
							"name": "account",
							"type": "address"
						}
					],
					"name": "OwnableUnauthorizedAccount",
					"type": "error"
				},
				{
					"anonymous": false,
					"inputs": [
						{
							"indexed": true,
							"internalType": "address",
							"name": "previousOwner",
							"type": "address"
						},
						{
							"indexed": true,
							"internalType": "address",
							"name": "newOwner",
							"type": "address"
						}
					],
					"name": "OwnershipTransferred",
					"type": "event"
				},
				{
					"anonymous": false,
					"inputs": [
						{
							"indexed": false,
							"internalType": "enum Voting.WorkflowStatus",
							"name": "previousStatus",
							"type": "uint8"
						},
						{
							"indexed": false,
							"internalType": "enum Voting.WorkflowStatus",
							"name": "newStatus",
							"type": "uint8"
						}
					],
					"name": "WorkflowStatusChange",
					"type": "event"
				},
				{
					"anonymous": false,
					"inputs": [
						{
							"components": [
								{
									"internalType": "string",
									"name": "description",
									"type": "string"
								},
								{
									"internalType": "uint256",
									"name": "voteCount",
									"type": "uint256"
								}
							],
							"indexed": false,
							"internalType": "struct Voting.Proposal",
							"name": "",
							"type": "tuple"
						}
					],
					"name": "newProposition",
					"type": "event"
				},
				{
					"inputs": [
						{
							"internalType": "address",
							"name": "_address",
							"type": "address"
						}
					],
					"name": "addVoter",
					"outputs": [],
					"stateMutability": "nonpayable",
					"type": "function"
				},
				{
					"inputs": [],
					"name": "closeProposition",
					"outputs": [],
					"stateMutability": "nonpayable",
					"type": "function"
				},
				{
					"inputs": [],
					"name": "closeVote",
					"outputs": [],
					"stateMutability": "nonpayable",
					"type": "function"
				},
				{
					"inputs": [],
					"name": "contabiliserVote",
					"outputs": [],
					"stateMutability": "nonpayable",
					"type": "function"
				},
				{
					"inputs": [],
					"name": "getSession",
					"outputs": [
						{
							"components": [
								{
									"internalType": "enum Voting.WorkflowStatus",
									"name": "status",
									"type": "uint8"
								},
								{
									"internalType": "bool",
									"name": "isPublicProposal",
									"type": "bool"
								},
								{
									"components": [
										{
											"internalType": "string",
											"name": "description",
											"type": "string"
										},
										{
											"internalType": "uint256",
											"name": "voteCount",
											"type": "uint256"
										}
									],
									"internalType": "struct Voting.Proposal[]",
									"name": "lesProposition",
									"type": "tuple[]"
								}
							],
							"internalType": "struct Voting.Session",
							"name": "",
							"type": "tuple"
						}
					],
					"stateMutability": "view",
					"type": "function"
				},
				{
					"inputs": [],
					"name": "getWinner",
					"outputs": [
						{
							"components": [
								{
									"internalType": "string",
									"name": "description",
									"type": "string"
								},
								{
									"internalType": "uint256",
									"name": "voteCount",
									"type": "uint256"
								}
							],
							"internalType": "struct Voting.Proposal",
							"name": "",
							"type": "tuple"
						}
					],
					"stateMutability": "view",
					"type": "function"
				},
				{
					"inputs": [],
					"name": "openVote",
					"outputs": [],
					"stateMutability": "nonpayable",
					"type": "function"
				},
				{
					"inputs": [],
					"name": "owner",
					"outputs": [
						{
							"internalType": "address",
							"name": "",
							"type": "address"
						}
					],
					"stateMutability": "view",
					"type": "function"
				},
				{
					"inputs": [
						{
							"internalType": "string",
							"name": "_description",
							"type": "string"
						}
					],
					"name": "proposer",
					"outputs": [],
					"stateMutability": "nonpayable",
					"type": "function"
				},
				{
					"inputs": [],
					"name": "renounceOwnership",
					"outputs": [],
					"stateMutability": "nonpayable",
					"type": "function"
				},
				{
					"inputs": [
						{
							"internalType": "uint256",
							"name": "_ProposalId",
							"type": "uint256"
						}
					],
					"name": "setVote",
					"outputs": [],
					"stateMutability": "nonpayable",
					"type": "function"
				},
				{
					"inputs": [
						{
							"internalType": "bool",
							"name": "_publicProposal",
							"type": "bool"
						}
					],
					"name": "startSession",
					"outputs": [],
					"stateMutability": "nonpayable",
					"type": "function"
				},
				{
					"inputs": [
						{
							"internalType": "address",
							"name": "newOwner",
							"type": "address"
						}
					],
					"name": "transferOwnership",
					"outputs": [],
					"stateMutability": "nonpayable",
					"type": "function"
				},
				{
					"inputs": [
						{
							"internalType": "address",
							"name": "",
							"type": "address"
						}
					],
					"name": "whitelist",
					"outputs": [
						{
							"internalType": "bool",
							"name": "isRegistered",
							"type": "bool"
						},
						{
							"internalType": "bool",
							"name": "hasVoted",
							"type": "bool"
						},
						{
							"internalType": "uint256",
							"name": "votedProposalId",
							"type": "uint256"
						}
					],
					"stateMutability": "view",
					"type": "function"
				}
			],
			"devdoc": {
				"errors": {
					"OwnableInvalidOwner(address)": [
						{
							"details": "The owner is not a valid owner account. (eg. `address(0)`)"
						}
					],
					"OwnableUnauthorizedAccount(address)": [
						{
							"details": "The caller account is not authorized to perform an operation."
						}
					]
				},
				"kind": "dev",
				"methods": {
					"owner()": {
						"details": "Returns the address of the current owner."
					},
					"renounceOwnership()": {
						"details": "Leaves the contract without owner. It will not be possible to call `onlyOwner` functions. Can only be called by the current owner. NOTE: Renouncing ownership will leave the contract without an owner, thereby disabling any functionality that is only available to the owner."
					},
					"transferOwnership(address)": {
						"details": "Transfers ownership of the contract to a new account (`newOwner`). Can only be called by the current owner."
					}
				},
				"version": 1
			},
			"evm": {
				"assembly": "    /* \"contracts/Voting.sol\":130:4369  contract  Voting is Ownable(msg.sender) {... */\n  mstore(0x40, 0x80)\n    /* \"contracts/Voting.sol\":774:796  Voter(false, false, 0) */\n  mload(0x40)\n  dup1\n  0x60\n  add\n  0x40\n  mstore\n  dup1\n    /* \"contracts/Voting.sol\":780:785  false */\n  0x00\n    /* \"contracts/Voting.sol\":774:796  Voter(false, false, 0) */\n  iszero\n  iszero\n  dup2\n  mstore\n  0x20\n  add\n    /* \"contracts/Voting.sol\":787:792  false */\n  0x00\n    /* \"contracts/Voting.sol\":774:796  Voter(false, false, 0) */\n  iszero\n  iszero\n  dup2\n  mstore\n  0x20\n  add\n    /* \"contracts/Voting.sol\":794:795  0 */\n  0x00\n    /* \"contracts/Voting.sol\":774:796  Voter(false, false, 0) */\n  dup2\n  mstore\n  pop\n    /* \"contracts/Voting.sol\":754:796  Voter currentVote = Voter(false, false, 0) */\n  0x03\n  0x00\n  dup3\n  add\n  mload\n  dup2\n  0x00\n  add\n  exp(0x0100, 0x00)\n  dup2\n  sload\n  dup2\n  0xff\n  mul\n  not\n  and\n  swap1\n  dup4\n  iszero\n  iszero\n  mul\n  or\n  swap1\n  sstore\n  pop\n  0x20\n  dup3\n  add\n  mload\n  dup2\n  0x00\n  add\n  exp(0x0100, 0x01)\n  dup2\n  sload\n  dup2\n  0xff\n  mul\n  not\n  and\n  swap1\n  dup4\n  iszero\n  iszero\n  mul\n  or\n  swap1\n  sstore\n  pop\n  0x40\n  dup3\n  add\n  mload\n  dup2\n  0x01\n  add\n  sstore\n  pop\n  pop\n    /* \"contracts/Voting.sol\":130:4369  contract  Voting is Ownable(msg.sender) {... */\n  callvalue\n  dup1\n  iszero\n  tag_1\n  jumpi\n  0x00\n  dup1\n  revert\ntag_1:\n  pop\n    /* \"contracts/Voting.sol\":158:168  msg.sender */\n  caller\n    /* \"@openzeppelin/contracts/access/Ownable.sol\":1297:1298  0 */\n  0x00\n    /* \"@openzeppelin/contracts/access/Ownable.sol\":1273:1299  initialOwner == address(0) */\n  0xffffffffffffffffffffffffffffffffffffffff\n  and\n    /* \"@openzeppelin/contracts/access/Ownable.sol\":1273:1285  initialOwner */\n  dup2\n    /* \"@openzeppelin/contracts/access/Ownable.sol\":1273:1299  initialOwner == address(0) */\n  0xffffffffffffffffffffffffffffffffffffffff\n  and\n  sub\n    /* \"@openzeppelin/contracts/access/Ownable.sol\":1269:1364  if (initialOwner == address(0)) {... */\n  tag_4\n  jumpi\n    /* \"@openzeppelin/contracts/access/Ownable.sol\":1350:1351  0 */\n  0x00\n    /* \"@openzeppelin/contracts/access/Ownable.sol\":1322:1353  OwnableInvalidOwner(address(0)) */\n  mload(0x40)\n  0x1e4fbdf700000000000000000000000000000000000000000000000000000000\n  dup2\n  mstore\n  0x04\n  add\n  tag_5\n  swap2\n  swap1\n  tag_6\n  jump\t// in\ntag_5:\n  mload(0x40)\n  dup1\n  swap2\n  sub\n  swap1\n  revert\n    /* \"@openzeppelin/contracts/access/Ownable.sol\":1269:1364  if (initialOwner == address(0)) {... */\ntag_4:\n    /* \"@openzeppelin/contracts/access/Ownable.sol\":1373:1405  _transferOwnership(initialOwner) */\n  tag_7\n    /* \"@openzeppelin/contracts/access/Ownable.sol\":1392:1404  initialOwner */\n  dup2\n    /* \"@openzeppelin/contracts/access/Ownable.sol\":1373:1391  _transferOwnership */\n  shl(0x20, tag_8)\n    /* \"@openzeppelin/contracts/access/Ownable.sol\":1373:1405  _transferOwnership(initialOwner) */\n  0x20\n  shr\n  jump\t// in\ntag_7:\n    /* \"@openzeppelin/contracts/access/Ownable.sol\":1225:1412  constructor(address initialOwner) {... */\n  pop\n    /* \"contracts/Voting.sol\":130:4369  contract  Voting is Ownable(msg.sender) {... */\n  jump(tag_9)\n    /* \"@openzeppelin/contracts/access/Ownable.sol\":2912:3099  function _transferOwnership(address newOwner) internal virtual {... */\ntag_8:\n    /* \"@openzeppelin/contracts/access/Ownable.sol\":2985:3001  address oldOwner */\n  0x00\n    /* \"@openzeppelin/contracts/access/Ownable.sol\":3004:3010  _owner */\n  dup1\n  0x00\n  swap1\n  sload\n  swap1\n  0x0100\n  exp\n  swap1\n  div\n  0xffffffffffffffffffffffffffffffffffffffff\n  and\n    /* \"@openzeppelin/contracts/access/Ownable.sol\":2985:3010  address oldOwner = _owner */\n  swap1\n  pop\n    /* \"@openzeppelin/contracts/access/Ownable.sol\":3029:3037  newOwner */\n  dup2\n    /* \"@openzeppelin/contracts/access/Ownable.sol\":3020:3026  _owner */\n  0x00\n  dup1\n    /* \"@openzeppelin/contracts/access/Ownable.sol\":3020:3037  _owner = newOwner */\n  0x0100\n  exp\n  dup2\n  sload\n  dup2\n  0xffffffffffffffffffffffffffffffffffffffff\n  mul\n  not\n  and\n  swap1\n  dup4\n  0xffffffffffffffffffffffffffffffffffffffff\n  and\n  mul\n  or\n  swap1\n  sstore\n  pop\n    /* \"@openzeppelin/contracts/access/Ownable.sol\":3083:3091  newOwner */\n  dup2\n    /* \"@openzeppelin/contracts/access/Ownable.sol\":3052:3092  OwnershipTransferred(oldOwner, newOwner) */\n  0xffffffffffffffffffffffffffffffffffffffff\n  and\n    /* \"@openzeppelin/contracts/access/Ownable.sol\":3073:3081  oldOwner */\n  dup2\n    /* \"@openzeppelin/contracts/access/Ownable.sol\":3052:3092  OwnershipTransferred(oldOwner, newOwner) */\n  0xffffffffffffffffffffffffffffffffffffffff\n  and\n  0x8be0079c531659141344cd1fd0a4f28419497f9722a3daafe3b4186f6b6457e0\n  mload(0x40)\n  mload(0x40)\n  dup1\n  swap2\n  sub\n  swap1\n  log3\n    /* \"@openzeppelin/contracts/access/Ownable.sol\":2975:3099  {... */\n  pop\n    /* \"@openzeppelin/contracts/access/Ownable.sol\":2912:3099  function _transferOwnership(address newOwner) internal virtual {... */\n  pop\n  jump\t// out\n    /* \"#utility.yul\":7:133   */\ntag_11:\n    /* \"#utility.yul\":44:51   */\n  0x00\n    /* \"#utility.yul\":84:126   */\n  0xffffffffffffffffffffffffffffffffffffffff\n    /* \"#utility.yul\":77:82   */\n  dup3\n    /* \"#utility.yul\":73:127   */\n  and\n    /* \"#utility.yul\":62:127   */\n  swap1\n  pop\n    /* \"#utility.yul\":7:133   */\n  swap2\n  swap1\n  pop\n  jump\t// out\n    /* \"#utility.yul\":139:235   */\ntag_12:\n    /* \"#utility.yul\":176:183   */\n  0x00\n    /* \"#utility.yul\":205:229   */\n  tag_17\n    /* \"#utility.yul\":223:228   */\n  dup3\n    /* \"#utility.yul\":205:229   */\n  tag_11\n  jump\t// in\ntag_17:\n    /* \"#utility.yul\":194:229   */\n  swap1\n  pop\n    /* \"#utility.yul\":139:235   */\n  swap2\n  swap1\n  pop\n  jump\t// out\n    /* \"#utility.yul\":241:359   */\ntag_13:\n    /* \"#utility.yul\":328:352   */\n  tag_19\n    /* \"#utility.yul\":346:351   */\n  dup2\n    /* \"#utility.yul\":328:352   */\n  tag_12\n  jump\t// in\ntag_19:\n    /* \"#utility.yul\":323:326   */\n  dup3\n    /* \"#utility.yul\":316:353   */\n  mstore\n    /* \"#utility.yul\":241:359   */\n  pop\n  pop\n  jump\t// out\n    /* \"#utility.yul\":365:587   */\ntag_6:\n    /* \"#utility.yul\":458:462   */\n  0x00\n    /* \"#utility.yul\":496:498   */\n  0x20\n    /* \"#utility.yul\":485:494   */\n  dup3\n    /* \"#utility.yul\":481:499   */\n  add\n    /* \"#utility.yul\":473:499   */\n  swap1\n  pop\n    /* \"#utility.yul\":509:580   */\n  tag_21\n    /* \"#utility.yul\":577:578   */\n  0x00\n    /* \"#utility.yul\":566:575   */\n  dup4\n    /* \"#utility.yul\":562:579   */\n  add\n    /* \"#utility.yul\":553:559   */\n  dup5\n    /* \"#utility.yul\":509:580   */\n  tag_13\n  jump\t// in\ntag_21:\n    /* \"#utility.yul\":365:587   */\n  swap3\n  swap2\n  pop\n  pop\n  jump\t// out\n    /* \"contracts/Voting.sol\":130:4369  contract  Voting is Ownable(msg.sender) {... */\ntag_9:\n  dataSize(sub_0)\n  dup1\n  dataOffset(sub_0)\n  0x00\n  codecopy\n  0x00\n  return\nstop\n\nsub_0: assembly {\n        /* \"contracts/Voting.sol\":130:4369  contract  Voting is Ownable(msg.sender) {... */\n      mstore(0x40, 0x80)\n      callvalue\n      dup1\n      iszero\n      tag_1\n      jumpi\n      0x00\n      dup1\n      revert\n    tag_1:\n      pop\n      jumpi(tag_2, lt(calldatasize, 0x04))\n      shr(0xe0, calldataload(0x00))\n      dup1\n      0x8e7ea5b2\n      gt\n      tag_17\n      jumpi\n      dup1\n      0xd107d8c2\n      gt\n      tag_18\n      jumpi\n      dup1\n      0xd107d8c2\n      eq\n      tag_13\n      jumpi\n      dup1\n      0xe3473084\n      eq\n      tag_14\n      jumpi\n      dup1\n      0xf2fde38b\n      eq\n      tag_15\n      jumpi\n      dup1\n      0xf4ab9adf\n      eq\n      tag_16\n      jumpi\n      jump(tag_2)\n    tag_18:\n      dup1\n      0x8e7ea5b2\n      eq\n      tag_10\n      jumpi\n      dup1\n      0x9b19251a\n      eq\n      tag_11\n      jumpi\n      dup1\n      0xab31e9ae\n      eq\n      tag_12\n      jumpi\n      jump(tag_2)\n    tag_17:\n      dup1\n      0x715018a6\n      gt\n      tag_19\n      jumpi\n      dup1\n      0x715018a6\n      eq\n      tag_6\n      jumpi\n      dup1\n      0x7909e08c\n      eq\n      tag_7\n      jumpi\n      dup1\n      0x8626256e\n      eq\n      tag_8\n      jumpi\n      dup1\n      0x8da5cb5b\n      eq\n      tag_9\n      jumpi\n      jump(tag_2)\n    tag_19:\n      dup1\n      0x230796ae\n      eq\n      tag_3\n      jumpi\n      dup1\n      0x25a89188\n      eq\n      tag_4\n      jumpi\n      dup1\n      0x329d3346\n      eq\n      tag_5\n      jumpi\n    tag_2:\n      0x00\n      dup1\n      revert\n        /* \"contracts/Voting.sol\":2944:3226  function setVote(uint _ProposalId) isWhiteList public{... */\n    tag_3:\n      tag_20\n      0x04\n      dup1\n      calldatasize\n      sub\n      dup2\n      add\n      swap1\n      tag_21\n      swap2\n      swap1\n      tag_22\n      jump\t// in\n    tag_21:\n      tag_23\n      jump\t// in\n    tag_20:\n      stop\n        /* \"contracts/Voting.sol\":3682:4158  function contabiliserVote() public onlyOwner {... */\n    tag_4:\n      tag_24\n      tag_25\n      jump\t// in\n    tag_24:\n      stop\n        /* \"contracts/Voting.sol\":2607:2936  function closeVote() public onlyOwner  {... */\n    tag_5:\n      tag_26\n      tag_27\n      jump\t// in\n    tag_26:\n      stop\n        /* \"@openzeppelin/contracts/access/Ownable.sol\":2293:2394  function renounceOwnership() public virtual onlyOwner {... */\n    tag_6:\n      tag_28\n      tag_29\n      jump\t// in\n    tag_28:\n      stop\n        /* \"contracts/Voting.sol\":4165:4270  function getSession() public view returns (Voting.Session memory){... */\n    tag_7:\n      tag_30\n      tag_31\n      jump\t// in\n    tag_30:\n      mload(0x40)\n      tag_32\n      swap2\n      swap1\n      tag_33\n      jump\t// in\n    tag_32:\n      mload(0x40)\n      dup1\n      swap2\n      sub\n      swap1\n      return\n        /* \"contracts/Voting.sol\":1882:2243  function closeProposition() public onlyOwner {... */\n    tag_8:\n      tag_34\n      tag_35\n      jump\t// in\n    tag_34:\n      stop\n        /* \"@openzeppelin/contracts/access/Ownable.sol\":1638:1723  function owner() public view virtual returns (address) {... */\n    tag_9:\n      tag_36\n      tag_37\n      jump\t// in\n    tag_36:\n      mload(0x40)\n      tag_38\n      swap2\n      swap1\n      tag_39\n      jump\t// in\n    tag_38:\n      mload(0x40)\n      dup1\n      swap2\n      sub\n      swap1\n      return\n        /* \"contracts/Voting.sol\":4276:4366  function getWinner() public view  returns(Proposal memory){... */\n    tag_10:\n      tag_40\n      tag_41\n      jump\t// in\n    tag_40:\n      mload(0x40)\n      tag_42\n      swap2\n      swap1\n      tag_43\n      jump\t// in\n    tag_42:\n      mload(0x40)\n      dup1\n      swap2\n      sub\n      swap1\n      return\n        /* \"contracts/Voting.sol\":861:904  mapping (address => Voter) public whitelist */\n    tag_11:\n      tag_44\n      0x04\n      dup1\n      calldatasize\n      sub\n      dup2\n      add\n      swap1\n      tag_45\n      swap2\n      swap1\n      tag_46\n      jump\t// in\n    tag_45:\n      tag_47\n      jump\t// in\n    tag_44:\n      mload(0x40)\n      tag_48\n      swap4\n      swap3\n      swap2\n      swap1\n      tag_49\n      jump\t// in\n    tag_48:\n      mload(0x40)\n      dup1\n      swap2\n      sub\n      swap1\n      return\n        /* \"contracts/Voting.sol\":3232:3674  function proposer(string calldata _description ) isWhiteList public {... */\n    tag_12:\n      tag_50\n      0x04\n      dup1\n      calldatasize\n      sub\n      dup2\n      add\n      swap1\n      tag_51\n      swap2\n      swap1\n      tag_52\n      jump\t// in\n    tag_51:\n      tag_53\n      jump\t// in\n    tag_50:\n      stop\n        /* \"contracts/Voting.sol\":2249:2601  function openVote() public onlyOwner  {... */\n    tag_13:\n      tag_54\n      tag_55\n      jump\t// in\n    tag_54:\n      stop\n        /* \"contracts/Voting.sol\":1514:1874  function startSession(bool _publicProposal) public onlyOwner {... */\n    tag_14:\n      tag_56\n      0x04\n      dup1\n      calldatasize\n      sub\n      dup2\n      add\n      swap1\n      tag_57\n      swap2\n      swap1\n      tag_58\n      jump\t// in\n    tag_57:\n      tag_59\n      jump\t// in\n    tag_56:\n      stop\n        /* \"@openzeppelin/contracts/access/Ownable.sol\":2543:2758  function transferOwnership(address newOwner) public virtual onlyOwner {... */\n    tag_15:\n      tag_60\n      0x04\n      dup1\n      calldatasize\n      sub\n      dup2\n      add\n      swap1\n      tag_61\n      swap2\n      swap1\n      tag_46\n      jump\t// in\n    tag_61:\n      tag_62\n      jump\t// in\n    tag_60:\n      stop\n        /* \"contracts/Voting.sol\":1176:1506  function addVoter(address _address) public onlyOwner() {... */\n    tag_16:\n      tag_63\n      0x04\n      dup1\n      calldatasize\n      sub\n      dup2\n      add\n      swap1\n      tag_64\n      swap2\n      swap1\n      tag_46\n      jump\t// in\n    tag_64:\n      tag_65\n      jump\t// in\n    tag_63:\n      stop\n        /* \"contracts/Voting.sol\":2944:3226  function setVote(uint _ProposalId) isWhiteList public{... */\n    tag_23:\n        /* \"contracts/Voting.sol\":1091:1100  whitelist */\n      0x09\n        /* \"contracts/Voting.sol\":1091:1112  whitelist[msg.sender] */\n      0x00\n        /* \"contracts/Voting.sol\":1101:1111  msg.sender */\n      caller\n        /* \"contracts/Voting.sol\":1091:1112  whitelist[msg.sender] */\n      0xffffffffffffffffffffffffffffffffffffffff\n      and\n      0xffffffffffffffffffffffffffffffffffffffff\n      and\n      dup2\n      mstore\n      0x20\n      add\n      swap1\n      dup2\n      mstore\n      0x20\n      add\n      0x00\n      keccak256\n        /* \"contracts/Voting.sol\":1091:1125  whitelist[msg.sender].isRegistered */\n      0x00\n      add\n      0x00\n      swap1\n      sload\n      swap1\n      0x0100\n      exp\n      swap1\n      div\n      0xff\n      and\n        /* \"contracts/Voting.sol\":1082:1148  require( whitelist[msg.sender].isRegistered ,\"is not whitelisted\") */\n      tag_67\n      jumpi\n      mload(0x40)\n      0x08c379a000000000000000000000000000000000000000000000000000000000\n      dup2\n      mstore\n      0x04\n      add\n      tag_68\n      swap1\n      tag_69\n      jump\t// in\n    tag_68:\n      mload(0x40)\n      dup1\n      swap2\n      sub\n      swap1\n      revert\n    tag_67:\n        /* \"contracts/Voting.sol\":3041:3076  WorkflowStatus.VotingSessionStarted */\n      0x03\n        /* \"contracts/Voting.sol\":3016:3076  currentSession.status == WorkflowStatus.VotingSessionStarted */\n      0x05\n      dup2\n      gt\n      iszero\n      tag_71\n      jumpi\n      tag_72\n      tag_73\n      jump\t// in\n    tag_72:\n    tag_71:\n        /* \"contracts/Voting.sol\":3016:3030  currentSession */\n      0x05\n        /* \"contracts/Voting.sol\":3016:3037  currentSession.status */\n      0x00\n      add\n      0x00\n      swap1\n      sload\n      swap1\n      0x0100\n      exp\n      swap1\n      div\n      0xff\n      and\n        /* \"contracts/Voting.sol\":3016:3076  currentSession.status == WorkflowStatus.VotingSessionStarted */\n      0x05\n      dup2\n      gt\n      iszero\n      tag_74\n      jumpi\n      tag_75\n      tag_73\n      jump\t// in\n    tag_75:\n    tag_74:\n      eq\n        /* \"contracts/Voting.sol\":3016:3101  currentSession.status == WorkflowStatus.VotingSessionStarted && !currentVote.hasVoted */\n      dup1\n      iszero\n      tag_76\n      jumpi\n      pop\n        /* \"contracts/Voting.sol\":3081:3092  currentVote */\n      0x03\n        /* \"contracts/Voting.sol\":3081:3101  currentVote.hasVoted */\n      0x00\n      add\n      0x01\n      swap1\n      sload\n      swap1\n      0x0100\n      exp\n      swap1\n      div\n      0xff\n      and\n        /* \"contracts/Voting.sol\":3080:3101  !currentVote.hasVoted */\n      iszero\n        /* \"contracts/Voting.sol\":3016:3101  currentSession.status == WorkflowStatus.VotingSessionStarted && !currentVote.hasVoted */\n    tag_76:\n        /* \"contracts/Voting.sol\":3008:3102  require(currentSession.status == WorkflowStatus.VotingSessionStarted && !currentVote.hasVoted) */\n      tag_77\n      jumpi\n      0x00\n      dup1\n      revert\n    tag_77:\n        /* \"contracts/Voting.sol\":3169:3170  1 */\n      0x01\n        /* \"contracts/Voting.sol\":3113:3127  currentSession */\n      0x05\n        /* \"contracts/Voting.sol\":3113:3142  currentSession.lesProposition */\n      0x01\n      add\n        /* \"contracts/Voting.sol\":3143:3154  _ProposalId */\n      dup3\n        /* \"contracts/Voting.sol\":3113:3155  currentSession.lesProposition[_ProposalId] */\n      dup2\n      sload\n      dup2\n      lt\n      tag_78\n      jumpi\n      tag_79\n      tag_80\n      jump\t// in\n    tag_79:\n    tag_78:\n      swap1\n      0x00\n      mstore\n      keccak256(0x00, 0x20)\n      swap1\n      0x02\n      mul\n      add\n        /* \"contracts/Voting.sol\":3113:3165  currentSession.lesProposition[_ProposalId].voteCount */\n      0x01\n      add\n      0x00\n        /* \"contracts/Voting.sol\":3113:3170  currentSession.lesProposition[_ProposalId].voteCount += 1 */\n      dup3\n      dup3\n      sload\n      tag_82\n      swap2\n      swap1\n      tag_83\n      jump\t// in\n    tag_82:\n      swap3\n      pop\n      pop\n      dup2\n      swap1\n      sstore\n      pop\n        /* \"contracts/Voting.sol\":3204:3208  true */\n      0x01\n        /* \"contracts/Voting.sol\":3181:3192  currentVote */\n      0x03\n        /* \"contracts/Voting.sol\":3181:3201  currentVote.hasVoted */\n      0x00\n      add\n      0x01\n        /* \"contracts/Voting.sol\":3181:3208  currentVote.hasVoted = true */\n      0x0100\n      exp\n      dup2\n      sload\n      dup2\n      0xff\n      mul\n      not\n      and\n      swap1\n      dup4\n      iszero\n      iszero\n      mul\n      or\n      swap1\n      sstore\n      pop\n        /* \"contracts/Voting.sol\":2944:3226  function setVote(uint _ProposalId) isWhiteList public{... */\n      pop\n      jump\t// out\n        /* \"contracts/Voting.sol\":3682:4158  function contabiliserVote() public onlyOwner {... */\n    tag_25:\n        /* \"@openzeppelin/contracts/access/Ownable.sol\":1531:1544  _checkOwner() */\n      tag_85\n        /* \"@openzeppelin/contracts/access/Ownable.sol\":1531:1542  _checkOwner */\n      tag_86\n        /* \"@openzeppelin/contracts/access/Ownable.sol\":1531:1544  _checkOwner() */\n      jump\t// in\n    tag_85:\n        /* \"contracts/Voting.sol\":3738:3744  uint i */\n      0x00\n        /* \"contracts/Voting.sol\":3745:3746  1 */\n      0x01\n        /* \"contracts/Voting.sol\":3738:3746  uint i=1 */\n      swap1\n      pop\n        /* \"contracts/Voting.sol\":3757:3765  uint max */\n      0x00\n        /* \"contracts/Voting.sol\":3767:3781  currentSession */\n      0x05\n        /* \"contracts/Voting.sol\":3767:3796  currentSession.lesProposition */\n      0x01\n      add\n        /* \"contracts/Voting.sol\":3797:3798  0 */\n      0x00\n        /* \"contracts/Voting.sol\":3767:3799  currentSession.lesProposition[0] */\n      dup2\n      sload\n      dup2\n      lt\n      tag_88\n      jumpi\n      tag_89\n      tag_80\n      jump\t// in\n    tag_89:\n    tag_88:\n      swap1\n      0x00\n      mstore\n      keccak256(0x00, 0x20)\n      swap1\n      0x02\n      mul\n      add\n        /* \"contracts/Voting.sol\":3767:3809  currentSession.lesProposition[0].voteCount */\n      0x01\n      add\n      sload\n        /* \"contracts/Voting.sol\":3757:3809  uint max =currentSession.lesProposition[0].voteCount */\n      swap1\n      pop\n        /* \"contracts/Voting.sol\":3827:3841  currentSession */\n      0x05\n        /* \"contracts/Voting.sol\":3827:3856  currentSession.lesProposition */\n      0x01\n      add\n        /* \"contracts/Voting.sol\":3857:3858  0 */\n      0x00\n        /* \"contracts/Voting.sol\":3827:3859  currentSession.lesProposition[0] */\n      dup2\n      sload\n      dup2\n      lt\n      tag_91\n      jumpi\n      tag_92\n      tag_80\n      jump\t// in\n    tag_92:\n    tag_91:\n      swap1\n      0x00\n      mstore\n      keccak256(0x00, 0x20)\n      swap1\n      0x02\n      mul\n      add\n        /* \"contracts/Voting.sol\":3820:3826  winner */\n      0x07\n        /* \"contracts/Voting.sol\":3820:3859  winner=currentSession.lesProposition[0] */\n      0x00\n      dup3\n      add\n      dup2\n      0x00\n      add\n      swap1\n      dup2\n      tag_94\n      swap2\n      swap1\n      tag_95\n      jump\t// in\n    tag_94:\n      pop\n      0x01\n      dup3\n      add\n      sload\n      dup2\n      0x01\n      add\n      sstore\n      swap1\n      pop\n      pop\n        /* \"contracts/Voting.sol\":3870:4141  for (i; i < currentSession.lesProposition.length ; i++) {... */\n    tag_96:\n        /* \"contracts/Voting.sol\":3882:3896  currentSession */\n      0x05\n        /* \"contracts/Voting.sol\":3882:3911  currentSession.lesProposition */\n      0x01\n      add\n        /* \"contracts/Voting.sol\":3882:3918  currentSession.lesProposition.length */\n      dup1\n      sload\n      swap1\n      pop\n        /* \"contracts/Voting.sol\":3878:3879  i */\n      dup3\n        /* \"contracts/Voting.sol\":3878:3918  i < currentSession.lesProposition.length */\n      lt\n        /* \"contracts/Voting.sol\":3870:4141  for (i; i < currentSession.lesProposition.length ; i++) {... */\n      iszero\n      tag_97\n      jumpi\n        /* \"contracts/Voting.sol\":3949:3963  currentSession */\n      0x05\n        /* \"contracts/Voting.sol\":3949:3978  currentSession.lesProposition */\n      0x01\n      add\n        /* \"contracts/Voting.sol\":3979:3980  i */\n      dup3\n        /* \"contracts/Voting.sol\":3949:3981  currentSession.lesProposition[i] */\n      dup2\n      sload\n      dup2\n      lt\n      tag_99\n      jumpi\n      tag_100\n      tag_80\n      jump\t// in\n    tag_100:\n    tag_99:\n      swap1\n      0x00\n      mstore\n      keccak256(0x00, 0x20)\n      swap1\n      0x02\n      mul\n      add\n        /* \"contracts/Voting.sol\":3949:3991  currentSession.lesProposition[i].voteCount */\n      0x01\n      add\n      sload\n        /* \"contracts/Voting.sol\":3943:3946  max */\n      dup2\n        /* \"contracts/Voting.sol\":3943:3991  max > currentSession.lesProposition[i].voteCount */\n      gt\n        /* \"contracts/Voting.sol\":3940:4130  if(max > currentSession.lesProposition[i].voteCount){... */\n      iszero\n      tag_102\n      jumpi\n        /* \"contracts/Voting.sol\":4015:4029  currentSession */\n      0x05\n        /* \"contracts/Voting.sol\":4015:4044  currentSession.lesProposition */\n      0x01\n      add\n        /* \"contracts/Voting.sol\":4045:4046  i */\n      dup3\n        /* \"contracts/Voting.sol\":4015:4047  currentSession.lesProposition[i] */\n      dup2\n      sload\n      dup2\n      lt\n      tag_103\n      jumpi\n      tag_104\n      tag_80\n      jump\t// in\n    tag_104:\n    tag_103:\n      swap1\n      0x00\n      mstore\n      keccak256(0x00, 0x20)\n      swap1\n      0x02\n      mul\n      add\n        /* \"contracts/Voting.sol\":4015:4057  currentSession.lesProposition[i].voteCount */\n      0x01\n      add\n      sload\n        /* \"contracts/Voting.sol\":4011:4057  max=currentSession.lesProposition[i].voteCount */\n      swap1\n      pop\n        /* \"contracts/Voting.sol\":4083:4097  currentSession */\n      0x05\n        /* \"contracts/Voting.sol\":4083:4112  currentSession.lesProposition */\n      0x01\n      add\n        /* \"contracts/Voting.sol\":4113:4114  i */\n      dup3\n        /* \"contracts/Voting.sol\":4083:4115  currentSession.lesProposition[i] */\n      dup2\n      sload\n      dup2\n      lt\n      tag_106\n      jumpi\n      tag_107\n      tag_80\n      jump\t// in\n    tag_107:\n    tag_106:\n      swap1\n      0x00\n      mstore\n      keccak256(0x00, 0x20)\n      swap1\n      0x02\n      mul\n      add\n        /* \"contracts/Voting.sol\":4076:4082  winner */\n      0x07\n        /* \"contracts/Voting.sol\":4076:4115  winner=currentSession.lesProposition[i] */\n      0x00\n      dup3\n      add\n      dup2\n      0x00\n      add\n      swap1\n      dup2\n      tag_109\n      swap2\n      swap1\n      tag_95\n      jump\t// in\n    tag_109:\n      pop\n      0x01\n      dup3\n      add\n      sload\n      dup2\n      0x01\n      add\n      sstore\n      swap1\n      pop\n      pop\n        /* \"contracts/Voting.sol\":3940:4130  if(max > currentSession.lesProposition[i].voteCount){... */\n    tag_102:\n        /* \"contracts/Voting.sol\":3921:3924  i++ */\n      dup2\n      dup1\n      tag_110\n      swap1\n      tag_111\n      jump\t// in\n    tag_110:\n      swap3\n      pop\n      pop\n        /* \"contracts/Voting.sol\":3870:4141  for (i; i < currentSession.lesProposition.length ; i++) {... */\n      jump(tag_96)\n    tag_97:\n        /* \"contracts/Voting.sol\":3727:4158  {... */\n      pop\n      pop\n        /* \"contracts/Voting.sol\":3682:4158  function contabiliserVote() public onlyOwner {... */\n      jump\t// out\n        /* \"contracts/Voting.sol\":2607:2936  function closeVote() public onlyOwner  {... */\n    tag_27:\n        /* \"@openzeppelin/contracts/access/Ownable.sol\":1531:1544  _checkOwner() */\n      tag_113\n        /* \"@openzeppelin/contracts/access/Ownable.sol\":1531:1542  _checkOwner */\n      tag_86\n        /* \"@openzeppelin/contracts/access/Ownable.sol\":1531:1544  _checkOwner() */\n      jump\t// in\n    tag_113:\n        /* \"contracts/Voting.sol\":2690:2725  WorkflowStatus.VotingSessionStarted */\n      0x03\n        /* \"contracts/Voting.sol\":2665:2725  currentSession.status == WorkflowStatus.VotingSessionStarted */\n      0x05\n      dup2\n      gt\n      iszero\n      tag_115\n      jumpi\n      tag_116\n      tag_73\n      jump\t// in\n    tag_116:\n    tag_115:\n        /* \"contracts/Voting.sol\":2665:2679  currentSession */\n      0x05\n        /* \"contracts/Voting.sol\":2665:2686  currentSession.status */\n      0x00\n      add\n      0x00\n      swap1\n      sload\n      swap1\n      0x0100\n      exp\n      swap1\n      div\n      0xff\n      and\n        /* \"contracts/Voting.sol\":2665:2725  currentSession.status == WorkflowStatus.VotingSessionStarted */\n      0x05\n      dup2\n      gt\n      iszero\n      tag_117\n      jumpi\n      tag_118\n      tag_73\n      jump\t// in\n    tag_118:\n    tag_117:\n      eq\n        /* \"contracts/Voting.sol\":2657:2766  require(currentSession.status == WorkflowStatus.VotingSessionStarted,\"Session need be in vote status before\") */\n      tag_119\n      jumpi\n      mload(0x40)\n      0x08c379a000000000000000000000000000000000000000000000000000000000\n      dup2\n      mstore\n      0x04\n      add\n      tag_120\n      swap1\n      tag_121\n      jump\t// in\n    tag_120:\n      mload(0x40)\n      dup1\n      swap2\n      sub\n      swap1\n      revert\n    tag_119:\n        /* \"contracts/Voting.sol\":2782:2860  WorkflowStatusChange(currentSession.status, WorkflowStatus.VotingSessionEnded) */\n      0x0a97a4ee45751e2abf3e4fc8946939630b11b371ea8ae39ccdc3056e98f5cc3f\n        /* \"contracts/Voting.sol\":2803:2817  currentSession */\n      0x05\n        /* \"contracts/Voting.sol\":2803:2824  currentSession.status */\n      0x00\n      add\n      0x00\n      swap1\n      sload\n      swap1\n      0x0100\n      exp\n      swap1\n      div\n      0xff\n      and\n        /* \"contracts/Voting.sol\":2826:2859  WorkflowStatus.VotingSessionEnded */\n      0x04\n        /* \"contracts/Voting.sol\":2782:2860  WorkflowStatusChange(currentSession.status, WorkflowStatus.VotingSessionEnded) */\n      mload(0x40)\n      tag_122\n      swap3\n      swap2\n      swap1\n      tag_123\n      jump\t// in\n    tag_122:\n      mload(0x40)\n      dup1\n      swap2\n      sub\n      swap1\n      log1\n        /* \"contracts/Voting.sol\":2895:2928  WorkflowStatus.VotingSessionEnded */\n      0x04\n        /* \"contracts/Voting.sol\":2871:2885  currentSession */\n      0x05\n        /* \"contracts/Voting.sol\":2871:2892  currentSession.status */\n      0x00\n      add\n      0x00\n        /* \"contracts/Voting.sol\":2871:2928  currentSession.status = WorkflowStatus.VotingSessionEnded */\n      0x0100\n      exp\n      dup2\n      sload\n      dup2\n      0xff\n      mul\n      not\n      and\n      swap1\n      dup4\n      0x05\n      dup2\n      gt\n      iszero\n      tag_124\n      jumpi\n      tag_125\n      tag_73\n      jump\t// in\n    tag_125:\n    tag_124:\n      mul\n      or\n      swap1\n      sstore\n      pop\n        /* \"contracts/Voting.sol\":2607:2936  function closeVote() public onlyOwner  {... */\n      jump\t// out\n        /* \"@openzeppelin/contracts/access/Ownable.sol\":2293:2394  function renounceOwnership() public virtual onlyOwner {... */\n    tag_29:\n        /* \"@openzeppelin/contracts/access/Ownable.sol\":1531:1544  _checkOwner() */\n      tag_127\n        /* \"@openzeppelin/contracts/access/Ownable.sol\":1531:1542  _checkOwner */\n      tag_86\n        /* \"@openzeppelin/contracts/access/Ownable.sol\":1531:1544  _checkOwner() */\n      jump\t// in\n    tag_127:\n        /* \"@openzeppelin/contracts/access/Ownable.sol\":2357:2387  _transferOwnership(address(0)) */\n      tag_129\n        /* \"@openzeppelin/contracts/access/Ownable.sol\":2384:2385  0 */\n      0x00\n        /* \"@openzeppelin/contracts/access/Ownable.sol\":2357:2375  _transferOwnership */\n      tag_130\n        /* \"@openzeppelin/contracts/access/Ownable.sol\":2357:2387  _transferOwnership(address(0)) */\n      jump\t// in\n    tag_129:\n        /* \"@openzeppelin/contracts/access/Ownable.sol\":2293:2394  function renounceOwnership() public virtual onlyOwner {... */\n      jump\t// out\n        /* \"contracts/Voting.sol\":4165:4270  function getSession() public view returns (Voting.Session memory){... */\n    tag_31:\n        /* \"contracts/Voting.sol\":4208:4229  Voting.Session memory */\n      tag_131\n      tag_132\n      jump\t// in\n    tag_131:\n        /* \"contracts/Voting.sol\":4248:4262  currentSession */\n      0x05\n        /* \"contracts/Voting.sol\":4241:4262  return currentSession */\n      mload(0x40)\n      dup1\n      0x60\n      add\n      0x40\n      mstore\n      swap1\n      dup2\n      0x00\n      dup3\n      add\n      0x00\n      swap1\n      sload\n      swap1\n      0x0100\n      exp\n      swap1\n      div\n      0xff\n      and\n      0x05\n      dup2\n      gt\n      iszero\n      tag_134\n      jumpi\n      tag_135\n      tag_73\n      jump\t// in\n    tag_135:\n    tag_134:\n      0x05\n      dup2\n      gt\n      iszero\n      tag_136\n      jumpi\n      tag_137\n      tag_73\n      jump\t// in\n    tag_137:\n    tag_136:\n      dup2\n      mstore\n      0x20\n      add\n      0x00\n      dup3\n      add\n      0x01\n      swap1\n      sload\n      swap1\n      0x0100\n      exp\n      swap1\n      div\n      0xff\n      and\n      iszero\n      iszero\n      iszero\n      iszero\n      dup2\n      mstore\n      0x20\n      add\n      0x01\n      dup3\n      add\n      dup1\n      sload\n      dup1\n      0x20\n      mul\n      0x20\n      add\n      mload(0x40)\n      swap1\n      dup2\n      add\n      0x40\n      mstore\n      dup1\n      swap3\n      swap2\n      swap1\n      dup2\n      dup2\n      mstore\n      0x20\n      add\n      0x00\n      swap1\n    tag_138:\n      dup3\n      dup3\n      lt\n      iszero\n      tag_139\n      jumpi\n      dup4\n      dup3\n      swap1\n      0x00\n      mstore\n      keccak256(0x00, 0x20)\n      swap1\n      0x02\n      mul\n      add\n      mload(0x40)\n      dup1\n      0x40\n      add\n      0x40\n      mstore\n      swap1\n      dup2\n      0x00\n      dup3\n      add\n      dup1\n      sload\n      tag_141\n      swap1\n      tag_142\n      jump\t// in\n    tag_141:\n      dup1\n      0x1f\n      add\n      0x20\n      dup1\n      swap2\n      div\n      mul\n      0x20\n      add\n      mload(0x40)\n      swap1\n      dup2\n      add\n      0x40\n      mstore\n      dup1\n      swap3\n      swap2\n      swap1\n      dup2\n      dup2\n      mstore\n      0x20\n      add\n      dup3\n      dup1\n      sload\n      tag_143\n      swap1\n      tag_142\n      jump\t// in\n    tag_143:\n      dup1\n      iszero\n      tag_144\n      jumpi\n      dup1\n      0x1f\n      lt\n      tag_145\n      jumpi\n      0x0100\n      dup1\n      dup4\n      sload\n      div\n      mul\n      dup4\n      mstore\n      swap2\n      0x20\n      add\n      swap2\n      jump(tag_144)\n    tag_145:\n      dup3\n      add\n      swap2\n      swap1\n      0x00\n      mstore\n      keccak256(0x00, 0x20)\n      swap1\n    tag_146:\n      dup2\n      sload\n      dup2\n      mstore\n      swap1\n      0x01\n      add\n      swap1\n      0x20\n      add\n      dup1\n      dup4\n      gt\n      tag_146\n      jumpi\n      dup3\n      swap1\n      sub\n      0x1f\n      and\n      dup3\n      add\n      swap2\n    tag_144:\n      pop\n      pop\n      pop\n      pop\n      pop\n      dup2\n      mstore\n      0x20\n      add\n      0x01\n      dup3\n      add\n      sload\n      dup2\n      mstore\n      pop\n      pop\n      dup2\n      mstore\n      0x20\n      add\n      swap1\n      0x01\n      add\n      swap1\n      jump(tag_138)\n    tag_139:\n      pop\n      pop\n      pop\n      pop\n      dup2\n      mstore\n      pop\n      pop\n      swap1\n      pop\n        /* \"contracts/Voting.sol\":4165:4270  function getSession() public view returns (Voting.Session memory){... */\n      swap1\n      jump\t// out\n        /* \"contracts/Voting.sol\":1882:2243  function closeProposition() public onlyOwner {... */\n    tag_35:\n        /* \"@openzeppelin/contracts/access/Ownable.sol\":1531:1544  _checkOwner() */\n      tag_148\n        /* \"@openzeppelin/contracts/access/Ownable.sol\":1531:1542  _checkOwner */\n      tag_86\n        /* \"@openzeppelin/contracts/access/Ownable.sol\":1531:1544  _checkOwner() */\n      jump\t// in\n    tag_148:\n        /* \"contracts/Voting.sol\":1969:2012  WorkflowStatus.ProposalsRegistrationStarted */\n      0x01\n        /* \"contracts/Voting.sol\":1946:2012  currentSession.status==WorkflowStatus.ProposalsRegistrationStarted */\n      0x05\n      dup2\n      gt\n      iszero\n      tag_150\n      jumpi\n      tag_151\n      tag_73\n      jump\t// in\n    tag_151:\n    tag_150:\n        /* \"contracts/Voting.sol\":1946:1960  currentSession */\n      0x05\n        /* \"contracts/Voting.sol\":1946:1967  currentSession.status */\n      0x00\n      add\n      0x00\n      swap1\n      sload\n      swap1\n      0x0100\n      exp\n      swap1\n      div\n      0xff\n      and\n        /* \"contracts/Voting.sol\":1946:2012  currentSession.status==WorkflowStatus.ProposalsRegistrationStarted */\n      0x05\n      dup2\n      gt\n      iszero\n      tag_152\n      jumpi\n      tag_153\n      tag_73\n      jump\t// in\n    tag_153:\n    tag_152:\n      eq\n        /* \"contracts/Voting.sol\":1938:2057  require(currentSession.status==WorkflowStatus.ProposalsRegistrationStarted,\"Session need be in register status before\") */\n      tag_154\n      jumpi\n      mload(0x40)\n      0x08c379a000000000000000000000000000000000000000000000000000000000\n      dup2\n      mstore\n      0x04\n      add\n      tag_155\n      swap1\n      tag_156\n      jump\t// in\n    tag_155:\n      mload(0x40)\n      dup1\n      swap2\n      sub\n      swap1\n      revert\n    tag_154:\n        /* \"contracts/Voting.sol\":2073:2159  WorkflowStatusChange(currentSession.status, WorkflowStatus.ProposalsRegistrationEnded) */\n      0x0a97a4ee45751e2abf3e4fc8946939630b11b371ea8ae39ccdc3056e98f5cc3f\n        /* \"contracts/Voting.sol\":2094:2108  currentSession */\n      0x05\n        /* \"contracts/Voting.sol\":2094:2115  currentSession.status */\n      0x00\n      add\n      0x00\n      swap1\n      sload\n      swap1\n      0x0100\n      exp\n      swap1\n      div\n      0xff\n      and\n        /* \"contracts/Voting.sol\":2117:2158  WorkflowStatus.ProposalsRegistrationEnded */\n      0x02\n        /* \"contracts/Voting.sol\":2073:2159  WorkflowStatusChange(currentSession.status, WorkflowStatus.ProposalsRegistrationEnded) */\n      mload(0x40)\n      tag_157\n      swap3\n      swap2\n      swap1\n      tag_123\n      jump\t// in\n    tag_157:\n      mload(0x40)\n      dup1\n      swap2\n      sub\n      swap1\n      log1\n        /* \"contracts/Voting.sol\":2194:2235  WorkflowStatus.ProposalsRegistrationEnded */\n      0x02\n        /* \"contracts/Voting.sol\":2170:2184  currentSession */\n      0x05\n        /* \"contracts/Voting.sol\":2170:2191  currentSession.status */\n      0x00\n      add\n      0x00\n        /* \"contracts/Voting.sol\":2170:2235  currentSession.status = WorkflowStatus.ProposalsRegistrationEnded */\n      0x0100\n      exp\n      dup2\n      sload\n      dup2\n      0xff\n      mul\n      not\n      and\n      swap1\n      dup4\n      0x05\n      dup2\n      gt\n      iszero\n      tag_158\n      jumpi\n      tag_159\n      tag_73\n      jump\t// in\n    tag_159:\n    tag_158:\n      mul\n      or\n      swap1\n      sstore\n      pop\n        /* \"contracts/Voting.sol\":1882:2243  function closeProposition() public onlyOwner {... */\n      jump\t// out\n        /* \"@openzeppelin/contracts/access/Ownable.sol\":1638:1723  function owner() public view virtual returns (address) {... */\n    tag_37:\n        /* \"@openzeppelin/contracts/access/Ownable.sol\":1684:1691  address */\n      0x00\n        /* \"@openzeppelin/contracts/access/Ownable.sol\":1710:1716  _owner */\n      dup1\n      0x00\n      swap1\n      sload\n      swap1\n      0x0100\n      exp\n      swap1\n      div\n      0xffffffffffffffffffffffffffffffffffffffff\n      and\n        /* \"@openzeppelin/contracts/access/Ownable.sol\":1703:1716  return _owner */\n      swap1\n      pop\n        /* \"@openzeppelin/contracts/access/Ownable.sol\":1638:1723  function owner() public view virtual returns (address) {... */\n      swap1\n      jump\t// out\n        /* \"contracts/Voting.sol\":4276:4366  function getWinner() public view  returns(Proposal memory){... */\n    tag_41:\n        /* \"contracts/Voting.sol\":4318:4333  Proposal memory */\n      tag_161\n      tag_162\n      jump\t// in\n    tag_161:\n        /* \"contracts/Voting.sol\":4352:4358  winner */\n      0x07\n        /* \"contracts/Voting.sol\":4345:4358  return winner */\n      mload(0x40)\n      dup1\n      0x40\n      add\n      0x40\n      mstore\n      swap1\n      dup2\n      0x00\n      dup3\n      add\n      dup1\n      sload\n      tag_164\n      swap1\n      tag_142\n      jump\t// in\n    tag_164:\n      dup1\n      0x1f\n      add\n      0x20\n      dup1\n      swap2\n      div\n      mul\n      0x20\n      add\n      mload(0x40)\n      swap1\n      dup2\n      add\n      0x40\n      mstore\n      dup1\n      swap3\n      swap2\n      swap1\n      dup2\n      dup2\n      mstore\n      0x20\n      add\n      dup3\n      dup1\n      sload\n      tag_165\n      swap1\n      tag_142\n      jump\t// in\n    tag_165:\n      dup1\n      iszero\n      tag_166\n      jumpi\n      dup1\n      0x1f\n      lt\n      tag_167\n      jumpi\n      0x0100\n      dup1\n      dup4\n      sload\n      div\n      mul\n      dup4\n      mstore\n      swap2\n      0x20\n      add\n      swap2\n      jump(tag_166)\n    tag_167:\n      dup3\n      add\n      swap2\n      swap1\n      0x00\n      mstore\n      keccak256(0x00, 0x20)\n      swap1\n    tag_168:\n      dup2\n      sload\n      dup2\n      mstore\n      swap1\n      0x01\n      add\n      swap1\n      0x20\n      add\n      dup1\n      dup4\n      gt\n      tag_168\n      jumpi\n      dup3\n      swap1\n      sub\n      0x1f\n      and\n      dup3\n      add\n      swap2\n    tag_166:\n      pop\n      pop\n      pop\n      pop\n      pop\n      dup2\n      mstore\n      0x20\n      add\n      0x01\n      dup3\n      add\n      sload\n      dup2\n      mstore\n      pop\n      pop\n      swap1\n      pop\n        /* \"contracts/Voting.sol\":4276:4366  function getWinner() public view  returns(Proposal memory){... */\n      swap1\n      jump\t// out\n        /* \"contracts/Voting.sol\":861:904  mapping (address => Voter) public whitelist */\n    tag_47:\n      mstore(0x20, 0x09)\n      dup1\n      0x00\n      mstore\n      keccak256(0x00, 0x40)\n      0x00\n      swap2\n      pop\n      swap1\n      pop\n      dup1\n      0x00\n      add\n      0x00\n      swap1\n      sload\n      swap1\n      0x0100\n      exp\n      swap1\n      div\n      0xff\n      and\n      swap1\n      dup1\n      0x00\n      add\n      0x01\n      swap1\n      sload\n      swap1\n      0x0100\n      exp\n      swap1\n      div\n      0xff\n      and\n      swap1\n      dup1\n      0x01\n      add\n      sload\n      swap1\n      pop\n      dup4\n      jump\t// out\n        /* \"contracts/Voting.sol\":3232:3674  function proposer(string calldata _description ) isWhiteList public {... */\n    tag_53:\n        /* \"contracts/Voting.sol\":1091:1100  whitelist */\n      0x09\n        /* \"contracts/Voting.sol\":1091:1112  whitelist[msg.sender] */\n      0x00\n        /* \"contracts/Voting.sol\":1101:1111  msg.sender */\n      caller\n        /* \"contracts/Voting.sol\":1091:1112  whitelist[msg.sender] */\n      0xffffffffffffffffffffffffffffffffffffffff\n      and\n      0xffffffffffffffffffffffffffffffffffffffff\n      and\n      dup2\n      mstore\n      0x20\n      add\n      swap1\n      dup2\n      mstore\n      0x20\n      add\n      0x00\n      keccak256\n        /* \"contracts/Voting.sol\":1091:1125  whitelist[msg.sender].isRegistered */\n      0x00\n      add\n      0x00\n      swap1\n      sload\n      swap1\n      0x0100\n      exp\n      swap1\n      div\n      0xff\n      and\n        /* \"contracts/Voting.sol\":1082:1148  require( whitelist[msg.sender].isRegistered ,\"is not whitelisted\") */\n      tag_170\n      jumpi\n      mload(0x40)\n      0x08c379a000000000000000000000000000000000000000000000000000000000\n      dup2\n      mstore\n      0x04\n      add\n      tag_171\n      swap1\n      tag_69\n      jump\t// in\n    tag_171:\n      mload(0x40)\n      dup1\n      swap2\n      sub\n      swap1\n      revert\n    tag_170:\n        /* \"contracts/Voting.sol\":3314:3328  currentSession */\n      0x05\n        /* \"contracts/Voting.sol\":3314:3345  currentSession.isPublicProposal */\n      0x00\n      add\n      0x01\n      swap1\n      sload\n      swap1\n      0x0100\n      exp\n      swap1\n      div\n      0xff\n      and\n        /* \"contracts/Voting.sol\":3314:3370  currentSession.isPublicProposal || owner() == msg.sender */\n      dup1\n      tag_173\n      jumpi\n      pop\n        /* \"contracts/Voting.sol\":3360:3370  msg.sender */\n      caller\n        /* \"contracts/Voting.sol\":3349:3370  owner() == msg.sender */\n      0xffffffffffffffffffffffffffffffffffffffff\n      and\n        /* \"contracts/Voting.sol\":3349:3356  owner() */\n      tag_174\n        /* \"contracts/Voting.sol\":3349:3354  owner */\n      tag_37\n        /* \"contracts/Voting.sol\":3349:3356  owner() */\n      jump\t// in\n    tag_174:\n        /* \"contracts/Voting.sol\":3349:3370  owner() == msg.sender */\n      0xffffffffffffffffffffffffffffffffffffffff\n      and\n      eq\n        /* \"contracts/Voting.sol\":3314:3370  currentSession.isPublicProposal || owner() == msg.sender */\n    tag_173:\n        /* \"contracts/Voting.sol\":3311:3667  if(currentSession.isPublicProposal || owner() == msg.sender){... */\n      iszero\n      tag_175\n      jumpi\n        /* \"contracts/Voting.sol\":3437:3480  WorkflowStatus.ProposalsRegistrationStarted */\n      0x01\n        /* \"contracts/Voting.sol\":3412:3480  currentSession.status == WorkflowStatus.ProposalsRegistrationStarted */\n      0x05\n      dup2\n      gt\n      iszero\n      tag_176\n      jumpi\n      tag_177\n      tag_73\n      jump\t// in\n    tag_177:\n    tag_176:\n        /* \"contracts/Voting.sol\":3412:3426  currentSession */\n      0x05\n        /* \"contracts/Voting.sol\":3412:3433  currentSession.status */\n      0x00\n      add\n      0x00\n      swap1\n      sload\n      swap1\n      0x0100\n      exp\n      swap1\n      div\n      0xff\n      and\n        /* \"contracts/Voting.sol\":3412:3480  currentSession.status == WorkflowStatus.ProposalsRegistrationStarted */\n      0x05\n      dup2\n      gt\n      iszero\n      tag_178\n      jumpi\n      tag_179\n      tag_73\n      jump\t// in\n    tag_179:\n    tag_178:\n      eq\n        /* \"contracts/Voting.sol\":3386:3495  require(... */\n      tag_180\n      jumpi\n      0x00\n      dup1\n      revert\n    tag_180:\n        /* \"contracts/Voting.sol\":3523:3548  Proposal(_description, 0) */\n      mload(0x40)\n      dup1\n      0x40\n      add\n      0x40\n      mstore\n      dup1\n        /* \"contracts/Voting.sol\":3532:3544  _description */\n      dup4\n      dup4\n        /* \"contracts/Voting.sol\":3523:3548  Proposal(_description, 0) */\n      dup1\n      dup1\n      0x1f\n      add\n      0x20\n      dup1\n      swap2\n      div\n      mul\n      0x20\n      add\n      mload(0x40)\n      swap1\n      dup2\n      add\n      0x40\n      mstore\n      dup1\n      swap4\n      swap3\n      swap2\n      swap1\n      dup2\n      dup2\n      mstore\n      0x20\n      add\n      dup4\n      dup4\n      dup1\n      dup3\n      dup5\n      calldatacopy\n      0x00\n      dup2\n      dup5\n      add\n      mstore\n      not(0x1f)\n      0x1f\n      dup3\n      add\n      and\n      swap1\n      pop\n      dup1\n      dup4\n      add\n      swap3\n      pop\n      pop\n      pop\n      pop\n      pop\n      pop\n      pop\n      dup2\n      mstore\n      0x20\n      add\n        /* \"contracts/Voting.sol\":3546:3547  0 */\n      0x00\n        /* \"contracts/Voting.sol\":3523:3548  Proposal(_description, 0) */\n      dup2\n      mstore\n      pop\n        /* \"contracts/Voting.sol\":3510:3520  newPorosal */\n      0x01\n        /* \"contracts/Voting.sol\":3510:3548  newPorosal = Proposal(_description, 0) */\n      0x00\n      dup3\n      add\n      mload\n      dup2\n      0x00\n      add\n      swap1\n      dup2\n      tag_181\n      swap2\n      swap1\n      tag_182\n      jump\t// in\n    tag_181:\n      pop\n      0x20\n      dup3\n      add\n      mload\n      dup2\n      0x01\n      add\n      sstore\n      swap1\n      pop\n      pop\n        /* \"contracts/Voting.sol\":3563:3577  currentSession */\n      0x05\n        /* \"contracts/Voting.sol\":3563:3592  currentSession.lesProposition */\n      0x01\n      add\n        /* \"contracts/Voting.sol\":3598:3608  newPorosal */\n      0x01\n        /* \"contracts/Voting.sol\":3563:3609  currentSession.lesProposition.push(newPorosal) */\n      swap1\n      dup1\n      0x01\n      dup2\n      sload\n      add\n      dup1\n      dup3\n      sstore\n      dup1\n      swap2\n      pop\n      pop\n      0x01\n      swap1\n      sub\n      swap1\n      0x00\n      mstore\n      keccak256(0x00, 0x20)\n      swap1\n      0x02\n      mul\n      add\n      0x00\n      swap1\n      swap2\n      swap1\n      swap2\n      swap1\n      swap2\n      pop\n      0x00\n      dup3\n      add\n      dup2\n      0x00\n      add\n      swap1\n      dup2\n      tag_184\n      swap2\n      swap1\n      tag_95\n      jump\t// in\n    tag_184:\n      pop\n      0x01\n      dup3\n      add\n      sload\n      dup2\n      0x01\n      add\n      sstore\n      pop\n      pop\n        /* \"contracts/Voting.sol\":3629:3655  newProposition(newPorosal) */\n      0xc90604c068b8efd40fc7abb985d0a8c41192ff10cd393403f3dddf0c39e5a1d9\n        /* \"contracts/Voting.sol\":3644:3654  newPorosal */\n      0x01\n        /* \"contracts/Voting.sol\":3629:3655  newProposition(newPorosal) */\n      mload(0x40)\n      tag_185\n      swap2\n      swap1\n      tag_186\n      jump\t// in\n    tag_185:\n      mload(0x40)\n      dup1\n      swap2\n      sub\n      swap1\n      log1\n        /* \"contracts/Voting.sol\":3311:3667  if(currentSession.isPublicProposal || owner() == msg.sender){... */\n    tag_175:\n        /* \"contracts/Voting.sol\":3232:3674  function proposer(string calldata _description ) isWhiteList public {... */\n      pop\n      pop\n      jump\t// out\n        /* \"contracts/Voting.sol\":2249:2601  function openVote() public onlyOwner  {... */\n    tag_55:\n        /* \"@openzeppelin/contracts/access/Ownable.sol\":1531:1544  _checkOwner() */\n      tag_188\n        /* \"@openzeppelin/contracts/access/Ownable.sol\":1531:1542  _checkOwner */\n      tag_86\n        /* \"@openzeppelin/contracts/access/Ownable.sol\":1531:1544  _checkOwner() */\n      jump\t// in\n    tag_188:\n        /* \"contracts/Voting.sol\":2331:2372  WorkflowStatus.ProposalsRegistrationEnded */\n      0x02\n        /* \"contracts/Voting.sol\":2306:2372  currentSession.status == WorkflowStatus.ProposalsRegistrationEnded */\n      0x05\n      dup2\n      gt\n      iszero\n      tag_190\n      jumpi\n      tag_191\n      tag_73\n      jump\t// in\n    tag_191:\n    tag_190:\n        /* \"contracts/Voting.sol\":2306:2320  currentSession */\n      0x05\n        /* \"contracts/Voting.sol\":2306:2327  currentSession.status */\n      0x00\n      add\n      0x00\n      swap1\n      sload\n      swap1\n      0x0100\n      exp\n      swap1\n      div\n      0xff\n      and\n        /* \"contracts/Voting.sol\":2306:2372  currentSession.status == WorkflowStatus.ProposalsRegistrationEnded */\n      0x05\n      dup2\n      gt\n      iszero\n      tag_192\n      jumpi\n      tag_193\n      tag_73\n      jump\t// in\n    tag_193:\n    tag_192:\n      eq\n        /* \"contracts/Voting.sol\":2298:2422  require(currentSession.status == WorkflowStatus.ProposalsRegistrationEnded,\"Session need be in closeregister status before\") */\n      tag_194\n      jumpi\n      mload(0x40)\n      0x08c379a000000000000000000000000000000000000000000000000000000000\n      dup2\n      mstore\n      0x04\n      add\n      tag_195\n      swap1\n      tag_196\n      jump\t// in\n    tag_195:\n      mload(0x40)\n      dup1\n      swap2\n      sub\n      swap1\n      revert\n    tag_194:\n        /* \"contracts/Voting.sol\":2438:2518  WorkflowStatusChange(currentSession.status, WorkflowStatus.VotingSessionStarted) */\n      0x0a97a4ee45751e2abf3e4fc8946939630b11b371ea8ae39ccdc3056e98f5cc3f\n        /* \"contracts/Voting.sol\":2459:2473  currentSession */\n      0x05\n        /* \"contracts/Voting.sol\":2459:2480  currentSession.status */\n      0x00\n      add\n      0x00\n      swap1\n      sload\n      swap1\n      0x0100\n      exp\n      swap1\n      div\n      0xff\n      and\n        /* \"contracts/Voting.sol\":2482:2517  WorkflowStatus.VotingSessionStarted */\n      0x03\n        /* \"contracts/Voting.sol\":2438:2518  WorkflowStatusChange(currentSession.status, WorkflowStatus.VotingSessionStarted) */\n      mload(0x40)\n      tag_197\n      swap3\n      swap2\n      swap1\n      tag_123\n      jump\t// in\n    tag_197:\n      mload(0x40)\n      dup1\n      swap2\n      sub\n      swap1\n      log1\n        /* \"contracts/Voting.sol\":2558:2593  WorkflowStatus.VotingSessionStarted */\n      0x03\n        /* \"contracts/Voting.sol\":2534:2548  currentSession */\n      0x05\n        /* \"contracts/Voting.sol\":2534:2555  currentSession.status */\n      0x00\n      add\n      0x00\n        /* \"contracts/Voting.sol\":2534:2593  currentSession.status = WorkflowStatus.VotingSessionStarted */\n      0x0100\n      exp\n      dup2\n      sload\n      dup2\n      0xff\n      mul\n      not\n      and\n      swap1\n      dup4\n      0x05\n      dup2\n      gt\n      iszero\n      tag_198\n      jumpi\n      tag_199\n      tag_73\n      jump\t// in\n    tag_199:\n    tag_198:\n      mul\n      or\n      swap1\n      sstore\n      pop\n        /* \"contracts/Voting.sol\":2249:2601  function openVote() public onlyOwner  {... */\n      jump\t// out\n        /* \"contracts/Voting.sol\":1514:1874  function startSession(bool _publicProposal) public onlyOwner {... */\n    tag_59:\n        /* \"@openzeppelin/contracts/access/Ownable.sol\":1531:1544  _checkOwner() */\n      tag_201\n        /* \"@openzeppelin/contracts/access/Ownable.sol\":1531:1542  _checkOwner */\n      tag_86\n        /* \"@openzeppelin/contracts/access/Ownable.sol\":1531:1544  _checkOwner() */\n      jump\t// in\n    tag_201:\n        /* \"contracts/Voting.sol\":1620:1624  true */\n      0x01\n        /* \"contracts/Voting.sol\":1586:1595  whitelist */\n      0x09\n        /* \"contracts/Voting.sol\":1586:1604  whitelist[owner()] */\n      0x00\n        /* \"contracts/Voting.sol\":1596:1603  owner() */\n      tag_203\n        /* \"contracts/Voting.sol\":1596:1601  owner */\n      tag_37\n        /* \"contracts/Voting.sol\":1596:1603  owner() */\n      jump\t// in\n    tag_203:\n        /* \"contracts/Voting.sol\":1586:1604  whitelist[owner()] */\n      0xffffffffffffffffffffffffffffffffffffffff\n      and\n      0xffffffffffffffffffffffffffffffffffffffff\n      and\n      dup2\n      mstore\n      0x20\n      add\n      swap1\n      dup2\n      mstore\n      0x20\n      add\n      0x00\n      keccak256\n        /* \"contracts/Voting.sol\":1586:1617  whitelist[owner()].isRegistered */\n      0x00\n      add\n      0x00\n        /* \"contracts/Voting.sol\":1586:1624  whitelist[owner()].isRegistered = true */\n      0x0100\n      exp\n      dup2\n      sload\n      dup2\n      0xff\n      mul\n      not\n      and\n      swap1\n      dup4\n      iszero\n      iszero\n      mul\n      or\n      swap1\n      sstore\n      pop\n        /* \"contracts/Voting.sol\":1640:1728  WorkflowStatusChange(currentSession.status, WorkflowStatus.ProposalsRegistrationStarted) */\n      0x0a97a4ee45751e2abf3e4fc8946939630b11b371ea8ae39ccdc3056e98f5cc3f\n        /* \"contracts/Voting.sol\":1661:1675  currentSession */\n      0x05\n        /* \"contracts/Voting.sol\":1661:1682  currentSession.status */\n      0x00\n      add\n      0x00\n      swap1\n      sload\n      swap1\n      0x0100\n      exp\n      swap1\n      div\n      0xff\n      and\n        /* \"contracts/Voting.sol\":1684:1727  WorkflowStatus.ProposalsRegistrationStarted */\n      0x01\n        /* \"contracts/Voting.sol\":1640:1728  WorkflowStatusChange(currentSession.status, WorkflowStatus.ProposalsRegistrationStarted) */\n      mload(0x40)\n      tag_204\n      swap3\n      swap2\n      swap1\n      tag_123\n      jump\t// in\n    tag_204:\n      mload(0x40)\n      dup1\n      swap2\n      sub\n      swap1\n      log1\n        /* \"contracts/Voting.sol\":1763:1806  WorkflowStatus.ProposalsRegistrationStarted */\n      0x01\n        /* \"contracts/Voting.sol\":1739:1753  currentSession */\n      0x05\n        /* \"contracts/Voting.sol\":1739:1760  currentSession.status */\n      0x00\n      add\n      0x00\n        /* \"contracts/Voting.sol\":1739:1806  currentSession.status = WorkflowStatus.ProposalsRegistrationStarted */\n      0x0100\n      exp\n      dup2\n      sload\n      dup2\n      0xff\n      mul\n      not\n      and\n      swap1\n      dup4\n      0x05\n      dup2\n      gt\n      iszero\n      tag_205\n      jumpi\n      tag_206\n      tag_73\n      jump\t// in\n    tag_206:\n    tag_205:\n      mul\n      or\n      swap1\n      sstore\n      pop\n        /* \"contracts/Voting.sol\":1851:1866  _publicProposal */\n      dup1\n        /* \"contracts/Voting.sol\":1817:1831  currentSession */\n      0x05\n        /* \"contracts/Voting.sol\":1817:1848  currentSession.isPublicProposal */\n      0x00\n      add\n      0x01\n        /* \"contracts/Voting.sol\":1817:1866  currentSession.isPublicProposal = _publicProposal */\n      0x0100\n      exp\n      dup2\n      sload\n      dup2\n      0xff\n      mul\n      not\n      and\n      swap1\n      dup4\n      iszero\n      iszero\n      mul\n      or\n      swap1\n      sstore\n      pop\n        /* \"contracts/Voting.sol\":1514:1874  function startSession(bool _publicProposal) public onlyOwner {... */\n      pop\n      jump\t// out\n        /* \"@openzeppelin/contracts/access/Ownable.sol\":2543:2758  function transferOwnership(address newOwner) public virtual onlyOwner {... */\n    tag_62:\n        /* \"@openzeppelin/contracts/access/Ownable.sol\":1531:1544  _checkOwner() */\n      tag_208\n        /* \"@openzeppelin/contracts/access/Ownable.sol\":1531:1542  _checkOwner */\n      tag_86\n        /* \"@openzeppelin/contracts/access/Ownable.sol\":1531:1544  _checkOwner() */\n      jump\t// in\n    tag_208:\n        /* \"@openzeppelin/contracts/access/Ownable.sol\":2647:2648  0 */\n      0x00\n        /* \"@openzeppelin/contracts/access/Ownable.sol\":2627:2649  newOwner == address(0) */\n      0xffffffffffffffffffffffffffffffffffffffff\n      and\n        /* \"@openzeppelin/contracts/access/Ownable.sol\":2627:2635  newOwner */\n      dup2\n        /* \"@openzeppelin/contracts/access/Ownable.sol\":2627:2649  newOwner == address(0) */\n      0xffffffffffffffffffffffffffffffffffffffff\n      and\n      sub\n        /* \"@openzeppelin/contracts/access/Ownable.sol\":2623:2714  if (newOwner == address(0)) {... */\n      tag_210\n      jumpi\n        /* \"@openzeppelin/contracts/access/Ownable.sol\":2700:2701  0 */\n      0x00\n        /* \"@openzeppelin/contracts/access/Ownable.sol\":2672:2703  OwnableInvalidOwner(address(0)) */\n      mload(0x40)\n      0x1e4fbdf700000000000000000000000000000000000000000000000000000000\n      dup2\n      mstore\n      0x04\n      add\n      tag_211\n      swap2\n      swap1\n      tag_39\n      jump\t// in\n    tag_211:\n      mload(0x40)\n      dup1\n      swap2\n      sub\n      swap1\n      revert\n        /* \"@openzeppelin/contracts/access/Ownable.sol\":2623:2714  if (newOwner == address(0)) {... */\n    tag_210:\n        /* \"@openzeppelin/contracts/access/Ownable.sol\":2723:2751  _transferOwnership(newOwner) */\n      tag_212\n        /* \"@openzeppelin/contracts/access/Ownable.sol\":2742:2750  newOwner */\n      dup2\n        /* \"@openzeppelin/contracts/access/Ownable.sol\":2723:2741  _transferOwnership */\n      tag_130\n        /* \"@openzeppelin/contracts/access/Ownable.sol\":2723:2751  _transferOwnership(newOwner) */\n      jump\t// in\n    tag_212:\n        /* \"@openzeppelin/contracts/access/Ownable.sol\":2543:2758  function transferOwnership(address newOwner) public virtual onlyOwner {... */\n      pop\n      jump\t// out\n        /* \"contracts/Voting.sol\":1176:1506  function addVoter(address _address) public onlyOwner() {... */\n    tag_65:\n        /* \"@openzeppelin/contracts/access/Ownable.sol\":1531:1544  _checkOwner() */\n      tag_214\n        /* \"@openzeppelin/contracts/access/Ownable.sol\":1531:1542  _checkOwner */\n      tag_86\n        /* \"@openzeppelin/contracts/access/Ownable.sol\":1531:1544  _checkOwner() */\n      jump\t// in\n    tag_214:\n        /* \"contracts/Voting.sol\":1251:1260  whitelist */\n      0x09\n        /* \"contracts/Voting.sol\":1251:1270  whitelist[_address] */\n      0x00\n        /* \"contracts/Voting.sol\":1261:1269  _address */\n      dup3\n        /* \"contracts/Voting.sol\":1251:1270  whitelist[_address] */\n      0xffffffffffffffffffffffffffffffffffffffff\n      and\n      0xffffffffffffffffffffffffffffffffffffffff\n      and\n      dup2\n      mstore\n      0x20\n      add\n      swap1\n      dup2\n      mstore\n      0x20\n      add\n      0x00\n      keccak256\n        /* \"contracts/Voting.sol\":1251:1283  whitelist[_address].isRegistered */\n      0x00\n      add\n      0x00\n      swap1\n      sload\n      swap1\n      0x0100\n      exp\n      swap1\n      div\n      0xff\n      and\n        /* \"contracts/Voting.sol\":1250:1283  !whitelist[_address].isRegistered */\n      iszero\n        /* \"contracts/Voting.sol\":1242:1284  require(!whitelist[_address].isRegistered) */\n      tag_216\n      jumpi\n      0x00\n      dup1\n      revert\n    tag_216:\n        /* \"contracts/Voting.sol\":1317:1336  Voter(true,false,0) */\n      mload(0x40)\n      dup1\n      0x60\n      add\n      0x40\n      mstore\n      dup1\n        /* \"contracts/Voting.sol\":1323:1327  true */\n      0x01\n        /* \"contracts/Voting.sol\":1317:1336  Voter(true,false,0) */\n      iszero\n      iszero\n      dup2\n      mstore\n      0x20\n      add\n        /* \"contracts/Voting.sol\":1328:1333  false */\n      0x00\n        /* \"contracts/Voting.sol\":1317:1336  Voter(true,false,0) */\n      iszero\n      iszero\n      dup2\n      mstore\n      0x20\n      add\n        /* \"contracts/Voting.sol\":1334:1335  0 */\n      0x00\n        /* \"contracts/Voting.sol\":1317:1336  Voter(true,false,0) */\n      dup2\n      mstore\n      pop\n        /* \"contracts/Voting.sol\":1295:1304  whitelist */\n      0x09\n        /* \"contracts/Voting.sol\":1295:1314  whitelist[_address] */\n      0x00\n        /* \"contracts/Voting.sol\":1305:1313  _address */\n      dup4\n        /* \"contracts/Voting.sol\":1295:1314  whitelist[_address] */\n      0xffffffffffffffffffffffffffffffffffffffff\n      and\n      0xffffffffffffffffffffffffffffffffffffffff\n      and\n      dup2\n      mstore\n      0x20\n      add\n      swap1\n      dup2\n      mstore\n      0x20\n      add\n      0x00\n      keccak256\n        /* \"contracts/Voting.sol\":1295:1336  whitelist[_address] = Voter(true,false,0) */\n      0x00\n      dup3\n      add\n      mload\n      dup2\n      0x00\n      add\n      exp(0x0100, 0x00)\n      dup2\n      sload\n      dup2\n      0xff\n      mul\n      not\n      and\n      swap1\n      dup4\n      iszero\n      iszero\n      mul\n      or\n      swap1\n      sstore\n      pop\n      0x20\n      dup3\n      add\n      mload\n      dup2\n      0x00\n      add\n      exp(0x0100, 0x01)\n      dup2\n      sload\n      dup2\n      0xff\n      mul\n      not\n      and\n      swap1\n      dup4\n      iszero\n      iszero\n      mul\n      or\n      swap1\n      sstore\n      pop\n      0x40\n      dup3\n      add\n      mload\n      dup2\n      0x01\n      add\n      sstore\n      swap1\n      pop\n      pop\n        /* \"contracts/Voting.sol\":1352:1429  WorkflowStatusChange(currentSession.status, WorkflowStatus.RegisteringVoters) */\n      0x0a97a4ee45751e2abf3e4fc8946939630b11b371ea8ae39ccdc3056e98f5cc3f\n        /* \"contracts/Voting.sol\":1373:1387  currentSession */\n      0x05\n        /* \"contracts/Voting.sol\":1373:1394  currentSession.status */\n      0x00\n      add\n      0x00\n      swap1\n      sload\n      swap1\n      0x0100\n      exp\n      swap1\n      div\n      0xff\n      and\n        /* \"contracts/Voting.sol\":1396:1428  WorkflowStatus.RegisteringVoters */\n      0x00\n        /* \"contracts/Voting.sol\":1352:1429  WorkflowStatusChange(currentSession.status, WorkflowStatus.RegisteringVoters) */\n      mload(0x40)\n      tag_217\n      swap3\n      swap2\n      swap1\n      tag_123\n      jump\t// in\n    tag_217:\n      mload(0x40)\n      dup1\n      swap2\n      sub\n      swap1\n      log1\n        /* \"contracts/Voting.sol\":1464:1496  WorkflowStatus.RegisteringVoters */\n      0x00\n        /* \"contracts/Voting.sol\":1440:1454  currentSession */\n      0x05\n        /* \"contracts/Voting.sol\":1440:1461  currentSession.status */\n      0x00\n      add\n      0x00\n        /* \"contracts/Voting.sol\":1440:1496  currentSession.status = WorkflowStatus.RegisteringVoters */\n      0x0100\n      exp\n      dup2\n      sload\n      dup2\n      0xff\n      mul\n      not\n      and\n      swap1\n      dup4\n      0x05\n      dup2\n      gt\n      iszero\n      tag_218\n      jumpi\n      tag_219\n      tag_73\n      jump\t// in\n    tag_219:\n    tag_218:\n      mul\n      or\n      swap1\n      sstore\n      pop\n        /* \"contracts/Voting.sol\":1176:1506  function addVoter(address _address) public onlyOwner() {... */\n      pop\n      jump\t// out\n        /* \"@openzeppelin/contracts/access/Ownable.sol\":1796:1958  function _checkOwner() internal view virtual {... */\n    tag_86:\n        /* \"@openzeppelin/contracts/access/Ownable.sol\":1866:1878  _msgSender() */\n      tag_221\n        /* \"@openzeppelin/contracts/access/Ownable.sol\":1866:1876  _msgSender */\n      tag_222\n        /* \"@openzeppelin/contracts/access/Ownable.sol\":1866:1878  _msgSender() */\n      jump\t// in\n    tag_221:\n        /* \"@openzeppelin/contracts/access/Ownable.sol\":1855:1878  owner() != _msgSender() */\n      0xffffffffffffffffffffffffffffffffffffffff\n      and\n        /* \"@openzeppelin/contracts/access/Ownable.sol\":1855:1862  owner() */\n      tag_223\n        /* \"@openzeppelin/contracts/access/Ownable.sol\":1855:1860  owner */\n      tag_37\n        /* \"@openzeppelin/contracts/access/Ownable.sol\":1855:1862  owner() */\n      jump\t// in\n    tag_223:\n        /* \"@openzeppelin/contracts/access/Ownable.sol\":1855:1878  owner() != _msgSender() */\n      0xffffffffffffffffffffffffffffffffffffffff\n      and\n      eq\n        /* \"@openzeppelin/contracts/access/Ownable.sol\":1851:1952  if (owner() != _msgSender()) {... */\n      tag_224\n      jumpi\n        /* \"@openzeppelin/contracts/access/Ownable.sol\":1928:1940  _msgSender() */\n      tag_225\n        /* \"@openzeppelin/contracts/access/Ownable.sol\":1928:1938  _msgSender */\n      tag_222\n        /* \"@openzeppelin/contracts/access/Ownable.sol\":1928:1940  _msgSender() */\n      jump\t// in\n    tag_225:\n        /* \"@openzeppelin/contracts/access/Ownable.sol\":1901:1941  OwnableUnauthorizedAccount(_msgSender()) */\n      mload(0x40)\n      0x118cdaa700000000000000000000000000000000000000000000000000000000\n      dup2\n      mstore\n      0x04\n      add\n      tag_226\n      swap2\n      swap1\n      tag_39\n      jump\t// in\n    tag_226:\n      mload(0x40)\n      dup1\n      swap2\n      sub\n      swap1\n      revert\n        /* \"@openzeppelin/contracts/access/Ownable.sol\":1851:1952  if (owner() != _msgSender()) {... */\n    tag_224:\n        /* \"@openzeppelin/contracts/access/Ownable.sol\":1796:1958  function _checkOwner() internal view virtual {... */\n      jump\t// out\n        /* \"@openzeppelin/contracts/access/Ownable.sol\":2912:3099  function _transferOwnership(address newOwner) internal virtual {... */\n    tag_130:\n        /* \"@openzeppelin/contracts/access/Ownable.sol\":2985:3001  address oldOwner */\n      0x00\n        /* \"@openzeppelin/contracts/access/Ownable.sol\":3004:3010  _owner */\n      dup1\n      0x00\n      swap1\n      sload\n      swap1\n      0x0100\n      exp\n      swap1\n      div\n      0xffffffffffffffffffffffffffffffffffffffff\n      and\n        /* \"@openzeppelin/contracts/access/Ownable.sol\":2985:3010  address oldOwner = _owner */\n      swap1\n      pop\n        /* \"@openzeppelin/contracts/access/Ownable.sol\":3029:3037  newOwner */\n      dup2\n        /* \"@openzeppelin/contracts/access/Ownable.sol\":3020:3026  _owner */\n      0x00\n      dup1\n        /* \"@openzeppelin/contracts/access/Ownable.sol\":3020:3037  _owner = newOwner */\n      0x0100\n      exp\n      dup2\n      sload\n      dup2\n      0xffffffffffffffffffffffffffffffffffffffff\n      mul\n      not\n      and\n      swap1\n      dup4\n      0xffffffffffffffffffffffffffffffffffffffff\n      and\n      mul\n      or\n      swap1\n      sstore\n      pop\n        /* \"@openzeppelin/contracts/access/Ownable.sol\":3083:3091  newOwner */\n      dup2\n        /* \"@openzeppelin/contracts/access/Ownable.sol\":3052:3092  OwnershipTransferred(oldOwner, newOwner) */\n      0xffffffffffffffffffffffffffffffffffffffff\n      and\n        /* \"@openzeppelin/contracts/access/Ownable.sol\":3073:3081  oldOwner */\n      dup2\n        /* \"@openzeppelin/contracts/access/Ownable.sol\":3052:3092  OwnershipTransferred(oldOwner, newOwner) */\n      0xffffffffffffffffffffffffffffffffffffffff\n      and\n      0x8be0079c531659141344cd1fd0a4f28419497f9722a3daafe3b4186f6b6457e0\n      mload(0x40)\n      mload(0x40)\n      dup1\n      swap2\n      sub\n      swap1\n      log3\n        /* \"@openzeppelin/contracts/access/Ownable.sol\":2975:3099  {... */\n      pop\n        /* \"@openzeppelin/contracts/access/Ownable.sol\":2912:3099  function _transferOwnership(address newOwner) internal virtual {... */\n      pop\n      jump\t// out\n        /* \"@openzeppelin/contracts/utils/Context.sol\":656:752  function _msgSender() internal view virtual returns (address) {... */\n    tag_222:\n        /* \"@openzeppelin/contracts/utils/Context.sol\":709:716  address */\n      0x00\n        /* \"@openzeppelin/contracts/utils/Context.sol\":735:745  msg.sender */\n      caller\n        /* \"@openzeppelin/contracts/utils/Context.sol\":728:745  return msg.sender */\n      swap1\n      pop\n        /* \"@openzeppelin/contracts/utils/Context.sol\":656:752  function _msgSender() internal view virtual returns (address) {... */\n      swap1\n      jump\t// out\n    tag_132:\n      mload(0x40)\n      dup1\n      0x60\n      add\n      0x40\n      mstore\n      dup1\n      0x00\n      0x05\n      dup2\n      gt\n      iszero\n      tag_229\n      jumpi\n      tag_230\n      tag_73\n      jump\t// in\n    tag_230:\n    tag_229:\n      dup2\n      mstore\n      0x20\n      add\n      iszero(iszero(0x00))\n      dup2\n      mstore\n      0x20\n      add\n      0x60\n      dup2\n      mstore\n      pop\n      swap1\n      jump\t// out\n    tag_162:\n      mload(0x40)\n      dup1\n      0x40\n      add\n      0x40\n      mstore\n      dup1\n      0x60\n      dup2\n      mstore\n      0x20\n      add\n      0x00\n      dup2\n      mstore\n      pop\n      swap1\n      jump\t// out\n        /* \"#utility.yul\":88:205   */\n    tag_232:\n        /* \"#utility.yul\":197:198   */\n      0x00\n        /* \"#utility.yul\":194:195   */\n      dup1\n        /* \"#utility.yul\":187:199   */\n      revert\n        /* \"#utility.yul\":211:328   */\n    tag_233:\n        /* \"#utility.yul\":320:321   */\n      0x00\n        /* \"#utility.yul\":317:318   */\n      dup1\n        /* \"#utility.yul\":310:322   */\n      revert\n        /* \"#utility.yul\":334:411   */\n    tag_234:\n        /* \"#utility.yul\":371:378   */\n      0x00\n        /* \"#utility.yul\":400:405   */\n      dup2\n        /* \"#utility.yul\":389:405   */\n      swap1\n      pop\n        /* \"#utility.yul\":334:411   */\n      swap2\n      swap1\n      pop\n      jump\t// out\n        /* \"#utility.yul\":417:539   */\n    tag_235:\n        /* \"#utility.yul\":490:514   */\n      tag_311\n        /* \"#utility.yul\":508:513   */\n      dup2\n        /* \"#utility.yul\":490:514   */\n      tag_234\n      jump\t// in\n    tag_311:\n        /* \"#utility.yul\":483:488   */\n      dup2\n        /* \"#utility.yul\":480:515   */\n      eq\n        /* \"#utility.yul\":470:533   */\n      tag_312\n      jumpi\n        /* \"#utility.yul\":529:530   */\n      0x00\n        /* \"#utility.yul\":526:527   */\n      dup1\n        /* \"#utility.yul\":519:531   */\n      revert\n        /* \"#utility.yul\":470:533   */\n    tag_312:\n        /* \"#utility.yul\":417:539   */\n      pop\n      jump\t// out\n        /* \"#utility.yul\":545:684   */\n    tag_236:\n        /* \"#utility.yul\":591:596   */\n      0x00\n        /* \"#utility.yul\":629:635   */\n      dup2\n        /* \"#utility.yul\":616:636   */\n      calldataload\n        /* \"#utility.yul\":607:636   */\n      swap1\n      pop\n        /* \"#utility.yul\":645:678   */\n      tag_314\n        /* \"#utility.yul\":672:677   */\n      dup2\n        /* \"#utility.yul\":645:678   */\n      tag_235\n      jump\t// in\n    tag_314:\n        /* \"#utility.yul\":545:684   */\n      swap3\n      swap2\n      pop\n      pop\n      jump\t// out\n        /* \"#utility.yul\":690:1019   */\n    tag_22:\n        /* \"#utility.yul\":749:755   */\n      0x00\n        /* \"#utility.yul\":798:800   */\n      0x20\n        /* \"#utility.yul\":786:795   */\n      dup3\n        /* \"#utility.yul\":777:784   */\n      dup5\n        /* \"#utility.yul\":773:796   */\n      sub\n        /* \"#utility.yul\":769:801   */\n      slt\n        /* \"#utility.yul\":766:885   */\n      iszero\n      tag_316\n      jumpi\n        /* \"#utility.yul\":804:883   */\n      tag_317\n      tag_232\n      jump\t// in\n    tag_317:\n        /* \"#utility.yul\":766:885   */\n    tag_316:\n        /* \"#utility.yul\":924:925   */\n      0x00\n        /* \"#utility.yul\":949:1002   */\n      tag_318\n        /* \"#utility.yul\":994:1001   */\n      dup5\n        /* \"#utility.yul\":985:991   */\n      dup3\n        /* \"#utility.yul\":974:983   */\n      dup6\n        /* \"#utility.yul\":970:992   */\n      add\n        /* \"#utility.yul\":949:1002   */\n      tag_236\n      jump\t// in\n    tag_318:\n        /* \"#utility.yul\":939:1002   */\n      swap2\n      pop\n        /* \"#utility.yul\":895:1012   */\n      pop\n        /* \"#utility.yul\":690:1019   */\n      swap3\n      swap2\n      pop\n      pop\n      jump\t// out\n        /* \"#utility.yul\":1025:1205   */\n    tag_73:\n        /* \"#utility.yul\":1073:1150   */\n      0x4e487b7100000000000000000000000000000000000000000000000000000000\n        /* \"#utility.yul\":1070:1071   */\n      0x00\n        /* \"#utility.yul\":1063:1151   */\n      mstore\n        /* \"#utility.yul\":1170:1174   */\n      0x21\n        /* \"#utility.yul\":1167:1168   */\n      0x04\n        /* \"#utility.yul\":1160:1175   */\n      mstore\n        /* \"#utility.yul\":1194:1198   */\n      0x24\n        /* \"#utility.yul\":1191:1192   */\n      0x00\n        /* \"#utility.yul\":1184:1199   */\n      revert\n        /* \"#utility.yul\":1211:1334   */\n    tag_237:\n        /* \"#utility.yul\":1302:1303   */\n      0x06\n        /* \"#utility.yul\":1295:1300   */\n      dup2\n        /* \"#utility.yul\":1292:1304   */\n      lt\n        /* \"#utility.yul\":1282:1328   */\n      tag_321\n      jumpi\n        /* \"#utility.yul\":1308:1326   */\n      tag_322\n      tag_73\n      jump\t// in\n    tag_322:\n        /* \"#utility.yul\":1282:1328   */\n    tag_321:\n        /* \"#utility.yul\":1211:1334   */\n      pop\n      jump\t// out\n        /* \"#utility.yul\":1340:1487   */\n    tag_238:\n        /* \"#utility.yul\":1395:1402   */\n      0x00\n        /* \"#utility.yul\":1424:1429   */\n      dup2\n        /* \"#utility.yul\":1413:1429   */\n      swap1\n      pop\n        /* \"#utility.yul\":1430:1481   */\n      tag_324\n        /* \"#utility.yul\":1475:1480   */\n      dup3\n        /* \"#utility.yul\":1430:1481   */\n      tag_237\n      jump\t// in\n    tag_324:\n        /* \"#utility.yul\":1340:1487   */\n      swap2\n      swap1\n      pop\n      jump\t// out\n        /* \"#utility.yul\":1493:1640   */\n    tag_239:\n        /* \"#utility.yul\":1559:1568   */\n      0x00\n        /* \"#utility.yul\":1592:1634   */\n      tag_326\n        /* \"#utility.yul\":1628:1633   */\n      dup3\n        /* \"#utility.yul\":1592:1634   */\n      tag_238\n      jump\t// in\n    tag_326:\n        /* \"#utility.yul\":1579:1634   */\n      swap1\n      pop\n        /* \"#utility.yul\":1493:1640   */\n      swap2\n      swap1\n      pop\n      jump\t// out\n        /* \"#utility.yul\":1646:1799   */\n    tag_240:\n        /* \"#utility.yul\":1739:1792   */\n      tag_328\n        /* \"#utility.yul\":1786:1791   */\n      dup2\n        /* \"#utility.yul\":1739:1792   */\n      tag_239\n      jump\t// in\n    tag_328:\n        /* \"#utility.yul\":1734:1737   */\n      dup3\n        /* \"#utility.yul\":1727:1793   */\n      mstore\n        /* \"#utility.yul\":1646:1799   */\n      pop\n      pop\n      jump\t// out\n        /* \"#utility.yul\":1805:1895   */\n    tag_241:\n        /* \"#utility.yul\":1839:1846   */\n      0x00\n        /* \"#utility.yul\":1882:1887   */\n      dup2\n        /* \"#utility.yul\":1875:1888   */\n      iszero\n        /* \"#utility.yul\":1868:1889   */\n      iszero\n        /* \"#utility.yul\":1857:1889   */\n      swap1\n      pop\n        /* \"#utility.yul\":1805:1895   */\n      swap2\n      swap1\n      pop\n      jump\t// out\n        /* \"#utility.yul\":1901:2000   */\n    tag_242:\n        /* \"#utility.yul\":1972:1993   */\n      tag_331\n        /* \"#utility.yul\":1987:1992   */\n      dup2\n        /* \"#utility.yul\":1972:1993   */\n      tag_241\n      jump\t// in\n    tag_331:\n        /* \"#utility.yul\":1967:1970   */\n      dup3\n        /* \"#utility.yul\":1960:1994   */\n      mstore\n        /* \"#utility.yul\":1901:2000   */\n      pop\n      pop\n      jump\t// out\n        /* \"#utility.yul\":2006:2145   */\n    tag_243:\n        /* \"#utility.yul\":2098:2104   */\n      0x00\n        /* \"#utility.yul\":2132:2137   */\n      dup2\n        /* \"#utility.yul\":2126:2138   */\n      mload\n        /* \"#utility.yul\":2116:2138   */\n      swap1\n      pop\n        /* \"#utility.yul\":2006:2145   */\n      swap2\n      swap1\n      pop\n      jump\t// out\n        /* \"#utility.yul\":2151:2350   */\n    tag_244:\n        /* \"#utility.yul\":2265:2276   */\n      0x00\n        /* \"#utility.yul\":2299:2305   */\n      dup3\n        /* \"#utility.yul\":2294:2297   */\n      dup3\n        /* \"#utility.yul\":2287:2306   */\n      mstore\n        /* \"#utility.yul\":2339:2343   */\n      0x20\n        /* \"#utility.yul\":2334:2337   */\n      dup3\n        /* \"#utility.yul\":2330:2344   */\n      add\n        /* \"#utility.yul\":2315:2344   */\n      swap1\n      pop\n        /* \"#utility.yul\":2151:2350   */\n      swap3\n      swap2\n      pop\n      pop\n      jump\t// out\n        /* \"#utility.yul\":2356:2513   */\n    tag_245:\n        /* \"#utility.yul\":2448:2452   */\n      0x00\n        /* \"#utility.yul\":2471:2474   */\n      dup2\n        /* \"#utility.yul\":2463:2474   */\n      swap1\n      pop\n        /* \"#utility.yul\":2501:2505   */\n      0x20\n        /* \"#utility.yul\":2496:2499   */\n      dup3\n        /* \"#utility.yul\":2492:2506   */\n      add\n        /* \"#utility.yul\":2484:2506   */\n      swap1\n      pop\n        /* \"#utility.yul\":2356:2513   */\n      swap2\n      swap1\n      pop\n      jump\t// out\n        /* \"#utility.yul\":2519:2618   */\n    tag_246:\n        /* \"#utility.yul\":2571:2577   */\n      0x00\n        /* \"#utility.yul\":2605:2610   */\n      dup2\n        /* \"#utility.yul\":2599:2611   */\n      mload\n        /* \"#utility.yul\":2589:2611   */\n      swap1\n      pop\n        /* \"#utility.yul\":2519:2618   */\n      swap2\n      swap1\n      pop\n      jump\t// out\n        /* \"#utility.yul\":2624:2783   */\n    tag_247:\n        /* \"#utility.yul\":2698:2709   */\n      0x00\n        /* \"#utility.yul\":2732:2738   */\n      dup3\n        /* \"#utility.yul\":2727:2730   */\n      dup3\n        /* \"#utility.yul\":2720:2739   */\n      mstore\n        /* \"#utility.yul\":2772:2776   */\n      0x20\n        /* \"#utility.yul\":2767:2770   */\n      dup3\n        /* \"#utility.yul\":2763:2777   */\n      add\n        /* \"#utility.yul\":2748:2777   */\n      swap1\n      pop\n        /* \"#utility.yul\":2624:2783   */\n      swap3\n      swap2\n      pop\n      pop\n      jump\t// out\n        /* \"#utility.yul\":2789:3035   */\n    tag_248:\n        /* \"#utility.yul\":2870:2871   */\n      0x00\n        /* \"#utility.yul\":2880:2993   */\n    tag_338:\n        /* \"#utility.yul\":2894:2900   */\n      dup4\n        /* \"#utility.yul\":2891:2892   */\n      dup2\n        /* \"#utility.yul\":2888:2901   */\n      lt\n        /* \"#utility.yul\":2880:2993   */\n      iszero\n      tag_340\n      jumpi\n        /* \"#utility.yul\":2979:2980   */\n      dup1\n        /* \"#utility.yul\":2974:2977   */\n      dup3\n        /* \"#utility.yul\":2970:2981   */\n      add\n        /* \"#utility.yul\":2964:2982   */\n      mload\n        /* \"#utility.yul\":2960:2961   */\n      dup2\n        /* \"#utility.yul\":2955:2958   */\n      dup5\n        /* \"#utility.yul\":2951:2962   */\n      add\n        /* \"#utility.yul\":2944:2983   */\n      mstore\n        /* \"#utility.yul\":2916:2918   */\n      0x20\n        /* \"#utility.yul\":2913:2914   */\n      dup2\n        /* \"#utility.yul\":2909:2919   */\n      add\n        /* \"#utility.yul\":2904:2919   */\n      swap1\n      pop\n        /* \"#utility.yul\":2880:2993   */\n      jump(tag_338)\n    tag_340:\n        /* \"#utility.yul\":3027:3028   */\n      0x00\n        /* \"#utility.yul\":3018:3024   */\n      dup5\n        /* \"#utility.yul\":3013:3016   */\n      dup5\n        /* \"#utility.yul\":3009:3025   */\n      add\n        /* \"#utility.yul\":3002:3029   */\n      mstore\n        /* \"#utility.yul\":2851:3035   */\n      pop\n        /* \"#utility.yul\":2789:3035   */\n      pop\n      pop\n      pop\n      jump\t// out\n        /* \"#utility.yul\":3041:3143   */\n    tag_249:\n        /* \"#utility.yul\":3082:3088   */\n      0x00\n        /* \"#utility.yul\":3133:3135   */\n      0x1f\n        /* \"#utility.yul\":3129:3136   */\n      not\n        /* \"#utility.yul\":3124:3126   */\n      0x1f\n        /* \"#utility.yul\":3117:3122   */\n      dup4\n        /* \"#utility.yul\":3113:3127   */\n      add\n        /* \"#utility.yul\":3109:3137   */\n      and\n        /* \"#utility.yul\":3099:3137   */\n      swap1\n      pop\n        /* \"#utility.yul\":3041:3143   */\n      swap2\n      swap1\n      pop\n      jump\t// out\n        /* \"#utility.yul\":3149:3506   */\n    tag_250:\n        /* \"#utility.yul\":3227:3230   */\n      0x00\n        /* \"#utility.yul\":3255:3294   */\n      tag_343\n        /* \"#utility.yul\":3288:3293   */\n      dup3\n        /* \"#utility.yul\":3255:3294   */\n      tag_246\n      jump\t// in\n    tag_343:\n        /* \"#utility.yul\":3310:3371   */\n      tag_344\n        /* \"#utility.yul\":3364:3370   */\n      dup2\n        /* \"#utility.yul\":3359:3362   */\n      dup6\n        /* \"#utility.yul\":3310:3371   */\n      tag_247\n      jump\t// in\n    tag_344:\n        /* \"#utility.yul\":3303:3371   */\n      swap4\n      pop\n        /* \"#utility.yul\":3380:3445   */\n      tag_345\n        /* \"#utility.yul\":3438:3444   */\n      dup2\n        /* \"#utility.yul\":3433:3436   */\n      dup6\n        /* \"#utility.yul\":3426:3430   */\n      0x20\n        /* \"#utility.yul\":3419:3424   */\n      dup7\n        /* \"#utility.yul\":3415:3431   */\n      add\n        /* \"#utility.yul\":3380:3445   */\n      tag_248\n      jump\t// in\n    tag_345:\n        /* \"#utility.yul\":3470:3499   */\n      tag_346\n        /* \"#utility.yul\":3492:3498   */\n      dup2\n        /* \"#utility.yul\":3470:3499   */\n      tag_249\n      jump\t// in\n    tag_346:\n        /* \"#utility.yul\":3465:3468   */\n      dup5\n        /* \"#utility.yul\":3461:3500   */\n      add\n        /* \"#utility.yul\":3454:3500   */\n      swap2\n      pop\n        /* \"#utility.yul\":3231:3506   */\n      pop\n        /* \"#utility.yul\":3149:3506   */\n      swap3\n      swap2\n      pop\n      pop\n      jump\t// out\n        /* \"#utility.yul\":3512:3620   */\n    tag_251:\n        /* \"#utility.yul\":3589:3613   */\n      tag_348\n        /* \"#utility.yul\":3607:3612   */\n      dup2\n        /* \"#utility.yul\":3589:3613   */\n      tag_234\n      jump\t// in\n    tag_348:\n        /* \"#utility.yul\":3584:3587   */\n      dup3\n        /* \"#utility.yul\":3577:3614   */\n      mstore\n        /* \"#utility.yul\":3512:3620   */\n      pop\n      pop\n      jump\t// out\n        /* \"#utility.yul\":3682:4290   */\n    tag_252:\n        /* \"#utility.yul\":3791:3794   */\n      0x00\n        /* \"#utility.yul\":3827:3831   */\n      0x40\n        /* \"#utility.yul\":3822:3825   */\n      dup4\n        /* \"#utility.yul\":3818:3832   */\n      add\n        /* \"#utility.yul\":3921:3925   */\n      0x00\n        /* \"#utility.yul\":3914:3919   */\n      dup4\n        /* \"#utility.yul\":3910:3926   */\n      add\n        /* \"#utility.yul\":3904:3927   */\n      mload\n        /* \"#utility.yul\":3974:3977   */\n      dup5\n        /* \"#utility.yul\":3968:3972   */\n      dup3\n        /* \"#utility.yul\":3964:3978   */\n      sub\n        /* \"#utility.yul\":3957:3961   */\n      0x00\n        /* \"#utility.yul\":3952:3955   */\n      dup7\n        /* \"#utility.yul\":3948:3962   */\n      add\n        /* \"#utility.yul\":3941:3979   */\n      mstore\n        /* \"#utility.yul\":4000:4073   */\n      tag_350\n        /* \"#utility.yul\":4068:4072   */\n      dup3\n        /* \"#utility.yul\":4054:4066   */\n      dup3\n        /* \"#utility.yul\":4000:4073   */\n      tag_250\n      jump\t// in\n    tag_350:\n        /* \"#utility.yul\":3992:4073   */\n      swap2\n      pop\n        /* \"#utility.yul\":3842:4084   */\n      pop\n        /* \"#utility.yul\":4171:4175   */\n      0x20\n        /* \"#utility.yul\":4164:4169   */\n      dup4\n        /* \"#utility.yul\":4160:4176   */\n      add\n        /* \"#utility.yul\":4154:4177   */\n      mload\n        /* \"#utility.yul\":4190:4253   */\n      tag_351\n        /* \"#utility.yul\":4247:4251   */\n      0x20\n        /* \"#utility.yul\":4242:4245   */\n      dup7\n        /* \"#utility.yul\":4238:4252   */\n      add\n        /* \"#utility.yul\":4224:4236   */\n      dup3\n        /* \"#utility.yul\":4190:4253   */\n      tag_251\n      jump\t// in\n    tag_351:\n        /* \"#utility.yul\":4094:4263   */\n      pop\n        /* \"#utility.yul\":4280:4284   */\n      dup1\n        /* \"#utility.yul\":4273:4284   */\n      swap2\n      pop\n        /* \"#utility.yul\":3796:4290   */\n      pop\n        /* \"#utility.yul\":3682:4290   */\n      swap3\n      swap2\n      pop\n      pop\n      jump\t// out\n        /* \"#utility.yul\":4296:4552   */\n    tag_253:\n        /* \"#utility.yul\":4415:4425   */\n      0x00\n        /* \"#utility.yul\":4450:4546   */\n      tag_353\n        /* \"#utility.yul\":4542:4545   */\n      dup4\n        /* \"#utility.yul\":4534:4540   */\n      dup4\n        /* \"#utility.yul\":4450:4546   */\n      tag_252\n      jump\t// in\n    tag_353:\n        /* \"#utility.yul\":4436:4546   */\n      swap1\n      pop\n        /* \"#utility.yul\":4296:4552   */\n      swap3\n      swap2\n      pop\n      pop\n      jump\t// out\n        /* \"#utility.yul\":4558:4696   */\n    tag_254:\n        /* \"#utility.yul\":4653:4657   */\n      0x00\n        /* \"#utility.yul\":4685:4689   */\n      0x20\n        /* \"#utility.yul\":4680:4683   */\n      dup3\n        /* \"#utility.yul\":4676:4690   */\n      add\n        /* \"#utility.yul\":4668:4690   */\n      swap1\n      pop\n        /* \"#utility.yul\":4558:4696   */\n      swap2\n      swap1\n      pop\n      jump\t// out\n        /* \"#utility.yul\":4762:5853   */\n    tag_255:\n        /* \"#utility.yul\":4921:4924   */\n      0x00\n        /* \"#utility.yul\":4950:5029   */\n      tag_356\n        /* \"#utility.yul\":5023:5028   */\n      dup3\n        /* \"#utility.yul\":4950:5029   */\n      tag_243\n      jump\t// in\n    tag_356:\n        /* \"#utility.yul\":5045:5146   */\n      tag_357\n        /* \"#utility.yul\":5139:5145   */\n      dup2\n        /* \"#utility.yul\":5134:5137   */\n      dup6\n        /* \"#utility.yul\":5045:5146   */\n      tag_244\n      jump\t// in\n    tag_357:\n        /* \"#utility.yul\":5038:5146   */\n      swap4\n      pop\n        /* \"#utility.yul\":5172:5175   */\n      dup4\n        /* \"#utility.yul\":5217:5221   */\n      0x20\n        /* \"#utility.yul\":5209:5215   */\n      dup3\n        /* \"#utility.yul\":5205:5222   */\n      mul\n        /* \"#utility.yul\":5200:5203   */\n      dup6\n        /* \"#utility.yul\":5196:5223   */\n      add\n        /* \"#utility.yul\":5247:5328   */\n      tag_358\n        /* \"#utility.yul\":5322:5327   */\n      dup6\n        /* \"#utility.yul\":5247:5328   */\n      tag_245\n      jump\t// in\n    tag_358:\n        /* \"#utility.yul\":5351:5358   */\n      dup1\n        /* \"#utility.yul\":5382:5383   */\n      0x00\n        /* \"#utility.yul\":5367:5808   */\n    tag_359:\n        /* \"#utility.yul\":5392:5398   */\n      dup6\n        /* \"#utility.yul\":5389:5390   */\n      dup2\n        /* \"#utility.yul\":5386:5399   */\n      lt\n        /* \"#utility.yul\":5367:5808   */\n      iszero\n      tag_361\n      jumpi\n        /* \"#utility.yul\":5463:5472   */\n      dup5\n        /* \"#utility.yul\":5457:5461   */\n      dup5\n        /* \"#utility.yul\":5453:5473   */\n      sub\n        /* \"#utility.yul\":5448:5451   */\n      dup10\n        /* \"#utility.yul\":5441:5474   */\n      mstore\n        /* \"#utility.yul\":5514:5520   */\n      dup2\n        /* \"#utility.yul\":5508:5521   */\n      mload\n        /* \"#utility.yul\":5542:5656   */\n      tag_362\n        /* \"#utility.yul\":5651:5655   */\n      dup6\n        /* \"#utility.yul\":5636:5649   */\n      dup3\n        /* \"#utility.yul\":5542:5656   */\n      tag_253\n      jump\t// in\n    tag_362:\n        /* \"#utility.yul\":5534:5656   */\n      swap5\n      pop\n        /* \"#utility.yul\":5679:5764   */\n      tag_363\n        /* \"#utility.yul\":5757:5763   */\n      dup4\n        /* \"#utility.yul\":5679:5764   */\n      tag_254\n      jump\t// in\n    tag_363:\n        /* \"#utility.yul\":5669:5764   */\n      swap3\n      pop\n        /* \"#utility.yul\":5793:5797   */\n      0x20\n        /* \"#utility.yul\":5788:5791   */\n      dup11\n        /* \"#utility.yul\":5784:5798   */\n      add\n        /* \"#utility.yul\":5777:5798   */\n      swap10\n      pop\n        /* \"#utility.yul\":5427:5808   */\n      pop\n        /* \"#utility.yul\":5414:5415   */\n      0x01\n        /* \"#utility.yul\":5411:5412   */\n      dup2\n        /* \"#utility.yul\":5407:5416   */\n      add\n        /* \"#utility.yul\":5402:5416   */\n      swap1\n      pop\n        /* \"#utility.yul\":5367:5808   */\n      jump(tag_359)\n    tag_361:\n        /* \"#utility.yul\":5371:5385   */\n      pop\n        /* \"#utility.yul\":5824:5828   */\n      dup3\n        /* \"#utility.yul\":5817:5828   */\n      swap8\n      pop\n        /* \"#utility.yul\":5844:5847   */\n      dup8\n        /* \"#utility.yul\":5837:5847   */\n      swap6\n      pop\n        /* \"#utility.yul\":4926:5853   */\n      pop\n      pop\n      pop\n      pop\n      pop\n        /* \"#utility.yul\":4762:5853   */\n      swap3\n      swap2\n      pop\n      pop\n      jump\t// out\n        /* \"#utility.yul\":5913:6805   */\n    tag_256:\n        /* \"#utility.yul\":6030:6033   */\n      0x00\n        /* \"#utility.yul\":6066:6070   */\n      0x60\n        /* \"#utility.yul\":6061:6064   */\n      dup4\n        /* \"#utility.yul\":6057:6071   */\n      add\n        /* \"#utility.yul\":6155:6159   */\n      0x00\n        /* \"#utility.yul\":6148:6153   */\n      dup4\n        /* \"#utility.yul\":6144:6160   */\n      add\n        /* \"#utility.yul\":6138:6161   */\n      mload\n        /* \"#utility.yul\":6174:6253   */\n      tag_365\n        /* \"#utility.yul\":6247:6251   */\n      0x00\n        /* \"#utility.yul\":6242:6245   */\n      dup7\n        /* \"#utility.yul\":6238:6252   */\n      add\n        /* \"#utility.yul\":6224:6236   */\n      dup3\n        /* \"#utility.yul\":6174:6253   */\n      tag_240\n      jump\t// in\n    tag_365:\n        /* \"#utility.yul\":6081:6263   */\n      pop\n        /* \"#utility.yul\":6357:6361   */\n      0x20\n        /* \"#utility.yul\":6350:6355   */\n      dup4\n        /* \"#utility.yul\":6346:6362   */\n      add\n        /* \"#utility.yul\":6340:6363   */\n      mload\n        /* \"#utility.yul\":6376:6433   */\n      tag_366\n        /* \"#utility.yul\":6427:6431   */\n      0x20\n        /* \"#utility.yul\":6422:6425   */\n      dup7\n        /* \"#utility.yul\":6418:6432   */\n      add\n        /* \"#utility.yul\":6404:6416   */\n      dup3\n        /* \"#utility.yul\":6376:6433   */\n      tag_242\n      jump\t// in\n    tag_366:\n        /* \"#utility.yul\":6273:6443   */\n      pop\n        /* \"#utility.yul\":6535:6539   */\n      0x40\n        /* \"#utility.yul\":6528:6533   */\n      dup4\n        /* \"#utility.yul\":6524:6540   */\n      add\n        /* \"#utility.yul\":6518:6541   */\n      mload\n        /* \"#utility.yul\":6588:6591   */\n      dup5\n        /* \"#utility.yul\":6582:6586   */\n      dup3\n        /* \"#utility.yul\":6578:6592   */\n      sub\n        /* \"#utility.yul\":6571:6575   */\n      0x40\n        /* \"#utility.yul\":6566:6569   */\n      dup7\n        /* \"#utility.yul\":6562:6576   */\n      add\n        /* \"#utility.yul\":6555:6593   */\n      mstore\n        /* \"#utility.yul\":6614:6767   */\n      tag_367\n        /* \"#utility.yul\":6762:6766   */\n      dup3\n        /* \"#utility.yul\":6748:6760   */\n      dup3\n        /* \"#utility.yul\":6614:6767   */\n      tag_255\n      jump\t// in\n    tag_367:\n        /* \"#utility.yul\":6606:6767   */\n      swap2\n      pop\n        /* \"#utility.yul\":6453:6778   */\n      pop\n        /* \"#utility.yul\":6795:6799   */\n      dup1\n        /* \"#utility.yul\":6788:6799   */\n      swap2\n      pop\n        /* \"#utility.yul\":6035:6805   */\n      pop\n        /* \"#utility.yul\":5913:6805   */\n      swap3\n      swap2\n      pop\n      pop\n      jump\t// out\n        /* \"#utility.yul\":6811:7180   */\n    tag_33:\n        /* \"#utility.yul\":6952:6956   */\n      0x00\n        /* \"#utility.yul\":6990:6992   */\n      0x20\n        /* \"#utility.yul\":6979:6988   */\n      dup3\n        /* \"#utility.yul\":6975:6993   */\n      add\n        /* \"#utility.yul\":6967:6993   */\n      swap1\n      pop\n        /* \"#utility.yul\":7039:7048   */\n      dup2\n        /* \"#utility.yul\":7033:7037   */\n      dup2\n        /* \"#utility.yul\":7029:7049   */\n      sub\n        /* \"#utility.yul\":7025:7026   */\n      0x00\n        /* \"#utility.yul\":7014:7023   */\n      dup4\n        /* \"#utility.yul\":7010:7027   */\n      add\n        /* \"#utility.yul\":7003:7050   */\n      mstore\n        /* \"#utility.yul\":7067:7173   */\n      tag_369\n        /* \"#utility.yul\":7168:7172   */\n      dup2\n        /* \"#utility.yul\":7159:7165   */\n      dup5\n        /* \"#utility.yul\":7067:7173   */\n      tag_256\n      jump\t// in\n    tag_369:\n        /* \"#utility.yul\":7059:7173   */\n      swap1\n      pop\n        /* \"#utility.yul\":6811:7180   */\n      swap3\n      swap2\n      pop\n      pop\n      jump\t// out\n        /* \"#utility.yul\":7186:7312   */\n    tag_257:\n        /* \"#utility.yul\":7223:7230   */\n      0x00\n        /* \"#utility.yul\":7263:7305   */\n      0xffffffffffffffffffffffffffffffffffffffff\n        /* \"#utility.yul\":7256:7261   */\n      dup3\n        /* \"#utility.yul\":7252:7306   */\n      and\n        /* \"#utility.yul\":7241:7306   */\n      swap1\n      pop\n        /* \"#utility.yul\":7186:7312   */\n      swap2\n      swap1\n      pop\n      jump\t// out\n        /* \"#utility.yul\":7318:7414   */\n    tag_258:\n        /* \"#utility.yul\":7355:7362   */\n      0x00\n        /* \"#utility.yul\":7384:7408   */\n      tag_372\n        /* \"#utility.yul\":7402:7407   */\n      dup3\n        /* \"#utility.yul\":7384:7408   */\n      tag_257\n      jump\t// in\n    tag_372:\n        /* \"#utility.yul\":7373:7408   */\n      swap1\n      pop\n        /* \"#utility.yul\":7318:7414   */\n      swap2\n      swap1\n      pop\n      jump\t// out\n        /* \"#utility.yul\":7420:7538   */\n    tag_259:\n        /* \"#utility.yul\":7507:7531   */\n      tag_374\n        /* \"#utility.yul\":7525:7530   */\n      dup2\n        /* \"#utility.yul\":7507:7531   */\n      tag_258\n      jump\t// in\n    tag_374:\n        /* \"#utility.yul\":7502:7505   */\n      dup3\n        /* \"#utility.yul\":7495:7532   */\n      mstore\n        /* \"#utility.yul\":7420:7538   */\n      pop\n      pop\n      jump\t// out\n        /* \"#utility.yul\":7544:7766   */\n    tag_39:\n        /* \"#utility.yul\":7637:7641   */\n      0x00\n        /* \"#utility.yul\":7675:7677   */\n      0x20\n        /* \"#utility.yul\":7664:7673   */\n      dup3\n        /* \"#utility.yul\":7660:7678   */\n      add\n        /* \"#utility.yul\":7652:7678   */\n      swap1\n      pop\n        /* \"#utility.yul\":7688:7759   */\n      tag_376\n        /* \"#utility.yul\":7756:7757   */\n      0x00\n        /* \"#utility.yul\":7745:7754   */\n      dup4\n        /* \"#utility.yul\":7741:7758   */\n      add\n        /* \"#utility.yul\":7732:7738   */\n      dup5\n        /* \"#utility.yul\":7688:7759   */\n      tag_259\n      jump\t// in\n    tag_376:\n        /* \"#utility.yul\":7544:7766   */\n      swap3\n      swap2\n      pop\n      pop\n      jump\t// out\n        /* \"#utility.yul\":7828:8446   */\n    tag_260:\n        /* \"#utility.yul\":7947:7950   */\n      0x00\n        /* \"#utility.yul\":7983:7987   */\n      0x40\n        /* \"#utility.yul\":7978:7981   */\n      dup4\n        /* \"#utility.yul\":7974:7988   */\n      add\n        /* \"#utility.yul\":8077:8081   */\n      0x00\n        /* \"#utility.yul\":8070:8075   */\n      dup4\n        /* \"#utility.yul\":8066:8082   */\n      add\n        /* \"#utility.yul\":8060:8083   */\n      mload\n        /* \"#utility.yul\":8130:8133   */\n      dup5\n        /* \"#utility.yul\":8124:8128   */\n      dup3\n        /* \"#utility.yul\":8120:8134   */\n      sub\n        /* \"#utility.yul\":8113:8117   */\n      0x00\n        /* \"#utility.yul\":8108:8111   */\n      dup7\n        /* \"#utility.yul\":8104:8118   */\n      add\n        /* \"#utility.yul\":8097:8135   */\n      mstore\n        /* \"#utility.yul\":8156:8229   */\n      tag_378\n        /* \"#utility.yul\":8224:8228   */\n      dup3\n        /* \"#utility.yul\":8210:8222   */\n      dup3\n        /* \"#utility.yul\":8156:8229   */\n      tag_250\n      jump\t// in\n    tag_378:\n        /* \"#utility.yul\":8148:8229   */\n      swap2\n      pop\n        /* \"#utility.yul\":7998:8240   */\n      pop\n        /* \"#utility.yul\":8327:8331   */\n      0x20\n        /* \"#utility.yul\":8320:8325   */\n      dup4\n        /* \"#utility.yul\":8316:8332   */\n      add\n        /* \"#utility.yul\":8310:8333   */\n      mload\n        /* \"#utility.yul\":8346:8409   */\n      tag_379\n        /* \"#utility.yul\":8403:8407   */\n      0x20\n        /* \"#utility.yul\":8398:8401   */\n      dup7\n        /* \"#utility.yul\":8394:8408   */\n      add\n        /* \"#utility.yul\":8380:8392   */\n      dup3\n        /* \"#utility.yul\":8346:8409   */\n      tag_251\n      jump\t// in\n    tag_379:\n        /* \"#utility.yul\":8250:8419   */\n      pop\n        /* \"#utility.yul\":8436:8440   */\n      dup1\n        /* \"#utility.yul\":8429:8440   */\n      swap2\n      pop\n        /* \"#utility.yul\":7952:8446   */\n      pop\n        /* \"#utility.yul\":7828:8446   */\n      swap3\n      swap2\n      pop\n      pop\n      jump\t// out\n        /* \"#utility.yul\":8452:8825   */\n    tag_43:\n        /* \"#utility.yul\":8595:8599   */\n      0x00\n        /* \"#utility.yul\":8633:8635   */\n      0x20\n        /* \"#utility.yul\":8622:8631   */\n      dup3\n        /* \"#utility.yul\":8618:8636   */\n      add\n        /* \"#utility.yul\":8610:8636   */\n      swap1\n      pop\n        /* \"#utility.yul\":8682:8691   */\n      dup2\n        /* \"#utility.yul\":8676:8680   */\n      dup2\n        /* \"#utility.yul\":8672:8692   */\n      sub\n        /* \"#utility.yul\":8668:8669   */\n      0x00\n        /* \"#utility.yul\":8657:8666   */\n      dup4\n        /* \"#utility.yul\":8653:8670   */\n      add\n        /* \"#utility.yul\":8646:8693   */\n      mstore\n        /* \"#utility.yul\":8710:8818   */\n      tag_381\n        /* \"#utility.yul\":8813:8817   */\n      dup2\n        /* \"#utility.yul\":8804:8810   */\n      dup5\n        /* \"#utility.yul\":8710:8818   */\n      tag_260\n      jump\t// in\n    tag_381:\n        /* \"#utility.yul\":8702:8818   */\n      swap1\n      pop\n        /* \"#utility.yul\":8452:8825   */\n      swap3\n      swap2\n      pop\n      pop\n      jump\t// out\n        /* \"#utility.yul\":8831:8953   */\n    tag_261:\n        /* \"#utility.yul\":8904:8928   */\n      tag_383\n        /* \"#utility.yul\":8922:8927   */\n      dup2\n        /* \"#utility.yul\":8904:8928   */\n      tag_258\n      jump\t// in\n    tag_383:\n        /* \"#utility.yul\":8897:8902   */\n      dup2\n        /* \"#utility.yul\":8894:8929   */\n      eq\n        /* \"#utility.yul\":8884:8947   */\n      tag_384\n      jumpi\n        /* \"#utility.yul\":8943:8944   */\n      0x00\n        /* \"#utility.yul\":8940:8941   */\n      dup1\n        /* \"#utility.yul\":8933:8945   */\n      revert\n        /* \"#utility.yul\":8884:8947   */\n    tag_384:\n        /* \"#utility.yul\":8831:8953   */\n      pop\n      jump\t// out\n        /* \"#utility.yul\":8959:9098   */\n    tag_262:\n        /* \"#utility.yul\":9005:9010   */\n      0x00\n        /* \"#utility.yul\":9043:9049   */\n      dup2\n        /* \"#utility.yul\":9030:9050   */\n      calldataload\n        /* \"#utility.yul\":9021:9050   */\n      swap1\n      pop\n        /* \"#utility.yul\":9059:9092   */\n      tag_386\n        /* \"#utility.yul\":9086:9091   */\n      dup2\n        /* \"#utility.yul\":9059:9092   */\n      tag_261\n      jump\t// in\n    tag_386:\n        /* \"#utility.yul\":8959:9098   */\n      swap3\n      swap2\n      pop\n      pop\n      jump\t// out\n        /* \"#utility.yul\":9104:9433   */\n    tag_46:\n        /* \"#utility.yul\":9163:9169   */\n      0x00\n        /* \"#utility.yul\":9212:9214   */\n      0x20\n        /* \"#utility.yul\":9200:9209   */\n      dup3\n        /* \"#utility.yul\":9191:9198   */\n      dup5\n        /* \"#utility.yul\":9187:9210   */\n      sub\n        /* \"#utility.yul\":9183:9215   */\n      slt\n        /* \"#utility.yul\":9180:9299   */\n      iszero\n      tag_388\n      jumpi\n        /* \"#utility.yul\":9218:9297   */\n      tag_389\n      tag_232\n      jump\t// in\n    tag_389:\n        /* \"#utility.yul\":9180:9299   */\n    tag_388:\n        /* \"#utility.yul\":9338:9339   */\n      0x00\n        /* \"#utility.yul\":9363:9416   */\n      tag_390\n        /* \"#utility.yul\":9408:9415   */\n      dup5\n        /* \"#utility.yul\":9399:9405   */\n      dup3\n        /* \"#utility.yul\":9388:9397   */\n      dup6\n        /* \"#utility.yul\":9384:9406   */\n      add\n        /* \"#utility.yul\":9363:9416   */\n      tag_262\n      jump\t// in\n    tag_390:\n        /* \"#utility.yul\":9353:9416   */\n      swap2\n      pop\n        /* \"#utility.yul\":9309:9426   */\n      pop\n        /* \"#utility.yul\":9104:9433   */\n      swap3\n      swap2\n      pop\n      pop\n      jump\t// out\n        /* \"#utility.yul\":9439:9548   */\n    tag_263:\n        /* \"#utility.yul\":9520:9541   */\n      tag_392\n        /* \"#utility.yul\":9535:9540   */\n      dup2\n        /* \"#utility.yul\":9520:9541   */\n      tag_241\n      jump\t// in\n    tag_392:\n        /* \"#utility.yul\":9515:9518   */\n      dup3\n        /* \"#utility.yul\":9508:9542   */\n      mstore\n        /* \"#utility.yul\":9439:9548   */\n      pop\n      pop\n      jump\t// out\n        /* \"#utility.yul\":9554:9672   */\n    tag_264:\n        /* \"#utility.yul\":9641:9665   */\n      tag_394\n        /* \"#utility.yul\":9659:9664   */\n      dup2\n        /* \"#utility.yul\":9641:9665   */\n      tag_234\n      jump\t// in\n    tag_394:\n        /* \"#utility.yul\":9636:9639   */\n      dup3\n        /* \"#utility.yul\":9629:9666   */\n      mstore\n        /* \"#utility.yul\":9554:9672   */\n      pop\n      pop\n      jump\t// out\n        /* \"#utility.yul\":9678:10096   */\n    tag_49:\n        /* \"#utility.yul\":9815:9819   */\n      0x00\n        /* \"#utility.yul\":9853:9855   */\n      0x60\n        /* \"#utility.yul\":9842:9851   */\n      dup3\n        /* \"#utility.yul\":9838:9856   */\n      add\n        /* \"#utility.yul\":9830:9856   */\n      swap1\n      pop\n        /* \"#utility.yul\":9866:9931   */\n      tag_396\n        /* \"#utility.yul\":9928:9929   */\n      0x00\n        /* \"#utility.yul\":9917:9926   */\n      dup4\n        /* \"#utility.yul\":9913:9930   */\n      add\n        /* \"#utility.yul\":9904:9910   */\n      dup7\n        /* \"#utility.yul\":9866:9931   */\n      tag_263\n      jump\t// in\n    tag_396:\n        /* \"#utility.yul\":9941:10007   */\n      tag_397\n        /* \"#utility.yul\":10003:10005   */\n      0x20\n        /* \"#utility.yul\":9992:10001   */\n      dup4\n        /* \"#utility.yul\":9988:10006   */\n      add\n        /* \"#utility.yul\":9979:9985   */\n      dup6\n        /* \"#utility.yul\":9941:10007   */\n      tag_263\n      jump\t// in\n    tag_397:\n        /* \"#utility.yul\":10017:10089   */\n      tag_398\n        /* \"#utility.yul\":10085:10087   */\n      0x40\n        /* \"#utility.yul\":10074:10083   */\n      dup4\n        /* \"#utility.yul\":10070:10088   */\n      add\n        /* \"#utility.yul\":10061:10067   */\n      dup5\n        /* \"#utility.yul\":10017:10089   */\n      tag_264\n      jump\t// in\n    tag_398:\n        /* \"#utility.yul\":9678:10096   */\n      swap5\n      swap4\n      pop\n      pop\n      pop\n      pop\n      jump\t// out\n        /* \"#utility.yul\":10102:10219   */\n    tag_265:\n        /* \"#utility.yul\":10211:10212   */\n      0x00\n        /* \"#utility.yul\":10208:10209   */\n      dup1\n        /* \"#utility.yul\":10201:10213   */\n      revert\n        /* \"#utility.yul\":10225:10342   */\n    tag_266:\n        /* \"#utility.yul\":10334:10335   */\n      0x00\n        /* \"#utility.yul\":10331:10332   */\n      dup1\n        /* \"#utility.yul\":10324:10336   */\n      revert\n        /* \"#utility.yul\":10348:10465   */\n    tag_267:\n        /* \"#utility.yul\":10457:10458   */\n      0x00\n        /* \"#utility.yul\":10454:10455   */\n      dup1\n        /* \"#utility.yul\":10447:10459   */\n      revert\n        /* \"#utility.yul\":10485:11038   */\n    tag_268:\n        /* \"#utility.yul\":10543:10551   */\n      0x00\n        /* \"#utility.yul\":10553:10559   */\n      dup1\n        /* \"#utility.yul\":10603:10606   */\n      dup4\n        /* \"#utility.yul\":10596:10600   */\n      0x1f\n        /* \"#utility.yul\":10588:10594   */\n      dup5\n        /* \"#utility.yul\":10584:10601   */\n      add\n        /* \"#utility.yul\":10580:10607   */\n      slt\n        /* \"#utility.yul\":10570:10692   */\n      tag_403\n      jumpi\n        /* \"#utility.yul\":10611:10690   */\n      tag_404\n      tag_265\n      jump\t// in\n    tag_404:\n        /* \"#utility.yul\":10570:10692   */\n    tag_403:\n        /* \"#utility.yul\":10724:10730   */\n      dup3\n        /* \"#utility.yul\":10711:10731   */\n      calldataload\n        /* \"#utility.yul\":10701:10731   */\n      swap1\n      pop\n        /* \"#utility.yul\":10754:10772   */\n      0xffffffffffffffff\n        /* \"#utility.yul\":10746:10752   */\n      dup2\n        /* \"#utility.yul\":10743:10773   */\n      gt\n        /* \"#utility.yul\":10740:10857   */\n      iszero\n      tag_405\n      jumpi\n        /* \"#utility.yul\":10776:10855   */\n      tag_406\n      tag_266\n      jump\t// in\n    tag_406:\n        /* \"#utility.yul\":10740:10857   */\n    tag_405:\n        /* \"#utility.yul\":10890:10894   */\n      0x20\n        /* \"#utility.yul\":10882:10888   */\n      dup4\n        /* \"#utility.yul\":10878:10895   */\n      add\n        /* \"#utility.yul\":10866:10895   */\n      swap2\n      pop\n        /* \"#utility.yul\":10944:10947   */\n      dup4\n        /* \"#utility.yul\":10936:10940   */\n      0x01\n        /* \"#utility.yul\":10928:10934   */\n      dup3\n        /* \"#utility.yul\":10924:10941   */\n      mul\n        /* \"#utility.yul\":10914:10922   */\n      dup4\n        /* \"#utility.yul\":10910:10942   */\n      add\n        /* \"#utility.yul\":10907:10948   */\n      gt\n        /* \"#utility.yul\":10904:11032   */\n      iszero\n      tag_407\n      jumpi\n        /* \"#utility.yul\":10951:11030   */\n      tag_408\n      tag_267\n      jump\t// in\n    tag_408:\n        /* \"#utility.yul\":10904:11032   */\n    tag_407:\n        /* \"#utility.yul\":10485:11038   */\n      swap3\n      pop\n      swap3\n      swap1\n      pop\n      jump\t// out\n        /* \"#utility.yul\":11044:11573   */\n    tag_52:\n        /* \"#utility.yul\":11115:11121   */\n      0x00\n        /* \"#utility.yul\":11123:11129   */\n      dup1\n        /* \"#utility.yul\":11172:11174   */\n      0x20\n        /* \"#utility.yul\":11160:11169   */\n      dup4\n        /* \"#utility.yul\":11151:11158   */\n      dup6\n        /* \"#utility.yul\":11147:11170   */\n      sub\n        /* \"#utility.yul\":11143:11175   */\n      slt\n        /* \"#utility.yul\":11140:11259   */\n      iszero\n      tag_410\n      jumpi\n        /* \"#utility.yul\":11178:11257   */\n      tag_411\n      tag_232\n      jump\t// in\n    tag_411:\n        /* \"#utility.yul\":11140:11259   */\n    tag_410:\n        /* \"#utility.yul\":11326:11327   */\n      0x00\n        /* \"#utility.yul\":11315:11324   */\n      dup4\n        /* \"#utility.yul\":11311:11328   */\n      add\n        /* \"#utility.yul\":11298:11329   */\n      calldataload\n        /* \"#utility.yul\":11356:11374   */\n      0xffffffffffffffff\n        /* \"#utility.yul\":11348:11354   */\n      dup2\n        /* \"#utility.yul\":11345:11375   */\n      gt\n        /* \"#utility.yul\":11342:11459   */\n      iszero\n      tag_412\n      jumpi\n        /* \"#utility.yul\":11378:11457   */\n      tag_413\n      tag_233\n      jump\t// in\n    tag_413:\n        /* \"#utility.yul\":11342:11459   */\n    tag_412:\n        /* \"#utility.yul\":11491:11556   */\n      tag_414\n        /* \"#utility.yul\":11548:11555   */\n      dup6\n        /* \"#utility.yul\":11539:11545   */\n      dup3\n        /* \"#utility.yul\":11528:11537   */\n      dup7\n        /* \"#utility.yul\":11524:11546   */\n      add\n        /* \"#utility.yul\":11491:11556   */\n      tag_268\n      jump\t// in\n    tag_414:\n        /* \"#utility.yul\":11473:11556   */\n      swap3\n      pop\n      swap3\n      pop\n        /* \"#utility.yul\":11269:11566   */\n      pop\n        /* \"#utility.yul\":11044:11573   */\n      swap3\n      pop\n      swap3\n      swap1\n      pop\n      jump\t// out\n        /* \"#utility.yul\":11579:11695   */\n    tag_269:\n        /* \"#utility.yul\":11649:11670   */\n      tag_416\n        /* \"#utility.yul\":11664:11669   */\n      dup2\n        /* \"#utility.yul\":11649:11670   */\n      tag_241\n      jump\t// in\n    tag_416:\n        /* \"#utility.yul\":11642:11647   */\n      dup2\n        /* \"#utility.yul\":11639:11671   */\n      eq\n        /* \"#utility.yul\":11629:11689   */\n      tag_417\n      jumpi\n        /* \"#utility.yul\":11685:11686   */\n      0x00\n        /* \"#utility.yul\":11682:11683   */\n      dup1\n        /* \"#utility.yul\":11675:11687   */\n      revert\n        /* \"#utility.yul\":11629:11689   */\n    tag_417:\n        /* \"#utility.yul\":11579:11695   */\n      pop\n      jump\t// out\n        /* \"#utility.yul\":11701:11834   */\n    tag_270:\n        /* \"#utility.yul\":11744:11749   */\n      0x00\n        /* \"#utility.yul\":11782:11788   */\n      dup2\n        /* \"#utility.yul\":11769:11789   */\n      calldataload\n        /* \"#utility.yul\":11760:11789   */\n      swap1\n      pop\n        /* \"#utility.yul\":11798:11828   */\n      tag_419\n        /* \"#utility.yul\":11822:11827   */\n      dup2\n        /* \"#utility.yul\":11798:11828   */\n      tag_269\n      jump\t// in\n    tag_419:\n        /* \"#utility.yul\":11701:11834   */\n      swap3\n      swap2\n      pop\n      pop\n      jump\t// out\n        /* \"#utility.yul\":11840:12163   */\n    tag_58:\n        /* \"#utility.yul\":11896:11902   */\n      0x00\n        /* \"#utility.yul\":11945:11947   */\n      0x20\n        /* \"#utility.yul\":11933:11942   */\n      dup3\n        /* \"#utility.yul\":11924:11931   */\n      dup5\n        /* \"#utility.yul\":11920:11943   */\n      sub\n        /* \"#utility.yul\":11916:11948   */\n      slt\n        /* \"#utility.yul\":11913:12032   */\n      iszero\n      tag_421\n      jumpi\n        /* \"#utility.yul\":11951:12030   */\n      tag_422\n      tag_232\n      jump\t// in\n    tag_422:\n        /* \"#utility.yul\":11913:12032   */\n    tag_421:\n        /* \"#utility.yul\":12071:12072   */\n      0x00\n        /* \"#utility.yul\":12096:12146   */\n      tag_423\n        /* \"#utility.yul\":12138:12145   */\n      dup5\n        /* \"#utility.yul\":12129:12135   */\n      dup3\n        /* \"#utility.yul\":12118:12127   */\n      dup6\n        /* \"#utility.yul\":12114:12136   */\n      add\n        /* \"#utility.yul\":12096:12146   */\n      tag_270\n      jump\t// in\n    tag_423:\n        /* \"#utility.yul\":12086:12146   */\n      swap2\n      pop\n        /* \"#utility.yul\":12042:12156   */\n      pop\n        /* \"#utility.yul\":11840:12163   */\n      swap3\n      swap2\n      pop\n      pop\n      jump\t// out\n        /* \"#utility.yul\":12169:12338   */\n    tag_271:\n        /* \"#utility.yul\":12253:12264   */\n      0x00\n        /* \"#utility.yul\":12287:12293   */\n      dup3\n        /* \"#utility.yul\":12282:12285   */\n      dup3\n        /* \"#utility.yul\":12275:12294   */\n      mstore\n        /* \"#utility.yul\":12327:12331   */\n      0x20\n        /* \"#utility.yul\":12322:12325   */\n      dup3\n        /* \"#utility.yul\":12318:12332   */\n      add\n        /* \"#utility.yul\":12303:12332   */\n      swap1\n      pop\n        /* \"#utility.yul\":12169:12338   */\n      swap3\n      swap2\n      pop\n      pop\n      jump\t// out\n        /* \"#utility.yul\":12344:12512   */\n    tag_272:\n        /* \"#utility.yul\":12484:12504   */\n      0x6973206e6f742077686974656c69737465640000000000000000000000000000\n        /* \"#utility.yul\":12480:12481   */\n      0x00\n        /* \"#utility.yul\":12472:12478   */\n      dup3\n        /* \"#utility.yul\":12468:12482   */\n      add\n        /* \"#utility.yul\":12461:12505   */\n      mstore\n        /* \"#utility.yul\":12344:12512   */\n      pop\n      jump\t// out\n        /* \"#utility.yul\":12518:12884   */\n    tag_273:\n        /* \"#utility.yul\":12660:12663   */\n      0x00\n        /* \"#utility.yul\":12681:12748   */\n      tag_427\n        /* \"#utility.yul\":12745:12747   */\n      0x12\n        /* \"#utility.yul\":12740:12743   */\n      dup4\n        /* \"#utility.yul\":12681:12748   */\n      tag_271\n      jump\t// in\n    tag_427:\n        /* \"#utility.yul\":12674:12748   */\n      swap2\n      pop\n        /* \"#utility.yul\":12757:12850   */\n      tag_428\n        /* \"#utility.yul\":12846:12849   */\n      dup3\n        /* \"#utility.yul\":12757:12850   */\n      tag_272\n      jump\t// in\n    tag_428:\n        /* \"#utility.yul\":12875:12877   */\n      0x20\n        /* \"#utility.yul\":12870:12873   */\n      dup3\n        /* \"#utility.yul\":12866:12878   */\n      add\n        /* \"#utility.yul\":12859:12878   */\n      swap1\n      pop\n        /* \"#utility.yul\":12518:12884   */\n      swap2\n      swap1\n      pop\n      jump\t// out\n        /* \"#utility.yul\":12890:13309   */\n    tag_69:\n        /* \"#utility.yul\":13056:13060   */\n      0x00\n        /* \"#utility.yul\":13094:13096   */\n      0x20\n        /* \"#utility.yul\":13083:13092   */\n      dup3\n        /* \"#utility.yul\":13079:13097   */\n      add\n        /* \"#utility.yul\":13071:13097   */\n      swap1\n      pop\n        /* \"#utility.yul\":13143:13152   */\n      dup2\n        /* \"#utility.yul\":13137:13141   */\n      dup2\n        /* \"#utility.yul\":13133:13153   */\n      sub\n        /* \"#utility.yul\":13129:13130   */\n      0x00\n        /* \"#utility.yul\":13118:13127   */\n      dup4\n        /* \"#utility.yul\":13114:13131   */\n      add\n        /* \"#utility.yul\":13107:13154   */\n      mstore\n        /* \"#utility.yul\":13171:13302   */\n      tag_430\n        /* \"#utility.yul\":13297:13301   */\n      dup2\n        /* \"#utility.yul\":13171:13302   */\n      tag_273\n      jump\t// in\n    tag_430:\n        /* \"#utility.yul\":13163:13302   */\n      swap1\n      pop\n        /* \"#utility.yul\":12890:13309   */\n      swap2\n      swap1\n      pop\n      jump\t// out\n        /* \"#utility.yul\":13315:13495   */\n    tag_80:\n        /* \"#utility.yul\":13363:13440   */\n      0x4e487b7100000000000000000000000000000000000000000000000000000000\n        /* \"#utility.yul\":13360:13361   */\n      0x00\n        /* \"#utility.yul\":13353:13441   */\n      mstore\n        /* \"#utility.yul\":13460:13464   */\n      0x32\n        /* \"#utility.yul\":13457:13458   */\n      0x04\n        /* \"#utility.yul\":13450:13465   */\n      mstore\n        /* \"#utility.yul\":13484:13488   */\n      0x24\n        /* \"#utility.yul\":13481:13482   */\n      0x00\n        /* \"#utility.yul\":13474:13489   */\n      revert\n        /* \"#utility.yul\":13501:13681   */\n    tag_274:\n        /* \"#utility.yul\":13549:13626   */\n      0x4e487b7100000000000000000000000000000000000000000000000000000000\n        /* \"#utility.yul\":13546:13547   */\n      0x00\n        /* \"#utility.yul\":13539:13627   */\n      mstore\n        /* \"#utility.yul\":13646:13650   */\n      0x11\n        /* \"#utility.yul\":13643:13644   */\n      0x04\n        /* \"#utility.yul\":13636:13651   */\n      mstore\n        /* \"#utility.yul\":13670:13674   */\n      0x24\n        /* \"#utility.yul\":13667:13668   */\n      0x00\n        /* \"#utility.yul\":13660:13675   */\n      revert\n        /* \"#utility.yul\":13687:13878   */\n    tag_83:\n        /* \"#utility.yul\":13727:13730   */\n      0x00\n        /* \"#utility.yul\":13746:13766   */\n      tag_434\n        /* \"#utility.yul\":13764:13765   */\n      dup3\n        /* \"#utility.yul\":13746:13766   */\n      tag_234\n      jump\t// in\n    tag_434:\n        /* \"#utility.yul\":13741:13766   */\n      swap2\n      pop\n        /* \"#utility.yul\":13780:13800   */\n      tag_435\n        /* \"#utility.yul\":13798:13799   */\n      dup4\n        /* \"#utility.yul\":13780:13800   */\n      tag_234\n      jump\t// in\n    tag_435:\n        /* \"#utility.yul\":13775:13800   */\n      swap3\n      pop\n        /* \"#utility.yul\":13823:13824   */\n      dup3\n        /* \"#utility.yul\":13820:13821   */\n      dup3\n        /* \"#utility.yul\":13816:13825   */\n      add\n        /* \"#utility.yul\":13809:13825   */\n      swap1\n      pop\n        /* \"#utility.yul\":13844:13847   */\n      dup1\n        /* \"#utility.yul\":13841:13842   */\n      dup3\n        /* \"#utility.yul\":13838:13848   */\n      gt\n        /* \"#utility.yul\":13835:13871   */\n      iszero\n      tag_436\n      jumpi\n        /* \"#utility.yul\":13851:13869   */\n      tag_437\n      tag_274\n      jump\t// in\n    tag_437:\n        /* \"#utility.yul\":13835:13871   */\n    tag_436:\n        /* \"#utility.yul\":13687:13878   */\n      swap3\n      swap2\n      pop\n      pop\n      jump\t// out\n        /* \"#utility.yul\":13884:14064   */\n    tag_275:\n        /* \"#utility.yul\":13932:14009   */\n      0x4e487b7100000000000000000000000000000000000000000000000000000000\n        /* \"#utility.yul\":13929:13930   */\n      0x00\n        /* \"#utility.yul\":13922:14010   */\n      mstore\n        /* \"#utility.yul\":14029:14033   */\n      0x22\n        /* \"#utility.yul\":14026:14027   */\n      0x04\n        /* \"#utility.yul\":14019:14034   */\n      mstore\n        /* \"#utility.yul\":14053:14057   */\n      0x24\n        /* \"#utility.yul\":14050:14051   */\n      0x00\n        /* \"#utility.yul\":14043:14058   */\n      revert\n        /* \"#utility.yul\":14070:14390   */\n    tag_142:\n        /* \"#utility.yul\":14114:14120   */\n      0x00\n        /* \"#utility.yul\":14151:14152   */\n      0x02\n        /* \"#utility.yul\":14145:14149   */\n      dup3\n        /* \"#utility.yul\":14141:14153   */\n      div\n        /* \"#utility.yul\":14131:14153   */\n      swap1\n      pop\n        /* \"#utility.yul\":14198:14199   */\n      0x01\n        /* \"#utility.yul\":14192:14196   */\n      dup3\n        /* \"#utility.yul\":14188:14200   */\n      and\n        /* \"#utility.yul\":14219:14237   */\n      dup1\n        /* \"#utility.yul\":14209:14290   */\n      tag_440\n      jumpi\n        /* \"#utility.yul\":14275:14279   */\n      0x7f\n        /* \"#utility.yul\":14267:14273   */\n      dup3\n        /* \"#utility.yul\":14263:14280   */\n      and\n        /* \"#utility.yul\":14253:14280   */\n      swap2\n      pop\n        /* \"#utility.yul\":14209:14290   */\n    tag_440:\n        /* \"#utility.yul\":14337:14339   */\n      0x20\n        /* \"#utility.yul\":14329:14335   */\n      dup3\n        /* \"#utility.yul\":14326:14340   */\n      lt\n        /* \"#utility.yul\":14306:14324   */\n      dup2\n        /* \"#utility.yul\":14303:14341   */\n      sub\n        /* \"#utility.yul\":14300:14384   */\n      tag_441\n      jumpi\n        /* \"#utility.yul\":14356:14374   */\n      tag_442\n      tag_275\n      jump\t// in\n    tag_442:\n        /* \"#utility.yul\":14300:14384   */\n    tag_441:\n        /* \"#utility.yul\":14121:14390   */\n      pop\n        /* \"#utility.yul\":14070:14390   */\n      swap2\n      swap1\n      pop\n      jump\t// out\n        /* \"#utility.yul\":14396:14545   */\n    tag_276:\n        /* \"#utility.yul\":14445:14451   */\n      0x00\n        /* \"#utility.yul\":14479:14484   */\n      dup2\n        /* \"#utility.yul\":14473:14485   */\n      sload\n        /* \"#utility.yul\":14463:14485   */\n      swap1\n      pop\n        /* \"#utility.yul\":14505:14538   */\n      tag_444\n        /* \"#utility.yul\":14531:14537   */\n      dup2\n        /* \"#utility.yul\":14505:14538   */\n      tag_142\n      jump\t// in\n    tag_444:\n        /* \"#utility.yul\":14495:14538   */\n      swap1\n      pop\n        /* \"#utility.yul\":14396:14545   */\n      swap2\n      swap1\n      pop\n      jump\t// out\n        /* \"#utility.yul\":14551:14731   */\n    tag_277:\n        /* \"#utility.yul\":14599:14676   */\n      0x4e487b7100000000000000000000000000000000000000000000000000000000\n        /* \"#utility.yul\":14596:14597   */\n      0x00\n        /* \"#utility.yul\":14589:14677   */\n      mstore\n        /* \"#utility.yul\":14696:14700   */\n      0x41\n        /* \"#utility.yul\":14693:14694   */\n      0x04\n        /* \"#utility.yul\":14686:14701   */\n      mstore\n        /* \"#utility.yul\":14720:14724   */\n      0x24\n        /* \"#utility.yul\":14717:14718   */\n      0x00\n        /* \"#utility.yul\":14710:14725   */\n      revert\n        /* \"#utility.yul\":14737:14878   */\n    tag_278:\n        /* \"#utility.yul\":14786:14790   */\n      0x00\n        /* \"#utility.yul\":14809:14812   */\n      dup2\n        /* \"#utility.yul\":14801:14812   */\n      swap1\n      pop\n        /* \"#utility.yul\":14832:14835   */\n      dup2\n        /* \"#utility.yul\":14829:14830   */\n      0x00\n        /* \"#utility.yul\":14822:14836   */\n      mstore\n        /* \"#utility.yul\":14866:14870   */\n      0x20\n        /* \"#utility.yul\":14863:14864   */\n      0x00\n        /* \"#utility.yul\":14853:14871   */\n      keccak256\n        /* \"#utility.yul\":14845:14871   */\n      swap1\n      pop\n        /* \"#utility.yul\":14737:14878   */\n      swap2\n      swap1\n      pop\n      jump\t// out\n        /* \"#utility.yul\":14884:14977   */\n    tag_279:\n        /* \"#utility.yul\":14921:14927   */\n      0x00\n        /* \"#utility.yul\":14968:14970   */\n      0x20\n        /* \"#utility.yul\":14963:14965   */\n      0x1f\n        /* \"#utility.yul\":14956:14961   */\n      dup4\n        /* \"#utility.yul\":14952:14966   */\n      add\n        /* \"#utility.yul\":14948:14971   */\n      div\n        /* \"#utility.yul\":14938:14971   */\n      swap1\n      pop\n        /* \"#utility.yul\":14884:14977   */\n      swap2\n      swap1\n      pop\n      jump\t// out\n        /* \"#utility.yul\":14983:15090   */\n    tag_280:\n        /* \"#utility.yul\":15027:15035   */\n      0x00\n        /* \"#utility.yul\":15077:15082   */\n      dup3\n        /* \"#utility.yul\":15071:15075   */\n      dup3\n        /* \"#utility.yul\":15067:15083   */\n      shl\n        /* \"#utility.yul\":15046:15083   */\n      swap1\n      pop\n        /* \"#utility.yul\":14983:15090   */\n      swap3\n      swap2\n      pop\n      pop\n      jump\t// out\n        /* \"#utility.yul\":15096:15489   */\n    tag_281:\n        /* \"#utility.yul\":15165:15171   */\n      0x00\n        /* \"#utility.yul\":15215:15216   */\n      0x08\n        /* \"#utility.yul\":15203:15213   */\n      dup4\n        /* \"#utility.yul\":15199:15217   */\n      mul\n        /* \"#utility.yul\":15238:15335   */\n      tag_450\n        /* \"#utility.yul\":15268:15334   */\n      0xffffffffffffffffffffffffffffffffffffffffffffffffffffffffffffffff\n        /* \"#utility.yul\":15257:15266   */\n      dup3\n        /* \"#utility.yul\":15238:15335   */\n      tag_280\n      jump\t// in\n    tag_450:\n        /* \"#utility.yul\":15356:15395   */\n      tag_451\n        /* \"#utility.yul\":15386:15394   */\n      dup7\n        /* \"#utility.yul\":15375:15384   */\n      dup4\n        /* \"#utility.yul\":15356:15395   */\n      tag_280\n      jump\t// in\n    tag_451:\n        /* \"#utility.yul\":15344:15395   */\n      swap6\n      pop\n        /* \"#utility.yul\":15428:15432   */\n      dup1\n        /* \"#utility.yul\":15424:15433   */\n      not\n        /* \"#utility.yul\":15417:15422   */\n      dup5\n        /* \"#utility.yul\":15413:15434   */\n      and\n        /* \"#utility.yul\":15404:15434   */\n      swap4\n      pop\n        /* \"#utility.yul\":15477:15481   */\n      dup1\n        /* \"#utility.yul\":15467:15475   */\n      dup7\n        /* \"#utility.yul\":15463:15482   */\n      and\n        /* \"#utility.yul\":15456:15461   */\n      dup5\n        /* \"#utility.yul\":15453:15483   */\n      or\n        /* \"#utility.yul\":15443:15483   */\n      swap3\n      pop\n        /* \"#utility.yul\":15172:15489   */\n      pop\n      pop\n        /* \"#utility.yul\":15096:15489   */\n      swap4\n      swap3\n      pop\n      pop\n      pop\n      jump\t// out\n        /* \"#utility.yul\":15495:15555   */\n    tag_282:\n        /* \"#utility.yul\":15523:15526   */\n      0x00\n        /* \"#utility.yul\":15544:15549   */\n      dup2\n        /* \"#utility.yul\":15537:15549   */\n      swap1\n      pop\n        /* \"#utility.yul\":15495:15555   */\n      swap2\n      swap1\n      pop\n      jump\t// out\n        /* \"#utility.yul\":15561:15703   */\n    tag_283:\n        /* \"#utility.yul\":15611:15620   */\n      0x00\n        /* \"#utility.yul\":15644:15697   */\n      tag_454\n        /* \"#utility.yul\":15662:15696   */\n      tag_455\n        /* \"#utility.yul\":15671:15695   */\n      tag_456\n        /* \"#utility.yul\":15689:15694   */\n      dup5\n        /* \"#utility.yul\":15671:15695   */\n      tag_234\n      jump\t// in\n    tag_456:\n        /* \"#utility.yul\":15662:15696   */\n      tag_282\n      jump\t// in\n    tag_455:\n        /* \"#utility.yul\":15644:15697   */\n      tag_234\n      jump\t// in\n    tag_454:\n        /* \"#utility.yul\":15631:15697   */\n      swap1\n      pop\n        /* \"#utility.yul\":15561:15703   */\n      swap2\n      swap1\n      pop\n      jump\t// out\n        /* \"#utility.yul\":15709:15784   */\n    tag_284:\n        /* \"#utility.yul\":15752:15755   */\n      0x00\n        /* \"#utility.yul\":15773:15778   */\n      dup2\n        /* \"#utility.yul\":15766:15778   */\n      swap1\n      pop\n        /* \"#utility.yul\":15709:15784   */\n      swap2\n      swap1\n      pop\n      jump\t// out\n        /* \"#utility.yul\":15790:16059   */\n    tag_285:\n        /* \"#utility.yul\":15900:15939   */\n      tag_459\n        /* \"#utility.yul\":15931:15938   */\n      dup4\n        /* \"#utility.yul\":15900:15939   */\n      tag_283\n      jump\t// in\n    tag_459:\n        /* \"#utility.yul\":15961:16052   */\n      tag_460\n        /* \"#utility.yul\":16010:16051   */\n      tag_461\n        /* \"#utility.yul\":16034:16050   */\n      dup3\n        /* \"#utility.yul\":16010:16051   */\n      tag_284\n      jump\t// in\n    tag_461:\n        /* \"#utility.yul\":16002:16008   */\n      dup5\n        /* \"#utility.yul\":15995:15999   */\n      dup5\n        /* \"#utility.yul\":15989:16000   */\n      sload\n        /* \"#utility.yul\":15961:16052   */\n      tag_281\n      jump\t// in\n    tag_460:\n        /* \"#utility.yul\":15955:15959   */\n      dup3\n        /* \"#utility.yul\":15948:16053   */\n      sstore\n        /* \"#utility.yul\":15866:16059   */\n      pop\n        /* \"#utility.yul\":15790:16059   */\n      pop\n      pop\n      pop\n      jump\t// out\n        /* \"#utility.yul\":16065:16138   */\n    tag_286:\n        /* \"#utility.yul\":16110:16113   */\n      0x00\n        /* \"#utility.yul\":16065:16138   */\n      swap1\n      jump\t// out\n        /* \"#utility.yul\":16144:16333   */\n    tag_287:\n        /* \"#utility.yul\":16221:16253   */\n      tag_464\n      tag_286\n      jump\t// in\n    tag_464:\n        /* \"#utility.yul\":16262:16327   */\n      tag_465\n        /* \"#utility.yul\":16320:16326   */\n      dup2\n        /* \"#utility.yul\":16312:16318   */\n      dup5\n        /* \"#utility.yul\":16306:16310   */\n      dup5\n        /* \"#utility.yul\":16262:16327   */\n      tag_285\n      jump\t// in\n    tag_465:\n        /* \"#utility.yul\":16197:16333   */\n      pop\n        /* \"#utility.yul\":16144:16333   */\n      pop\n      pop\n      jump\t// out\n        /* \"#utility.yul\":16339:16525   */\n    tag_288:\n        /* \"#utility.yul\":16399:16519   */\n    tag_467:\n        /* \"#utility.yul\":16416:16419   */\n      dup2\n        /* \"#utility.yul\":16409:16414   */\n      dup2\n        /* \"#utility.yul\":16406:16420   */\n      lt\n        /* \"#utility.yul\":16399:16519   */\n      iszero\n      tag_469\n      jumpi\n        /* \"#utility.yul\":16470:16509   */\n      tag_470\n        /* \"#utility.yul\":16507:16508   */\n      0x00\n        /* \"#utility.yul\":16500:16505   */\n      dup3\n        /* \"#utility.yul\":16470:16509   */\n      tag_287\n      jump\t// in\n    tag_470:\n        /* \"#utility.yul\":16443:16444   */\n      0x01\n        /* \"#utility.yul\":16436:16441   */\n      dup2\n        /* \"#utility.yul\":16432:16445   */\n      add\n        /* \"#utility.yul\":16423:16445   */\n      swap1\n      pop\n        /* \"#utility.yul\":16399:16519   */\n      jump(tag_467)\n    tag_469:\n        /* \"#utility.yul\":16339:16525   */\n      pop\n      pop\n      jump\t// out\n        /* \"#utility.yul\":16531:17074   */\n    tag_289:\n        /* \"#utility.yul\":16632:16634   */\n      0x1f\n        /* \"#utility.yul\":16627:16630   */\n      dup3\n        /* \"#utility.yul\":16624:16635   */\n      gt\n        /* \"#utility.yul\":16621:17067   */\n      iszero\n      tag_472\n      jumpi\n        /* \"#utility.yul\":16666:16704   */\n      tag_473\n        /* \"#utility.yul\":16698:16703   */\n      dup2\n        /* \"#utility.yul\":16666:16704   */\n      tag_278\n      jump\t// in\n    tag_473:\n        /* \"#utility.yul\":16750:16779   */\n      tag_474\n        /* \"#utility.yul\":16768:16778   */\n      dup5\n        /* \"#utility.yul\":16750:16779   */\n      tag_279\n      jump\t// in\n    tag_474:\n        /* \"#utility.yul\":16740:16748   */\n      dup2\n        /* \"#utility.yul\":16736:16780   */\n      add\n        /* \"#utility.yul\":16933:16935   */\n      0x20\n        /* \"#utility.yul\":16921:16931   */\n      dup6\n        /* \"#utility.yul\":16918:16936   */\n      lt\n        /* \"#utility.yul\":16915:16964   */\n      iszero\n      tag_475\n      jumpi\n        /* \"#utility.yul\":16954:16962   */\n      dup2\n        /* \"#utility.yul\":16939:16962   */\n      swap1\n      pop\n        /* \"#utility.yul\":16915:16964   */\n    tag_475:\n        /* \"#utility.yul\":16977:17057   */\n      tag_476\n        /* \"#utility.yul\":17033:17055   */\n      tag_477\n        /* \"#utility.yul\":17051:17054   */\n      dup6\n        /* \"#utility.yul\":17033:17055   */\n      tag_279\n      jump\t// in\n    tag_477:\n        /* \"#utility.yul\":17023:17031   */\n      dup4\n        /* \"#utility.yul\":17019:17056   */\n      add\n        /* \"#utility.yul\":17006:17017   */\n      dup3\n        /* \"#utility.yul\":16977:17057   */\n      tag_288\n      jump\t// in\n    tag_476:\n        /* \"#utility.yul\":16636:17067   */\n      pop\n      pop\n        /* \"#utility.yul\":16621:17067   */\n    tag_472:\n        /* \"#utility.yul\":16531:17074   */\n      pop\n      pop\n      pop\n      jump\t// out\n        /* \"#utility.yul\":17080:17197   */\n    tag_290:\n        /* \"#utility.yul\":17134:17142   */\n      0x00\n        /* \"#utility.yul\":17184:17189   */\n      dup3\n        /* \"#utility.yul\":17178:17182   */\n      dup3\n        /* \"#utility.yul\":17174:17190   */\n      shr\n        /* \"#utility.yul\":17153:17190   */\n      swap1\n      pop\n        /* \"#utility.yul\":17080:17197   */\n      swap3\n      swap2\n      pop\n      pop\n      jump\t// out\n        /* \"#utility.yul\":17203:17372   */\n    tag_291:\n        /* \"#utility.yul\":17247:17253   */\n      0x00\n        /* \"#utility.yul\":17280:17331   */\n      tag_480\n        /* \"#utility.yul\":17328:17329   */\n      0x00\n        /* \"#utility.yul\":17324:17330   */\n      not\n        /* \"#utility.yul\":17316:17321   */\n      dup5\n        /* \"#utility.yul\":17313:17314   */\n      0x08\n        /* \"#utility.yul\":17309:17322   */\n      mul\n        /* \"#utility.yul\":17280:17331   */\n      tag_290\n      jump\t// in\n    tag_480:\n        /* \"#utility.yul\":17276:17332   */\n      not\n        /* \"#utility.yul\":17361:17365   */\n      dup1\n        /* \"#utility.yul\":17355:17359   */\n      dup4\n        /* \"#utility.yul\":17351:17366   */\n      and\n        /* \"#utility.yul\":17341:17366   */\n      swap2\n      pop\n        /* \"#utility.yul\":17254:17372   */\n      pop\n        /* \"#utility.yul\":17203:17372   */\n      swap3\n      swap2\n      pop\n      pop\n      jump\t// out\n        /* \"#utility.yul\":17377:17672   */\n    tag_292:\n        /* \"#utility.yul\":17453:17457   */\n      0x00\n        /* \"#utility.yul\":17599:17628   */\n      tag_482\n        /* \"#utility.yul\":17624:17627   */\n      dup4\n        /* \"#utility.yul\":17618:17622   */\n      dup4\n        /* \"#utility.yul\":17599:17628   */\n      tag_291\n      jump\t// in\n    tag_482:\n        /* \"#utility.yul\":17591:17628   */\n      swap2\n      pop\n        /* \"#utility.yul\":17661:17664   */\n      dup3\n        /* \"#utility.yul\":17658:17659   */\n      0x02\n        /* \"#utility.yul\":17654:17665   */\n      mul\n        /* \"#utility.yul\":17648:17652   */\n      dup3\n        /* \"#utility.yul\":17645:17666   */\n      or\n        /* \"#utility.yul\":17637:17666   */\n      swap1\n      pop\n        /* \"#utility.yul\":17377:17672   */\n      swap3\n      swap2\n      pop\n      pop\n      jump\t// out\n        /* \"#utility.yul\":17677:19128   */\n    tag_95:\n        /* \"#utility.yul\":17788:17791   */\n      dup2\n        /* \"#utility.yul\":17782:17786   */\n      dup2\n        /* \"#utility.yul\":17779:17792   */\n      sub\n        /* \"#utility.yul\":17776:17802   */\n      tag_484\n      jumpi\n        /* \"#utility.yul\":17795:17800   */\n      pop\n      pop\n      jump(tag_483)\n        /* \"#utility.yul\":17776:17802   */\n    tag_484:\n        /* \"#utility.yul\":17826:17860   */\n      tag_485\n        /* \"#utility.yul\":17856:17859   */\n      dup3\n        /* \"#utility.yul\":17826:17860   */\n      tag_276\n      jump\t// in\n    tag_485:\n        /* \"#utility.yul\":17925:17943   */\n      0xffffffffffffffff\n        /* \"#utility.yul\":17917:17923   */\n      dup2\n        /* \"#utility.yul\":17914:17944   */\n      gt\n        /* \"#utility.yul\":17911:17967   */\n      iszero\n      tag_486\n      jumpi\n        /* \"#utility.yul\":17947:17965   */\n      tag_487\n      tag_277\n      jump\t// in\n    tag_487:\n        /* \"#utility.yul\":17911:17967   */\n    tag_486:\n        /* \"#utility.yul\":17991:18029   */\n      tag_488\n        /* \"#utility.yul\":18023:18027   */\n      dup3\n        /* \"#utility.yul\":18017:18028   */\n      sload\n        /* \"#utility.yul\":17991:18029   */\n      tag_142\n      jump\t// in\n    tag_488:\n        /* \"#utility.yul\":18076:18143   */\n      tag_489\n        /* \"#utility.yul\":18136:18142   */\n      dup3\n        /* \"#utility.yul\":18128:18134   */\n      dup3\n        /* \"#utility.yul\":18122:18126   */\n      dup6\n        /* \"#utility.yul\":18076:18143   */\n      tag_289\n      jump\t// in\n    tag_489:\n        /* \"#utility.yul\":18170:18171   */\n      0x00\n        /* \"#utility.yul\":18199:18201   */\n      0x1f\n        /* \"#utility.yul\":18191:18197   */\n      dup4\n        /* \"#utility.yul\":18188:18202   */\n      gt\n        /* \"#utility.yul\":18216:18217   */\n      0x01\n        /* \"#utility.yul\":18211:18883   */\n      dup2\n      eq\n      tag_491\n      jumpi\n        /* \"#utility.yul\":18927:18928   */\n      0x00\n        /* \"#utility.yul\":18944:18950   */\n      dup5\n        /* \"#utility.yul\":18941:19018   */\n      iszero\n      tag_492\n      jumpi\n        /* \"#utility.yul\":18993:19002   */\n      dup3\n        /* \"#utility.yul\":18988:18991   */\n      dup8\n        /* \"#utility.yul\":18984:19003   */\n      add\n        /* \"#utility.yul\":18978:19004   */\n      sload\n        /* \"#utility.yul\":18969:19004   */\n      swap1\n      pop\n        /* \"#utility.yul\":18941:19018   */\n    tag_492:\n        /* \"#utility.yul\":19044:19111   */\n      tag_493\n        /* \"#utility.yul\":19104:19110   */\n      dup6\n        /* \"#utility.yul\":19097:19102   */\n      dup3\n        /* \"#utility.yul\":19044:19111   */\n      tag_292\n      jump\t// in\n    tag_493:\n        /* \"#utility.yul\":19038:19042   */\n      dup7\n        /* \"#utility.yul\":19031:19112   */\n      sstore\n        /* \"#utility.yul\":18900:19122   */\n      pop\n        /* \"#utility.yul\":18181:19122   */\n      jump(tag_490)\n        /* \"#utility.yul\":18211:18883   */\n    tag_491:\n        /* \"#utility.yul\":18263:18267   */\n      0x1f\n        /* \"#utility.yul\":18259:18268   */\n      not\n        /* \"#utility.yul\":18251:18257   */\n      dup5\n        /* \"#utility.yul\":18247:18269   */\n      and\n        /* \"#utility.yul\":18289:18325   */\n      tag_494\n        /* \"#utility.yul\":18321:18324   */\n      dup8\n        /* \"#utility.yul\":18289:18325   */\n      tag_278\n      jump\t// in\n    tag_494:\n        /* \"#utility.yul\":18282:18325   */\n      swap7\n      pop\n        /* \"#utility.yul\":18352:18389   */\n      tag_495\n        /* \"#utility.yul\":18384:18388   */\n      dup7\n        /* \"#utility.yul\":18352:18389   */\n      tag_278\n      jump\t// in\n    tag_495:\n        /* \"#utility.yul\":18411:18412   */\n      0x00\n        /* \"#utility.yul\":18425:18632   */\n    tag_496:\n        /* \"#utility.yul\":18439:18446   */\n      dup3\n        /* \"#utility.yul\":18436:18437   */\n      dup2\n        /* \"#utility.yul\":18433:18447   */\n      lt\n        /* \"#utility.yul\":18425:18632   */\n      iszero\n      tag_498\n      jumpi\n        /* \"#utility.yul\":18518:18527   */\n      dup5\n        /* \"#utility.yul\":18513:18516   */\n      dup10\n        /* \"#utility.yul\":18509:18528   */\n      add\n        /* \"#utility.yul\":18503:18529   */\n      sload\n        /* \"#utility.yul\":18495:18501   */\n      dup3\n        /* \"#utility.yul\":18488:18530   */\n      sstore\n        /* \"#utility.yul\":18569:18570   */\n      0x01\n        /* \"#utility.yul\":18561:18567   */\n      dup3\n        /* \"#utility.yul\":18557:18571   */\n      add\n        /* \"#utility.yul\":18547:18571   */\n      swap2\n      pop\n        /* \"#utility.yul\":18616:18617   */\n      0x01\n        /* \"#utility.yul\":18605:18614   */\n      dup6\n        /* \"#utility.yul\":18601:18618   */\n      add\n        /* \"#utility.yul\":18588:18618   */\n      swap5\n      pop\n        /* \"#utility.yul\":18462:18466   */\n      0x20\n        /* \"#utility.yul\":18459:18460   */\n      dup2\n        /* \"#utility.yul\":18455:18467   */\n      add\n        /* \"#utility.yul\":18450:18467   */\n      swap1\n      pop\n        /* \"#utility.yul\":18425:18632   */\n      jump(tag_496)\n    tag_498:\n        /* \"#utility.yul\":18660:18666   */\n      dup7\n        /* \"#utility.yul\":18651:18658   */\n      dup4\n        /* \"#utility.yul\":18648:18667   */\n      lt\n        /* \"#utility.yul\":18645:18824   */\n      iszero\n      tag_499\n      jumpi\n        /* \"#utility.yul\":18718:18727   */\n      dup5\n        /* \"#utility.yul\":18713:18716   */\n      dup10\n        /* \"#utility.yul\":18709:18728   */\n      add\n        /* \"#utility.yul\":18703:18729   */\n      sload\n        /* \"#utility.yul\":18761:18809   */\n      tag_500\n        /* \"#utility.yul\":18803:18807   */\n      0x1f\n        /* \"#utility.yul\":18795:18801   */\n      dup10\n        /* \"#utility.yul\":18791:18808   */\n      and\n        /* \"#utility.yul\":18780:18789   */\n      dup3\n        /* \"#utility.yul\":18761:18809   */\n      tag_291\n      jump\t// in\n    tag_500:\n        /* \"#utility.yul\":18753:18759   */\n      dup4\n        /* \"#utility.yul\":18746:18810   */\n      sstore\n        /* \"#utility.yul\":18668:18824   */\n      pop\n        /* \"#utility.yul\":18645:18824   */\n    tag_499:\n        /* \"#utility.yul\":18870:18871   */\n      0x01\n        /* \"#utility.yul\":18866:18867   */\n      0x02\n        /* \"#utility.yul\":18858:18864   */\n      dup9\n        /* \"#utility.yul\":18854:18868   */\n      mul\n        /* \"#utility.yul\":18850:18872   */\n      add\n        /* \"#utility.yul\":18844:18848   */\n      dup9\n        /* \"#utility.yul\":18837:18873   */\n      sstore\n        /* \"#utility.yul\":18218:18883   */\n      pop\n      pop\n      pop\n        /* \"#utility.yul\":18181:19122   */\n    tag_490:\n      pop\n        /* \"#utility.yul\":17766:19128   */\n      pop\n      pop\n      pop\n        /* \"#utility.yul\":17677:19128   */\n      pop\n      pop\n    tag_483:\n      jump\t// out\n        /* \"#utility.yul\":19134:19367   */\n    tag_111:\n        /* \"#utility.yul\":19173:19176   */\n      0x00\n        /* \"#utility.yul\":19196:19220   */\n      tag_502\n        /* \"#utility.yul\":19214:19219   */\n      dup3\n        /* \"#utility.yul\":19196:19220   */\n      tag_234\n      jump\t// in\n    tag_502:\n        /* \"#utility.yul\":19187:19220   */\n      swap2\n      pop\n        /* \"#utility.yul\":19242:19308   */\n      0xffffffffffffffffffffffffffffffffffffffffffffffffffffffffffffffff\n        /* \"#utility.yul\":19235:19240   */\n      dup3\n        /* \"#utility.yul\":19232:19309   */\n      sub\n        /* \"#utility.yul\":19229:19332   */\n      tag_503\n      jumpi\n        /* \"#utility.yul\":19312:19330   */\n      tag_504\n      tag_274\n      jump\t// in\n    tag_504:\n        /* \"#utility.yul\":19229:19332   */\n    tag_503:\n        /* \"#utility.yul\":19359:19360   */\n      0x01\n        /* \"#utility.yul\":19352:19357   */\n      dup3\n        /* \"#utility.yul\":19348:19361   */\n      add\n        /* \"#utility.yul\":19341:19361   */\n      swap1\n      pop\n        /* \"#utility.yul\":19134:19367   */\n      swap2\n      swap1\n      pop\n      jump\t// out\n        /* \"#utility.yul\":19373:19597   */\n    tag_293:\n        /* \"#utility.yul\":19513:19547   */\n      0x53657373696f6e206e65656420626520696e20766f7465207374617475732062\n        /* \"#utility.yul\":19509:19510   */\n      0x00\n        /* \"#utility.yul\":19501:19507   */\n      dup3\n        /* \"#utility.yul\":19497:19511   */\n      add\n        /* \"#utility.yul\":19490:19548   */\n      mstore\n        /* \"#utility.yul\":19582:19589   */\n      0x65666f7265000000000000000000000000000000000000000000000000000000\n        /* \"#utility.yul\":19577:19579   */\n      0x20\n        /* \"#utility.yul\":19569:19575   */\n      dup3\n        /* \"#utility.yul\":19565:19580   */\n      add\n        /* \"#utility.yul\":19558:19590   */\n      mstore\n        /* \"#utility.yul\":19373:19597   */\n      pop\n      jump\t// out\n        /* \"#utility.yul\":19603:19969   */\n    tag_294:\n        /* \"#utility.yul\":19745:19748   */\n      0x00\n        /* \"#utility.yul\":19766:19833   */\n      tag_507\n        /* \"#utility.yul\":19830:19832   */\n      0x25\n        /* \"#utility.yul\":19825:19828   */\n      dup4\n        /* \"#utility.yul\":19766:19833   */\n      tag_271\n      jump\t// in\n    tag_507:\n        /* \"#utility.yul\":19759:19833   */\n      swap2\n      pop\n        /* \"#utility.yul\":19842:19935   */\n      tag_508\n        /* \"#utility.yul\":19931:19934   */\n      dup3\n        /* \"#utility.yul\":19842:19935   */\n      tag_293\n      jump\t// in\n    tag_508:\n        /* \"#utility.yul\":19960:19962   */\n      0x40\n        /* \"#utility.yul\":19955:19958   */\n      dup3\n        /* \"#utility.yul\":19951:19963   */\n      add\n        /* \"#utility.yul\":19944:19963   */\n      swap1\n      pop\n        /* \"#utility.yul\":19603:19969   */\n      swap2\n      swap1\n      pop\n      jump\t// out\n        /* \"#utility.yul\":19975:20394   */\n    tag_121:\n        /* \"#utility.yul\":20141:20145   */\n      0x00\n        /* \"#utility.yul\":20179:20181   */\n      0x20\n        /* \"#utility.yul\":20168:20177   */\n      dup3\n        /* \"#utility.yul\":20164:20182   */\n      add\n        /* \"#utility.yul\":20156:20182   */\n      swap1\n      pop\n        /* \"#utility.yul\":20228:20237   */\n      dup2\n        /* \"#utility.yul\":20222:20226   */\n      dup2\n        /* \"#utility.yul\":20218:20238   */\n      sub\n        /* \"#utility.yul\":20214:20215   */\n      0x00\n        /* \"#utility.yul\":20203:20212   */\n      dup4\n        /* \"#utility.yul\":20199:20216   */\n      add\n        /* \"#utility.yul\":20192:20239   */\n      mstore\n        /* \"#utility.yul\":20256:20387   */\n      tag_510\n        /* \"#utility.yul\":20382:20386   */\n      dup2\n        /* \"#utility.yul\":20256:20387   */\n      tag_294\n      jump\t// in\n    tag_510:\n        /* \"#utility.yul\":20248:20387   */\n      swap1\n      pop\n        /* \"#utility.yul\":19975:20394   */\n      swap2\n      swap1\n      pop\n      jump\t// out\n        /* \"#utility.yul\":20400:20563   */\n    tag_295:\n        /* \"#utility.yul\":20503:20556   */\n      tag_512\n        /* \"#utility.yul\":20550:20555   */\n      dup2\n        /* \"#utility.yul\":20503:20556   */\n      tag_239\n      jump\t// in\n    tag_512:\n        /* \"#utility.yul\":20498:20501   */\n      dup3\n        /* \"#utility.yul\":20491:20557   */\n      mstore\n        /* \"#utility.yul\":20400:20563   */\n      pop\n      pop\n      jump\t// out\n        /* \"#utility.yul\":20569:20965   */\n    tag_123:\n        /* \"#utility.yul\":20722:20726   */\n      0x00\n        /* \"#utility.yul\":20760:20762   */\n      0x40\n        /* \"#utility.yul\":20749:20758   */\n      dup3\n        /* \"#utility.yul\":20745:20763   */\n      add\n        /* \"#utility.yul\":20737:20763   */\n      swap1\n      pop\n        /* \"#utility.yul\":20773:20860   */\n      tag_514\n        /* \"#utility.yul\":20857:20858   */\n      0x00\n        /* \"#utility.yul\":20846:20855   */\n      dup4\n        /* \"#utility.yul\":20842:20859   */\n      add\n        /* \"#utility.yul\":20833:20839   */\n      dup6\n        /* \"#utility.yul\":20773:20860   */\n      tag_295\n      jump\t// in\n    tag_514:\n        /* \"#utility.yul\":20870:20958   */\n      tag_515\n        /* \"#utility.yul\":20954:20956   */\n      0x20\n        /* \"#utility.yul\":20943:20952   */\n      dup4\n        /* \"#utility.yul\":20939:20957   */\n      add\n        /* \"#utility.yul\":20930:20936   */\n      dup5\n        /* \"#utility.yul\":20870:20958   */\n      tag_295\n      jump\t// in\n    tag_515:\n        /* \"#utility.yul\":20569:20965   */\n      swap4\n      swap3\n      pop\n      pop\n      pop\n      jump\t// out\n        /* \"#utility.yul\":20971:21199   */\n    tag_296:\n        /* \"#utility.yul\":21111:21145   */\n      0x53657373696f6e206e65656420626520696e2072656769737465722073746174\n        /* \"#utility.yul\":21107:21108   */\n      0x00\n        /* \"#utility.yul\":21099:21105   */\n      dup3\n        /* \"#utility.yul\":21095:21109   */\n      add\n        /* \"#utility.yul\":21088:21146   */\n      mstore\n        /* \"#utility.yul\":21180:21191   */\n      0x7573206265666f72650000000000000000000000000000000000000000000000\n        /* \"#utility.yul\":21175:21177   */\n      0x20\n        /* \"#utility.yul\":21167:21173   */\n      dup3\n        /* \"#utility.yul\":21163:21178   */\n      add\n        /* \"#utility.yul\":21156:21192   */\n      mstore\n        /* \"#utility.yul\":20971:21199   */\n      pop\n      jump\t// out\n        /* \"#utility.yul\":21205:21571   */\n    tag_297:\n        /* \"#utility.yul\":21347:21350   */\n      0x00\n        /* \"#utility.yul\":21368:21435   */\n      tag_518\n        /* \"#utility.yul\":21432:21434   */\n      0x29\n        /* \"#utility.yul\":21427:21430   */\n      dup4\n        /* \"#utility.yul\":21368:21435   */\n      tag_271\n      jump\t// in\n    tag_518:\n        /* \"#utility.yul\":21361:21435   */\n      swap2\n      pop\n        /* \"#utility.yul\":21444:21537   */\n      tag_519\n        /* \"#utility.yul\":21533:21536   */\n      dup3\n        /* \"#utility.yul\":21444:21537   */\n      tag_296\n      jump\t// in\n    tag_519:\n        /* \"#utility.yul\":21562:21564   */\n      0x40\n        /* \"#utility.yul\":21557:21560   */\n      dup3\n        /* \"#utility.yul\":21553:21565   */\n      add\n        /* \"#utility.yul\":21546:21565   */\n      swap1\n      pop\n        /* \"#utility.yul\":21205:21571   */\n      swap2\n      swap1\n      pop\n      jump\t// out\n        /* \"#utility.yul\":21577:21996   */\n    tag_156:\n        /* \"#utility.yul\":21743:21747   */\n      0x00\n        /* \"#utility.yul\":21781:21783   */\n      0x20\n        /* \"#utility.yul\":21770:21779   */\n      dup3\n        /* \"#utility.yul\":21766:21784   */\n      add\n        /* \"#utility.yul\":21758:21784   */\n      swap1\n      pop\n        /* \"#utility.yul\":21830:21839   */\n      dup2\n        /* \"#utility.yul\":21824:21828   */\n      dup2\n        /* \"#utility.yul\":21820:21840   */\n      sub\n        /* \"#utility.yul\":21816:21817   */\n      0x00\n        /* \"#utility.yul\":21805:21814   */\n      dup4\n        /* \"#utility.yul\":21801:21818   */\n      add\n        /* \"#utility.yul\":21794:21841   */\n      mstore\n        /* \"#utility.yul\":21858:21989   */\n      tag_521\n        /* \"#utility.yul\":21984:21988   */\n      dup2\n        /* \"#utility.yul\":21858:21989   */\n      tag_297\n      jump\t// in\n    tag_521:\n        /* \"#utility.yul\":21850:21989   */\n      swap1\n      pop\n        /* \"#utility.yul\":21577:21996   */\n      swap2\n      swap1\n      pop\n      jump\t// out\n        /* \"#utility.yul\":22002:23397   */\n    tag_182:\n        /* \"#utility.yul\":22119:22156   */\n      tag_523\n        /* \"#utility.yul\":22152:22155   */\n      dup3\n        /* \"#utility.yul\":22119:22156   */\n      tag_246\n      jump\t// in\n    tag_523:\n        /* \"#utility.yul\":22221:22239   */\n      0xffffffffffffffff\n        /* \"#utility.yul\":22213:22219   */\n      dup2\n        /* \"#utility.yul\":22210:22240   */\n      gt\n        /* \"#utility.yul\":22207:22263   */\n      iszero\n      tag_524\n      jumpi\n        /* \"#utility.yul\":22243:22261   */\n      tag_525\n      tag_277\n      jump\t// in\n    tag_525:\n        /* \"#utility.yul\":22207:22263   */\n    tag_524:\n        /* \"#utility.yul\":22287:22325   */\n      tag_526\n        /* \"#utility.yul\":22319:22323   */\n      dup3\n        /* \"#utility.yul\":22313:22324   */\n      sload\n        /* \"#utility.yul\":22287:22325   */\n      tag_142\n      jump\t// in\n    tag_526:\n        /* \"#utility.yul\":22372:22439   */\n      tag_527\n        /* \"#utility.yul\":22432:22438   */\n      dup3\n        /* \"#utility.yul\":22424:22430   */\n      dup3\n        /* \"#utility.yul\":22418:22422   */\n      dup6\n        /* \"#utility.yul\":22372:22439   */\n      tag_289\n      jump\t// in\n    tag_527:\n        /* \"#utility.yul\":22466:22467   */\n      0x00\n        /* \"#utility.yul\":22490:22494   */\n      0x20\n        /* \"#utility.yul\":22477:22494   */\n      swap1\n      pop\n        /* \"#utility.yul\":22522:22524   */\n      0x1f\n        /* \"#utility.yul\":22514:22520   */\n      dup4\n        /* \"#utility.yul\":22511:22525   */\n      gt\n        /* \"#utility.yul\":22539:22540   */\n      0x01\n        /* \"#utility.yul\":22534:23152   */\n      dup2\n      eq\n      tag_529\n      jumpi\n        /* \"#utility.yul\":23196:23197   */\n      0x00\n        /* \"#utility.yul\":23213:23219   */\n      dup5\n        /* \"#utility.yul\":23210:23287   */\n      iszero\n      tag_530\n      jumpi\n        /* \"#utility.yul\":23262:23271   */\n      dup3\n        /* \"#utility.yul\":23257:23260   */\n      dup8\n        /* \"#utility.yul\":23253:23272   */\n      add\n        /* \"#utility.yul\":23247:23273   */\n      mload\n        /* \"#utility.yul\":23238:23273   */\n      swap1\n      pop\n        /* \"#utility.yul\":23210:23287   */\n    tag_530:\n        /* \"#utility.yul\":23313:23380   */\n      tag_531\n        /* \"#utility.yul\":23373:23379   */\n      dup6\n        /* \"#utility.yul\":23366:23371   */\n      dup3\n        /* \"#utility.yul\":23313:23380   */\n      tag_292\n      jump\t// in\n    tag_531:\n        /* \"#utility.yul\":23307:23311   */\n      dup7\n        /* \"#utility.yul\":23300:23381   */\n      sstore\n        /* \"#utility.yul\":23169:23391   */\n      pop\n        /* \"#utility.yul\":22504:23391   */\n      jump(tag_528)\n        /* \"#utility.yul\":22534:23152   */\n    tag_529:\n        /* \"#utility.yul\":22586:22590   */\n      0x1f\n        /* \"#utility.yul\":22582:22591   */\n      not\n        /* \"#utility.yul\":22574:22580   */\n      dup5\n        /* \"#utility.yul\":22570:22592   */\n      and\n        /* \"#utility.yul\":22620:22657   */\n      tag_532\n        /* \"#utility.yul\":22652:22656   */\n      dup7\n        /* \"#utility.yul\":22620:22657   */\n      tag_278\n      jump\t// in\n    tag_532:\n        /* \"#utility.yul\":22679:22680   */\n      0x00\n        /* \"#utility.yul\":22693:22901   */\n    tag_533:\n        /* \"#utility.yul\":22707:22714   */\n      dup3\n        /* \"#utility.yul\":22704:22705   */\n      dup2\n        /* \"#utility.yul\":22701:22715   */\n      lt\n        /* \"#utility.yul\":22693:22901   */\n      iszero\n      tag_535\n      jumpi\n        /* \"#utility.yul\":22786:22795   */\n      dup5\n        /* \"#utility.yul\":22781:22784   */\n      dup10\n        /* \"#utility.yul\":22777:22796   */\n      add\n        /* \"#utility.yul\":22771:22797   */\n      mload\n        /* \"#utility.yul\":22763:22769   */\n      dup3\n        /* \"#utility.yul\":22756:22798   */\n      sstore\n        /* \"#utility.yul\":22837:22838   */\n      0x01\n        /* \"#utility.yul\":22829:22835   */\n      dup3\n        /* \"#utility.yul\":22825:22839   */\n      add\n        /* \"#utility.yul\":22815:22839   */\n      swap2\n      pop\n        /* \"#utility.yul\":22884:22886   */\n      0x20\n        /* \"#utility.yul\":22873:22882   */\n      dup6\n        /* \"#utility.yul\":22869:22887   */\n      add\n        /* \"#utility.yul\":22856:22887   */\n      swap5\n      pop\n        /* \"#utility.yul\":22730:22734   */\n      0x20\n        /* \"#utility.yul\":22727:22728   */\n      dup2\n        /* \"#utility.yul\":22723:22735   */\n      add\n        /* \"#utility.yul\":22718:22735   */\n      swap1\n      pop\n        /* \"#utility.yul\":22693:22901   */\n      jump(tag_533)\n    tag_535:\n        /* \"#utility.yul\":22929:22935   */\n      dup7\n        /* \"#utility.yul\":22920:22927   */\n      dup4\n        /* \"#utility.yul\":22917:22936   */\n      lt\n        /* \"#utility.yul\":22914:23093   */\n      iszero\n      tag_536\n      jumpi\n        /* \"#utility.yul\":22987:22996   */\n      dup5\n        /* \"#utility.yul\":22982:22985   */\n      dup10\n        /* \"#utility.yul\":22978:22997   */\n      add\n        /* \"#utility.yul\":22972:22998   */\n      mload\n        /* \"#utility.yul\":23030:23078   */\n      tag_537\n        /* \"#utility.yul\":23072:23076   */\n      0x1f\n        /* \"#utility.yul\":23064:23070   */\n      dup10\n        /* \"#utility.yul\":23060:23077   */\n      and\n        /* \"#utility.yul\":23049:23058   */\n      dup3\n        /* \"#utility.yul\":23030:23078   */\n      tag_291\n      jump\t// in\n    tag_537:\n        /* \"#utility.yul\":23022:23028   */\n      dup4\n        /* \"#utility.yul\":23015:23079   */\n      sstore\n        /* \"#utility.yul\":22937:23093   */\n      pop\n        /* \"#utility.yul\":22914:23093   */\n    tag_536:\n        /* \"#utility.yul\":23139:23140   */\n      0x01\n        /* \"#utility.yul\":23135:23136   */\n      0x02\n        /* \"#utility.yul\":23127:23133   */\n      dup9\n        /* \"#utility.yul\":23123:23137   */\n      mul\n        /* \"#utility.yul\":23119:23141   */\n      add\n        /* \"#utility.yul\":23113:23117   */\n      dup9\n        /* \"#utility.yul\":23106:23142   */\n      sstore\n        /* \"#utility.yul\":22541:23152   */\n      pop\n      pop\n      pop\n        /* \"#utility.yul\":22504:23391   */\n    tag_528:\n      pop\n        /* \"#utility.yul\":22094:23397   */\n      pop\n      pop\n      pop\n        /* \"#utility.yul\":22002:23397   */\n      pop\n      pop\n      jump\t// out\n        /* \"#utility.yul\":23427:24238   */\n    tag_298:\n        /* \"#utility.yul\":23502:23505   */\n      0x00\n        /* \"#utility.yul\":23539:23544   */\n      dup2\n        /* \"#utility.yul\":23533:23545   */\n      sload\n        /* \"#utility.yul\":23568:23604   */\n      tag_539\n        /* \"#utility.yul\":23594:23603   */\n      dup2\n        /* \"#utility.yul\":23568:23604   */\n      tag_142\n      jump\t// in\n    tag_539:\n        /* \"#utility.yul\":23620:23681   */\n      tag_540\n        /* \"#utility.yul\":23674:23680   */\n      dup2\n        /* \"#utility.yul\":23669:23672   */\n      dup7\n        /* \"#utility.yul\":23620:23681   */\n      tag_247\n      jump\t// in\n    tag_540:\n        /* \"#utility.yul\":23613:23681   */\n      swap5\n      pop\n        /* \"#utility.yul\":23712:23713   */\n      0x01\n        /* \"#utility.yul\":23701:23710   */\n      dup3\n        /* \"#utility.yul\":23697:23714   */\n      and\n        /* \"#utility.yul\":23728:23729   */\n      0x00\n        /* \"#utility.yul\":23723:23887   */\n      dup2\n      eq\n      tag_542\n      jumpi\n        /* \"#utility.yul\":23901:23902   */\n      0x01\n        /* \"#utility.yul\":23896:24232   */\n      dup2\n      eq\n      tag_543\n      jumpi\n        /* \"#utility.yul\":23690:24232   */\n      jump(tag_541)\n        /* \"#utility.yul\":23723:23887   */\n    tag_542:\n        /* \"#utility.yul\":23807:23811   */\n      0xff\n        /* \"#utility.yul\":23803:23812   */\n      not\n        /* \"#utility.yul\":23792:23801   */\n      dup4\n        /* \"#utility.yul\":23788:23813   */\n      and\n        /* \"#utility.yul\":23783:23786   */\n      dup7\n        /* \"#utility.yul\":23776:23814   */\n      mstore\n        /* \"#utility.yul\":23867:23873   */\n      dup2\n        /* \"#utility.yul\":23860:23874   */\n      iszero\n        /* \"#utility.yul\":23853:23875   */\n      iszero\n        /* \"#utility.yul\":23847:23851   */\n      0x20\n        /* \"#utility.yul\":23843:23876   */\n      mul\n        /* \"#utility.yul\":23838:23841   */\n      dup7\n        /* \"#utility.yul\":23834:23877   */\n      add\n        /* \"#utility.yul\":23827:23877   */\n      swap4\n      pop\n        /* \"#utility.yul\":23723:23887   */\n      jump(tag_541)\n        /* \"#utility.yul\":23896:24232   */\n    tag_543:\n        /* \"#utility.yul\":23963:24001   */\n      tag_544\n        /* \"#utility.yul\":23995:24000   */\n      dup6\n        /* \"#utility.yul\":23963:24001   */\n      tag_278\n      jump\t// in\n    tag_544:\n        /* \"#utility.yul\":24023:24024   */\n      0x00\n        /* \"#utility.yul\":24037:24191   */\n    tag_545:\n        /* \"#utility.yul\":24051:24057   */\n      dup4\n        /* \"#utility.yul\":24048:24049   */\n      dup2\n        /* \"#utility.yul\":24045:24058   */\n      lt\n        /* \"#utility.yul\":24037:24191   */\n      iszero\n      tag_547\n      jumpi\n        /* \"#utility.yul\":24125:24132   */\n      dup2\n        /* \"#utility.yul\":24119:24133   */\n      sload\n        /* \"#utility.yul\":24115:24116   */\n      dup2\n        /* \"#utility.yul\":24110:24113   */\n      dup10\n        /* \"#utility.yul\":24106:24117   */\n      add\n        /* \"#utility.yul\":24099:24134   */\n      mstore\n        /* \"#utility.yul\":24175:24176   */\n      0x01\n        /* \"#utility.yul\":24166:24173   */\n      dup3\n        /* \"#utility.yul\":24162:24177   */\n      add\n        /* \"#utility.yul\":24151:24177   */\n      swap2\n      pop\n        /* \"#utility.yul\":24073:24077   */\n      0x20\n        /* \"#utility.yul\":24070:24071   */\n      dup2\n        /* \"#utility.yul\":24066:24078   */\n      add\n        /* \"#utility.yul\":24061:24078   */\n      swap1\n      pop\n        /* \"#utility.yul\":24037:24191   */\n      jump(tag_545)\n    tag_547:\n        /* \"#utility.yul\":24220:24221   */\n      dup1\n        /* \"#utility.yul\":24215:24218   */\n      dup9\n        /* \"#utility.yul\":24211:24222   */\n      add\n        /* \"#utility.yul\":24204:24222   */\n      swap6\n      pop\n        /* \"#utility.yul\":23903:24232   */\n      pop\n      pop\n        /* \"#utility.yul\":23690:24232   */\n    tag_541:\n      pop\n        /* \"#utility.yul\":23506:24238   */\n      pop\n      pop\n        /* \"#utility.yul\":23427:24238   */\n      swap3\n      swap2\n      pop\n      pop\n      jump\t// out\n        /* \"#utility.yul\":24244:24346   */\n    tag_299:\n        /* \"#utility.yul\":24286:24294   */\n      0x00\n        /* \"#utility.yul\":24333:24338   */\n      dup2\n        /* \"#utility.yul\":24330:24331   */\n      0x00\n        /* \"#utility.yul\":24326:24339   */\n      shr\n        /* \"#utility.yul\":24305:24339   */\n      swap1\n      pop\n        /* \"#utility.yul\":24244:24346   */\n      swap2\n      swap1\n      pop\n      jump\t// out\n        /* \"#utility.yul\":24352:24442   */\n    tag_300:\n        /* \"#utility.yul\":24402:24409   */\n      0x00\n        /* \"#utility.yul\":24431:24436   */\n      dup2\n        /* \"#utility.yul\":24420:24436   */\n      swap1\n      pop\n        /* \"#utility.yul\":24352:24442   */\n      swap2\n      swap1\n      pop\n      jump\t// out\n        /* \"#utility.yul\":24448:24614   */\n    tag_301:\n        /* \"#utility.yul\":24517:24522   */\n      0x00\n        /* \"#utility.yul\":24542:24608   */\n      tag_551\n        /* \"#utility.yul\":24573:24607   */\n      tag_552\n        /* \"#utility.yul\":24596:24606   */\n      dup4\n        /* \"#utility.yul\":24573:24607   */\n      tag_299\n      jump\t// in\n    tag_552:\n        /* \"#utility.yul\":24542:24608   */\n      tag_300\n      jump\t// in\n    tag_551:\n        /* \"#utility.yul\":24533:24608   */\n      swap1\n      pop\n        /* \"#utility.yul\":24448:24614   */\n      swap2\n      swap1\n      pop\n      jump\t// out\n        /* \"#utility.yul\":24676:25388   */\n    tag_302:\n        /* \"#utility.yul\":24792:24795   */\n      0x00\n        /* \"#utility.yul\":24828:24832   */\n      0x40\n        /* \"#utility.yul\":24823:24826   */\n      dup4\n        /* \"#utility.yul\":24819:24833   */\n      add\n        /* \"#utility.yul\":24859:24860   */\n      0x00\n        /* \"#utility.yul\":24943:24947   */\n      dup1\n        /* \"#utility.yul\":24936:24941   */\n      dup5\n        /* \"#utility.yul\":24932:24948   */\n      add\n        /* \"#utility.yul\":24995:24998   */\n      dup6\n        /* \"#utility.yul\":24989:24993   */\n      dup4\n        /* \"#utility.yul\":24985:24999   */\n      sub\n        /* \"#utility.yul\":24978:24982   */\n      0x00\n        /* \"#utility.yul\":24973:24976   */\n      dup8\n        /* \"#utility.yul\":24969:24983   */\n      add\n        /* \"#utility.yul\":24962:25000   */\n      mstore\n        /* \"#utility.yul\":25021:25091   */\n      tag_554\n        /* \"#utility.yul\":25086:25090   */\n      dup4\n        /* \"#utility.yul\":25072:25084   */\n      dup3\n        /* \"#utility.yul\":25021:25091   */\n      tag_298\n      jump\t// in\n    tag_554:\n        /* \"#utility.yul\":25013:25091   */\n      swap3\n      pop\n        /* \"#utility.yul\":24870:25102   */\n      pop\n        /* \"#utility.yul\":25181:25185   */\n      0x01\n        /* \"#utility.yul\":25174:25179   */\n      dup5\n        /* \"#utility.yul\":25170:25186   */\n      add\n        /* \"#utility.yul\":25164:25187   */\n      sload\n        /* \"#utility.yul\":25151:25187   */\n      swap1\n      pop\n        /* \"#utility.yul\":25220:25275   */\n      tag_555\n        /* \"#utility.yul\":25265:25274   */\n      dup2\n        /* \"#utility.yul\":25220:25275   */\n      tag_301\n      jump\t// in\n    tag_555:\n        /* \"#utility.yul\":25288:25351   */\n      tag_556\n        /* \"#utility.yul\":25345:25349   */\n      0x20\n        /* \"#utility.yul\":25340:25343   */\n      dup8\n        /* \"#utility.yul\":25336:25350   */\n      add\n        /* \"#utility.yul\":25322:25334   */\n      dup3\n        /* \"#utility.yul\":25288:25351   */\n      tag_251\n      jump\t// in\n    tag_556:\n        /* \"#utility.yul\":25112:25361   */\n      pop\n        /* \"#utility.yul\":25378:25382   */\n      dup2\n        /* \"#utility.yul\":25371:25382   */\n      swap3\n      pop\n        /* \"#utility.yul\":24797:25388   */\n      pop\n      pop\n        /* \"#utility.yul\":24676:25388   */\n      swap3\n      swap2\n      pop\n      pop\n      jump\t// out\n        /* \"#utility.yul\":25394:25761   */\n    tag_186:\n        /* \"#utility.yul\":25534:25538   */\n      0x00\n        /* \"#utility.yul\":25572:25574   */\n      0x20\n        /* \"#utility.yul\":25561:25570   */\n      dup3\n        /* \"#utility.yul\":25557:25575   */\n      add\n        /* \"#utility.yul\":25549:25575   */\n      swap1\n      pop\n        /* \"#utility.yul\":25621:25630   */\n      dup2\n        /* \"#utility.yul\":25615:25619   */\n      dup2\n        /* \"#utility.yul\":25611:25631   */\n      sub\n        /* \"#utility.yul\":25607:25608   */\n      0x00\n        /* \"#utility.yul\":25596:25605   */\n      dup4\n        /* \"#utility.yul\":25592:25609   */\n      add\n        /* \"#utility.yul\":25585:25632   */\n      mstore\n        /* \"#utility.yul\":25649:25754   */\n      tag_558\n        /* \"#utility.yul\":25749:25753   */\n      dup2\n        /* \"#utility.yul\":25740:25746   */\n      dup5\n        /* \"#utility.yul\":25649:25754   */\n      tag_302\n      jump\t// in\n    tag_558:\n        /* \"#utility.yul\":25641:25754   */\n      swap1\n      pop\n        /* \"#utility.yul\":25394:25761   */\n      swap3\n      swap2\n      pop\n      pop\n      jump\t// out\n        /* \"#utility.yul\":25767:26000   */\n    tag_303:\n        /* \"#utility.yul\":25907:25941   */\n      0x53657373696f6e206e65656420626520696e20636c6f73657265676973746572\n        /* \"#utility.yul\":25903:25904   */\n      0x00\n        /* \"#utility.yul\":25895:25901   */\n      dup3\n        /* \"#utility.yul\":25891:25905   */\n      add\n        /* \"#utility.yul\":25884:25942   */\n      mstore\n        /* \"#utility.yul\":25976:25992   */\n      0x20737461747573206265666f7265000000000000000000000000000000000000\n        /* \"#utility.yul\":25971:25973   */\n      0x20\n        /* \"#utility.yul\":25963:25969   */\n      dup3\n        /* \"#utility.yul\":25959:25974   */\n      add\n        /* \"#utility.yul\":25952:25993   */\n      mstore\n        /* \"#utility.yul\":25767:26000   */\n      pop\n      jump\t// out\n        /* \"#utility.yul\":26006:26372   */\n    tag_304:\n        /* \"#utility.yul\":26148:26151   */\n      0x00\n        /* \"#utility.yul\":26169:26236   */\n      tag_561\n        /* \"#utility.yul\":26233:26235   */\n      0x2e\n        /* \"#utility.yul\":26228:26231   */\n      dup4\n        /* \"#utility.yul\":26169:26236   */\n      tag_271\n      jump\t// in\n    tag_561:\n        /* \"#utility.yul\":26162:26236   */\n      swap2\n      pop\n        /* \"#utility.yul\":26245:26338   */\n      tag_562\n        /* \"#utility.yul\":26334:26337   */\n      dup3\n        /* \"#utility.yul\":26245:26338   */\n      tag_303\n      jump\t// in\n    tag_562:\n        /* \"#utility.yul\":26363:26365   */\n      0x40\n        /* \"#utility.yul\":26358:26361   */\n      dup3\n        /* \"#utility.yul\":26354:26366   */\n      add\n        /* \"#utility.yul\":26347:26366   */\n      swap1\n      pop\n        /* \"#utility.yul\":26006:26372   */\n      swap2\n      swap1\n      pop\n      jump\t// out\n        /* \"#utility.yul\":26378:26797   */\n    tag_196:\n        /* \"#utility.yul\":26544:26548   */\n      0x00\n        /* \"#utility.yul\":26582:26584   */\n      0x20\n        /* \"#utility.yul\":26571:26580   */\n      dup3\n        /* \"#utility.yul\":26567:26585   */\n      add\n        /* \"#utility.yul\":26559:26585   */\n      swap1\n      pop\n        /* \"#utility.yul\":26631:26640   */\n      dup2\n        /* \"#utility.yul\":26625:26629   */\n      dup2\n        /* \"#utility.yul\":26621:26641   */\n      sub\n        /* \"#utility.yul\":26617:26618   */\n      0x00\n        /* \"#utility.yul\":26606:26615   */\n      dup4\n        /* \"#utility.yul\":26602:26619   */\n      add\n        /* \"#utility.yul\":26595:26642   */\n      mstore\n        /* \"#utility.yul\":26659:26790   */\n      tag_564\n        /* \"#utility.yul\":26785:26789   */\n      dup2\n        /* \"#utility.yul\":26659:26790   */\n      tag_304\n      jump\t// in\n    tag_564:\n        /* \"#utility.yul\":26651:26790   */\n      swap1\n      pop\n        /* \"#utility.yul\":26378:26797   */\n      swap2\n      swap1\n      pop\n      jump\t// out\n\n    auxdata: 0xa2646970667358221220e92fac9a97672d55eb6a4e044d94102902cb04230bf32cae607c585b2fc09afb64736f6c63430008140033\n}\n",
				"bytecode": {
					"linkReferences": {},
					"object": "608060405260405180606001604052805f151581526020015f151581526020015f81525060035f820151815f015f6101000a81548160ff0219169083151502179055506020820151815f0160016101000a81548160ff02191690831515021790555060408201518160010155505034801562000079575f80fd5b50335f73ffffffffffffffffffffffffffffffffffffffff168173ffffffffffffffffffffffffffffffffffffffff1603620000ee575f6040517f1e4fbdf7000000000000000000000000000000000000000000000000000000008152600401620000e591906200020a565b60405180910390fd5b620000ff816200010660201b60201c565b5062000225565b5f805f9054906101000a900473ffffffffffffffffffffffffffffffffffffffff169050815f806101000a81548173ffffffffffffffffffffffffffffffffffffffff021916908373ffffffffffffffffffffffffffffffffffffffff1602179055508173ffffffffffffffffffffffffffffffffffffffff168173ffffffffffffffffffffffffffffffffffffffff167f8be0079c531659141344cd1fd0a4f28419497f9722a3daafe3b4186f6b6457e060405160405180910390a35050565b5f73ffffffffffffffffffffffffffffffffffffffff82169050919050565b5f620001f282620001c7565b9050919050565b6200020481620001e6565b82525050565b5f6020820190506200021f5f830184620001f9565b92915050565b611e9280620002335f395ff3fe608060405234801561000f575f80fd5b50600436106100e8575f3560e01c80638e7ea5b21161008a578063d107d8c211610064578063d107d8c2146101d8578063e3473084146101e2578063f2fde38b146101fe578063f4ab9adf1461021a576100e8565b80638e7ea5b21461016c5780639b19251a1461018a578063ab31e9ae146101bc576100e8565b8063715018a6116100c6578063715018a61461011c5780637909e08c146101265780638626256e146101445780638da5cb5b1461014e576100e8565b8063230796ae146100ec57806325a8918814610108578063329d334614610112575b5f80fd5b6101066004803603810190610101919061111e565b610236565b005b610110610379565b005b61011a6104ba565b005b6101246105b1565b005b61012e6105c4565b60405161013b91906113b1565b60405180910390f35b61014c610726565b005b61015661081d565b6040516101639190611410565b60405180910390f35b610174610844565b6040516101819190611463565b60405180910390f35b6101a4600480360381019061019f91906114ad565b6108f7565b6040516101b3939291906114f6565b60405180910390f35b6101d660048036038101906101d1919061158c565b610935565b005b6101e0610b58565b005b6101fc60048036038101906101f79190611601565b610c4f565b005b610218600480360381019061021391906114ad565b610d4a565b005b610234600480360381019061022f91906114ad565b610dce565b005b60095f3373ffffffffffffffffffffffffffffffffffffffff1673ffffffffffffffffffffffffffffffffffffffff1681526020019081526020015f205f015f9054906101000a900460ff166102c1576040517f08c379a00000000000000000000000000000000000000000000000000000000081526004016102b890611686565b60405180910390fd5b600360058111156102d5576102d4611149565b5b60055f015f9054906101000a900460ff1660058111156102f8576102f7611149565b5b148015610314575060035f0160019054906101000a900460ff16155b61031c575f80fd5b600160056001018281548110610335576103346116a4565b5b905f5260205f2090600202016001015f82825461035291906116fe565b92505081905550600160035f0160016101000a81548160ff02191690831515021790555050565b610381610f48565b5f600190505f60056001015f8154811061039e5761039d6116a4565b5b905f5260205f20906002020160010154905060056001015f815481106103c7576103c66116a4565b5b905f5260205f20906002020160075f8201815f0190816103e7919061196d565b50600182015481600101559050505b6005600101805490508210156104b6576005600101828154811061041d5761041c6116a4565b5b905f5260205f209060020201600101548111156104a3576005600101828154811061044b5761044a6116a4565b5b905f5260205f20906002020160010154905060056001018281548110610474576104736116a4565b5b905f5260205f20906002020160075f8201815f019081610494919061196d565b50600182015481600101559050505b81806104ae90611a52565b9250506103f6565b5050565b6104c2610f48565b600360058111156104d6576104d5611149565b5b60055f015f9054906101000a900460ff1660058111156104f9576104f8611149565b5b14610539576040517f08c379a000000000000000000000000000000000000000000000000000000000815260040161053090611b09565b60405180910390fd5b7f0a97a4ee45751e2abf3e4fc8946939630b11b371ea8ae39ccdc3056e98f5cc3f60055f015f9054906101000a900460ff16600460405161057b929190611b36565b60405180910390a1600460055f015f6101000a81548160ff021916908360058111156105aa576105a9611149565b5b0217905550565b6105b9610f48565b6105c25f610fcf565b565b6105cc611097565b60056040518060600160405290815f82015f9054906101000a900460ff1660058111156105fc576105fb611149565b5b600581111561060e5761060d611149565b5b81526020015f820160019054906101000a900460ff1615151515815260200160018201805480602002602001604051908101604052809291908181526020015f905b82821015610719578382905f5260205f2090600202016040518060400160405290815f820180546106809061175e565b80601f01602080910402602001604051908101604052809291908181526020018280546106ac9061175e565b80156106f75780601f106106ce576101008083540402835291602001916106f7565b820191905f5260205f20905b8154815290600101906020018083116106da57829003601f168201915b5050505050815260200160018201548152505081526020019060010190610650565b5050505081525050905090565b61072e610f48565b6001600581111561074257610741611149565b5b60055f015f9054906101000a900460ff16600581111561076557610764611149565b5b146107a5576040517f08c379a000000000000000000000000000000000000000000000000000000000815260040161079c90611bcd565b60405180910390fd5b7f0a97a4ee45751e2abf3e4fc8946939630b11b371ea8ae39ccdc3056e98f5cc3f60055f015f9054906101000a900460ff1660026040516107e7929190611b36565b60405180910390a1600260055f015f6101000a81548160ff0219169083600581111561081657610815611149565b5b0217905550565b5f805f9054906101000a900473ffffffffffffffffffffffffffffffffffffffff16905090565b61084c6110ca565b60076040518060400160405290815f820180546108689061175e565b80601f01602080910402602001604051908101604052809291908181526020018280546108949061175e565b80156108df5780601f106108b6576101008083540402835291602001916108df565b820191905f5260205f20905b8154815290600101906020018083116108c257829003601f168201915b50505050508152602001600182015481525050905090565b6009602052805f5260405f205f91509050805f015f9054906101000a900460ff1690805f0160019054906101000a900460ff16908060010154905083565b60095f3373ffffffffffffffffffffffffffffffffffffffff1673ffffffffffffffffffffffffffffffffffffffff1681526020019081526020015f205f015f9054906101000a900460ff166109c0576040517f08c379a00000000000000000000000000000000000000000000000000000000081526004016109b790611686565b60405180910390fd5b60055f0160019054906101000a900460ff1680610a0f57503373ffffffffffffffffffffffffffffffffffffffff166109f761081d565b73ffffffffffffffffffffffffffffffffffffffff16145b15610b545760016005811115610a2857610a27611149565b5b60055f015f9054906101000a900460ff166005811115610a4b57610a4a611149565b5b14610a54575f80fd5b604051806040016040528083838080601f0160208091040260200160405190810160405280939291908181526020018383808284375f81840152601f19601f8201169050808301925050505050505081526020015f81525060015f820151815f019081610ac19190611beb565b506020820151816001015590505060056001016001908060018154018082558091505060019003905f5260205f2090600202015f909190919091505f8201815f019081610b0e919061196d565b506001820154816001015550507fc90604c068b8efd40fc7abb985d0a8c41192ff10cd393403f3dddf0c39e5a1d96001604051610b4b9190611dae565b60405180910390a15b5050565b610b60610f48565b60026005811115610b7457610b73611149565b5b60055f015f9054906101000a900460ff166005811115610b9757610b96611149565b5b14610bd7576040517f08c379a0000000000000000000000000000000000000000000000000000000008152600401610bce90611e3e565b60405180910390fd5b7f0a97a4ee45751e2abf3e4fc8946939630b11b371ea8ae39ccdc3056e98f5cc3f60055f015f9054906101000a900460ff166003604051610c19929190611b36565b60405180910390a1600360055f015f6101000a81548160ff02191690836005811115610c4857610c47611149565b5b0217905550565b610c57610f48565b600160095f610c6461081d565b73ffffffffffffffffffffffffffffffffffffffff1673ffffffffffffffffffffffffffffffffffffffff1681526020019081526020015f205f015f6101000a81548160ff0219169083151502179055507f0a97a4ee45751e2abf3e4fc8946939630b11b371ea8ae39ccdc3056e98f5cc3f60055f015f9054906101000a900460ff166001604051610cf7929190611b36565b60405180910390a1600160055f015f6101000a81548160ff02191690836005811115610d2657610d25611149565b5b02179055508060055f0160016101000a81548160ff02191690831515021790555050565b610d52610f48565b5f73ffffffffffffffffffffffffffffffffffffffff168173ffffffffffffffffffffffffffffffffffffffff1603610dc2575f6040517f1e4fbdf7000000000000000000000000000000000000000000000000000000008152600401610db99190611410565b60405180910390fd5b610dcb81610fcf565b50565b610dd6610f48565b60095f8273ffffffffffffffffffffffffffffffffffffffff1673ffffffffffffffffffffffffffffffffffffffff1681526020019081526020015f205f015f9054906101000a900460ff1615610e2b575f80fd5b60405180606001604052806001151581526020015f151581526020015f81525060095f8373ffffffffffffffffffffffffffffffffffffffff1673ffffffffffffffffffffffffffffffffffffffff1681526020019081526020015f205f820151815f015f6101000a81548160ff0219169083151502179055506020820151815f0160016101000a81548160ff021916908315150217905550604082015181600101559050507f0a97a4ee45751e2abf3e4fc8946939630b11b371ea8ae39ccdc3056e98f5cc3f60055f015f9054906101000a900460ff165f604051610f12929190611b36565b60405180910390a15f60055f015f6101000a81548160ff02191690836005811115610f4057610f3f611149565b5b021790555050565b610f50611090565b73ffffffffffffffffffffffffffffffffffffffff16610f6e61081d565b73ffffffffffffffffffffffffffffffffffffffff1614610fcd57610f91611090565b6040517f118cdaa7000000000000000000000000000000000000000000000000000000008152600401610fc49190611410565b60405180910390fd5b565b5f805f9054906101000a900473ffffffffffffffffffffffffffffffffffffffff169050815f806101000a81548173ffffffffffffffffffffffffffffffffffffffff021916908373ffffffffffffffffffffffffffffffffffffffff1602179055508173ffffffffffffffffffffffffffffffffffffffff168173ffffffffffffffffffffffffffffffffffffffff167f8be0079c531659141344cd1fd0a4f28419497f9722a3daafe3b4186f6b6457e060405160405180910390a35050565b5f33905090565b60405180606001604052805f60058111156110b5576110b4611149565b5b81526020015f15158152602001606081525090565b6040518060400160405280606081526020015f81525090565b5f80fd5b5f80fd5b5f819050919050565b6110fd816110eb565b8114611107575f80fd5b50565b5f81359050611118816110f4565b92915050565b5f60208284031215611133576111326110e3565b5b5f6111408482850161110a565b91505092915050565b7f4e487b71000000000000000000000000000000000000000000000000000000005f52602160045260245ffd5b6006811061118757611186611149565b5b50565b5f81905061119782611176565b919050565b5f6111a68261118a565b9050919050565b6111b68161119c565b82525050565b5f8115159050919050565b6111d0816111bc565b82525050565b5f81519050919050565b5f82825260208201905092915050565b5f819050602082019050919050565b5f81519050919050565b5f82825260208201905092915050565b5f5b8381101561123657808201518184015260208101905061121b565b5f8484015250505050565b5f601f19601f8301169050919050565b5f61125b826111ff565b6112658185611209565b9350611275818560208601611219565b61127e81611241565b840191505092915050565b611292816110eb565b82525050565b5f604083015f8301518482035f8601526112b28282611251565b91505060208301516112c76020860182611289565b508091505092915050565b5f6112dd8383611298565b905092915050565b5f602082019050919050565b5f6112fb826111d6565b61130581856111e0565b935083602082028501611317856111f0565b805f5b85811015611352578484038952815161133385826112d2565b945061133e836112e5565b925060208a0199505060018101905061131a565b50829750879550505050505092915050565b5f606083015f8301516113795f8601826111ad565b50602083015161138c60208601826111c7565b50604083015184820360408601526113a482826112f1565b9150508091505092915050565b5f6020820190508181035f8301526113c98184611364565b905092915050565b5f73ffffffffffffffffffffffffffffffffffffffff82169050919050565b5f6113fa826113d1565b9050919050565b61140a816113f0565b82525050565b5f6020820190506114235f830184611401565b92915050565b5f604083015f8301518482035f8601526114438282611251565b91505060208301516114586020860182611289565b508091505092915050565b5f6020820190508181035f83015261147b8184611429565b905092915050565b61148c816113f0565b8114611496575f80fd5b50565b5f813590506114a781611483565b92915050565b5f602082840312156114c2576114c16110e3565b5b5f6114cf84828501611499565b91505092915050565b6114e1816111bc565b82525050565b6114f0816110eb565b82525050565b5f6060820190506115095f8301866114d8565b61151660208301856114d8565b61152360408301846114e7565b949350505050565b5f80fd5b5f80fd5b5f80fd5b5f8083601f84011261154c5761154b61152b565b5b8235905067ffffffffffffffff8111156115695761156861152f565b5b60208301915083600182028301111561158557611584611533565b5b9250929050565b5f80602083850312156115a2576115a16110e3565b5b5f83013567ffffffffffffffff8111156115bf576115be6110e7565b5b6115cb85828601611537565b92509250509250929050565b6115e0816111bc565b81146115ea575f80fd5b50565b5f813590506115fb816115d7565b92915050565b5f60208284031215611616576116156110e3565b5b5f611623848285016115ed565b91505092915050565b5f82825260208201905092915050565b7f6973206e6f742077686974656c697374656400000000000000000000000000005f82015250565b5f61167060128361162c565b915061167b8261163c565b602082019050919050565b5f6020820190508181035f83015261169d81611664565b9050919050565b7f4e487b71000000000000000000000000000000000000000000000000000000005f52603260045260245ffd5b7f4e487b71000000000000000000000000000000000000000000000000000000005f52601160045260245ffd5b5f611708826110eb565b9150611713836110eb565b925082820190508082111561172b5761172a6116d1565b5b92915050565b7f4e487b71000000000000000000000000000000000000000000000000000000005f52602260045260245ffd5b5f600282049050600182168061177557607f821691505b60208210810361178857611787611731565b5b50919050565b5f8154905061179c8161175e565b9050919050565b7f4e487b71000000000000000000000000000000000000000000000000000000005f52604160045260245ffd5b5f819050815f5260205f209050919050565b5f6020601f8301049050919050565b5f82821b905092915050565b5f6008830261182c7fffffffffffffffffffffffffffffffffffffffffffffffffffffffffffffffff826117f1565b61183686836117f1565b95508019841693508086168417925050509392505050565b5f819050919050565b5f61187161186c611867846110eb565b61184e565b6110eb565b9050919050565b5f819050919050565b61188a83611857565b61189e61189682611878565b8484546117fd565b825550505050565b5f90565b6118b26118a6565b6118bd818484611881565b505050565b5b818110156118e0576118d55f826118aa565b6001810190506118c3565b5050565b601f821115611925576118f6816117d0565b6118ff846117e2565b8101602085101561190e578190505b61192261191a856117e2565b8301826118c2565b50505b505050565b5f82821c905092915050565b5f6119455f198460080261192a565b1980831691505092915050565b5f61195d8383611936565b9150826002028217905092915050565b81810361197b575050611a50565b6119848261178e565b67ffffffffffffffff81111561199d5761199c6117a3565b5b6119a7825461175e565b6119b28282856118e4565b5f601f8311600181146119df575f84156119cd578287015490505b6119d78582611952565b865550611a49565b601f1984166119ed876117d0565b96506119f8866117d0565b5f5b82811015611a1f578489015482556001820191506001850194506020810190506119fa565b86831015611a3c5784890154611a38601f891682611936565b8355505b6001600288020188555050505b5050505050505b565b5f611a5c826110eb565b91507fffffffffffffffffffffffffffffffffffffffffffffffffffffffffffffffff8203611a8e57611a8d6116d1565b5b600182019050919050565b7f53657373696f6e206e65656420626520696e20766f74652073746174757320625f8201527f65666f7265000000000000000000000000000000000000000000000000000000602082015250565b5f611af360258361162c565b9150611afe82611a99565b604082019050919050565b5f6020820190508181035f830152611b2081611ae7565b9050919050565b611b308161119c565b82525050565b5f604082019050611b495f830185611b27565b611b566020830184611b27565b9392505050565b7f53657373696f6e206e65656420626520696e20726567697374657220737461745f8201527f7573206265666f72650000000000000000000000000000000000000000000000602082015250565b5f611bb760298361162c565b9150611bc282611b5d565b604082019050919050565b5f6020820190508181035f830152611be481611bab565b9050919050565b611bf4826111ff565b67ffffffffffffffff811115611c0d57611c0c6117a3565b5b611c17825461175e565b611c228282856118e4565b5f60209050601f831160018114611c53575f8415611c41578287015190505b611c4b8582611952565b865550611cb2565b601f198416611c61866117d0565b5f5b82811015611c8857848901518255600182019150602085019450602081019050611c63565b86831015611ca55784890151611ca1601f891682611936565b8355505b6001600288020188555050505b505050505050565b5f8154611cc68161175e565b611cd08186611209565b9450600182165f8114611cea5760018114611d0057611d32565b60ff198316865281151560200286019350611d32565b611d09856117d0565b5f5b83811015611d2a57815481890152600182019150602081019050611d0b565b808801955050505b50505092915050565b5f815f1c9050919050565b5f819050919050565b5f611d61611d5c83611d3b565b611d46565b9050919050565b5f604083015f8084018583035f870152611d828382611cba565b92505060018401549050611d9581611d4f565b611da26020870182611289565b50819250505092915050565b5f6020820190508181035f830152611dc68184611d68565b905092915050565b7f53657373696f6e206e65656420626520696e20636c6f736572656769737465725f8201527f20737461747573206265666f7265000000000000000000000000000000000000602082015250565b5f611e28602e8361162c565b9150611e3382611dce565b604082019050919050565b5f6020820190508181035f830152611e5581611e1c565b905091905056fea2646970667358221220e92fac9a97672d55eb6a4e044d94102902cb04230bf32cae607c585b2fc09afb64736f6c63430008140033",
					"opcodes": "PUSH1 0x80 PUSH1 0x40 MSTORE PUSH1 0x40 MLOAD DUP1 PUSH1 0x60 ADD PUSH1 0x40 MSTORE DUP1 PUSH0 ISZERO ISZERO DUP2 MSTORE PUSH1 0x20 ADD PUSH0 ISZERO ISZERO DUP2 MSTORE PUSH1 0x20 ADD PUSH0 DUP2 MSTORE POP PUSH1 0x3 PUSH0 DUP3 ADD MLOAD DUP2 PUSH0 ADD PUSH0 PUSH2 0x100 EXP DUP2 SLOAD DUP2 PUSH1 0xFF MUL NOT AND SWAP1 DUP4 ISZERO ISZERO MUL OR SWAP1 SSTORE POP PUSH1 0x20 DUP3 ADD MLOAD DUP2 PUSH0 ADD PUSH1 0x1 PUSH2 0x100 EXP DUP2 SLOAD DUP2 PUSH1 0xFF MUL NOT AND SWAP1 DUP4 ISZERO ISZERO MUL OR SWAP1 SSTORE POP PUSH1 0x40 DUP3 ADD MLOAD DUP2 PUSH1 0x1 ADD SSTORE POP POP CALLVALUE DUP1 ISZERO PUSH3 0x79 JUMPI PUSH0 DUP1 REVERT JUMPDEST POP CALLER PUSH0 PUSH20 0xFFFFFFFFFFFFFFFFFFFFFFFFFFFFFFFFFFFFFFFF AND DUP2 PUSH20 0xFFFFFFFFFFFFFFFFFFFFFFFFFFFFFFFFFFFFFFFF AND SUB PUSH3 0xEE JUMPI PUSH0 PUSH1 0x40 MLOAD PUSH32 0x1E4FBDF700000000000000000000000000000000000000000000000000000000 DUP2 MSTORE PUSH1 0x4 ADD PUSH3 0xE5 SWAP2 SWAP1 PUSH3 0x20A JUMP JUMPDEST PUSH1 0x40 MLOAD DUP1 SWAP2 SUB SWAP1 REVERT JUMPDEST PUSH3 0xFF DUP2 PUSH3 0x106 PUSH1 0x20 SHL PUSH1 0x20 SHR JUMP JUMPDEST POP PUSH3 0x225 JUMP JUMPDEST PUSH0 DUP1 PUSH0 SWAP1 SLOAD SWAP1 PUSH2 0x100 EXP SWAP1 DIV PUSH20 0xFFFFFFFFFFFFFFFFFFFFFFFFFFFFFFFFFFFFFFFF AND SWAP1 POP DUP2 PUSH0 DUP1 PUSH2 0x100 EXP DUP2 SLOAD DUP2 PUSH20 0xFFFFFFFFFFFFFFFFFFFFFFFFFFFFFFFFFFFFFFFF MUL NOT AND SWAP1 DUP4 PUSH20 0xFFFFFFFFFFFFFFFFFFFFFFFFFFFFFFFFFFFFFFFF AND MUL OR SWAP1 SSTORE POP DUP2 PUSH20 0xFFFFFFFFFFFFFFFFFFFFFFFFFFFFFFFFFFFFFFFF AND DUP2 PUSH20 0xFFFFFFFFFFFFFFFFFFFFFFFFFFFFFFFFFFFFFFFF AND PUSH32 0x8BE0079C531659141344CD1FD0A4F28419497F9722A3DAAFE3B4186F6B6457E0 PUSH1 0x40 MLOAD PUSH1 0x40 MLOAD DUP1 SWAP2 SUB SWAP1 LOG3 POP POP JUMP JUMPDEST PUSH0 PUSH20 0xFFFFFFFFFFFFFFFFFFFFFFFFFFFFFFFFFFFFFFFF DUP3 AND SWAP1 POP SWAP2 SWAP1 POP JUMP JUMPDEST PUSH0 PUSH3 0x1F2 DUP3 PUSH3 0x1C7 JUMP JUMPDEST SWAP1 POP SWAP2 SWAP1 POP JUMP JUMPDEST PUSH3 0x204 DUP2 PUSH3 0x1E6 JUMP JUMPDEST DUP3 MSTORE POP POP JUMP JUMPDEST PUSH0 PUSH1 0x20 DUP3 ADD SWAP1 POP PUSH3 0x21F PUSH0 DUP4 ADD DUP5 PUSH3 0x1F9 JUMP JUMPDEST SWAP3 SWAP2 POP POP JUMP JUMPDEST PUSH2 0x1E92 DUP1 PUSH3 0x233 PUSH0 CODECOPY PUSH0 RETURN INVALID PUSH1 0x80 PUSH1 0x40 MSTORE CALLVALUE DUP1 ISZERO PUSH2 0xF JUMPI PUSH0 DUP1 REVERT JUMPDEST POP PUSH1 0x4 CALLDATASIZE LT PUSH2 0xE8 JUMPI PUSH0 CALLDATALOAD PUSH1 0xE0 SHR DUP1 PUSH4 0x8E7EA5B2 GT PUSH2 0x8A JUMPI DUP1 PUSH4 0xD107D8C2 GT PUSH2 0x64 JUMPI DUP1 PUSH4 0xD107D8C2 EQ PUSH2 0x1D8 JUMPI DUP1 PUSH4 0xE3473084 EQ PUSH2 0x1E2 JUMPI DUP1 PUSH4 0xF2FDE38B EQ PUSH2 0x1FE JUMPI DUP1 PUSH4 0xF4AB9ADF EQ PUSH2 0x21A JUMPI PUSH2 0xE8 JUMP JUMPDEST DUP1 PUSH4 0x8E7EA5B2 EQ PUSH2 0x16C JUMPI DUP1 PUSH4 0x9B19251A EQ PUSH2 0x18A JUMPI DUP1 PUSH4 0xAB31E9AE EQ PUSH2 0x1BC JUMPI PUSH2 0xE8 JUMP JUMPDEST DUP1 PUSH4 0x715018A6 GT PUSH2 0xC6 JUMPI DUP1 PUSH4 0x715018A6 EQ PUSH2 0x11C JUMPI DUP1 PUSH4 0x7909E08C EQ PUSH2 0x126 JUMPI DUP1 PUSH4 0x8626256E EQ PUSH2 0x144 JUMPI DUP1 PUSH4 0x8DA5CB5B EQ PUSH2 0x14E JUMPI PUSH2 0xE8 JUMP JUMPDEST DUP1 PUSH4 0x230796AE EQ PUSH2 0xEC JUMPI DUP1 PUSH4 0x25A89188 EQ PUSH2 0x108 JUMPI DUP1 PUSH4 0x329D3346 EQ PUSH2 0x112 JUMPI JUMPDEST PUSH0 DUP1 REVERT JUMPDEST PUSH2 0x106 PUSH1 0x4 DUP1 CALLDATASIZE SUB DUP2 ADD SWAP1 PUSH2 0x101 SWAP2 SWAP1 PUSH2 0x111E JUMP JUMPDEST PUSH2 0x236 JUMP JUMPDEST STOP JUMPDEST PUSH2 0x110 PUSH2 0x379 JUMP JUMPDEST STOP JUMPDEST PUSH2 0x11A PUSH2 0x4BA JUMP JUMPDEST STOP JUMPDEST PUSH2 0x124 PUSH2 0x5B1 JUMP JUMPDEST STOP JUMPDEST PUSH2 0x12E PUSH2 0x5C4 JUMP JUMPDEST PUSH1 0x40 MLOAD PUSH2 0x13B SWAP2 SWAP1 PUSH2 0x13B1 JUMP JUMPDEST PUSH1 0x40 MLOAD DUP1 SWAP2 SUB SWAP1 RETURN JUMPDEST PUSH2 0x14C PUSH2 0x726 JUMP JUMPDEST STOP JUMPDEST PUSH2 0x156 PUSH2 0x81D JUMP JUMPDEST PUSH1 0x40 MLOAD PUSH2 0x163 SWAP2 SWAP1 PUSH2 0x1410 JUMP JUMPDEST PUSH1 0x40 MLOAD DUP1 SWAP2 SUB SWAP1 RETURN JUMPDEST PUSH2 0x174 PUSH2 0x844 JUMP JUMPDEST PUSH1 0x40 MLOAD PUSH2 0x181 SWAP2 SWAP1 PUSH2 0x1463 JUMP JUMPDEST PUSH1 0x40 MLOAD DUP1 SWAP2 SUB SWAP1 RETURN JUMPDEST PUSH2 0x1A4 PUSH1 0x4 DUP1 CALLDATASIZE SUB DUP2 ADD SWAP1 PUSH2 0x19F SWAP2 SWAP1 PUSH2 0x14AD JUMP JUMPDEST PUSH2 0x8F7 JUMP JUMPDEST PUSH1 0x40 MLOAD PUSH2 0x1B3 SWAP4 SWAP3 SWAP2 SWAP1 PUSH2 0x14F6 JUMP JUMPDEST PUSH1 0x40 MLOAD DUP1 SWAP2 SUB SWAP1 RETURN JUMPDEST PUSH2 0x1D6 PUSH1 0x4 DUP1 CALLDATASIZE SUB DUP2 ADD SWAP1 PUSH2 0x1D1 SWAP2 SWAP1 PUSH2 0x158C JUMP JUMPDEST PUSH2 0x935 JUMP JUMPDEST STOP JUMPDEST PUSH2 0x1E0 PUSH2 0xB58 JUMP JUMPDEST STOP JUMPDEST PUSH2 0x1FC PUSH1 0x4 DUP1 CALLDATASIZE SUB DUP2 ADD SWAP1 PUSH2 0x1F7 SWAP2 SWAP1 PUSH2 0x1601 JUMP JUMPDEST PUSH2 0xC4F JUMP JUMPDEST STOP JUMPDEST PUSH2 0x218 PUSH1 0x4 DUP1 CALLDATASIZE SUB DUP2 ADD SWAP1 PUSH2 0x213 SWAP2 SWAP1 PUSH2 0x14AD JUMP JUMPDEST PUSH2 0xD4A JUMP JUMPDEST STOP JUMPDEST PUSH2 0x234 PUSH1 0x4 DUP1 CALLDATASIZE SUB DUP2 ADD SWAP1 PUSH2 0x22F SWAP2 SWAP1 PUSH2 0x14AD JUMP JUMPDEST PUSH2 0xDCE JUMP JUMPDEST STOP JUMPDEST PUSH1 0x9 PUSH0 CALLER PUSH20 0xFFFFFFFFFFFFFFFFFFFFFFFFFFFFFFFFFFFFFFFF AND PUSH20 0xFFFFFFFFFFFFFFFFFFFFFFFFFFFFFFFFFFFFFFFF AND DUP2 MSTORE PUSH1 0x20 ADD SWAP1 DUP2 MSTORE PUSH1 0x20 ADD PUSH0 KECCAK256 PUSH0 ADD PUSH0 SWAP1 SLOAD SWAP1 PUSH2 0x100 EXP SWAP1 DIV PUSH1 0xFF AND PUSH2 0x2C1 JUMPI PUSH1 0x40 MLOAD PUSH32 0x8C379A000000000000000000000000000000000000000000000000000000000 DUP2 MSTORE PUSH1 0x4 ADD PUSH2 0x2B8 SWAP1 PUSH2 0x1686 JUMP JUMPDEST PUSH1 0x40 MLOAD DUP1 SWAP2 SUB SWAP1 REVERT JUMPDEST PUSH1 0x3 PUSH1 0x5 DUP2 GT ISZERO PUSH2 0x2D5 JUMPI PUSH2 0x2D4 PUSH2 0x1149 JUMP JUMPDEST JUMPDEST PUSH1 0x5 PUSH0 ADD PUSH0 SWAP1 SLOAD SWAP1 PUSH2 0x100 EXP SWAP1 DIV PUSH1 0xFF AND PUSH1 0x5 DUP2 GT ISZERO PUSH2 0x2F8 JUMPI PUSH2 0x2F7 PUSH2 0x1149 JUMP JUMPDEST JUMPDEST EQ DUP1 ISZERO PUSH2 0x314 JUMPI POP PUSH1 0x3 PUSH0 ADD PUSH1 0x1 SWAP1 SLOAD SWAP1 PUSH2 0x100 EXP SWAP1 DIV PUSH1 0xFF AND ISZERO JUMPDEST PUSH2 0x31C JUMPI PUSH0 DUP1 REVERT JUMPDEST PUSH1 0x1 PUSH1 0x5 PUSH1 0x1 ADD DUP3 DUP2 SLOAD DUP2 LT PUSH2 0x335 JUMPI PUSH2 0x334 PUSH2 0x16A4 JUMP JUMPDEST JUMPDEST SWAP1 PUSH0 MSTORE PUSH1 0x20 PUSH0 KECCAK256 SWAP1 PUSH1 0x2 MUL ADD PUSH1 0x1 ADD PUSH0 DUP3 DUP3 SLOAD PUSH2 0x352 SWAP2 SWAP1 PUSH2 0x16FE JUMP JUMPDEST SWAP3 POP POP DUP2 SWAP1 SSTORE POP PUSH1 0x1 PUSH1 0x3 PUSH0 ADD PUSH1 0x1 PUSH2 0x100 EXP DUP2 SLOAD DUP2 PUSH1 0xFF MUL NOT AND SWAP1 DUP4 ISZERO ISZERO MUL OR SWAP1 SSTORE POP POP JUMP JUMPDEST PUSH2 0x381 PUSH2 0xF48 JUMP JUMPDEST PUSH0 PUSH1 0x1 SWAP1 POP PUSH0 PUSH1 0x5 PUSH1 0x1 ADD PUSH0 DUP2 SLOAD DUP2 LT PUSH2 0x39E JUMPI PUSH2 0x39D PUSH2 0x16A4 JUMP JUMPDEST JUMPDEST SWAP1 PUSH0 MSTORE PUSH1 0x20 PUSH0 KECCAK256 SWAP1 PUSH1 0x2 MUL ADD PUSH1 0x1 ADD SLOAD SWAP1 POP PUSH1 0x5 PUSH1 0x1 ADD PUSH0 DUP2 SLOAD DUP2 LT PUSH2 0x3C7 JUMPI PUSH2 0x3C6 PUSH2 0x16A4 JUMP JUMPDEST JUMPDEST SWAP1 PUSH0 MSTORE PUSH1 0x20 PUSH0 KECCAK256 SWAP1 PUSH1 0x2 MUL ADD PUSH1 0x7 PUSH0 DUP3 ADD DUP2 PUSH0 ADD SWAP1 DUP2 PUSH2 0x3E7 SWAP2 SWAP1 PUSH2 0x196D JUMP JUMPDEST POP PUSH1 0x1 DUP3 ADD SLOAD DUP2 PUSH1 0x1 ADD SSTORE SWAP1 POP POP JUMPDEST PUSH1 0x5 PUSH1 0x1 ADD DUP1 SLOAD SWAP1 POP DUP3 LT ISZERO PUSH2 0x4B6 JUMPI PUSH1 0x5 PUSH1 0x1 ADD DUP3 DUP2 SLOAD DUP2 LT PUSH2 0x41D JUMPI PUSH2 0x41C PUSH2 0x16A4 JUMP JUMPDEST JUMPDEST SWAP1 PUSH0 MSTORE PUSH1 0x20 PUSH0 KECCAK256 SWAP1 PUSH1 0x2 MUL ADD PUSH1 0x1 ADD SLOAD DUP2 GT ISZERO PUSH2 0x4A3 JUMPI PUSH1 0x5 PUSH1 0x1 ADD DUP3 DUP2 SLOAD DUP2 LT PUSH2 0x44B JUMPI PUSH2 0x44A PUSH2 0x16A4 JUMP JUMPDEST JUMPDEST SWAP1 PUSH0 MSTORE PUSH1 0x20 PUSH0 KECCAK256 SWAP1 PUSH1 0x2 MUL ADD PUSH1 0x1 ADD SLOAD SWAP1 POP PUSH1 0x5 PUSH1 0x1 ADD DUP3 DUP2 SLOAD DUP2 LT PUSH2 0x474 JUMPI PUSH2 0x473 PUSH2 0x16A4 JUMP JUMPDEST JUMPDEST SWAP1 PUSH0 MSTORE PUSH1 0x20 PUSH0 KECCAK256 SWAP1 PUSH1 0x2 MUL ADD PUSH1 0x7 PUSH0 DUP3 ADD DUP2 PUSH0 ADD SWAP1 DUP2 PUSH2 0x494 SWAP2 SWAP1 PUSH2 0x196D JUMP JUMPDEST POP PUSH1 0x1 DUP3 ADD SLOAD DUP2 PUSH1 0x1 ADD SSTORE SWAP1 POP POP JUMPDEST DUP2 DUP1 PUSH2 0x4AE SWAP1 PUSH2 0x1A52 JUMP JUMPDEST SWAP3 POP POP PUSH2 0x3F6 JUMP JUMPDEST POP POP JUMP JUMPDEST PUSH2 0x4C2 PUSH2 0xF48 JUMP JUMPDEST PUSH1 0x3 PUSH1 0x5 DUP2 GT ISZERO PUSH2 0x4D6 JUMPI PUSH2 0x4D5 PUSH2 0x1149 JUMP JUMPDEST JUMPDEST PUSH1 0x5 PUSH0 ADD PUSH0 SWAP1 SLOAD SWAP1 PUSH2 0x100 EXP SWAP1 DIV PUSH1 0xFF AND PUSH1 0x5 DUP2 GT ISZERO PUSH2 0x4F9 JUMPI PUSH2 0x4F8 PUSH2 0x1149 JUMP JUMPDEST JUMPDEST EQ PUSH2 0x539 JUMPI PUSH1 0x40 MLOAD PUSH32 0x8C379A000000000000000000000000000000000000000000000000000000000 DUP2 MSTORE PUSH1 0x4 ADD PUSH2 0x530 SWAP1 PUSH2 0x1B09 JUMP JUMPDEST PUSH1 0x40 MLOAD DUP1 SWAP2 SUB SWAP1 REVERT JUMPDEST PUSH32 0xA97A4EE45751E2ABF3E4FC8946939630B11B371EA8AE39CCDC3056E98F5CC3F PUSH1 0x5 PUSH0 ADD PUSH0 SWAP1 SLOAD SWAP1 PUSH2 0x100 EXP SWAP1 DIV PUSH1 0xFF AND PUSH1 0x4 PUSH1 0x40 MLOAD PUSH2 0x57B SWAP3 SWAP2 SWAP1 PUSH2 0x1B36 JUMP JUMPDEST PUSH1 0x40 MLOAD DUP1 SWAP2 SUB SWAP1 LOG1 PUSH1 0x4 PUSH1 0x5 PUSH0 ADD PUSH0 PUSH2 0x100 EXP DUP2 SLOAD DUP2 PUSH1 0xFF MUL NOT AND SWAP1 DUP4 PUSH1 0x5 DUP2 GT ISZERO PUSH2 0x5AA JUMPI PUSH2 0x5A9 PUSH2 0x1149 JUMP JUMPDEST JUMPDEST MUL OR SWAP1 SSTORE POP JUMP JUMPDEST PUSH2 0x5B9 PUSH2 0xF48 JUMP JUMPDEST PUSH2 0x5C2 PUSH0 PUSH2 0xFCF JUMP JUMPDEST JUMP JUMPDEST PUSH2 0x5CC PUSH2 0x1097 JUMP JUMPDEST PUSH1 0x5 PUSH1 0x40 MLOAD DUP1 PUSH1 0x60 ADD PUSH1 0x40 MSTORE SWAP1 DUP2 PUSH0 DUP3 ADD PUSH0 SWAP1 SLOAD SWAP1 PUSH2 0x100 EXP SWAP1 DIV PUSH1 0xFF AND PUSH1 0x5 DUP2 GT ISZERO PUSH2 0x5FC JUMPI PUSH2 0x5FB PUSH2 0x1149 JUMP JUMPDEST JUMPDEST PUSH1 0x5 DUP2 GT ISZERO PUSH2 0x60E JUMPI PUSH2 0x60D PUSH2 0x1149 JUMP JUMPDEST JUMPDEST DUP2 MSTORE PUSH1 0x20 ADD PUSH0 DUP3 ADD PUSH1 0x1 SWAP1 SLOAD SWAP1 PUSH2 0x100 EXP SWAP1 DIV PUSH1 0xFF AND ISZERO ISZERO ISZERO ISZERO DUP2 MSTORE PUSH1 0x20 ADD PUSH1 0x1 DUP3 ADD DUP1 SLOAD DUP1 PUSH1 0x20 MUL PUSH1 0x20 ADD PUSH1 0x40 MLOAD SWAP1 DUP2 ADD PUSH1 0x40 MSTORE DUP1 SWAP3 SWAP2 SWAP1 DUP2 DUP2 MSTORE PUSH1 0x20 ADD PUSH0 SWAP1 JUMPDEST DUP3 DUP3 LT ISZERO PUSH2 0x719 JUMPI DUP4 DUP3 SWAP1 PUSH0 MSTORE PUSH1 0x20 PUSH0 KECCAK256 SWAP1 PUSH1 0x2 MUL ADD PUSH1 0x40 MLOAD DUP1 PUSH1 0x40 ADD PUSH1 0x40 MSTORE SWAP1 DUP2 PUSH0 DUP3 ADD DUP1 SLOAD PUSH2 0x680 SWAP1 PUSH2 0x175E JUMP JUMPDEST DUP1 PUSH1 0x1F ADD PUSH1 0x20 DUP1 SWAP2 DIV MUL PUSH1 0x20 ADD PUSH1 0x40 MLOAD SWAP1 DUP2 ADD PUSH1 0x40 MSTORE DUP1 SWAP3 SWAP2 SWAP1 DUP2 DUP2 MSTORE PUSH1 0x20 ADD DUP3 DUP1 SLOAD PUSH2 0x6AC SWAP1 PUSH2 0x175E JUMP JUMPDEST DUP1 ISZERO PUSH2 0x6F7 JUMPI DUP1 PUSH1 0x1F LT PUSH2 0x6CE JUMPI PUSH2 0x100 DUP1 DUP4 SLOAD DIV MUL DUP4 MSTORE SWAP2 PUSH1 0x20 ADD SWAP2 PUSH2 0x6F7 JUMP JUMPDEST DUP3 ADD SWAP2 SWAP1 PUSH0 MSTORE PUSH1 0x20 PUSH0 KECCAK256 SWAP1 JUMPDEST DUP2 SLOAD DUP2 MSTORE SWAP1 PUSH1 0x1 ADD SWAP1 PUSH1 0x20 ADD DUP1 DUP4 GT PUSH2 0x6DA JUMPI DUP3 SWAP1 SUB PUSH1 0x1F AND DUP3 ADD SWAP2 JUMPDEST POP POP POP POP POP DUP2 MSTORE PUSH1 0x20 ADD PUSH1 0x1 DUP3 ADD SLOAD DUP2 MSTORE POP POP DUP2 MSTORE PUSH1 0x20 ADD SWAP1 PUSH1 0x1 ADD SWAP1 PUSH2 0x650 JUMP JUMPDEST POP POP POP POP DUP2 MSTORE POP POP SWAP1 POP SWAP1 JUMP JUMPDEST PUSH2 0x72E PUSH2 0xF48 JUMP JUMPDEST PUSH1 0x1 PUSH1 0x5 DUP2 GT ISZERO PUSH2 0x742 JUMPI PUSH2 0x741 PUSH2 0x1149 JUMP JUMPDEST JUMPDEST PUSH1 0x5 PUSH0 ADD PUSH0 SWAP1 SLOAD SWAP1 PUSH2 0x100 EXP SWAP1 DIV PUSH1 0xFF AND PUSH1 0x5 DUP2 GT ISZERO PUSH2 0x765 JUMPI PUSH2 0x764 PUSH2 0x1149 JUMP JUMPDEST JUMPDEST EQ PUSH2 0x7A5 JUMPI PUSH1 0x40 MLOAD PUSH32 0x8C379A000000000000000000000000000000000000000000000000000000000 DUP2 MSTORE PUSH1 0x4 ADD PUSH2 0x79C SWAP1 PUSH2 0x1BCD JUMP JUMPDEST PUSH1 0x40 MLOAD DUP1 SWAP2 SUB SWAP1 REVERT JUMPDEST PUSH32 0xA97A4EE45751E2ABF3E4FC8946939630B11B371EA8AE39CCDC3056E98F5CC3F PUSH1 0x5 PUSH0 ADD PUSH0 SWAP1 SLOAD SWAP1 PUSH2 0x100 EXP SWAP1 DIV PUSH1 0xFF AND PUSH1 0x2 PUSH1 0x40 MLOAD PUSH2 0x7E7 SWAP3 SWAP2 SWAP1 PUSH2 0x1B36 JUMP JUMPDEST PUSH1 0x40 MLOAD DUP1 SWAP2 SUB SWAP1 LOG1 PUSH1 0x2 PUSH1 0x5 PUSH0 ADD PUSH0 PUSH2 0x100 EXP DUP2 SLOAD DUP2 PUSH1 0xFF MUL NOT AND SWAP1 DUP4 PUSH1 0x5 DUP2 GT ISZERO PUSH2 0x816 JUMPI PUSH2 0x815 PUSH2 0x1149 JUMP JUMPDEST JUMPDEST MUL OR SWAP1 SSTORE POP JUMP JUMPDEST PUSH0 DUP1 PUSH0 SWAP1 SLOAD SWAP1 PUSH2 0x100 EXP SWAP1 DIV PUSH20 0xFFFFFFFFFFFFFFFFFFFFFFFFFFFFFFFFFFFFFFFF AND SWAP1 POP SWAP1 JUMP JUMPDEST PUSH2 0x84C PUSH2 0x10CA JUMP JUMPDEST PUSH1 0x7 PUSH1 0x40 MLOAD DUP1 PUSH1 0x40 ADD PUSH1 0x40 MSTORE SWAP1 DUP2 PUSH0 DUP3 ADD DUP1 SLOAD PUSH2 0x868 SWAP1 PUSH2 0x175E JUMP JUMPDEST DUP1 PUSH1 0x1F ADD PUSH1 0x20 DUP1 SWAP2 DIV MUL PUSH1 0x20 ADD PUSH1 0x40 MLOAD SWAP1 DUP2 ADD PUSH1 0x40 MSTORE DUP1 SWAP3 SWAP2 SWAP1 DUP2 DUP2 MSTORE PUSH1 0x20 ADD DUP3 DUP1 SLOAD PUSH2 0x894 SWAP1 PUSH2 0x175E JUMP JUMPDEST DUP1 ISZERO PUSH2 0x8DF JUMPI DUP1 PUSH1 0x1F LT PUSH2 0x8B6 JUMPI PUSH2 0x100 DUP1 DUP4 SLOAD DIV MUL DUP4 MSTORE SWAP2 PUSH1 0x20 ADD SWAP2 PUSH2 0x8DF JUMP JUMPDEST DUP3 ADD SWAP2 SWAP1 PUSH0 MSTORE PUSH1 0x20 PUSH0 KECCAK256 SWAP1 JUMPDEST DUP2 SLOAD DUP2 MSTORE SWAP1 PUSH1 0x1 ADD SWAP1 PUSH1 0x20 ADD DUP1 DUP4 GT PUSH2 0x8C2 JUMPI DUP3 SWAP1 SUB PUSH1 0x1F AND DUP3 ADD SWAP2 JUMPDEST POP POP POP POP POP DUP2 MSTORE PUSH1 0x20 ADD PUSH1 0x1 DUP3 ADD SLOAD DUP2 MSTORE POP POP SWAP1 POP SWAP1 JUMP JUMPDEST PUSH1 0x9 PUSH1 0x20 MSTORE DUP1 PUSH0 MSTORE PUSH1 0x40 PUSH0 KECCAK256 PUSH0 SWAP2 POP SWAP1 POP DUP1 PUSH0 ADD PUSH0 SWAP1 SLOAD SWAP1 PUSH2 0x100 EXP SWAP1 DIV PUSH1 0xFF AND SWAP1 DUP1 PUSH0 ADD PUSH1 0x1 SWAP1 SLOAD SWAP1 PUSH2 0x100 EXP SWAP1 DIV PUSH1 0xFF AND SWAP1 DUP1 PUSH1 0x1 ADD SLOAD SWAP1 POP DUP4 JUMP JUMPDEST PUSH1 0x9 PUSH0 CALLER PUSH20 0xFFFFFFFFFFFFFFFFFFFFFFFFFFFFFFFFFFFFFFFF AND PUSH20 0xFFFFFFFFFFFFFFFFFFFFFFFFFFFFFFFFFFFFFFFF AND DUP2 MSTORE PUSH1 0x20 ADD SWAP1 DUP2 MSTORE PUSH1 0x20 ADD PUSH0 KECCAK256 PUSH0 ADD PUSH0 SWAP1 SLOAD SWAP1 PUSH2 0x100 EXP SWAP1 DIV PUSH1 0xFF AND PUSH2 0x9C0 JUMPI PUSH1 0x40 MLOAD PUSH32 0x8C379A000000000000000000000000000000000000000000000000000000000 DUP2 MSTORE PUSH1 0x4 ADD PUSH2 0x9B7 SWAP1 PUSH2 0x1686 JUMP JUMPDEST PUSH1 0x40 MLOAD DUP1 SWAP2 SUB SWAP1 REVERT JUMPDEST PUSH1 0x5 PUSH0 ADD PUSH1 0x1 SWAP1 SLOAD SWAP1 PUSH2 0x100 EXP SWAP1 DIV PUSH1 0xFF AND DUP1 PUSH2 0xA0F JUMPI POP CALLER PUSH20 0xFFFFFFFFFFFFFFFFFFFFFFFFFFFFFFFFFFFFFFFF AND PUSH2 0x9F7 PUSH2 0x81D JUMP JUMPDEST PUSH20 0xFFFFFFFFFFFFFFFFFFFFFFFFFFFFFFFFFFFFFFFF AND EQ JUMPDEST ISZERO PUSH2 0xB54 JUMPI PUSH1 0x1 PUSH1 0x5 DUP2 GT ISZERO PUSH2 0xA28 JUMPI PUSH2 0xA27 PUSH2 0x1149 JUMP JUMPDEST JUMPDEST PUSH1 0x5 PUSH0 ADD PUSH0 SWAP1 SLOAD SWAP1 PUSH2 0x100 EXP SWAP1 DIV PUSH1 0xFF AND PUSH1 0x5 DUP2 GT ISZERO PUSH2 0xA4B JUMPI PUSH2 0xA4A PUSH2 0x1149 JUMP JUMPDEST JUMPDEST EQ PUSH2 0xA54 JUMPI PUSH0 DUP1 REVERT JUMPDEST PUSH1 0x40 MLOAD DUP1 PUSH1 0x40 ADD PUSH1 0x40 MSTORE DUP1 DUP4 DUP4 DUP1 DUP1 PUSH1 0x1F ADD PUSH1 0x20 DUP1 SWAP2 DIV MUL PUSH1 0x20 ADD PUSH1 0x40 MLOAD SWAP1 DUP2 ADD PUSH1 0x40 MSTORE DUP1 SWAP4 SWAP3 SWAP2 SWAP1 DUP2 DUP2 MSTORE PUSH1 0x20 ADD DUP4 DUP4 DUP1 DUP3 DUP5 CALLDATACOPY PUSH0 DUP2 DUP5 ADD MSTORE PUSH1 0x1F NOT PUSH1 0x1F DUP3 ADD AND SWAP1 POP DUP1 DUP4 ADD SWAP3 POP POP POP POP POP POP POP DUP2 MSTORE PUSH1 0x20 ADD PUSH0 DUP2 MSTORE POP PUSH1 0x1 PUSH0 DUP3 ADD MLOAD DUP2 PUSH0 ADD SWAP1 DUP2 PUSH2 0xAC1 SWAP2 SWAP1 PUSH2 0x1BEB JUMP JUMPDEST POP PUSH1 0x20 DUP3 ADD MLOAD DUP2 PUSH1 0x1 ADD SSTORE SWAP1 POP POP PUSH1 0x5 PUSH1 0x1 ADD PUSH1 0x1 SWAP1 DUP1 PUSH1 0x1 DUP2 SLOAD ADD DUP1 DUP3 SSTORE DUP1 SWAP2 POP POP PUSH1 0x1 SWAP1 SUB SWAP1 PUSH0 MSTORE PUSH1 0x20 PUSH0 KECCAK256 SWAP1 PUSH1 0x2 MUL ADD PUSH0 SWAP1 SWAP2 SWAP1 SWAP2 SWAP1 SWAP2 POP PUSH0 DUP3 ADD DUP2 PUSH0 ADD SWAP1 DUP2 PUSH2 0xB0E SWAP2 SWAP1 PUSH2 0x196D JUMP JUMPDEST POP PUSH1 0x1 DUP3 ADD SLOAD DUP2 PUSH1 0x1 ADD SSTORE POP POP PUSH32 0xC90604C068B8EFD40FC7ABB985D0A8C41192FF10CD393403F3DDDF0C39E5A1D9 PUSH1 0x1 PUSH1 0x40 MLOAD PUSH2 0xB4B SWAP2 SWAP1 PUSH2 0x1DAE JUMP JUMPDEST PUSH1 0x40 MLOAD DUP1 SWAP2 SUB SWAP1 LOG1 JUMPDEST POP POP JUMP JUMPDEST PUSH2 0xB60 PUSH2 0xF48 JUMP JUMPDEST PUSH1 0x2 PUSH1 0x5 DUP2 GT ISZERO PUSH2 0xB74 JUMPI PUSH2 0xB73 PUSH2 0x1149 JUMP JUMPDEST JUMPDEST PUSH1 0x5 PUSH0 ADD PUSH0 SWAP1 SLOAD SWAP1 PUSH2 0x100 EXP SWAP1 DIV PUSH1 0xFF AND PUSH1 0x5 DUP2 GT ISZERO PUSH2 0xB97 JUMPI PUSH2 0xB96 PUSH2 0x1149 JUMP JUMPDEST JUMPDEST EQ PUSH2 0xBD7 JUMPI PUSH1 0x40 MLOAD PUSH32 0x8C379A000000000000000000000000000000000000000000000000000000000 DUP2 MSTORE PUSH1 0x4 ADD PUSH2 0xBCE SWAP1 PUSH2 0x1E3E JUMP JUMPDEST PUSH1 0x40 MLOAD DUP1 SWAP2 SUB SWAP1 REVERT JUMPDEST PUSH32 0xA97A4EE45751E2ABF3E4FC8946939630B11B371EA8AE39CCDC3056E98F5CC3F PUSH1 0x5 PUSH0 ADD PUSH0 SWAP1 SLOAD SWAP1 PUSH2 0x100 EXP SWAP1 DIV PUSH1 0xFF AND PUSH1 0x3 PUSH1 0x40 MLOAD PUSH2 0xC19 SWAP3 SWAP2 SWAP1 PUSH2 0x1B36 JUMP JUMPDEST PUSH1 0x40 MLOAD DUP1 SWAP2 SUB SWAP1 LOG1 PUSH1 0x3 PUSH1 0x5 PUSH0 ADD PUSH0 PUSH2 0x100 EXP DUP2 SLOAD DUP2 PUSH1 0xFF MUL NOT AND SWAP1 DUP4 PUSH1 0x5 DUP2 GT ISZERO PUSH2 0xC48 JUMPI PUSH2 0xC47 PUSH2 0x1149 JUMP JUMPDEST JUMPDEST MUL OR SWAP1 SSTORE POP JUMP JUMPDEST PUSH2 0xC57 PUSH2 0xF48 JUMP JUMPDEST PUSH1 0x1 PUSH1 0x9 PUSH0 PUSH2 0xC64 PUSH2 0x81D JUMP JUMPDEST PUSH20 0xFFFFFFFFFFFFFFFFFFFFFFFFFFFFFFFFFFFFFFFF AND PUSH20 0xFFFFFFFFFFFFFFFFFFFFFFFFFFFFFFFFFFFFFFFF AND DUP2 MSTORE PUSH1 0x20 ADD SWAP1 DUP2 MSTORE PUSH1 0x20 ADD PUSH0 KECCAK256 PUSH0 ADD PUSH0 PUSH2 0x100 EXP DUP2 SLOAD DUP2 PUSH1 0xFF MUL NOT AND SWAP1 DUP4 ISZERO ISZERO MUL OR SWAP1 SSTORE POP PUSH32 0xA97A4EE45751E2ABF3E4FC8946939630B11B371EA8AE39CCDC3056E98F5CC3F PUSH1 0x5 PUSH0 ADD PUSH0 SWAP1 SLOAD SWAP1 PUSH2 0x100 EXP SWAP1 DIV PUSH1 0xFF AND PUSH1 0x1 PUSH1 0x40 MLOAD PUSH2 0xCF7 SWAP3 SWAP2 SWAP1 PUSH2 0x1B36 JUMP JUMPDEST PUSH1 0x40 MLOAD DUP1 SWAP2 SUB SWAP1 LOG1 PUSH1 0x1 PUSH1 0x5 PUSH0 ADD PUSH0 PUSH2 0x100 EXP DUP2 SLOAD DUP2 PUSH1 0xFF MUL NOT AND SWAP1 DUP4 PUSH1 0x5 DUP2 GT ISZERO PUSH2 0xD26 JUMPI PUSH2 0xD25 PUSH2 0x1149 JUMP JUMPDEST JUMPDEST MUL OR SWAP1 SSTORE POP DUP1 PUSH1 0x5 PUSH0 ADD PUSH1 0x1 PUSH2 0x100 EXP DUP2 SLOAD DUP2 PUSH1 0xFF MUL NOT AND SWAP1 DUP4 ISZERO ISZERO MUL OR SWAP1 SSTORE POP POP JUMP JUMPDEST PUSH2 0xD52 PUSH2 0xF48 JUMP JUMPDEST PUSH0 PUSH20 0xFFFFFFFFFFFFFFFFFFFFFFFFFFFFFFFFFFFFFFFF AND DUP2 PUSH20 0xFFFFFFFFFFFFFFFFFFFFFFFFFFFFFFFFFFFFFFFF AND SUB PUSH2 0xDC2 JUMPI PUSH0 PUSH1 0x40 MLOAD PUSH32 0x1E4FBDF700000000000000000000000000000000000000000000000000000000 DUP2 MSTORE PUSH1 0x4 ADD PUSH2 0xDB9 SWAP2 SWAP1 PUSH2 0x1410 JUMP JUMPDEST PUSH1 0x40 MLOAD DUP1 SWAP2 SUB SWAP1 REVERT JUMPDEST PUSH2 0xDCB DUP2 PUSH2 0xFCF JUMP JUMPDEST POP JUMP JUMPDEST PUSH2 0xDD6 PUSH2 0xF48 JUMP JUMPDEST PUSH1 0x9 PUSH0 DUP3 PUSH20 0xFFFFFFFFFFFFFFFFFFFFFFFFFFFFFFFFFFFFFFFF AND PUSH20 0xFFFFFFFFFFFFFFFFFFFFFFFFFFFFFFFFFFFFFFFF AND DUP2 MSTORE PUSH1 0x20 ADD SWAP1 DUP2 MSTORE PUSH1 0x20 ADD PUSH0 KECCAK256 PUSH0 ADD PUSH0 SWAP1 SLOAD SWAP1 PUSH2 0x100 EXP SWAP1 DIV PUSH1 0xFF AND ISZERO PUSH2 0xE2B JUMPI PUSH0 DUP1 REVERT JUMPDEST PUSH1 0x40 MLOAD DUP1 PUSH1 0x60 ADD PUSH1 0x40 MSTORE DUP1 PUSH1 0x1 ISZERO ISZERO DUP2 MSTORE PUSH1 0x20 ADD PUSH0 ISZERO ISZERO DUP2 MSTORE PUSH1 0x20 ADD PUSH0 DUP2 MSTORE POP PUSH1 0x9 PUSH0 DUP4 PUSH20 0xFFFFFFFFFFFFFFFFFFFFFFFFFFFFFFFFFFFFFFFF AND PUSH20 0xFFFFFFFFFFFFFFFFFFFFFFFFFFFFFFFFFFFFFFFF AND DUP2 MSTORE PUSH1 0x20 ADD SWAP1 DUP2 MSTORE PUSH1 0x20 ADD PUSH0 KECCAK256 PUSH0 DUP3 ADD MLOAD DUP2 PUSH0 ADD PUSH0 PUSH2 0x100 EXP DUP2 SLOAD DUP2 PUSH1 0xFF MUL NOT AND SWAP1 DUP4 ISZERO ISZERO MUL OR SWAP1 SSTORE POP PUSH1 0x20 DUP3 ADD MLOAD DUP2 PUSH0 ADD PUSH1 0x1 PUSH2 0x100 EXP DUP2 SLOAD DUP2 PUSH1 0xFF MUL NOT AND SWAP1 DUP4 ISZERO ISZERO MUL OR SWAP1 SSTORE POP PUSH1 0x40 DUP3 ADD MLOAD DUP2 PUSH1 0x1 ADD SSTORE SWAP1 POP POP PUSH32 0xA97A4EE45751E2ABF3E4FC8946939630B11B371EA8AE39CCDC3056E98F5CC3F PUSH1 0x5 PUSH0 ADD PUSH0 SWAP1 SLOAD SWAP1 PUSH2 0x100 EXP SWAP1 DIV PUSH1 0xFF AND PUSH0 PUSH1 0x40 MLOAD PUSH2 0xF12 SWAP3 SWAP2 SWAP1 PUSH2 0x1B36 JUMP JUMPDEST PUSH1 0x40 MLOAD DUP1 SWAP2 SUB SWAP1 LOG1 PUSH0 PUSH1 0x5 PUSH0 ADD PUSH0 PUSH2 0x100 EXP DUP2 SLOAD DUP2 PUSH1 0xFF MUL NOT AND SWAP1 DUP4 PUSH1 0x5 DUP2 GT ISZERO PUSH2 0xF40 JUMPI PUSH2 0xF3F PUSH2 0x1149 JUMP JUMPDEST JUMPDEST MUL OR SWAP1 SSTORE POP POP JUMP JUMPDEST PUSH2 0xF50 PUSH2 0x1090 JUMP JUMPDEST PUSH20 0xFFFFFFFFFFFFFFFFFFFFFFFFFFFFFFFFFFFFFFFF AND PUSH2 0xF6E PUSH2 0x81D JUMP JUMPDEST PUSH20 0xFFFFFFFFFFFFFFFFFFFFFFFFFFFFFFFFFFFFFFFF AND EQ PUSH2 0xFCD JUMPI PUSH2 0xF91 PUSH2 0x1090 JUMP JUMPDEST PUSH1 0x40 MLOAD PUSH32 0x118CDAA700000000000000000000000000000000000000000000000000000000 DUP2 MSTORE PUSH1 0x4 ADD PUSH2 0xFC4 SWAP2 SWAP1 PUSH2 0x1410 JUMP JUMPDEST PUSH1 0x40 MLOAD DUP1 SWAP2 SUB SWAP1 REVERT JUMPDEST JUMP JUMPDEST PUSH0 DUP1 PUSH0 SWAP1 SLOAD SWAP1 PUSH2 0x100 EXP SWAP1 DIV PUSH20 0xFFFFFFFFFFFFFFFFFFFFFFFFFFFFFFFFFFFFFFFF AND SWAP1 POP DUP2 PUSH0 DUP1 PUSH2 0x100 EXP DUP2 SLOAD DUP2 PUSH20 0xFFFFFFFFFFFFFFFFFFFFFFFFFFFFFFFFFFFFFFFF MUL NOT AND SWAP1 DUP4 PUSH20 0xFFFFFFFFFFFFFFFFFFFFFFFFFFFFFFFFFFFFFFFF AND MUL OR SWAP1 SSTORE POP DUP2 PUSH20 0xFFFFFFFFFFFFFFFFFFFFFFFFFFFFFFFFFFFFFFFF AND DUP2 PUSH20 0xFFFFFFFFFFFFFFFFFFFFFFFFFFFFFFFFFFFFFFFF AND PUSH32 0x8BE0079C531659141344CD1FD0A4F28419497F9722A3DAAFE3B4186F6B6457E0 PUSH1 0x40 MLOAD PUSH1 0x40 MLOAD DUP1 SWAP2 SUB SWAP1 LOG3 POP POP JUMP JUMPDEST PUSH0 CALLER SWAP1 POP SWAP1 JUMP JUMPDEST PUSH1 0x40 MLOAD DUP1 PUSH1 0x60 ADD PUSH1 0x40 MSTORE DUP1 PUSH0 PUSH1 0x5 DUP2 GT ISZERO PUSH2 0x10B5 JUMPI PUSH2 0x10B4 PUSH2 0x1149 JUMP JUMPDEST JUMPDEST DUP2 MSTORE PUSH1 0x20 ADD PUSH0 ISZERO ISZERO DUP2 MSTORE PUSH1 0x20 ADD PUSH1 0x60 DUP2 MSTORE POP SWAP1 JUMP JUMPDEST PUSH1 0x40 MLOAD DUP1 PUSH1 0x40 ADD PUSH1 0x40 MSTORE DUP1 PUSH1 0x60 DUP2 MSTORE PUSH1 0x20 ADD PUSH0 DUP2 MSTORE POP SWAP1 JUMP JUMPDEST PUSH0 DUP1 REVERT JUMPDEST PUSH0 DUP1 REVERT JUMPDEST PUSH0 DUP2 SWAP1 POP SWAP2 SWAP1 POP JUMP JUMPDEST PUSH2 0x10FD DUP2 PUSH2 0x10EB JUMP JUMPDEST DUP2 EQ PUSH2 0x1107 JUMPI PUSH0 DUP1 REVERT JUMPDEST POP JUMP JUMPDEST PUSH0 DUP2 CALLDATALOAD SWAP1 POP PUSH2 0x1118 DUP2 PUSH2 0x10F4 JUMP JUMPDEST SWAP3 SWAP2 POP POP JUMP JUMPDEST PUSH0 PUSH1 0x20 DUP3 DUP5 SUB SLT ISZERO PUSH2 0x1133 JUMPI PUSH2 0x1132 PUSH2 0x10E3 JUMP JUMPDEST JUMPDEST PUSH0 PUSH2 0x1140 DUP5 DUP3 DUP6 ADD PUSH2 0x110A JUMP JUMPDEST SWAP2 POP POP SWAP3 SWAP2 POP POP JUMP JUMPDEST PUSH32 0x4E487B7100000000000000000000000000000000000000000000000000000000 PUSH0 MSTORE PUSH1 0x21 PUSH1 0x4 MSTORE PUSH1 0x24 PUSH0 REVERT JUMPDEST PUSH1 0x6 DUP2 LT PUSH2 0x1187 JUMPI PUSH2 0x1186 PUSH2 0x1149 JUMP JUMPDEST JUMPDEST POP JUMP JUMPDEST PUSH0 DUP2 SWAP1 POP PUSH2 0x1197 DUP3 PUSH2 0x1176 JUMP JUMPDEST SWAP2 SWAP1 POP JUMP JUMPDEST PUSH0 PUSH2 0x11A6 DUP3 PUSH2 0x118A JUMP JUMPDEST SWAP1 POP SWAP2 SWAP1 POP JUMP JUMPDEST PUSH2 0x11B6 DUP2 PUSH2 0x119C JUMP JUMPDEST DUP3 MSTORE POP POP JUMP JUMPDEST PUSH0 DUP2 ISZERO ISZERO SWAP1 POP SWAP2 SWAP1 POP JUMP JUMPDEST PUSH2 0x11D0 DUP2 PUSH2 0x11BC JUMP JUMPDEST DUP3 MSTORE POP POP JUMP JUMPDEST PUSH0 DUP2 MLOAD SWAP1 POP SWAP2 SWAP1 POP JUMP JUMPDEST PUSH0 DUP3 DUP3 MSTORE PUSH1 0x20 DUP3 ADD SWAP1 POP SWAP3 SWAP2 POP POP JUMP JUMPDEST PUSH0 DUP2 SWAP1 POP PUSH1 0x20 DUP3 ADD SWAP1 POP SWAP2 SWAP1 POP JUMP JUMPDEST PUSH0 DUP2 MLOAD SWAP1 POP SWAP2 SWAP1 POP JUMP JUMPDEST PUSH0 DUP3 DUP3 MSTORE PUSH1 0x20 DUP3 ADD SWAP1 POP SWAP3 SWAP2 POP POP JUMP JUMPDEST PUSH0 JUMPDEST DUP4 DUP2 LT ISZERO PUSH2 0x1236 JUMPI DUP1 DUP3 ADD MLOAD DUP2 DUP5 ADD MSTORE PUSH1 0x20 DUP2 ADD SWAP1 POP PUSH2 0x121B JUMP JUMPDEST PUSH0 DUP5 DUP5 ADD MSTORE POP POP POP POP JUMP JUMPDEST PUSH0 PUSH1 0x1F NOT PUSH1 0x1F DUP4 ADD AND SWAP1 POP SWAP2 SWAP1 POP JUMP JUMPDEST PUSH0 PUSH2 0x125B DUP3 PUSH2 0x11FF JUMP JUMPDEST PUSH2 0x1265 DUP2 DUP6 PUSH2 0x1209 JUMP JUMPDEST SWAP4 POP PUSH2 0x1275 DUP2 DUP6 PUSH1 0x20 DUP7 ADD PUSH2 0x1219 JUMP JUMPDEST PUSH2 0x127E DUP2 PUSH2 0x1241 JUMP JUMPDEST DUP5 ADD SWAP2 POP POP SWAP3 SWAP2 POP POP JUMP JUMPDEST PUSH2 0x1292 DUP2 PUSH2 0x10EB JUMP JUMPDEST DUP3 MSTORE POP POP JUMP JUMPDEST PUSH0 PUSH1 0x40 DUP4 ADD PUSH0 DUP4 ADD MLOAD DUP5 DUP3 SUB PUSH0 DUP7 ADD MSTORE PUSH2 0x12B2 DUP3 DUP3 PUSH2 0x1251 JUMP JUMPDEST SWAP2 POP POP PUSH1 0x20 DUP4 ADD MLOAD PUSH2 0x12C7 PUSH1 0x20 DUP7 ADD DUP3 PUSH2 0x1289 JUMP JUMPDEST POP DUP1 SWAP2 POP POP SWAP3 SWAP2 POP POP JUMP JUMPDEST PUSH0 PUSH2 0x12DD DUP4 DUP4 PUSH2 0x1298 JUMP JUMPDEST SWAP1 POP SWAP3 SWAP2 POP POP JUMP JUMPDEST PUSH0 PUSH1 0x20 DUP3 ADD SWAP1 POP SWAP2 SWAP1 POP JUMP JUMPDEST PUSH0 PUSH2 0x12FB DUP3 PUSH2 0x11D6 JUMP JUMPDEST PUSH2 0x1305 DUP2 DUP6 PUSH2 0x11E0 JUMP JUMPDEST SWAP4 POP DUP4 PUSH1 0x20 DUP3 MUL DUP6 ADD PUSH2 0x1317 DUP6 PUSH2 0x11F0 JUMP JUMPDEST DUP1 PUSH0 JUMPDEST DUP6 DUP2 LT ISZERO PUSH2 0x1352 JUMPI DUP5 DUP5 SUB DUP10 MSTORE DUP2 MLOAD PUSH2 0x1333 DUP6 DUP3 PUSH2 0x12D2 JUMP JUMPDEST SWAP5 POP PUSH2 0x133E DUP4 PUSH2 0x12E5 JUMP JUMPDEST SWAP3 POP PUSH1 0x20 DUP11 ADD SWAP10 POP POP PUSH1 0x1 DUP2 ADD SWAP1 POP PUSH2 0x131A JUMP JUMPDEST POP DUP3 SWAP8 POP DUP8 SWAP6 POP POP POP POP POP POP SWAP3 SWAP2 POP POP JUMP JUMPDEST PUSH0 PUSH1 0x60 DUP4 ADD PUSH0 DUP4 ADD MLOAD PUSH2 0x1379 PUSH0 DUP7 ADD DUP3 PUSH2 0x11AD JUMP JUMPDEST POP PUSH1 0x20 DUP4 ADD MLOAD PUSH2 0x138C PUSH1 0x20 DUP7 ADD DUP3 PUSH2 0x11C7 JUMP JUMPDEST POP PUSH1 0x40 DUP4 ADD MLOAD DUP5 DUP3 SUB PUSH1 0x40 DUP7 ADD MSTORE PUSH2 0x13A4 DUP3 DUP3 PUSH2 0x12F1 JUMP JUMPDEST SWAP2 POP POP DUP1 SWAP2 POP POP SWAP3 SWAP2 POP POP JUMP JUMPDEST PUSH0 PUSH1 0x20 DUP3 ADD SWAP1 POP DUP2 DUP2 SUB PUSH0 DUP4 ADD MSTORE PUSH2 0x13C9 DUP2 DUP5 PUSH2 0x1364 JUMP JUMPDEST SWAP1 POP SWAP3 SWAP2 POP POP JUMP JUMPDEST PUSH0 PUSH20 0xFFFFFFFFFFFFFFFFFFFFFFFFFFFFFFFFFFFFFFFF DUP3 AND SWAP1 POP SWAP2 SWAP1 POP JUMP JUMPDEST PUSH0 PUSH2 0x13FA DUP3 PUSH2 0x13D1 JUMP JUMPDEST SWAP1 POP SWAP2 SWAP1 POP JUMP JUMPDEST PUSH2 0x140A DUP2 PUSH2 0x13F0 JUMP JUMPDEST DUP3 MSTORE POP POP JUMP JUMPDEST PUSH0 PUSH1 0x20 DUP3 ADD SWAP1 POP PUSH2 0x1423 PUSH0 DUP4 ADD DUP5 PUSH2 0x1401 JUMP JUMPDEST SWAP3 SWAP2 POP POP JUMP JUMPDEST PUSH0 PUSH1 0x40 DUP4 ADD PUSH0 DUP4 ADD MLOAD DUP5 DUP3 SUB PUSH0 DUP7 ADD MSTORE PUSH2 0x1443 DUP3 DUP3 PUSH2 0x1251 JUMP JUMPDEST SWAP2 POP POP PUSH1 0x20 DUP4 ADD MLOAD PUSH2 0x1458 PUSH1 0x20 DUP7 ADD DUP3 PUSH2 0x1289 JUMP JUMPDEST POP DUP1 SWAP2 POP POP SWAP3 SWAP2 POP POP JUMP JUMPDEST PUSH0 PUSH1 0x20 DUP3 ADD SWAP1 POP DUP2 DUP2 SUB PUSH0 DUP4 ADD MSTORE PUSH2 0x147B DUP2 DUP5 PUSH2 0x1429 JUMP JUMPDEST SWAP1 POP SWAP3 SWAP2 POP POP JUMP JUMPDEST PUSH2 0x148C DUP2 PUSH2 0x13F0 JUMP JUMPDEST DUP2 EQ PUSH2 0x1496 JUMPI PUSH0 DUP1 REVERT JUMPDEST POP JUMP JUMPDEST PUSH0 DUP2 CALLDATALOAD SWAP1 POP PUSH2 0x14A7 DUP2 PUSH2 0x1483 JUMP JUMPDEST SWAP3 SWAP2 POP POP JUMP JUMPDEST PUSH0 PUSH1 0x20 DUP3 DUP5 SUB SLT ISZERO PUSH2 0x14C2 JUMPI PUSH2 0x14C1 PUSH2 0x10E3 JUMP JUMPDEST JUMPDEST PUSH0 PUSH2 0x14CF DUP5 DUP3 DUP6 ADD PUSH2 0x1499 JUMP JUMPDEST SWAP2 POP POP SWAP3 SWAP2 POP POP JUMP JUMPDEST PUSH2 0x14E1 DUP2 PUSH2 0x11BC JUMP JUMPDEST DUP3 MSTORE POP POP JUMP JUMPDEST PUSH2 0x14F0 DUP2 PUSH2 0x10EB JUMP JUMPDEST DUP3 MSTORE POP POP JUMP JUMPDEST PUSH0 PUSH1 0x60 DUP3 ADD SWAP1 POP PUSH2 0x1509 PUSH0 DUP4 ADD DUP7 PUSH2 0x14D8 JUMP JUMPDEST PUSH2 0x1516 PUSH1 0x20 DUP4 ADD DUP6 PUSH2 0x14D8 JUMP JUMPDEST PUSH2 0x1523 PUSH1 0x40 DUP4 ADD DUP5 PUSH2 0x14E7 JUMP JUMPDEST SWAP5 SWAP4 POP POP POP POP JUMP JUMPDEST PUSH0 DUP1 REVERT JUMPDEST PUSH0 DUP1 REVERT JUMPDEST PUSH0 DUP1 REVERT JUMPDEST PUSH0 DUP1 DUP4 PUSH1 0x1F DUP5 ADD SLT PUSH2 0x154C JUMPI PUSH2 0x154B PUSH2 0x152B JUMP JUMPDEST JUMPDEST DUP3 CALLDATALOAD SWAP1 POP PUSH8 0xFFFFFFFFFFFFFFFF DUP2 GT ISZERO PUSH2 0x1569 JUMPI PUSH2 0x1568 PUSH2 0x152F JUMP JUMPDEST JUMPDEST PUSH1 0x20 DUP4 ADD SWAP2 POP DUP4 PUSH1 0x1 DUP3 MUL DUP4 ADD GT ISZERO PUSH2 0x1585 JUMPI PUSH2 0x1584 PUSH2 0x1533 JUMP JUMPDEST JUMPDEST SWAP3 POP SWAP3 SWAP1 POP JUMP JUMPDEST PUSH0 DUP1 PUSH1 0x20 DUP4 DUP6 SUB SLT ISZERO PUSH2 0x15A2 JUMPI PUSH2 0x15A1 PUSH2 0x10E3 JUMP JUMPDEST JUMPDEST PUSH0 DUP4 ADD CALLDATALOAD PUSH8 0xFFFFFFFFFFFFFFFF DUP2 GT ISZERO PUSH2 0x15BF JUMPI PUSH2 0x15BE PUSH2 0x10E7 JUMP JUMPDEST JUMPDEST PUSH2 0x15CB DUP6 DUP3 DUP7 ADD PUSH2 0x1537 JUMP JUMPDEST SWAP3 POP SWAP3 POP POP SWAP3 POP SWAP3 SWAP1 POP JUMP JUMPDEST PUSH2 0x15E0 DUP2 PUSH2 0x11BC JUMP JUMPDEST DUP2 EQ PUSH2 0x15EA JUMPI PUSH0 DUP1 REVERT JUMPDEST POP JUMP JUMPDEST PUSH0 DUP2 CALLDATALOAD SWAP1 POP PUSH2 0x15FB DUP2 PUSH2 0x15D7 JUMP JUMPDEST SWAP3 SWAP2 POP POP JUMP JUMPDEST PUSH0 PUSH1 0x20 DUP3 DUP5 SUB SLT ISZERO PUSH2 0x1616 JUMPI PUSH2 0x1615 PUSH2 0x10E3 JUMP JUMPDEST JUMPDEST PUSH0 PUSH2 0x1623 DUP5 DUP3 DUP6 ADD PUSH2 0x15ED JUMP JUMPDEST SWAP2 POP POP SWAP3 SWAP2 POP POP JUMP JUMPDEST PUSH0 DUP3 DUP3 MSTORE PUSH1 0x20 DUP3 ADD SWAP1 POP SWAP3 SWAP2 POP POP JUMP JUMPDEST PUSH32 0x6973206E6F742077686974656C69737465640000000000000000000000000000 PUSH0 DUP3 ADD MSTORE POP JUMP JUMPDEST PUSH0 PUSH2 0x1670 PUSH1 0x12 DUP4 PUSH2 0x162C JUMP JUMPDEST SWAP2 POP PUSH2 0x167B DUP3 PUSH2 0x163C JUMP JUMPDEST PUSH1 0x20 DUP3 ADD SWAP1 POP SWAP2 SWAP1 POP JUMP JUMPDEST PUSH0 PUSH1 0x20 DUP3 ADD SWAP1 POP DUP2 DUP2 SUB PUSH0 DUP4 ADD MSTORE PUSH2 0x169D DUP2 PUSH2 0x1664 JUMP JUMPDEST SWAP1 POP SWAP2 SWAP1 POP JUMP JUMPDEST PUSH32 0x4E487B7100000000000000000000000000000000000000000000000000000000 PUSH0 MSTORE PUSH1 0x32 PUSH1 0x4 MSTORE PUSH1 0x24 PUSH0 REVERT JUMPDEST PUSH32 0x4E487B7100000000000000000000000000000000000000000000000000000000 PUSH0 MSTORE PUSH1 0x11 PUSH1 0x4 MSTORE PUSH1 0x24 PUSH0 REVERT JUMPDEST PUSH0 PUSH2 0x1708 DUP3 PUSH2 0x10EB JUMP JUMPDEST SWAP2 POP PUSH2 0x1713 DUP4 PUSH2 0x10EB JUMP JUMPDEST SWAP3 POP DUP3 DUP3 ADD SWAP1 POP DUP1 DUP3 GT ISZERO PUSH2 0x172B JUMPI PUSH2 0x172A PUSH2 0x16D1 JUMP JUMPDEST JUMPDEST SWAP3 SWAP2 POP POP JUMP JUMPDEST PUSH32 0x4E487B7100000000000000000000000000000000000000000000000000000000 PUSH0 MSTORE PUSH1 0x22 PUSH1 0x4 MSTORE PUSH1 0x24 PUSH0 REVERT JUMPDEST PUSH0 PUSH1 0x2 DUP3 DIV SWAP1 POP PUSH1 0x1 DUP3 AND DUP1 PUSH2 0x1775 JUMPI PUSH1 0x7F DUP3 AND SWAP2 POP JUMPDEST PUSH1 0x20 DUP3 LT DUP2 SUB PUSH2 0x1788 JUMPI PUSH2 0x1787 PUSH2 0x1731 JUMP JUMPDEST JUMPDEST POP SWAP2 SWAP1 POP JUMP JUMPDEST PUSH0 DUP2 SLOAD SWAP1 POP PUSH2 0x179C DUP2 PUSH2 0x175E JUMP JUMPDEST SWAP1 POP SWAP2 SWAP1 POP JUMP JUMPDEST PUSH32 0x4E487B7100000000000000000000000000000000000000000000000000000000 PUSH0 MSTORE PUSH1 0x41 PUSH1 0x4 MSTORE PUSH1 0x24 PUSH0 REVERT JUMPDEST PUSH0 DUP2 SWAP1 POP DUP2 PUSH0 MSTORE PUSH1 0x20 PUSH0 KECCAK256 SWAP1 POP SWAP2 SWAP1 POP JUMP JUMPDEST PUSH0 PUSH1 0x20 PUSH1 0x1F DUP4 ADD DIV SWAP1 POP SWAP2 SWAP1 POP JUMP JUMPDEST PUSH0 DUP3 DUP3 SHL SWAP1 POP SWAP3 SWAP2 POP POP JUMP JUMPDEST PUSH0 PUSH1 0x8 DUP4 MUL PUSH2 0x182C PUSH32 0xFFFFFFFFFFFFFFFFFFFFFFFFFFFFFFFFFFFFFFFFFFFFFFFFFFFFFFFFFFFFFFFF DUP3 PUSH2 0x17F1 JUMP JUMPDEST PUSH2 0x1836 DUP7 DUP4 PUSH2 0x17F1 JUMP JUMPDEST SWAP6 POP DUP1 NOT DUP5 AND SWAP4 POP DUP1 DUP7 AND DUP5 OR SWAP3 POP POP POP SWAP4 SWAP3 POP POP POP JUMP JUMPDEST PUSH0 DUP2 SWAP1 POP SWAP2 SWAP1 POP JUMP JUMPDEST PUSH0 PUSH2 0x1871 PUSH2 0x186C PUSH2 0x1867 DUP5 PUSH2 0x10EB JUMP JUMPDEST PUSH2 0x184E JUMP JUMPDEST PUSH2 0x10EB JUMP JUMPDEST SWAP1 POP SWAP2 SWAP1 POP JUMP JUMPDEST PUSH0 DUP2 SWAP1 POP SWAP2 SWAP1 POP JUMP JUMPDEST PUSH2 0x188A DUP4 PUSH2 0x1857 JUMP JUMPDEST PUSH2 0x189E PUSH2 0x1896 DUP3 PUSH2 0x1878 JUMP JUMPDEST DUP5 DUP5 SLOAD PUSH2 0x17FD JUMP JUMPDEST DUP3 SSTORE POP POP POP POP JUMP JUMPDEST PUSH0 SWAP1 JUMP JUMPDEST PUSH2 0x18B2 PUSH2 0x18A6 JUMP JUMPDEST PUSH2 0x18BD DUP2 DUP5 DUP5 PUSH2 0x1881 JUMP JUMPDEST POP POP POP JUMP JUMPDEST JUMPDEST DUP2 DUP2 LT ISZERO PUSH2 0x18E0 JUMPI PUSH2 0x18D5 PUSH0 DUP3 PUSH2 0x18AA JUMP JUMPDEST PUSH1 0x1 DUP2 ADD SWAP1 POP PUSH2 0x18C3 JUMP JUMPDEST POP POP JUMP JUMPDEST PUSH1 0x1F DUP3 GT ISZERO PUSH2 0x1925 JUMPI PUSH2 0x18F6 DUP2 PUSH2 0x17D0 JUMP JUMPDEST PUSH2 0x18FF DUP5 PUSH2 0x17E2 JUMP JUMPDEST DUP2 ADD PUSH1 0x20 DUP6 LT ISZERO PUSH2 0x190E JUMPI DUP2 SWAP1 POP JUMPDEST PUSH2 0x1922 PUSH2 0x191A DUP6 PUSH2 0x17E2 JUMP JUMPDEST DUP4 ADD DUP3 PUSH2 0x18C2 JUMP JUMPDEST POP POP JUMPDEST POP POP POP JUMP JUMPDEST PUSH0 DUP3 DUP3 SHR SWAP1 POP SWAP3 SWAP2 POP POP JUMP JUMPDEST PUSH0 PUSH2 0x1945 PUSH0 NOT DUP5 PUSH1 0x8 MUL PUSH2 0x192A JUMP JUMPDEST NOT DUP1 DUP4 AND SWAP2 POP POP SWAP3 SWAP2 POP POP JUMP JUMPDEST PUSH0 PUSH2 0x195D DUP4 DUP4 PUSH2 0x1936 JUMP JUMPDEST SWAP2 POP DUP3 PUSH1 0x2 MUL DUP3 OR SWAP1 POP SWAP3 SWAP2 POP POP JUMP JUMPDEST DUP2 DUP2 SUB PUSH2 0x197B JUMPI POP POP PUSH2 0x1A50 JUMP JUMPDEST PUSH2 0x1984 DUP3 PUSH2 0x178E JUMP JUMPDEST PUSH8 0xFFFFFFFFFFFFFFFF DUP2 GT ISZERO PUSH2 0x199D JUMPI PUSH2 0x199C PUSH2 0x17A3 JUMP JUMPDEST JUMPDEST PUSH2 0x19A7 DUP3 SLOAD PUSH2 0x175E JUMP JUMPDEST PUSH2 0x19B2 DUP3 DUP3 DUP6 PUSH2 0x18E4 JUMP JUMPDEST PUSH0 PUSH1 0x1F DUP4 GT PUSH1 0x1 DUP2 EQ PUSH2 0x19DF JUMPI PUSH0 DUP5 ISZERO PUSH2 0x19CD JUMPI DUP3 DUP8 ADD SLOAD SWAP1 POP JUMPDEST PUSH2 0x19D7 DUP6 DUP3 PUSH2 0x1952 JUMP JUMPDEST DUP7 SSTORE POP PUSH2 0x1A49 JUMP JUMPDEST PUSH1 0x1F NOT DUP5 AND PUSH2 0x19ED DUP8 PUSH2 0x17D0 JUMP JUMPDEST SWAP7 POP PUSH2 0x19F8 DUP7 PUSH2 0x17D0 JUMP JUMPDEST PUSH0 JUMPDEST DUP3 DUP2 LT ISZERO PUSH2 0x1A1F JUMPI DUP5 DUP10 ADD SLOAD DUP3 SSTORE PUSH1 0x1 DUP3 ADD SWAP2 POP PUSH1 0x1 DUP6 ADD SWAP5 POP PUSH1 0x20 DUP2 ADD SWAP1 POP PUSH2 0x19FA JUMP JUMPDEST DUP7 DUP4 LT ISZERO PUSH2 0x1A3C JUMPI DUP5 DUP10 ADD SLOAD PUSH2 0x1A38 PUSH1 0x1F DUP10 AND DUP3 PUSH2 0x1936 JUMP JUMPDEST DUP4 SSTORE POP JUMPDEST PUSH1 0x1 PUSH1 0x2 DUP9 MUL ADD DUP9 SSTORE POP POP POP JUMPDEST POP POP POP POP POP POP JUMPDEST JUMP JUMPDEST PUSH0 PUSH2 0x1A5C DUP3 PUSH2 0x10EB JUMP JUMPDEST SWAP2 POP PUSH32 0xFFFFFFFFFFFFFFFFFFFFFFFFFFFFFFFFFFFFFFFFFFFFFFFFFFFFFFFFFFFFFFFF DUP3 SUB PUSH2 0x1A8E JUMPI PUSH2 0x1A8D PUSH2 0x16D1 JUMP JUMPDEST JUMPDEST PUSH1 0x1 DUP3 ADD SWAP1 POP SWAP2 SWAP1 POP JUMP JUMPDEST PUSH32 0x53657373696F6E206E65656420626520696E20766F7465207374617475732062 PUSH0 DUP3 ADD MSTORE PUSH32 0x65666F7265000000000000000000000000000000000000000000000000000000 PUSH1 0x20 DUP3 ADD MSTORE POP JUMP JUMPDEST PUSH0 PUSH2 0x1AF3 PUSH1 0x25 DUP4 PUSH2 0x162C JUMP JUMPDEST SWAP2 POP PUSH2 0x1AFE DUP3 PUSH2 0x1A99 JUMP JUMPDEST PUSH1 0x40 DUP3 ADD SWAP1 POP SWAP2 SWAP1 POP JUMP JUMPDEST PUSH0 PUSH1 0x20 DUP3 ADD SWAP1 POP DUP2 DUP2 SUB PUSH0 DUP4 ADD MSTORE PUSH2 0x1B20 DUP2 PUSH2 0x1AE7 JUMP JUMPDEST SWAP1 POP SWAP2 SWAP1 POP JUMP JUMPDEST PUSH2 0x1B30 DUP2 PUSH2 0x119C JUMP JUMPDEST DUP3 MSTORE POP POP JUMP JUMPDEST PUSH0 PUSH1 0x40 DUP3 ADD SWAP1 POP PUSH2 0x1B49 PUSH0 DUP4 ADD DUP6 PUSH2 0x1B27 JUMP JUMPDEST PUSH2 0x1B56 PUSH1 0x20 DUP4 ADD DUP5 PUSH2 0x1B27 JUMP JUMPDEST SWAP4 SWAP3 POP POP POP JUMP JUMPDEST PUSH32 0x53657373696F6E206E65656420626520696E2072656769737465722073746174 PUSH0 DUP3 ADD MSTORE PUSH32 0x7573206265666F72650000000000000000000000000000000000000000000000 PUSH1 0x20 DUP3 ADD MSTORE POP JUMP JUMPDEST PUSH0 PUSH2 0x1BB7 PUSH1 0x29 DUP4 PUSH2 0x162C JUMP JUMPDEST SWAP2 POP PUSH2 0x1BC2 DUP3 PUSH2 0x1B5D JUMP JUMPDEST PUSH1 0x40 DUP3 ADD SWAP1 POP SWAP2 SWAP1 POP JUMP JUMPDEST PUSH0 PUSH1 0x20 DUP3 ADD SWAP1 POP DUP2 DUP2 SUB PUSH0 DUP4 ADD MSTORE PUSH2 0x1BE4 DUP2 PUSH2 0x1BAB JUMP JUMPDEST SWAP1 POP SWAP2 SWAP1 POP JUMP JUMPDEST PUSH2 0x1BF4 DUP3 PUSH2 0x11FF JUMP JUMPDEST PUSH8 0xFFFFFFFFFFFFFFFF DUP2 GT ISZERO PUSH2 0x1C0D JUMPI PUSH2 0x1C0C PUSH2 0x17A3 JUMP JUMPDEST JUMPDEST PUSH2 0x1C17 DUP3 SLOAD PUSH2 0x175E JUMP JUMPDEST PUSH2 0x1C22 DUP3 DUP3 DUP6 PUSH2 0x18E4 JUMP JUMPDEST PUSH0 PUSH1 0x20 SWAP1 POP PUSH1 0x1F DUP4 GT PUSH1 0x1 DUP2 EQ PUSH2 0x1C53 JUMPI PUSH0 DUP5 ISZERO PUSH2 0x1C41 JUMPI DUP3 DUP8 ADD MLOAD SWAP1 POP JUMPDEST PUSH2 0x1C4B DUP6 DUP3 PUSH2 0x1952 JUMP JUMPDEST DUP7 SSTORE POP PUSH2 0x1CB2 JUMP JUMPDEST PUSH1 0x1F NOT DUP5 AND PUSH2 0x1C61 DUP7 PUSH2 0x17D0 JUMP JUMPDEST PUSH0 JUMPDEST DUP3 DUP2 LT ISZERO PUSH2 0x1C88 JUMPI DUP5 DUP10 ADD MLOAD DUP3 SSTORE PUSH1 0x1 DUP3 ADD SWAP2 POP PUSH1 0x20 DUP6 ADD SWAP5 POP PUSH1 0x20 DUP2 ADD SWAP1 POP PUSH2 0x1C63 JUMP JUMPDEST DUP7 DUP4 LT ISZERO PUSH2 0x1CA5 JUMPI DUP5 DUP10 ADD MLOAD PUSH2 0x1CA1 PUSH1 0x1F DUP10 AND DUP3 PUSH2 0x1936 JUMP JUMPDEST DUP4 SSTORE POP JUMPDEST PUSH1 0x1 PUSH1 0x2 DUP9 MUL ADD DUP9 SSTORE POP POP POP JUMPDEST POP POP POP POP POP POP JUMP JUMPDEST PUSH0 DUP2 SLOAD PUSH2 0x1CC6 DUP2 PUSH2 0x175E JUMP JUMPDEST PUSH2 0x1CD0 DUP2 DUP7 PUSH2 0x1209 JUMP JUMPDEST SWAP5 POP PUSH1 0x1 DUP3 AND PUSH0 DUP2 EQ PUSH2 0x1CEA JUMPI PUSH1 0x1 DUP2 EQ PUSH2 0x1D00 JUMPI PUSH2 0x1D32 JUMP JUMPDEST PUSH1 0xFF NOT DUP4 AND DUP7 MSTORE DUP2 ISZERO ISZERO PUSH1 0x20 MUL DUP7 ADD SWAP4 POP PUSH2 0x1D32 JUMP JUMPDEST PUSH2 0x1D09 DUP6 PUSH2 0x17D0 JUMP JUMPDEST PUSH0 JUMPDEST DUP4 DUP2 LT ISZERO PUSH2 0x1D2A JUMPI DUP2 SLOAD DUP2 DUP10 ADD MSTORE PUSH1 0x1 DUP3 ADD SWAP2 POP PUSH1 0x20 DUP2 ADD SWAP1 POP PUSH2 0x1D0B JUMP JUMPDEST DUP1 DUP9 ADD SWAP6 POP POP POP JUMPDEST POP POP POP SWAP3 SWAP2 POP POP JUMP JUMPDEST PUSH0 DUP2 PUSH0 SHR SWAP1 POP SWAP2 SWAP1 POP JUMP JUMPDEST PUSH0 DUP2 SWAP1 POP SWAP2 SWAP1 POP JUMP JUMPDEST PUSH0 PUSH2 0x1D61 PUSH2 0x1D5C DUP4 PUSH2 0x1D3B JUMP JUMPDEST PUSH2 0x1D46 JUMP JUMPDEST SWAP1 POP SWAP2 SWAP1 POP JUMP JUMPDEST PUSH0 PUSH1 0x40 DUP4 ADD PUSH0 DUP1 DUP5 ADD DUP6 DUP4 SUB PUSH0 DUP8 ADD MSTORE PUSH2 0x1D82 DUP4 DUP3 PUSH2 0x1CBA JUMP JUMPDEST SWAP3 POP POP PUSH1 0x1 DUP5 ADD SLOAD SWAP1 POP PUSH2 0x1D95 DUP2 PUSH2 0x1D4F JUMP JUMPDEST PUSH2 0x1DA2 PUSH1 0x20 DUP8 ADD DUP3 PUSH2 0x1289 JUMP JUMPDEST POP DUP2 SWAP3 POP POP POP SWAP3 SWAP2 POP POP JUMP JUMPDEST PUSH0 PUSH1 0x20 DUP3 ADD SWAP1 POP DUP2 DUP2 SUB PUSH0 DUP4 ADD MSTORE PUSH2 0x1DC6 DUP2 DUP5 PUSH2 0x1D68 JUMP JUMPDEST SWAP1 POP SWAP3 SWAP2 POP POP JUMP JUMPDEST PUSH32 0x53657373696F6E206E65656420626520696E20636C6F73657265676973746572 PUSH0 DUP3 ADD MSTORE PUSH32 0x20737461747573206265666F7265000000000000000000000000000000000000 PUSH1 0x20 DUP3 ADD MSTORE POP JUMP JUMPDEST PUSH0 PUSH2 0x1E28 PUSH1 0x2E DUP4 PUSH2 0x162C JUMP JUMPDEST SWAP2 POP PUSH2 0x1E33 DUP3 PUSH2 0x1DCE JUMP JUMPDEST PUSH1 0x40 DUP3 ADD SWAP1 POP SWAP2 SWAP1 POP JUMP JUMPDEST PUSH0 PUSH1 0x20 DUP3 ADD SWAP1 POP DUP2 DUP2 SUB PUSH0 DUP4 ADD MSTORE PUSH2 0x1E55 DUP2 PUSH2 0x1E1C JUMP JUMPDEST SWAP1 POP SWAP2 SWAP1 POP JUMP INVALID LOG2 PUSH5 0x6970667358 0x22 SLT KECCAK256 0xE9 0x2F 0xAC SWAP11 SWAP8 PUSH8 0x2D55EB6A4E044D94 LT 0x29 MUL 0xCB DIV 0x23 SIGNEXTEND RETURN 0x2C 0xAE PUSH1 0x7C PC JUMPDEST 0x2F 0xC0 SWAP11 0xFB PUSH5 0x736F6C6343 STOP ADDMOD EQ STOP CALLER "
				},
				"gasEstimates": {
					"creation": {
						"codeDepositCost": "1565200",
						"executionCost": "infinite",
						"totalCost": "infinite"
					},
					"external": {
						"addVoter(address)": "infinite",
						"closeProposition()": "infinite",
						"closeVote()": "infinite",
						"contabiliserVote()": "infinite",
						"getSession()": "infinite",
						"getWinner()": "infinite",
						"openVote()": "infinite",
						"owner()": "2604",
						"proposer(string)": "infinite",
						"renounceOwnership()": "infinite",
						"setVote(uint256)": "infinite",
						"startSession(bool)": "infinite",
						"transferOwnership(address)": "infinite",
						"whitelist(address)": "infinite"
					}
				},
				"methodIdentifiers": {
					"addVoter(address)": "f4ab9adf",
					"closeProposition()": "8626256e",
					"closeVote()": "329d3346",
					"contabiliserVote()": "25a89188",
					"getSession()": "7909e08c",
					"getWinner()": "8e7ea5b2",
					"openVote()": "d107d8c2",
					"owner()": "8da5cb5b",
					"proposer(string)": "ab31e9ae",
					"renounceOwnership()": "715018a6",
					"setVote(uint256)": "230796ae",
					"startSession(bool)": "e3473084",
					"transferOwnership(address)": "f2fde38b",
					"whitelist(address)": "9b19251a"
				}
			},
			"storageLayout": {
				"storage": [
					{
						"astId": 8,
						"contract": "contracts/Voting.sol:Voting",
						"label": "_owner",
						"offset": 0,
						"slot": "0",
						"type": "t_address"
					},
					{
						"astId": 208,
						"contract": "contracts/Voting.sol:Voting",
						"label": "newPorosal",
						"offset": 0,
						"slot": "1",
						"type": "t_struct(Proposal)188_storage"
					},
					{
						"astId": 216,
						"contract": "contracts/Voting.sol:Voting",
						"label": "currentVote",
						"offset": 0,
						"slot": "3",
						"type": "t_struct(Voter)183_storage"
					},
					{
						"astId": 219,
						"contract": "contracts/Voting.sol:Voting",
						"label": "currentSession",
						"offset": 0,
						"slot": "5",
						"type": "t_struct(Session)205_storage"
					},
					{
						"astId": 222,
						"contract": "contracts/Voting.sol:Voting",
						"label": "winner",
						"offset": 0,
						"slot": "7",
						"type": "t_struct(Proposal)188_storage"
					},
					{
						"astId": 227,
						"contract": "contracts/Voting.sol:Voting",
						"label": "whitelist",
						"offset": 0,
						"slot": "9",
						"type": "t_mapping(t_address,t_struct(Voter)183_storage)"
					}
				],
				"types": {
					"t_address": {
						"encoding": "inplace",
						"label": "address",
						"numberOfBytes": "20"
					},
					"t_array(t_struct(Proposal)188_storage)dyn_storage": {
						"base": "t_struct(Proposal)188_storage",
						"encoding": "dynamic_array",
						"label": "struct Voting.Proposal[]",
						"numberOfBytes": "32"
					},
					"t_bool": {
						"encoding": "inplace",
						"label": "bool",
						"numberOfBytes": "1"
					},
					"t_enum(WorkflowStatus)195": {
						"encoding": "inplace",
						"label": "enum Voting.WorkflowStatus",
						"numberOfBytes": "1"
					},
					"t_mapping(t_address,t_struct(Voter)183_storage)": {
						"encoding": "mapping",
						"key": "t_address",
						"label": "mapping(address => struct Voting.Voter)",
						"numberOfBytes": "32",
						"value": "t_struct(Voter)183_storage"
					},
					"t_string_storage": {
						"encoding": "bytes",
						"label": "string",
						"numberOfBytes": "32"
					},
					"t_struct(Proposal)188_storage": {
						"encoding": "inplace",
						"label": "struct Voting.Proposal",
						"members": [
							{
								"astId": 185,
								"contract": "contracts/Voting.sol:Voting",
								"label": "description",
								"offset": 0,
								"slot": "0",
								"type": "t_string_storage"
							},
							{
								"astId": 187,
								"contract": "contracts/Voting.sol:Voting",
								"label": "voteCount",
								"offset": 0,
								"slot": "1",
								"type": "t_uint256"
							}
						],
						"numberOfBytes": "64"
					},
					"t_struct(Session)205_storage": {
						"encoding": "inplace",
						"label": "struct Voting.Session",
						"members": [
							{
								"astId": 198,
								"contract": "contracts/Voting.sol:Voting",
								"label": "status",
								"offset": 0,
								"slot": "0",
								"type": "t_enum(WorkflowStatus)195"
							},
							{
								"astId": 200,
								"contract": "contracts/Voting.sol:Voting",
								"label": "isPublicProposal",
								"offset": 1,
								"slot": "0",
								"type": "t_bool"
							},
							{
								"astId": 204,
								"contract": "contracts/Voting.sol:Voting",
								"label": "lesProposition",
								"offset": 0,
								"slot": "1",
								"type": "t_array(t_struct(Proposal)188_storage)dyn_storage"
							}
						],
						"numberOfBytes": "64"
					},
					"t_struct(Voter)183_storage": {
						"encoding": "inplace",
						"label": "struct Voting.Voter",
						"members": [
							{
								"astId": 178,
								"contract": "contracts/Voting.sol:Voting",
								"label": "isRegistered",
								"offset": 0,
								"slot": "0",
								"type": "t_bool"
							},
							{
								"astId": 180,
								"contract": "contracts/Voting.sol:Voting",
								"label": "hasVoted",
								"offset": 1,
								"slot": "0",
								"type": "t_bool"
							},
							{
								"astId": 182,
								"contract": "contracts/Voting.sol:Voting",
								"label": "votedProposalId",
								"offset": 0,
								"slot": "1",
								"type": "t_uint256"
							}
						],
						"numberOfBytes": "64"
					},
					"t_uint256": {
						"encoding": "inplace",
						"label": "uint256",
						"numberOfBytes": "32"
					}
				}
			},
			"userdoc": {
				"kind": "user",
				"methods": {},
				"version": 1
			}
		}
	}
}